:020000040007F3
:1080000000000120F9820700218307002383070075
:10801000258307002783070029830700000000004D
:1080200000000000000000000000000065C1070023
:108030002D830700000000002F8307003183070015
:10804000338307003383070033830700338307003C
:10805000338307003383070033830700338307002C
:10806000338307003383070033830700338307001C
:10807000338307003383070033830700338307000C
:10808000B59D070033830700338307003383070060
:1080900033830700338307006DC307003383070072
:1080A00033830700338307003383070033830700DC
:1080B0003383070033830700000000000000000046
:1080C00033830700338307003383070033830700BC
:1080D000699A07003383070033830700000000001C
:1080E0000000000000000000000000000000000090
:1080F0000000000000000000000000000000000080
:10810000000000000000000000000000000000006F
:10811000000000000000000000000000000000005F
:10812000000000000000000000000000000000004F
:10813000000000000000000000000000000000003F
:10814000000000000000000000000000000000002F
:10815000000000000000000000000000000000001F
:10816000000000000000000000000000000000000F
:1081700000000000000000000000000000000000FF
:1081800000000000000000000000000000000000EF
:1081900000000000000000000000000000000000DF
:1081A00000000000000000000000000000000000CF
:1081B00000000000000000000000000000000000BF
:1081C00000000000000000000000000000000000AF
:1081D000000000000000000000000000000000009F
:1081E000000000000000000000000000000000008F
:1081F000000000000000000000000000000000007F
:108200000348044B834202D0034B03B11847704725
:108210000C5A00200C5A00200000000005480649B6
:108220000B1AD90F01EBA301491002D0034B03B184
:10823000184770470C5A00200C5A0020000000001C
:1082400010B5064C237843B9FFF7DAFF044B13B19E
:108250000448AFF300800123237010BD205A002092
:1082600000000000C4DE070008B5044B1BB1044940
:108270000448AFF30080BDE80840CFE700000000ED
:10828000245A0020C4DE0700A3F5803A704700BFDF
:10829000154B002B08BF114B9D46FFF7F5FF002142
:1082A0008B460F461148124A121A05F017FA0C4B6A
:1082B000002B00D098470B4B002B00D09847002094
:1082C000002104000D000B4805F0E8F805F016F950
:1082D0002000290001F0B8F905F0E6F800000800D8
:1082E000000000000000000000000120205A0020D3
:1082F0007C800020D1D407000649074A074B9B1A0F
:1083000003DD043BC858D050FBDC00F03DF8FFF71C
:10831000BFFF000028DF070068590020205A002016
:10832000FEE7FEE7FEE7FEE7FEE7FEE7FEE7FEE725
:10833000FEE7FEE74FF08053D3F83001421C04BF44
:108340004FF0704393F8E00F831F58425841704735
:108350004FF0704393F8E02F062A09D1D3F8E83F95
:10836000C3F30313033B042B02D8024AD05C7047CB
:1083700000207047FBD90700024AD2F80034002BD6
:10838000FBD0704700E0014010B5FFF7D3FF40B1CC
:108390004FF08053944AD3F82433C3F30423C2F834
:1083A0004035FFF7D5FF10B1904B914A5A67FFF760
:1083B000C1FF48B14FF080534FF08042D3F84432B0
:1083C000C3F34233C2F83C35FFF7C2FF30B1894AEC
:1083D000D2F8FC3023F08073C2F8FC30FFF7AAFF1C
:1083E00040B14FF080430022C3F80C21C3F81021A4
:1083F000C3F83825FFF7ACFF20B14FF080430322CC
:10840000C3F8A025FFF7A4FF60B17B4B0522C3F89A
:1084100010260122C3F888260022C3F818263F221E
:10842000C3F814264FF08053D3F83021511C09BFF4
:108430004FF07043D3F8343193F8E02FD3F8E83F8E
:1084400008BFC3F30313062A4DD1033B042B03D803
:108450006A4AD35C002B46D04FF08052684BD2F86A
:108460000414C3F82015D2F80814C3F82415D2F860
:108470000C14C3F82815D2F81014C3F82C15D2F830
:108480001414C3F83015D2F81814C3F83415D2F800
:108490001C14C3F84015D2F82014C3F84415D2F8C0
:1084A0002414C3F84815D2F82814C3F84C15D2F890
:1084B0002C14C3F85015D2F83014C3F85415D2F860
:1084C0003414C3F86015D2F83814C3F86415D2F820
:1084D0003C14C3F86815D2F84014C3F86C15D2F8F0
:1084E0004424C3F87025FFF725FF48B14FF08053AF
:1084F0004FF08042D3F8583203F04F03C2F8E43E05
:10850000FFF718FF48B14FF08043D3F80024D2079B
:1085100044BF6FF00102C3F800244FF08053D3F83A
:108520003021062A0ED1D3F83431033B042B02D874
:10853000344AD35C33B1344AD2F83C3743F48063D5
:10854000C2F83C372B4AD2F8883043F47003C2F8A3
:108550008830BFF34F8FBFF36F8F4FF08053D3F846
:108560003021062A0FD1D3F83431033B042B02D833
:10857000264AD35C3BB14FF01023D3F808224FF0CA
:108580008043C3F858254FF01023D3F80022002A67
:1085900003DBD3F80432002B22DA1D4901234FF00C
:1085A0001020C1F804351524FFF7E6FEC0F800429C
:1085B000FFF7E2FEC0F80442FFF7DEFE0023C1F839
:1085C0000435FFF7D9FEBFF34F8F0A49114BCA6834
:1085D00002F4E0621343CB60BFF34F8F00BFFDE7AF
:1085E0000D4B0E4A1A6010BD0030014000C007401C
:1085F0000DF0ADBA00ED00E000500040ECD90700EE
:1086000000C00040F1D9070000100040F6D9070073
:1086100000E001400400FA05685900200090D003F2
:108620004B1C30B5DB00044612F003009BB20DD1A9
:10863000074D2A601A44074B1A60074B1870074B06
:108640001870074B1C80074B198030BD0720FCE7D2
:10865000445A0020405A00203C5A00204C5A002026
:10866000485A00204A5A00202DE9F347DFF8C0801D
:10867000B8F800308B4206460D4617464CD300240E
:108680000DF107008DF8074000F084F8244B254ACF
:1086900025481B78008892F800C084455FFA8CF169
:1086A00038BF4C1CDBB238BFE4B2A3422ED01478E2
:1086B0001178CBB2884286BF0133DBB2002313703E
:1086C0009DF8070000F08AF84FF6FF739C4225D012
:1086D000DFF86090D9F800204FEAC40A42F83470FD
:1086E00002EBC403AEB1A5B1104BB8F800001B6893
:1086F0002A4604FB0030314604F056FFD9F800301A
:10870000534400209D8002B0BDE8F0874FF6FF740F
:10871000D6E700209880F6E70920F4E70420F2E786
:108720004C5A00203C5A00204A5A0020405A00204F
:10873000485A0020445A002070B5104C104D227841
:108740002B789A4200D170BD0E480F4A23781268E8
:1087500006880E4802EBC301006852F8332089886E
:1087600003FB060090470A4922780988D3B2914258
:1087700086BF0133DBB200232370E0E74C5A0020B0
:108780003C5A0020485A0020445A0020405A0020F9
:108790004A5A002070B5EFF3108672B60C4A9468FE
:1087A00001239CB993600B4B0B4DD3F880102940EB
:1087B0001160C3F88050D3F8841051604FF0FF323D
:1087C000C3F88420047006B962B670BD0370FAE77E
:1087D000505A002000E100E0FC06FFBD10B5084B38
:1087E0009A685AB150B9EFF3108172B6054A1C6805
:1087F00014605C685460986001B962B610BD00BF37
:10880000505A002000E100E030B53AB11368DB4374
:108810000A4D0144814204D1D84330BD4FF0FF33AB
:10882000F6E710F8012B5340082213F0010418BF9B
:108830002C46013A84EA5303F7D1EBE72083B8EDE5
:1088400010B561B1B2FBF3F403FB1424A4B244B934
:10885000C0E9001484608281C381204610BD0E20CF
:10886000FCE70920FAE782B050E8022FC188B2EB9A
:10887000324F4FF0000317BF92B241EA014142EA82
:10888000014104E04268B2EB324F08BF012340E8E7
:108890000212002AE8D18DF807309DF80730002B2E
:1088A0000CBF1120002002B0704737B550E8013FDF
:1088B0009DB2C48925448489A54228BF2D1B048903
:1088C000A54202BFBFF32F8F002207E0C5EA0305D0
:1088D00040E80154002CE9D14FF001028DF803204B
:1088E0000193019A0A609DF8031001F0FF0321B182
:1088F000006810FA82F003B030BD1846FBE70A8822
:108900004B889A4209D150E8012FC2EA024240E85E
:108910000123002BF7D1012070470020704737B5A5
:1089200050E8023F1FFAA3F5C488A54202BFBFF377
:108930002F8F00220DE0C48925448489A54228BFD9
:108940002D1BC3EA054540E80254002CE8D14FF046
:1089500001028DF803200193019A0A609DF803102B
:1089600001F0FF0321B1006800EB124003B030BDFD
:108970001846FBE70A884B889A4209D150E8022F33
:10898000C2EA224240E80223002BF7D101207047BF
:108990000020704710B5034653E8000F40EA01027B
:1089A00043E8002494F0000FF6D110BD10B5034643
:1089B00053E8002F02EA010043E8000494F0000F9E
:1089C000F6D110BD0121FFF7E5BF0021FFF7EEBF93
:1089D00010B590B1D0E9012301689B1ADBB20A609F
:1089E000013BDBB2FF2B026802D10020107110BDE9
:1089F00011684C1C14600B70F2E70E20F7E737B5D6
:108A0000044600250DF107008DF80750FFF7C2FE60
:108A10002268616813688B4210D9591E116013F8DF
:108A2000013C228AE56802FB03552268A3681168AD
:108A30005B1A1179DBB2994238BF13719DF80700B8
:108A4000FFF7CCFE284603B030BD37B505460023FE
:108A50000DF107000C468DF80730FFF79BFE2A68E2
:108A60001368591C1160E968641A298AB4FBF1F48F
:108A70001C709DF80700FFF7B1FE03B030BD016028
:108A80000B681146184710B40468E468A4465DF802
:108A9000044B604710B404682469A4465DF8044B95
:108AA0006047000070B550B90E4D0F4C0026641B96
:108AB0001423B4FBF3F4B44208D1002010E003689F
:108AC000002BF1D0BDE87040DB6918472B6813B963
:108AD00001361435EFE7DB69284698470028F7D0C0
:108AE00070BD00BF0C5A0020205A0020014B43608B
:108AF0000020704700DA07000846704700207047E2
:108B0000024B1868003818BF012070475C5A0020DB
:108B100008B50248FFF759FF002008BD5C5A002045
:108B200008B510461A4604F03FFD002008BD0000BD
:108B30002DE9F041804686B011480F4616461D4685
:108B4000FFF740FF0446C8B9AA083146384600F08E
:108B50000FFC0B48FFF739FFD8F8083053B101225A
:108B60008DF800200C9A0592CDE90147CDE9036507
:108B700068469847204606B0BDE8F0811124F9E721
:108B80005C5A00202DE9F043814687B014480E4618
:108B900015469846FFF716FF0446F0B90746BD4252
:108BA00015D10F48FFF711FFD9F808305BB1022249
:108BB0008DF800200022CDE90126CDE90325CDF86E
:108BC000148068469847204607B0BDE8F08306EB5E
:108BD000073000F09FFB0137E1E71124F3E700BF06
:108BE0005C5A002029DF704728DF704770B506689F
:108BF000B36886B004460D4673B11422002168465E
:108C000004F06CFDA36805932379019533B1012B22
:108C10000ED0B3686846984706B070BD01238DF842
:108C2000003023690293E368039363690493F0E7D8
:108C300002238DF80030E3681B030293F5E7084632
:108C40007047002070470000024B187A003818BFA8
:108C5000012070474C5C0020034B187A0122B0FAC7
:108C600080F05A74400970474C5C002008B51046EB
:108C70001A4604F099FC002008BD000008B5142233
:108C80000021044804F02AFD0348FFF7ECFD002012
:108C900008BD00BF4C5C00203C5C002010B5094CB6
:108CA000094B43602046FFF78DFE48B903F044FBB3
:108CB000064920741C2306484FF4EE72FFF7C0FDEE
:108CC000002010BD4C5C00202CDA0700605A002008
:108CD0003C5C002038B5224D224C2B7A3BB922490E
:108CE0002248FFF71CFE206008B9686038BD0223E7
:108CF00024682B72237973B1012B22D020460321E3
:108D0000FFF774FF00232B726B6017491748BDE80B
:108D10003840FFF72FBED4E90523D21A142AD4E92C
:108D2000031028BF14229208012A38BF01221944D7
:108D30001844FFF757FF50B11128DFD101232B72E0
:108D4000D4E7D4E903031844FFF74EFFF3E72B7C85
:108D5000002BCBD1BDE83840022000F009B800BF9D
:108D60004C5C0020645C0020605C00203C5C0020C7
:108D700038B5224C237A002B3FD0022B09D103288F
:108D80002ED01F4B00221B68E2601A793AB1012AEB
:108D900020D0637C6BBBBDE83840FFF79BBFD3E9B5
:108DA00005128D1A142D94BF521914329A619142F2
:108DB000EFD102284FF0000308BF19462372104B71
:108DC00018BF0D211868FFF711FF0E490E48FFF775
:108DD000D1FDDEE71A6901321A615B699A42E7E761
:108DE000E3680133082B01D8E360D2E70023E36096
:108DF000DFE7BDE8384003F08FBA38BD4C5C002097
:108E0000645C0020605C00203C5C0020831E012B21
:108E100001D8FFF7ADBF704700F0FD03012B08D16B
:108E2000044B00225A74421E504250411874FFF7FE
:108E300051BF70474C5C002010B5064C201DFFF759
:108E4000C1FD28B9637C1BB9BDE81040FFF742BFE4
:108E500010BD00BF4C5C00202DE9F34180460D465B
:108E60000F4801A916461F46FFF71FFD0446A8B18B
:108E70001C22002104F032FC2D0B0123237101A9D7
:108E80000748C4F80080A760E5606661FFF737FD1A
:108E9000FFF7D2FF002002B0BDE8F0810420FAE71E
:108EA0003C5C00202DE9F74381468846104801A923
:108EB00017461E46FFF7F9FC0446B0B11C220021FC
:108EC00004F00CFC00250A9BA36001A9C4E9037807
:108ED00007482571C4F800906661FFF710FDFFF7A1
:108EE000ABFF284603B0BDE8F0830420FAE700BFDB
:108EF0003C5C002001600B6843604A68934204BFF9
:108F0000002343607047436843B1026891680B4493
:108F100043605268934204BF0023436070470000DF
:108F20002DE9F04FC9B008AA01F1400514464B786D
:108F30000E781B0443EA0663CE7833438E780431FF
:108F400043EA06238D4244F8043BF0D11024916B90
:108F500016464FEAF14383EA714383EA9123716A2B
:108F6000366852F8045F31440B444FEAB54181EA58
:108F7000F51181EAD50101340B44402CD363E6D1CD
:108F8000D0E914E30093836D0193C36D0293036EE4
:108F90000393436E0493836E0593C36E0693DDE9DA
:108FA000057BDDE9031CDDE901592B4B009E07938E
:108FB00074464FF00008079B53F8042B07934FEAC1
:108FC000F12383EAB11383EA716A08AB53F82830BE
:108FD0001A440AEB020327EA010A01EA0C028AEAB0
:108FE00002021A444FEA743A86EA05035A442340BF
:108FF0008AEAB40A06EA050B83EA0B0B8AEAB45A3A
:1090000008F10108DA44B8F1400F02EB0903BB464E
:109010005244A94619D172440265009A224442651D
:10902000019A32448265029A2A44C265039A1A441C
:10903000049B02660B444366059B63448366069B60
:109040003B44C36649B0BDE8F08F674635468C4661
:10905000264619461446AEE758DA070030B5E0B1A7
:109060000F4A104900240025C0E91245C0E9141236
:109070000D4C0E4A0E4DC0E916420E4AC0E9185278
:109080000D4A826602F17452A2F523020023A2F671
:1090900092420364C266184630BD0E20FCE700BF52
:1090A00085AE67BB67E6096A72F36E3C3AF54FA579
:1090B0007F520E518C68059BABD9831F70B5F0B100
:1090C000DAB900201CE00C468D180026AC42F8D01E
:1090D000036C14F8012BC2540133402B0364F5D107
:1090E0000146FFF71DFFD0E9123213F5007342F17C
:1090F0000002C0E912320664E8E70029E3D10E203D
:1091000070BD70B50D461646044600287AD0002979
:1091100078D0036C8021372BC15403F1010243D86E
:10912000034400F13802002101339A423AD1D4E9D4
:109130001223216C0820E1FB0023C4E9122312BA98
:10914000E26323FA00F284F83B3084F83A201A0CE8
:109150001B0E214684F8392084F838302046FFF76A
:10916000DFFE691E7EB30023E26EDA4001F8012FB4
:10917000A26EDA400A71626EDA400A72226EDA403A
:109180000A73E26DDA400A74A26DDA400A75626D04
:10919000DA400A76226DDA400833202B0A77E3D1D1
:1091A000002070BD1970BFE700233F2A08D921466F
:1091B0002046FFF7B5FE3822002104F08FFAB6E70B
:1091C000A3540132F1E71823226DDA4001F8012F90
:1091D000626DDA400A71A26DDA400A72E26DDA401D
:1091E0000A73226EDA400A74626EDA400A75A26E61
:1091F000DA400A76E26EDA40083B13F1080F0A778C
:10920000E2D1CDE70E20CCE743689B68184708B54C
:10921000436808305A7900F0C8F9002008BD2DE9EC
:10922000F0410C469CB008461F460392FFF7ECFF46
:10923000D4F80480039998F80550BD4228BF3D46F4
:1092400006462A4604A800F0A5F998F805202299B8
:109250000CA800F0AAF900960CAB2A4604A904F168
:10926000080003F0C3FF002848F2425018BF002056
:109270001CB0BDE8F0810000044B1A5C0123934050
:109280004FF0A042C2F80C35704700BF64DB070006
:10929000044B1A5C012393404FF0A042C2F80835FA
:1092A000704700BF64DB070008B50020FFF7F0FF40
:1092B0000120FFF7EDFF0220FFF7EAFFBDE80840BD
:1092C0000320FFF7E5BFC20708B501460CD54FF0F4
:1092D000A0430322C3F84427C3F84827C3F84C2708
:1092E000C3F85027FFF7E0FF8B070AD54FF0A043E4
:1092F0000C22C3F83427C3F83827C3F83C27C3F837
:10930000402708BD024AD2F80034002BFBD070473A
:1093100000E001400A4908B50223C1F80435BFF353
:109320006F8FBFF34F8FC1F80805FFF7EBFF0023E6
:10933000C1F80435BFF36F8FBFF34F8F08BD00BF77
:1093400000E0014010B5094C0123C4F80435BFF317
:109350006F8FBFF34F8F0160FFF7D4FF0023C4F876
:109360000435BFF36F8FBFF34F8F10BD00E0014096
:1093700070B50E4E01231546C6F80435BFF36F8F46
:10938000BFF34F8F0024AC4207D10023C6F8043549
:10939000BFF36F8FBFF34F8F70BD51F8243040F88B
:1093A0002430FFF7AFFF0134EDE700BF00E00140DC
:1093B00028B139B10023C1E900301846704748F29E
:1093C0001050704748F21350704730B1036848F2AC
:1093D00040508B4208BF0020704748F21050704741
:1093E00028B148F21150914208BF0020704748F25E
:1093F0001050704770B506460C461D46FFF7D8FF63
:1094000050B9B3794AB1AB420AD111462046FFF7B1
:10941000FEFE08B9044B236070BD48F21050FBE714
:1094200048F21150F8E700BF7052464D2DE9F04761
:109430000C4606460F492046DDE9088915461F46B9
:10944000FFF7C3FFA0B963685A7949465200404606
:10945000FFF7C6FF60B94DB1CDF820803B462A46E4
:1094600021463046BDE8F047FFF7D9BE48F210501C
:10947000BDE8F0877052464D10B5044638B149B189
:1094800041600B68984708B9044B236010BD48F24F
:109490000150FBE748F21050F8E700BF6E52464813
:1094A000F0B4134648B10768094EB7420AD161B11A
:1094B0002AB14368F0BC5B68184748F2015318466C
:1094C000F0BC704748F20253F9E748F21053F6E750
:1094D0006E524648F0B460B107680C4EB7420CD1EA
:1094E00071B143681568DC68A5420CD3F0BC9B6879
:1094F000184748F20150F0BC704748F20250FAE7B2
:1095000048F21350F7E748F21450F4E76E52464819
:10951000F7B50446DDE9086715460193FFF7ACFF90
:1095200068B9019A29462046FFF7BAFF38B93A468A
:109530003146204603B0BDE8F040FFF7CBBF03B093
:10954000F0BD0000F8B50A4F0A4C0B4EE41B012396
:10955000E40833700025A54203D1022333700020B4
:10956000F8BD57F8353098470028F9D10135F2E7B2
:10957000C8DE0700C8DE0700685C0020013901442E
:10958000814200D2704703780A7800F8012B01F875
:109590000139F5E7013A02440139824200D27047AD
:1095A00011F8013F02F80139F7E770B516460D468C
:1095B000FFF7F0FF3246A9193044BDE87040FFF7CD
:1095C000E9BF38B50D460446FFF7D8FF29466019B4
:1095D000BDE83840FFF7D2BFBFF34F8F0549064BB8
:1095E000CA6802F4E0621343CB60BFF34F8F00BF41
:1095F000FDE700BF00ED00E00400FA0508B507280C
:109600001BD8DFE800F004121A1A1A041A04012009
:10961000FFF759FE0020FFF72FFE0120FFF72CFE79
:10962000BDE808400220FFF733BE0120FFF730FEFF
:10963000BDE808400220FFF71FBE08BD08B5FFF7D0
:10964000CBFF08B5FFF7C8FF08B500F07DFB4FF46E
:109650008051002000F03FF908B1FFF7BDFF054839
:10966000C0F5FC2100F037F90028F6D1024800F0DF
:1096700059F8F2E700800700FD950700008800F028
:109680000100704741DF7047014B01221A7070479B
:109690008C600020BFF34F8F0549064BCA6802F467
:1096A000E0621343CB60BFF34F8F00BFFDE700BF05
:1096B00000ED00E00400FA05024B034800221A7096
:1096C00001F08ABF8C60002095960700042810B531
:1096D000044609D8022811D816D00D4B1B68B3B127
:1096E0002046BDE810401847831F012BF5D8094BD1
:1096F000094800221A7001F06FFFEEE707494FF4A6
:10970000701000F0F5F9E8E701F0B2FEE5E710BDF2
:10971000906000208C60002095960700B9960700A5
:109720000020704738B5554B554A18604FF0A0439C
:109730000020C3F8402701F065FF0446002840F0F0
:10974000978000F0ABFA012800F08D80022800F02D
:109750009180002840F08C804FF08043D3F8004483
:1097600014F4803436D04FF48032C3F80024044619
:10977000444D2B6A012B3BD04FF4701400F028FBB2
:10978000414A20211820FEF74BFF08B1FFF759FF8F
:109790004FF08043D3F81C2502F0F902B12A02BF32
:1097A000D3F81C2502F04E02C3F81C25FFF7B8FFC2
:1097B00000285DD12046354900F09AF9344801F07F
:1097C00019F8002854D100F029FBFEF7B5FFFFF788
:1097D00059FFF8E7D3F8202502F0F902A92A03BFC0
:1097E000D3F8202502F05602C3F820250124BFE754
:1097F0004FF440535A68274B9A4209D001F0B2FF08
:10980000AA69014694B1244802F080FA90B9B3E7FE
:109810006A6B1CB995F86032012BEFD01F484FF4EA
:10982000805102F073FA0028E8D1A5E795F8A1323B
:10983000012BE8D14FF0A043D3F81035DB039BD5C3
:109840004FF08043D3F81C3503F0F903B12B93D0CC
:1098500001F034FF60B9124B1870124801F0BCFEE1
:1098600000F024F804E00E4B0F481C7001F0B4FE29
:10987000032038BD4FF4A02480E700BF9060002093
:109880000C0003005C7800206C5C0020B996070097
:10989000CD960700DBE5B151FD7A0020BC7A0020AF
:1098A0008C600020899607009596070008B5074B45
:1098B0004FF0FF32C3F88020C3F8802101F0F6FB9F
:1098C000BDE808404FF4805000F032B800E100E0FD
:1098D00080F30888084770B5C1F30B0434BBB0F5BA
:1098E000FE2F23D84B1E1B0B020B03EB103101265E
:1098F0004FF08040914201D2204670BD02F01F031C
:10990000550906FA03F3032D05D8DFE805F0020632
:10991000090CC0F800360132ECE7C0F80436FAE76B
:10992000C0F81036F7E7C0F81436F4E70724E3E789
:1099300010B504461448C0F5FE21FFF7CCFF08B16E
:10994000FFF77FFE01F00EFF104B9B6903F6FF73DC
:1099500023F47F6323F00F0319180020FFF7BBFFE8
:1099600008B1FFF76EFEEFF305830023D4E9000191
:1099700083F3148883F3108883F3118883F31388A7
:10998000BDE81040FFF7A4BF008007005C7800200E
:109990001FB518490B7853BB4FF08043A024D3F870
:1099A0001824D2035CBF01229A60134B0022C3F833
:1099B0000021D3F8000103900398C3F84021D3F8A5
:1099C000400102900298C3F84421D3F84401019069
:1099D00001980A4880F82443102444600220C3F808
:1099E000082501229A601A60C3F804030A7004B0C3
:1099F00010BD00BF986000200040024000E100E080
:109A000037B56FF07F42154C057BD4F804358A4298
:109A100028BF0A46891A13444A1E942A23F07F431A
:109A200005F5A8729BBF963B96314160416044F8B2
:109A300022300B4B4FF4F86043F001039847094B79
:109A4000AA00134400221A601B680193019B4FF483
:109A50008033AB40C4F8043303B030BD0040024053
:109A6000B0DB0700404102402DE9F3411B4BD3F826
:109A7000042152B11A490A6801320A600022C3F86F
:109A80000421D3F804310093009B164C164DDFF8E7
:109A90004C80164E00272B6873B12F602B68227BF9
:109AA0000193019B4FF480339340C8F808336168F9
:109AB00051B12046FFF7A4FF0435B54204F110046C
:109AC000E9D102B0BDE8F081A16811B12046FFF7ED
:109AD00097FF2368002BEFD09847EDE70040024046
:109AE000946000206C5900204041024048410240EF
:109AF00070B50B4B1D682A7B4FF480339340094AA5
:109B00000E46C2F80833044640B1FFF741FF2E600D
:109B100021462846BDE87040FFF772BF70BD00BF08
:109B20008C5900200040024070B5074B1D680E465E
:109B3000A8600446FFF72CFF2E6021462846BDE8AA
:109B40007040FFF75DBF00BF90590020014B01221C
:109B50001A707047996000202DE9F74F0646884635
:109B6000A8EB06052D0B02F6FF77144600F030F93E
:109B7000082D28BF08252B03DFF868B001933F0BA1
:109B80000CB9234629E0BD422CBFBA46AA464FF085
:109B900000025146304634BFDDF80490A14601F082
:109BA0004FFA0346C8B909F1030222F00302414605
:109BB000304601F037FA034678B9DBF830304B44D1
:109BC000CBF8303001F00EFDA7EB0A07A4EB090437
:109BD0004E44C84403460028D2D0184603B0BDE81E
:109BE000F08F00BF5C78002010B501F0DFFD124A55
:109BF000916C01F500535C68104B9C4218D1D2E97E
:109C00000C32934216D0884204D1BDE810400020A7
:109C100001F0E8BCD21A02F6FF7222F47F6222F051
:109C20000F0219441844FFF797FF0028EDD010BD2C
:109C30000320FCE70020FAE75C780020DBE5B15167
:109C400070B5144EF36A756AB46CAC2B13D1736B98
:109C50001C44ED1AF36AAC2B13D00F482A46214658
:109C600003F070FCA8B100F0D9F829462046BDE801
:109C7000704001F0FDB9002CECD101F087FD0446E5
:109C8000E8E705482A46A4F5804103F05BFC00287C
:109C9000E3D170BD5C7800200080070070B5264CD1
:109CA000E36AAA2B37D005D8012B0BD0A52B2ED0D9
:109CB000002070BDAC2BFBD1FFF796FF48BBFFF730
:109CC000BFFF26E0A66C656A01F04CFD864229D1F3
:109CD00001F048FD00222946FEF796FDA36A98424E
:109CE00002BF0123C4E90703A5610025134801F061
:109CF0002DFD134B134800221A7001F073FC68B954
:109D000075B1236A012B14BF01200220D1E7FFF7B0
:109D10006BFF0125EAE7FFF793FFE6E70320C8E7BB
:109D20000120C6E7236BEA1AF1181844FFF714FF65
:109D30000028DAD1CCE700BF5C78002080780020D2
:109D4000996000204D9B070010B50024D4F8F83F1F
:109D5000013304D1084940F6F870FFF7F3FAD4F85C
:109D6000FC3F013307D1BDE810404FF4FC2140F621
:109D7000FC70FFF7E7BA10BD008007000A4AD2F86E
:109D800000347BB109480023D2F80815D940C9072F
:109D900048BF03F5C07103F1010348BF42F8210039
:109DA000072BF1D1704700BF000001403546526ECD
:109DB000FFF7E4BF054B002282B0C3F80021D3F8BF
:109DC00000310193019B02B0704700BF00000140C9
:109DD00038B50E4D2B78BBB90D4BD3F800248AB1A2
:109DE000D3F80445FFF7CAFF40F61650A042B8BFAB
:109DF00020460849A0F54860FFF796FE064B4FF451
:109E000080321A6001232B7038BD00BF9A60002099
:109E100000000140B19D070000E100E0034BD3F8D2
:109E200000340BB1FFF7AABF704700BF000001402C
:109E30000023C0E90232C0E900118B881A44026194
:109E4000B1F906301A4442610888003818BF012071
:109E5000704710B5426811880346002939D002F1D5
:109E600010014160148A2CB9C2680168FFF7E0FF55
:109E7000204610BD9078118900F03004302C1BD1A1
:109E8000947C04F03004302C1DD190881969091A93
:109E900019610021907810F0300F02BF98680130EE
:109EA0009860908A0844196901441961B2F9162032
:109EB000114459610120DCE700F0F004202C02D1AC
:109EC00050894143E6E700F0C000802808BF042124
:109ED000E0E70846CDE770B5466804460D4663687E
:109EE0001A88AA4204D19B7803F00F03082B07D1EC
:109EF0002046FFF7AEFF6368B342F0D1002070BD8B
:109F00000120FCE743681A44426011B101399A42CA
:109F100001D10120704713F8010B01F8010FF6E79A
:109F200070B54268927802F00F01082986B00346A6
:109F30001FD103691C6800260CB906B070BD2368E8
:109F400026739D68626829466846FFF771FF63685B
:109F5000049304F10C030593AB7803F0C003802B4A
:109F600008BF231D684608BF0493FFF7D9FFA46804
:109F7000E2E712F0C00126D102F03000102810D123
:109F80005A6911705A6818699378D46803F00F03FE
:109F9000072B0BD10146204606B0BDE8704000F00B
:109FA0001AB89006EED55B691980C6E7128921467A
:109FB00024B106B0BDE8704003F0F6BA06B0BDE8C3
:109FC000704003F08BBB8029B7D100690021920655
:109FD0000160B2D5E7E77FB50A4601466846FFF75C
:109FE00027FF30B16846FFF79BFF6846FFF731FF58
:109FF000F7E707B05DF804FB10B5836804460BB9BA
:10A00000002010BD0368012298470028F8D0A368FB
:10A01000013BA360F5E72DE9F3410F460DF1070180
:10A020008046FFF7E9FF054620B90025284602B023
:10A03000BDE8F0819DF907309DF80740002B13DA49
:10A0400004F07F0407260DF107014046FFF7D4FF17
:10A050000028EAD09DF8072002F07F03B3401C439C
:10A06000130606F1070601D43C60DFE7232EEAD190
:10A07000DBE7000030B5044685B01546A9B9026893
:10A08000114B9A4211D0102D06D82A466946204617
:10A09000FFF7F0FF05B030BD102269462046FFF7FC
:10A0A000E9FF0028F6D0103DEDE7A368AB4201D2EE
:10A0B0000020EFE723682A46204698470028F7D07B
:10A0C000A268521BA260E5E7059F0700F7B50E46A0
:10A0D00001A907461546FFF79EFFA0B1019A511C42
:10A0E0004FF0000404D2B37803F0C003802B01D1F9
:10A0F000204608E033898B42FAD329463846FFF7D9
:10A10000B9FF019BEC5403B0F0BD73B50D4601A936
:10A1100006461446FFF77FFF98B1019AB2F5803FDB
:10A1200011D2AB7803F0C003802B02F102010AD0F8
:10A130002B898B4207D32146304621F8022BFFF7AB
:10A1400099FF02B070BD0020FBE7000010B5034C82
:10A1500082600022C0E90041C26010BD059F070077
:10A160002DE9F341002580460E462F462C460DF181
:10A1700007014046FFF740FFC0B19DF807C0A4F1BA
:10A1800020030CF07F02C4F1200102FA03F322FA4B
:10A1900001F10B43A2401CF0800F45EA020547EA9B
:10A1A000030704F1070404D1C6E9005702B0BDE873
:10A1B000F081462CDBD10020F8E737B50D46694623
:10A1C0001446FFF7CDFF70B12B89082B0DD1DDE9C7
:10A1D0000032C4E90032DDE90001914208BF984233
:10A1E0000CBF0120002003B030BD042B03D1009B25
:10A1F00023600022EFE7022B03D1009B23809BB258
:10A20000F7E7012B04D1009B237003F0FF03F0E775
:10A210000020E8E737B50D4669461446FFF7A0FF72
:10A2200030B12B89082BDDE9001203D1C4E90012FB
:10A2300003B030BD042B4FEAE17009D121600B4619
:10A240000246824208BF8B420CBF01200020EFE78C
:10A25000022B03D10BB22380DA17F2E7012B02D1D4
:10A260004BB22370F8E70020E2E7F7B51F46002362
:10A270003B700D460B70136001A904461646FFF7AC
:10A28000CAFE30B9A36813B901233B70002003B0A4
:10A29000F0BD019C002CF7D0E30804F00704336004
:10A2A0002C70F4E713B50446052925D8DFE801F042
:10A2B000030F17242422012201A92046FFF7DAFE0A
:10A2C00018B19DF90430002BF5DB02B010BD082257
:10A2D0000021204602B0BDE81040FFF7CBBE01A927
:10A2E000FFF799FE0028F0D0019A00212046FFF7E1
:10A2F000C1FEEAE70422EBE70020E6E773B50D466E
:10A3000001A90446FFF787FE064618B90026304625
:10A3100002B070BD94E80F0085E80F0001998A42F1
:10A32000F4D3A960A3685B1AA360F0E72DE9F043BA
:10A330005768BB7813F0C00489B006468C461546B2
:10A3400003D0402C6CD000240CE003F00F026149D4
:10A3500003F03003202B51F8228028D006D8CBB14F
:10A36000102B1ED0204609B0BDE8F083302BF9D168
:10A370006B6939881980072A0AD16B6828691A899C
:10A38000214603F0ABF96B682969D868FFF723FE13
:10A390002A6942E02A693946434609B0BDE8F043DC
:10A3A00018476B6901221A702A696968F4E7BCF1E1
:10A3B000020FD5F8149024D1042A22D804A9FFF75B
:10A3C0009DFF04460028BED0069B2BB16968B9F8F2
:10A3D00000304A899A4205D8059B7360069B002B82
:10A3E000C0D0B0E708892A6903FB002204A8C0474F
:10A3F00028B1B9F800300133A9F80030E4E7044689
:10A40000EAE7B9F800307A899A429CD92A693989F1
:10A41000581CA9F8000003FB012269683046BBE71D
:10A42000D2F81080474657F8043B23B909B0BDE87D
:10A43000F043FFF737BF022914D104A9FFF75EFFED
:10A44000002880D0D8F8003069683A4604A89847B8
:10A45000044600283FF477AF069B002BF2D1059B02
:10A4600073607FE7012926D005292CD000297FF4CD
:10A470006AAF0C460DF1040901340B2C3FF463AFB5
:10A48000012249463046FFF7F5FD00283FF45BAF57
:10A4900019F9013B002BEFDB0F4B049301ABCDE926
:10A4A000053400230793D8F8003069683A4604A8B9
:10A4B0009847044656E7082201A9FFF7DBFD082468
:10A4C0000028E9D13FE704220DEB0201FFF7D2FD9E
:10A4D0000424F5E7B8DB0700059F07002DE9F04FDE
:10A4E00091B00446002604A8CDE90266FFF7A0FC5F
:10A4F000A3683BBBDDE9053404A89D78FFF7A9FC00
:10A500000028F7D115F0300F03D1059B1B8803B14C
:10A510000134002C00F0A980630902A900229342B3
:10A5200040F09C8010AA02EB830304F01F0453F850
:10A53000383CC4F120044FF0FF30E040C31A5842C9
:10A5400058410DE00DF1030301AA0DF1020120466F
:10A55000FFF78BFE38B99DF80330002BCAD10020DD
:10A5600011B0BDE8F08F019904A8FFF7B4FC0028F2
:10A5700050D1019BB3427DD3059D059A937803F09A
:10A580000F03082B7FD004A8FFF763FC059B9D42B7
:10A59000F3D14FF0FF36019FB7426BD3089B9DF874
:10A5A00002A0D4F808801D684FF00109A368002DAF
:10A5B0005DD098459CD12B68D3F800B0BBF1000F5B
:10A5C00008D053463A4629462046D8470028C6D0E8
:10A5D000AD68EBE7D3F808B0BBF800309F42F7D185
:10A5E0006A6859460AA8FFF723FC6B680E9305F1C9
:10A5F0000C030F939BF8023003F0C003802B04BFC1
:10A600002B1D0E930AAA85F80C9051462046FFF7A1
:10A610008DFEDBE7059B9B7813F0300F0FD1069A78
:10A620003F2A0CD8510910AB03EB810102F01F0245
:10A630000123934051F8382C134341F8383CE56826
:10A640002DB19DF80220019904AB2046A8479DF842
:10A65000021004AA2046FFF769FE10E051F8045BDF
:10A6600001357FF47DAF013259E7012078E7984545
:10A670007FF43EAF9DF802102046FFF713FE00283E
:10A680007FF436AF6BE7168885E737B50C4605468D
:10A69000114620460192FFF79EFC019A214628466A
:10A6A00003B0BDE83040FFF719BF70B586B0CE6883
:10A6B00001920C4602A90546FFF720FE68B1E0684A
:10A6C00058B1A378019A03F03003202B314602A839
:10A6D00005D1FFF7DAFF039B6B6006B070BDFFF793
:10A6E000FDFEF8E713B50C466946FFF739FD60B18A
:10A6F000DDE900134A0842EAC372C9074FEA53036F
:10A7000044BFD243DB43C4E9002302B010BD37B5D8
:10A710000D4669461446FFF7E5FF70B12B89082BFB
:10A720000DD1DDE90032C4E90032DDE900019142DA
:10A7300008BF98420CBF0120002003B030BD042B9D
:10A7400003D1009B2360DA17EFE7022B03D1BDF999
:10A7500000302380F7E7012B03D19DF900302370EF
:10A76000F1E70020E9E713B504220C460DEB0201E6
:10A77000FFF780FC08B1019B236002B010BD1146B9
:10A78000FFF7F1BF13B508220C466946FFF772FCCC
:10A7900018B1DDE90023C4E9002302B010BD114661
:10A7A000FFF7F0BF10B513681F2B144607D900221E
:10A7B0000830FEF7A6FC08B92023236010BD48F23C
:10A7C0001450FBE70830FEF779BC0830FEF746BCB2
:10A7D000831F012B10B5044602D8002000F09EFF15
:10A7E000034B1B681BB12046BDE81040184710BD45
:10A7F0009C60002008B5074B18600020FFF7E8FFB9
:10A80000054800F073FF20B9BDE80840024800F099
:10A81000E3BD08BD9C600020D1A707006CDF704736
:10A820006DDF704772DF704773DF704774DF70470A
:10A8300075DF704776DF70477ADF70477CDF7047DF
:10A840007DDF70477FDF704786DF70478FDF70479F
:10A8500090DF7047A8DF7047AADF7047ADDF704711
:10A86000AEDF7047B0DF7047B1DF7047B5DF7047CC
:10A8700062DF704766DF704713DF704701460148AB
:10A88000FEF7E3B8DCDE070070B518228CB00021BB
:10A890000DEB020002F022FF2823089316231E4C22
:10A8A000ADF806300023CDE90333059302230622D9
:10A8B00023702371592301250926A2706371032295
:10A8C000FE236570E270A3710DF10601A0198DF8E9
:10A8D00018508DF82D500294ADF80C60FFF7B0FFC2
:10A8E000B8B9BDF8063026725A19E271BDF80C20CD
:10A8F0000A4C134402A906AA2046ADF80C30FFF713
:10A9000091FF30B92078FFF791FF20782946FFF7B3
:10A910008BFF0CB070BD00BF1E7100209459002049
:10A9200038B515490B68024613F0010022D01348D0
:10A9300082421ED0124A10884FF6FF72904213D006
:10A9400043F004030B601321FFF774FF90B90D4D22
:10A95000C82445F001054FF47A40A847013CFAD1DC
:10A96000BDE8384001F0A8BC074B1878FFF75EFF40
:10A97000F6E7002038BD00BF40710020C8DE0700A8
:10A9800096590020C0DD070094590020F0B50388D7
:10A99000232B8BB0044635D80F2B04D8012B00F0A5
:10A9A000F9800BB0F0BD103B132BFAD801A252F87E
:10A9B00023F000BF35AA070053AA0700A3A9070088
:10A9C00035AB070079AC0700A3A90700A3A90700CE
:10A9D000A3A90700A3A90700A3A9070087AC070044
:10A9E000A3A90700A3A90700A3A90700A3A907001B
:10A9F0005FAB0700A3A907006DAB0700A3A9070081
:10AA00001BAB0700503B9AB2062ACAD8062BC8D8FF
:10AA100001A252F823F000BF7FAA0700A1AB0700F4
:10AA200087AC0700A3A90700A3A90700D7AA0700BE
:10AA300081AB0700974D83882B80974B1B680BB128
:10AA400001209847954928880BB0BDE8F040FFF7F2
:10AA5000EFBE904B4FF6FF721A80914B1B685A075E
:10AA600004D4FFF711FF08B1FEF7EBFD8A4B1B681A
:10AA7000002B96D002200BB0BDE8F0401847894E5D
:10AA8000E288B3889A428CD18748FDF7B8FF054623
:10AA9000002886D0228A04F1120102F085FD1822D6
:10AAA000002104A802F01AFE08238DF810307F4B15
:10AAB00006937F4B0596CDE9073504A8238AADF8A8
:10AAC000243000F07FFC00283FF46BAF7648294625
:10AAD000FDF7BBFF65E7E188F6291CD8CB1E9B0775
:10AAE0000DD0CB1F9BB2013B5A4202F0030203F090
:10AAF000030301F1FF3158BF5342C91A89B2654BB4
:10AB00001888FFF7B3FE00283FF44BAF0BB0BDE849
:10AB1000F040FEF796BDF721F1E70022808804A9F6
:10AB2000CDE90422FFF794FE00283FF43AAFFEF788
:10AB300088FD36E7574C02230493208802AB04AA11
:10AB400042F605210593FFF789FE08B1FEF779FD6E
:10AB5000002320881A468521FFF774FEE4E74D4B59
:10AB600000F108011888FFF763FECCE7002304A971
:10AB700080888DF810308DF81130FFF767FED3E72D
:10AB8000A379002B7FF40DAF424B13211888FFF7F8
:10AB900051FEB8E73F4B00211888FFF76BFEB2E784
:10ABA000A379002B3FF4FDAE022B7FF4FAAE3D4DAE
:10ABB0002189AA8991427FF4F4AEA27B012A7FF415
:10ABC000F0AE4FF480320592228A324EADF8182052
:10ABD000628AADF81A2004F11402079201AF298AA3
:10ABE0003088049302AA02930397FFF737FE60B9F7
:10ABF0003846FEF743FD40B940F2FD133088ADF80A
:10AC0000143004A9FFF72EFECBE6002304A93088F8
:10AC1000ADF81430FFF726FE014600287FF4C1AEE0
:10AC2000182204A802F05AFD237D204A8DF8103026
:10AC3000022B0595069218D0062B10D0012B10D1AF
:10AC40001C4B1A881C4B1A80637DD4F8162008937D
:10AC5000012B099205D1194800F060FD01E0637DE8
:10AC6000089304A800F0AEFB9BE6124AB4F8153036
:10AC70001380114A1380F4E700231A46194680888E
:10AC8000FFF7E2FD3FE70023A0881A461946FFF7C9
:10AC9000EBFD38E79659002044710020C6DD07001F
:10ACA000407100200A710020DCDE070001AD0700C2
:10ACB0007DA80700487100204A710020C8DE070007
:10ACC0007FB50023CDF80B308DF80F300A4BADF86F
:10ACD00006109B89ADF8083001238DF80A300DF17C
:10ACE0000603CDE90430054B02A91888FFF7B8FD2B
:10ACF00007B05DF804FB00BF0A71002096590020E0
:10AD000010B5044686B000210D2202A8019102F080
:10AD1000E5FC2378082B0BD1364A3749138809887C
:10AD2000013B9BB21380D9B1D3B9032311802370A7
:10AD3000627823788DF805306021012A8DF804109F
:10AD40008DF806200ED00B2A12D100F087F98DF86D
:10AD50000700002000F07CF9042101A8FFF7B0FFF4
:10AD600006B010BD062B05D0082B29D0032B27D009
:10AD70000321F2E7E1688DF80710D4E90123080AFE
:10AD80008DF80800080C090E8DF80A10110A8DF8CC
:10AD90000B208DF80C10110C120E8DF80E201A0AD3
:10ADA0008DF80F308DF810201A0C1B0E8DF80D1039
:10ADB0008DF809008DF811208DF812300F21CCE7A5
:10ADC000D4E90123110A8DF807208DF80810110C21
:10ADD000120E8DF80A201A0A8DF80B308DF80C200F
:10ADE0001A0C1B0E8DF809108DF80D208DF80E3001
:10ADF0000B21B2E74A710020487100202DE9F04193
:10AE00003E4B94B005464FF6FF721A8001204FF674
:10AE100059632A4602A98DF80A00ADF80830FFF7F9
:10AE200019FD0446002865D1354B04AA03F110072B
:10AE3000164618685968144603C40833BB422246B4
:10AE4000F7D1A91C3046FFF713FD0446002851D165
:10AE500001461C220DA802F041FC9DF834308DF80B
:10AE6000044043F004038DF834300223ADF80C3075
:10AE7000AB788DF80E3003238DF80630F423CDE93E
:10AE80000A44ADF82C302B464FF0110833F8040B70
:10AE90000C9403AF01AE08AA0DA98DF805800897A0
:10AEA0000996FFF7D9FC044620BB01461C220DA8D9
:10AEB00002F014FC18238DF834300123ADF80C3067
:10AEC000AB788DF80E3013238DF806301723CDE9BB
:10AED0000A44ADF82C302B4608AA33F80C0B8DF839
:10AEE00004400DA90C94CDE908768DF80580FFF794
:10AEF000B3FC0446204614B0BDE8F081965900200A
:10AF0000B0DD070030B5334C236813F0010585B080
:10AF10005DD1314B18603148FDF75AFD029500F0C4
:10AF2000B8F800284CD12E48FFF7A6FC002847D1DE
:10AF300001F084F9002843D102A801F051FA002859
:10AF40003ED102A9012001F055FA002838D102A80B
:10AF500001F0B8FA002833D100F0A0FB30B121484D
:10AF600000F090FB236843F002032360112302A842
:10AF70008DF80430FFF754FC10BB9DF8093002A88F
:10AF800001338DF80930FFF749FCC8B923689B07E6
:10AF900018D514498869043182B201A8FFF74EFC24
:10AFA00070B91148FFF748FC50B91048FFF726FF69
:10AFB00030B9FFF769FC18B9236843F00103236037
:10AFC00005B030BD0A4802F0DBFB0949E4E7002088
:10AFD000F6E700BF4071002044710020DCDE07006E
:10AFE00000800700A0600020C6DD07000A71002075
:10AFF000A8DD070043690BB1C0681847704700001F
:10B0000010B40549054C0022904218BF214604485F
:10B010005DF8044BFDF733BD0CDA070038DA0700A2
:10B020000C5A002007B5009313460A460146034810
:10B03000FDF729FD03B05DF804FB00BF0C5A0020AA
:10B0400013460A4601460148FDF724BD0C5A00206C
:10B05000014B18700B2070474C710020024B0022EE
:10B0600018781A70704700BF4C71002018DF7047C5
:10B0700030B585B0054610220C466846002102F026
:10B080002DFBA408684601950294FFF7EFFF05B079
:10B0900030BD1FB50023CDE9013303936846022379
:10B0A0000093FFF7E3FF05B05DF804FB4FF000539A
:10B0B0004FF480521A60002070470000014B0620B8
:10B0C0001B681847587100200A2803D90B38C0B2F2
:10B0D000FFF7BEBF7047000010B5044686B00020E1
:10B0E000FDF7E0FC014638B1174A1821204606B0AA
:10B0F000BDE81040FDF7B8BA1822684602F0EEFA33
:10B100000423124A8DF80030114B116D1B689942CF
:10B1100012D1104B186800F05BFF8DF80100FFF7AB
:10B12000D3FFD4E901138DF80100684698470A4817
:10B1300000F058FA06B010BD01238DF801306846C2
:10B14000D4E901139847F5E7D9B007005C780020EF
:10B150005071002054710020BDB00700F0B50446C6
:10B1600087B018220021684602F0B8FA22788DF8DC
:10B17000002001238DF80130531E0B2B00F21681A5
:10B18000DFE813F01D0010001D001D0014011D005C
:10B1900014011D001401140114010C00844B07203C
:10B1A0001B689847D4E90113684698479DF8013019
:10B1B000012B00F0F0807E4B05201B68EAE0062A98
:10B1C0007C4901D0012A01D122690A700A78012A3A
:10B1D00004D0022A53D000230B7096E0072BE1D84D
:10B1E00001A252F823F000BF09B20700A5B1070081
:10B1F00073B2070047B20700A5B107006DB20700A0
:10B20000A5B1070021B20700694B03201B689847CE
:10B21000606900F0C9FCFFF757FF8DF80100C1E736
:10B22000A18A206900F0D8FCFFF74EFF624B8DF831
:10B230000100DA6B1B6C0293E3680192002BB1D022
:10B2400020699847AEE75D495D4800F013FDFFF7C0
:10B250003BFF01288DF80100A4D1002000F0C2F9C5
:10B2600000289FD00A238DF801309BE74FF400732C
:10B270000393514BDA6B1B6C0192029392E7072BFD
:10B2800090D801A252F823F0A9B20700A5B1070097
:10B2900067B3070071B30700A5B107009BB30700B0
:10B2A000A5B107000FB3070000F0B6FC08B90823EA
:10B2B000D9E762690AB90323D5E7C2F30B0333B1B7
:10B2C0003D4B3E495B6D096813448B42F3D1B2F5A7
:10B2D000805F01D90423C6E7374B3849586D0968A8
:10B2E00015188D42E3D85A64DA6C9A6418651863AD
:10B2F000334B61691B6801F6FF710022090B18448A
:10B30000FFF79EFE00283FF44DAF0523ABE700F0AA
:10B3100083FC0028CBD0284DA18AD5E914329B1A92
:10B320006A6C0B449342C6D8254B2F6B1B6820696F
:10B3300005F148021F44FDF767FAE368A28A216914
:10B3400006463846FFF76EFE08B1E36878E7A28A42
:10B350002B6B029613442B63A38A2A6DAE641344AD
:10B360002B6501931EE7144B9A6C02921B6DF8E754
:10B37000114BD3E91402596C821A8A4297D19A6C04
:10B380005865002120465964DA64FFF7A5FE084B92
:10B390001B680420984707B0F0BD074B9A6C1B6DE3
:10B3A00001934FF4805302920393FBE602235AE782
:10B3B00058710020985900205C78002050710020BE
:10B3C0005471002083681BB1024A1821FDF74CB963
:10B3D000072070475DB1070038B50546C0B10120B0
:10B3E000FFF70EFE044648B900F0D0FB00F014FC55
:10B3F00030B9084B00201D60FFF72AFE204638BDFB
:10B400000549064800F036FC0128F2D00324F5E790
:10B410000724F3E758710020507100205471002078
:10B420002DE9F04115464FF46072064688461F46E6
:10B4300002F088F828B915B90020BDE8F081A847C6
:10B44000FAE7002201213046FFF7FAFD70B94FF408
:10B4500060724146384602F0A7F82B464FF46072FE
:10B4600039463046FFF7DEFD0028E5D00320E4E74B
:10B470002DE9F0413B4C236801335AD0002258217A
:10B48000201DFDF7C1F927683A1A57425741DFF8E6
:10B49000F080354DD8F80060336801335ED000226B
:10B4A0005821301DFDF7B0F93368834243D17468E9
:10B4B000012C0AD00022C32106F51870FDF7A4F96B
:10B4C000D6F85C42231A5C425C41B7B32549264852
:10B4D0004FF4607202F068F874B1D8F80010234895
:10B4E0005422043102F060F8D8F8001020484FF4DC
:10B4F00032725C3102F058F86C68012C2CD11D4975
:10B50000402201F5E47002F04FF81B491C2201F5BE
:10B51000E47002F049F8194985F8A1420023042299
:10B5200001F2862085F8603285F8E23202F03CF8BC
:10B5300010E00027ABE70024C7E72CB1D8F80010D3
:10B5400009484FF46072D5E707484FF46072002154
:10B5500002F0C4F802236B60BDE8F081002FF3D045
:10B560000024B3E700F007005C780020607800203A
:10B57000B8780020B8790020F87900207878002089
:10B580009C59002070B50C4C054600225821201D06
:10B59000FDF73AF900222060C32104F51870FDF789
:10B5A00033F92A46C4F85C022146044B0448BDE83E
:10B5B0007040FFF735BF00BF5C780020DC740020CE
:10B5C00000F0070002460248024B0068FFF728BF60
:10B5D0009C5900205C7100200149FFF7F3BF00BFB8
:10B5E00000F0070038B505460020FFF7CBFF044602
:10B5F00018B903492846FFF7E5FF204638BD00BFCC
:10B600005C78002010B5FFF7FBFC044628B9FFF773
:10B610002FFF2046FFF7E6FF00B1032010BD00001A
:10B6200010B5084C4FF40072FF2104F15C0002F0E9
:10B6300055F82022002104F1380002F04FF80023D1
:10B64000236310BD5C78002029DF704738B50C4DAE
:10B650000446D5F8643378B101330FD100221821A4
:10B660000430FDF7D1F82060214605F55970072216
:10B67000BDE83840FFF7E8BF0E2038BD0820FCE7E2
:10B6800000F0070008B528B103491C2201F08CFF27
:10B69000002008BD0E20FCE764F3070010B5064C3F
:10B6A000002218212046FDF7AFF854F8043C1B1A7D
:10B6B0005842584110BD00BF68F3070010B50A4C4E
:10B6C000D4F82433D4F864231340013309D04FF461
:10B6D000FE20FDF71FFEC92221464FF4FE20FDF794
:10B6E00047FE002010BD00BF5C780020F8B5094F70
:10B6F000094CE41B0646E4080025A54201D10020C0
:10B70000F8BD57F83530304698470028F8D1013554
:10B71000F3E700BFC8DE0700D0DE0700F8B5094E2A
:10B72000094CA41B0746E40800250436A54201D1B4
:10B730000020F8BD56F83530384698470028F8D133
:10B740000135F3E7C8DE0700D0DE070008B50C229C
:10B75000002101F0C3FF024B00221A6308BD00BFA5
:10B760005C7800204FF44053074A5968914201BF6A
:10B77000986800F6FF7020F47F6020F00F0018BF7B
:10B780004FF48050704700BFDBE5B15108B5FFF7BB
:10B79000E9FF054B9B69184400F6FF7020F47F60B9
:10B7A00020F00F0008BD00BF5C7800204FF48050EF
:10B7B000704700002DE9F74F1F46244BDFF894B087
:10B7C0001B6ADFF8949001910446154600934FF0F0
:10B7D00000084FF4405AB8F1010F5FFA88F61AD00A
:10B7E000022E24D0FFF7D2FF9DB1009B013B5942AE
:10B7F0005941A9EB0000A04201D3019BEBB1D1B9A3
:10B8000008F10108B8F1030FE5D1A04216D20420D7
:10B8100018E02946EDE7FFF7A5FF37B9DAF804107D
:10B82000B1EB0B0118BF0121E3E74146E1E701213C
:10B830004FF48050DDE7A042E9D316B10448FFF78A
:10B8400085FF002003B0BDE8F08F00BF5C780020CA
:10B8500074780020DBE5B1510050070090F85520C6
:10B8600012F0FB0F07D190F8643023B1836ECBB197
:10B870000B600120704712F0010303D090F856309E
:10B8800003B1836D9207F2D590F85C20002AEED0C8
:10B89000054A006EC2F5FC22904201D80344E6E757
:10B8A000042070470F207047008007002DE9FF47F4
:10B8B0002F49304D8A6B304C304FDFF8D490DFF891
:10B8C000D4A06E465C313046FEF740FC96E80F008F
:10B8D00085E80F0000212A4B39704FF4477220464B
:10B8E000C9F80010CAF80010EB6001F0F7FE254916
:10B8F00022462846FEF7C9FE20B90027384604B084
:10B90000BDE8F0873F78002FF7D094F86C3194F8B9
:10B9100000801BB3B8F1000FEFD194F87231002B07
:10B92000EBD0DAF80020D9F800103046FEF70EFC14
:10B9300096E80F0085E80F004FF4B272414604F517
:10B94000BA7001F0CBFE104904F5BA722846FEF732
:10B950009CFE0028D1D004F5BA7406E0B8F1000FBF
:10B96000CBD0A379002BC8D00834084B1C60C5E7A6
:10B970005C780020287F00200C7C0020087C0020C0
:10B9800099B9070038DD070084DC0700E47F002058
:10B99000047C0020007C002030B55B68DA680D4B29
:10B9A0009A4208D10C4C236813B90C490B681BB19F
:10B9B0000B4B00221A7030BDD0E901321A4413F942
:10B9C000015B002DA2EB0300F9DB23600860044B50
:10B9D0000122EFE784DC0700047C0020007C0020CB
:10B9E000087C002010B54FF44053164C5968A14212
:10B9F000024624D000F500535B68181B43424341C4
:10BA0000A14218461AD102F500535A688A4215D14C
:10BA10004FF440521178142982BF50690A4AB0FB92
:10BA2000F2F01A7898BF0020142A83BF5B69064A97
:10BA3000B3FBF2F30023C01A18BF012010BD00238E
:10BA4000DEE700BFDBE5B15140420F0000B591B029
:10BA5000FDF778FD684608492022FDF7A6FD6A46F5
:10BA6000064907484023FDF7C5FC064B01221A7022
:10BA700011B05DF804FB00BF68DB0700387F0020D1
:10BA800058DB0700DC7B0020F0B5A3B007460D466D
:10BA900014461E4678222023002104A8029301F0B8
:10BAA0001DFE00230393194B1B780BB9FFF7CEFF44
:10BAB0002DB337BB02AB164F01931649289B009755
:10BAC000324604A8FDF724FDE8B9402C1BD1124EE4
:10BAD00022462946304601F067FD20213046FDF719
:10BAE00070FDCDE90064029B0C493A4603A8FDF7BE
:10BAF0009DFC00280CBF0120052023B0F0BD1320C1
:10BB0000FBE71620F9E70A20F7E700BFDC7B0020FF
:10BB1000807F0020DCDB0700A07F0020387F002032
:10BB2000F0B5ABB004460D4616461F4678222023DA
:10BB300000210CA8039301F0D1FD114B1B780BB928
:10BB4000FFF784FF2FB12146202204A8FDF722FD34
:10BB500004AC03AB0B4F01930B49009733462A46C5
:10BB60000CA8FDF7D5FC48B920222146384601F043
:10BB7000E9FCB0FA80F040092BB0F0BD0020FBE7F3
:10BB8000DC7B0020DD7B0020DCDB070008B5044BFC
:10BB9000986B08B1FFF78AFE024B187008BD00BF12
:10BBA0005C780020E07F002010B5044658B1B0F565
:10BBB000007F0AD8064B00221A70FFF731FD054BB3
:10BBC00001209C6310BD0320FCE70420FAE700BFBE
:10BBD000E07F00205C78002070B50E4C0646E06BDC
:10BBE000A36B42189A420D4611D85C300A46204495
:10BBF000314601F0D9FCE36B04F140022B442946A5
:10BC00003046E363FCF700FE2064012070BD032092
:10BC1000FCE700BF5C780020014B1878704700BF3C
:10BC2000E07F002013B5104C94F86C21B2B194F869
:10BC3000D802B4F8DA2204F5377104F5B8740B4B66
:10BC40001B6800930A4B1B68FFF71EFF012809D1F0
:10BC5000201D02B0BDE8104000F0BEB911461046EC
:10BC60000434ECE702B010BD0C7C0020007C002006
:10BC7000047C00202DE9F0411F4BD3E90E329A429B
:10BC800006460D4633D1DFF8788098F800704FB142
:10BC9000FFF77CFD194B306029461868BDE8F0417C
:10BCA000FFF7DCBDFFF702FE18B3FFF7BBFF01286B
:10BCB000376004462F6017D1104B29461868FFF7EC
:10BCC000CDFD012804460FD103463A46286839467F
:10BCD000FFF770FD38B9FFF759FD88F80040306074
:10BCE0002046BDE8F0810424FFF79AFCF8E7082419
:10BCF000F6E70524F4E700BF5C780020E47F00202D
:10BD0000E07F002001237230FFF70ABF13B504461D
:10BD1000084623781146032B03D8DFE803F02105FA
:10BD20000F18002002B010BD0022D4F80140FCF72B
:10BD30006BFD844214BF00200120F3E70A46002374
:10BD40000146601C02B0BDE81040FFF7E9BE00915B
:10BD500003464022611C0020FFF796FE0128E9E718
:10BD60000120DFE72DE9F043A3B005460E46144657
:10BD7000002178221F4604A820239DF8AC8003935D
:10BD8000DDF8A89001F0AAFC41220021284601F02C
:10BD9000A5FCB6F89430A34282BF442303FB04639E
:10BDA00093F8968085F80080B8F1030F1ED8DFE87D
:10BDB00008F00902111F002249463846FCF724FD0D
:10BDC000C5F801004A4639462846FFF79FFF23B0D1
:10BDD000BDE8F08303AB01936B1C00930A494B460B
:10BDE0003A4604A8FDF794FB0028EBD00020EEE7CC
:10BDF00044214C4333199A34B3F898203119681C04
:10BE000001F0D2FBDEE700BFDCDB07002DE9F047E5
:10BE1000684B1D68A4B004460F4690460A4601468A
:10BE20002846FFF76FFF002800F0C18095F85560A5
:10BE30001EBB4FF00109CDE9007923463246294661
:10BE400013A8FFF78FFF002874D0B8F1000F60D05F
:10BE50004122594813A901F0A7FB584BC3F82C9075
:10BE60001E626A689A60002239462046FCF7CCFCC4
:10BE7000524B0125C3E9097094E04122002102A838
:10BE800001F02CFC06F001094122002113A806F064
:10BE9000020601F023FCB9F1000F3ED004F5005278
:10BEA000474B5068984245D1D5F858A00AF5FF5342
:10BEB0000AF6FF71C1F30B011F335B1A91689942B7
:10BEC00038D34FF44053596881420CD11978102966
:10BED00088BF1969137898BF0021102B8CBF136994
:10BEE0000023994226D12046FFF77CFD00B10EB316
:10BEF0000123CDE900A300222346294602A8FFF72B
:10BF000031FFB8B1AA6DA318BA1A4EB9B8F1000F33
:10BF10001AD12A4B01255D6112E03A462346F4E727
:10BF20000021CDE9002113A84A462946FFF71AFF50
:10BF30000028EBD10525B8F1000F30D1FFF770FBD9
:10BF4000284624B0BDE8F087DFF87080B9F1000F13
:10BF500021D02046FFF746FD18B108F11800FFF781
:10BF6000F5FB1848412202A901F01EFB002E14BF68
:10BF7000AC23A523C8F82C30AB6DC8F83430002EA4
:10BF80003FF471AF1048412213A901F00DFB6B681B
:10BF9000C8F80C3067E7AA23C8F82C30EFE70B4845
:10BFA000FFF7D4FBFFF73CFB044B9C64C8E7172565
:10BFB000C1E700BFE47F0020FD7A00205C7800200C
:10BFC000DBE5B151BC7A00203E7B00208078002068
:10BFD0000122FFF71BBF0000F0B590F85420034684
:10BFE000002A4DD090F85500032849D893F86E20C8
:10BFF000032A43D11A7A002A42D0DA68342A41D17E
:10C000004FF4405520496C681A8A8C421FD142B1C6
:10C010005969A9B1D2B203F114040021CEB2B242DF
:10C0200001D8122023E054F8047BAE89B74201F115
:10C030000101F3D11A788AB9012818BF0F2016E040
:10C0400010B9012AEDD1F5E70128F3D1E9E712B1E2
:10C050005A69002AE5D11A78002AE2D001285B68E3
:10C060000A4A05D8906898428CBF10200120F0BD84
:10C07000D068984234BF01201020F8E71420F6E77A
:10C080000F20F4E71120F2E7DBE5B1515C780020E6
:10C0900038B1054B0360054B436001230372002058
:10C0A00070470E20704700BFD7C00700B1C007001F
:10C0B00069B10B78022B0CD1022804D0032814BFDD
:10C0C00008201120704703230B70002070470E20BA
:10C0D00070470820704710B50C4681B10B78012BD2
:10C0E00006D00ED9033B012B94BF0820112010BDB0
:10C0F000FFF7ACFA0028FAD102232370F7E70E20ED
:10C10000F5E70820F3E7000070B5144B144A0C2142
:10C11000D21AB2FBF1F2816911F8025C044635B91A
:10C1200000690021914205D1012323600EE04FF008
:10C13000FF30F6E71E68AE420CD1461C07D19D6861
:10C14000D4E90001D4E90223A847206070BD5E68ED
:10C150008642F4D001310C33E4E700BFD0DE0700A3
:10C16000DCDE07001EF0040F0CBFEFF30880EFF3D6
:10C170000980FFF7C9BF00BF10DF704711DF7047AC
:10C1800013B5044609496846FCF7B4FE019808B99E
:10C1900002B010BDD0E900212046904718B1684692
:10C1A000FCF7B1FEF2E71120F2E700BFD4DD070093
:10C1B00013B5044607496846FCF79CFE019B0BB982
:10C1C00002B010BD2046D3E9002190476846FCF735
:10C1D0009AFEF3E7ECDD0700084B9A6822B11A6873
:10C1E00022F480021A607047054B4FF48002C3F8B6
:10C1F0008020BFF34F8FBFF36F8F7047505A0020DE
:10C2000000E100E00B4991F816335A09EC23134181
:10C21000DB0706D5084B9A683AB94FF480030B60E8
:10C22000704742F20200FDF70CBA1A6842F480022D
:10C230001A60704700E100E0505A0020F7B5194F2E
:10C240003C7864BB184E012520463570FFF798FFF7
:10C25000112821D02046FFF7ABFF144B8DF8034087
:10C26000186801900DF10300FCF794FA104901A839
:10C27000FFF782FF0446B0FA80F0400938709DF85D
:10C280000300FCF7ABFA3CB90A4B34701C70FFF7A3
:10C29000B9FF2846FFF78CFF204603B0F0BD082405
:10C2A000FAE700BFE97F0020E87F0020CEDD07002D
:10C2B0003D960700EA7F0020F7B5154F3B781BB38A
:10C2C000144E01203070FFF75BFF11284FF000057E
:10C2D0001CD00220FFF76CFF0DF107008DF807500E
:10C2E000FCF758FAFFF74AFF04469DF807003D7037
:10C2F000FCF774FA2CB903203470FFF76DFFFFF7D9
:10C3000057FF204603B0F0BD0824FAE72C46F8E7B3
:10C31000E97F0020E87F0020054B1B7833B1054BF7
:10C320001B780BB1FFF7C8BFFFF788BF0820704725
:10C33000E87F0020E97F0020014B1878704700BF9C
:10C34000E97F002007B508496846FCF7D3FD019B4B
:10C3500013B903B05DF804FBD3E9002090476846A9
:10C36000FCF7D1FDF3E700BFE0DD0700FFF7EABF10
:10C3700060DF704769DF704761DF704730B5134D8C
:10C38000ADF5017D4FF4FA740DF1020103A8ADF88B
:10C390000240FFF7F1FF70B9294601A8FCF7AAFD9A
:10C3A000029B002BF0D003A8D3E90021904701A8FD
:10C3B000FCF7A9FDF4E7052805D00DF5017DBDE8E2
:10C3C0003040FDF73EB90DF5017D30BDF8DD0700C9
:10C3D000024B1B780BB1FFF7D1BF7047EB7F0020FA
:10C3E00018B1034B0360002070470E20704700BF58
:10C3F00068590020F0B5074685B00D4600295DD08C
:10C400002F4B0B600C22002101A801F067F90126D7
:10C4100006232A68ADF8083001A920208DF80470A1
:10C420008DF80660FFF7A6FF0C22002101A801F09D
:10C4300055F900242A688DF8056001A94020ADF85F
:10C440000640FFF797FF0C22214601A801F046F9AC
:10C45000F7232A68ADF8063001A923208DF804706F
:10C46000FFF788FF0C22214601A801F037F92A685E
:10C470008DF8046001A93046FFF77CFF0C222146AD
:10C4800001A801F02BF94FF4B0632A68019301A9C8
:10C49000A120FFF76FFF0C22214601A801F01EF931
:10C4A0009DF804302A6864F3000301A9A0208DF8E8
:10C4B0000430FFF75FFF204605B0F0BD0E20FBE71C
:10C4C0006859002008B5FFF753FF10B9014B01224E
:10C4D0001A7008BDEB7F00204BDF70471FB50E4C74
:10C4E00001A8FFF7F9FF70B9214602A8FCF702FD89
:10C4F000039B002BF4D00198D3E90021904702A8B8
:10C50000FCF701FDF4E7052804D004B0BDE81040B5
:10C51000FDF797B804B010BD04DE07008B18024485
:10C520008B4200D1704713F8010D02F8010DF7E7B7
:10C53000C3F10803DB0070B501330446002003A5F6
:10C540005B1920C940CAAD1920C4184720C940CA88
:10C55000754120C420C940CA754120C420C940CAC1
:10C56000754120C420C940CA754120C420C940CAB1
:10C57000754120C420C940CA754120C420C940CAA1
:10C58000754120C4404170BD000000000000000063
:10C59000C3F10803DB0070B50133002403A500BF1D
:10C5A0005B1920C940CAAD1B20C0184720C940CA2A
:10C5B000B54120C020C940CAB54120C020C940CAE9
:10C5C000B54120C020C940CAB54120C020C940CAD9
:10C5D000B54120C020C940CAB54120C020C940CAC9
:10C5E000B54120C06441B4FA84F0400970BD00BF79
:10C5F0002DE9F04F08B4F8CA04B451F8042BA3FB9A
:10C60000028940F8048B4FF0000AE4FB629A4FF075
:10C61000000BE5FB62AB4FF0000CE6FB62BC4FF099
:10C62000000EE7FB62CE51F8042B4FF00008E3FB4D
:10C63000628940F8048BE4FB629AE5FB62ABE6FB9F
:10C6400062BCE7FB62CE51F8042B4FF00008E3FB1D
:10C65000628940F8048BE4FB629AE5FB62ABE6FB7F
:10C6600062BCE7FB62CE51F8042B4FF00008E3FBFD
:10C67000628940F8048BE4FB629AE5FB62ABE6FB5F
:10C6800062BCE7FB62CE51F8042B4FF00008E3FBDD
:10C69000628940F8048BE4FB629AE5FB62ABE6FB3F
:10C6A00062BCE7FB62CE40F8049B40F804AB40F864
:10C6B00004BB40F804CB40F804EB0CBC052B00F0A5
:10C6C0001E810C68A0F11400A1F11401A2F1140262
:10C6D00052F804EB4FF0000550F8046BE4FB6E5683
:10C6E00052F804EB50F8047BE4FB6E6752F804EB5D
:10C6F00050F8048BE4FB6E7852F804EB50F8049B7E
:10C70000E4FB6E8952F804EB50F804ABE4FB6E9A3C
:10C71000A0F1140052F8044B51F804EB4FF0000C58
:10C72000E4FB6EC540F804CB51F804EBE4FB6E5615
:10C7300040F8045B51F804EBE4FB6E6740F8046BCF
:10C7400051F804EBE4FB6E7840F8047B51F804EBFD
:10C75000E4FB6E8940F8048B51F804EBE4FB6E9A1D
:10C76000A0E80006062B00F0CA800C68A0F11800B3
:10C77000A1F11801A2F1180252F804EB4FF00005E4
:10C7800050F8046BE4FB6E5652F804EB50F8047B4F
:10C79000E4FB6E6752F804EB50F8048BE4FB6E7810
:10C7A00052F804EB50F8049BE4FB6E8952F804EB5A
:10C7B00050F804ABE4FB6E9A52F804EB50F804BB5B
:10C7C000E4FB6EABA0F1180052F8044B51F804EBF7
:10C7D0004FF0000CE4FB6EC540F804CB51F804EBBD
:10C7E000E4FB6E5640F8045B51F804EBE4FB6E6723
:10C7F00040F8046B51F804EBE4FB6E7840F8047BDE
:10C8000051F804EBE4FB6E8940F8048B51F804EB1B
:10C81000E4FB6E9A40F8049B51F804EBE4FB6EAB2A
:10C82000A0E8000C072B6AD008B40C68A0F11C002B
:10C83000A1F11C01A2F11C0252F804EB4FF000051B
:10C8400050F8046BE4FB6E5652F804EB50F8047B8E
:10C85000E4FB6E6752F804EB50F8048BE4FB6E784F
:10C8600052F804EB50F8049BE4FB6E8952F804EB99
:10C8700050F804ABE4FB6E9A52F804EB50F804BB9A
:10C88000E4FB6EAB52F804EB50F804CBE4FB6EBC57
:10C89000A0F11C0052F8044B51F804EB4FF00003D8
:10C8A000E4FB6E3540F8043B51F804EBE4FB6E56B4
:10C8B00040F8045B51F804EBE4FB6E6740F8046B4E
:10C8C00051F804EBE4FB6E7840F8047B51F804EB7C
:10C8D000E4FB6E8940F8048B51F804EBE4FB6E9A9C
:10C8E00040F8049B51F804EBE4FB6EAB40F804AB5A
:10C8F00051F804EBE4FB6EBCA0E8001808BCBDE8EE
:10C90000F08F002310B51C465AB2914200DC10BDD6
:10C9100040F823400133F7E710B500231A465CB214
:10C92000A14203DCB2FA82F0400910BD50F8234066
:10C9300001332243F3E74A11012350F8220001F0AA
:10C940001F018B40184070474B1E10B55BB2041D91
:10C950001A0603D45A1E54F8221071B101335BB287
:10C9600083B103F18042013A50F82210002231B91C
:10C97000013B02EB431210B210BD1346E8E7490831
:10C980000132F4E71846F7E710B500235CB2A24283
:10C9900000DC10BD51F8234040F823400133F5E797
:10C9A00010B5013A52B2130601D5002010BD50F85F
:10C9B000224051F822309C4205D802F1FF32F2D2D7
:10C9C0004FF0FF30F2E70120F0E700EB8101002398
:10C9D000884200D3704751F8042D43EA52030B609C
:10C9E000D307F5E770B59DF910601D463346044640
:10C9F000FFF79EFD30B9324621462846FFF7D0FFAB
:10CA0000012807D033462A4621462046BDE870401B
:10CA1000FFF7BEBD70BD2DE9F04FB5B004AC9DF978
:10CA2000F85001901F4620462B46FFF7E1FD24AB4E
:10CA300029463846CDE90234FFF786FFC0EB85145E
:10CA400024B2002C2146B8BF04F11F01634203F059
:10CA50001F0341F3471104F01F0614A858BF5E429C
:10CA6000FFF74FFF002E4FEA81002DDD14AB0022AF
:10CA70001844C6F1200E1346AB421AD314AB03EB95
:10CA8000850300936F1E34AB4FEA45084FEA8509D2
:10CA9000012603EB8707002C53DA34AB03EB860641
:10CAA000019856F8C81C2A46FFF76EFF35B0BDE85E
:10CAB000F08F57F823C00CFA06F10A4340F8042B14
:10CAC00001332CFA0EF2D7E714AB2A463946184444
:10CAD000FFF75AFFD2E75AF8C83C53F8202034AB8E
:10CAE00003EB80030CF1010C53F8803C0B44D31A88
:10CAF00034BF4FF0010B4FF0000B9A425EF8C82C88
:10CB000042F8203018BF59464FFA8CF04045E2DB1E
:10CB1000731A5E42294614A85E41FFF756FF09F1D9
:10CB2000D0036B44009853F8802C57F8803C29467A
:10CB300043EAC273013C47F8803C24B2FFF745FF4B
:10CB4000A9E734AB4FF0000CC6F1010E614603EBD0
:10CB5000860A03EB8E0ED7E730B51C4691B005462A
:10CB600093F900306846FFF743FDD4F8AC306946CE
:10CB70002846984711B030BD13460A46FFF7ECBF70
:10CB8000F0B5082289B0FFF7FFFECB6A03930B6B69
:10CB900004934B6B05938B6B0693CB6B07930C46FF
:10CBA00006460027134669466A466846CDE901777E
:10CBB0000097FFF7BDFC082305466A46314630461C
:10CBC000FFF7B6FC236B0393636B0493A36B05938E
:10CBD000E36B0544CDE906376A4608236946684693
:10CBE000FFF7A6FC082305446A4631463046FFF7A6
:10CBF0009FFC236A0093636A0193A36A0293A36B69
:10CC00000693E36B0793054408236A463146304692
:10CC1000CDE904770397FFF78BFC636A0093A36A5F
:10CC2000A26B0193E36A02930492636BE26B03933A
:10CC3000CDE90523236A0793054408236A46314654
:10CC40003046FFF775FCE36A0093236B0193636B37
:10CC50000293236A0693A36A0793054408236A464E
:10CC600031463046CDE904770397FFF791FC236BFB
:10CC70000093636B0193A36B0293E36B0393636A6B
:10CC80000693E36A07932D1A08236A463146304615
:10CC9000CDE90477FFF77CFC636B0093A36B0193F2
:10CCA000E36B0293236A0393636A0493A36ACDE957
:10CCB0000537236B07932D1A08236A463146304601
:10CCC000FFF766FCA36B0093E36BCDE90137636A62
:10CCD0000393A36A0493E36ACDE90537636B079373
:10CCE0002D1A08236A4631463046FFF751FC2D1AAB
:10CCF0000D4C0FD435B9082231462046FFF750FEBF
:10CD000001280FD00823224631463046FFF740FC69
:10CD10002D1AEFE70823224631463046FFF708FC7C
:10CD20002D18F7D409B0F0BD14DE0700F0B5154694
:10CD300089B01C4607460E461A4629466846FFF744
:10CD40001BFF23466A4639463846FFF705FF234650
:10CD50002A4669466846FFF7FFFE23466A46314683
:10CD60003046FFF7F9FE09B0F0BD2DE9F0471E4649
:10CD7000B3F9023013F11F0448BF03F13E046511FB
:10CD8000DC1D48BF03F10E04E41094424FFA85F90C
:10CD900028BF144688464946FFF7B3FD2246414660
:10CDA0000746FFF7BBFBB6F90220B2EBC40F4FEA10
:10CDB000C4031FD29B1A07EB85040021C3F1200591
:10CDC000A7420ED324364A4639463046FFF7E8FDDF
:10CDD00001280FD04B4632463846BDE8F047FFF7F2
:10CDE000D7BB54F8040D20FA03F20A43226000FA7C
:10CDF00005F1E5E7BDE8F08770B59DF910601D46C7
:10CE000033460446FFF7C4FB38B133462A46214671
:10CE10002046BDE87040FFF78BBB70BD2DE9F047A1
:10CE200093F9006092B00446894610463146154693
:10CE30001F46FFF771FD002840F091803A464946B1
:10CE400002A8FFF799FE3B4602AA21460AA8FFF76F
:10CE500083FE02A908463A46FFF78EFE3B462A4665
:10CE600049464846FFF778FE07F104083A46294646
:10CE70002846FFF781FE43462A4621462046009673
:10CE8000FFF7B0FD43462A46294628460096FFF79D
:10CE9000A9FD43462A46214628460096FFF7ACFFE7
:10CEA0003B462A4621462046FFF756FE4346224689
:10CEB000214628460096FFF795FD434600962A46F0
:10CEC00021462046FFF78EFD2368DB074AD533460F
:10CED000424621462046FFF72BFB3146824620463C
:10CEE000FFF773FD06F18043013B54F8232042EA2B
:10CEF000CA7244F823203A4621462846FFF73CFEF2
:10CF000043460AAA294628460096FFF775FF43467E
:10CF10000AAA294628460096FFF76EFF0AA9084686
:10CF200043462A460096FFF767FF3B460AAA21467A
:10CF30002046FFF711FE02AA4346104621460096FE
:10CF4000FFF75AFF324629462046FFF71DFD4946A6
:10CF50002846FFF719FD02A94846FFF715FD12B054
:10CF6000BDE8F08731462046FFF72FFDC3E72DE9E6
:10CF7000F04115468AB004460E461C22002103A843
:10CF800000F0ACFB2F1D95F9008003232A463146A3
:10CF900020460293FFF7F0FD3B4602AA21462046B9
:10CFA000CDF80080FFF728FF2B4632462146204669
:10CFB000FFF7D2FDCDF800803B4605F18402214603
:10CFC0002046FFF70FFD0AB0BDE8F0812DE9F047DC
:10CFD0008AB01446DDF848A055461F4615F9046B83
:10CFE0000096804689462B460246214602A8FFF756
:10CFF00003FF02A952460846FFF7BEFD534602AAA8
:10D0000041464046FFF7A8FD534602AA2146204666
:10D01000FFF7A2FD2B464A46394638460096FFF7F1
:10D02000EBFE5246394602A8FFF7A6FD02A92B46A1
:10D03000424608460096FFF7DFFE02A92B4622462D
:10D0400008460096FFF7D8FE2B464246214620466A
:10D050000096FFF7D1FE5346224649464846FFF761
:10D060007BFD2B4602AA414620460096FFF7C4FEF0
:10D070005346224639463846FFF76EFD2B464A4650
:10D08000394638460096FFF7B7FE324602A92046D9
:10D09000FFF77AFC0AB0BDE8F08770B50368DB07DC
:10D0A0000546144604D4BDE870401146FFF78DBC18
:10D0B00013460A460146FFF73BFA21460646284634
:10D0C000FFF783FC46B104F18044013C55F824305D
:10D0D00043F0004345F8243070BDF0B50F46A1B0D1
:10D0E00006461946384615461C46FFF715FC28B17A
:10D0F000304621B0BDE8F040FFF703BC2246394678
:10D100006846FFF741FC294608A8FFF73DFC10A838
:10D110002146FFF7F6FB012318A81093FFF7F1FB58
:10D12000224608A96846FFF73BFC30B9224610A901
:10D130003046FFF729FC21B0F0BD009BDA0709D487
:10D1400021466846FFF741FC2246294610A8FFF712
:10D15000A4FFE5E7089BDB0707D4214608A8FFF7F3
:10D1600034FC2246294618A8F1E7002823461CDD96
:10D1700008AA69466846FFF70BFA21466846FFF79A
:10D1800024FC224618A910A8FFF70AFC002805DA9B
:10D1900010A923462A460846FFF7CAF910A92346D4
:10D1A00018AA0846FFF7F4F9CEE76A4608A8FFF781
:10D1B000EFF9214608A8FFF708FC224610A918A895
:10D1C000FFF7EEFB002805DA18A923462A46084691
:10D1D000FFF7AEF918A9234610AA0846FFF7D8F9B9
:10D1E000BFE700000048704710DE07002DE9F04F50
:10D1F000EDB0CDE90310769E1946B6F9023096F9E6
:10D20000017096F9005013F11F0848BF03F13E0862
:10D2100048F3471808F1FF3B24AB002443F82B40A8
:10D220006CAB03EB8B034CA892463A4643F8804C18
:10D2300043F8604CFFF772F93A46394454A8FFF7B7
:10D240006DF929464CA8FFF767FB0746002840F018
:10D25000D38054A8FFF760FB0446002840F01B81F0
:10D2600006F1240942464CA94846FFF799FB0128DC
:10D2700040F0C280424654A94846FFF791FB01287E
:10D28000069040F0B9800CAF43464A461CA8FFF711
:10D2900024FF52463846039947F82B403346FFF7A0
:10D2A00064FD394638464B461CAACDF80080FFF78E
:10D2B000B2FB0DF5B87A4B461CAA4CA914A8CDF8C0
:10D2C0000080FFF7A8FB2A4650460499FFF75CFB55
:10D2D000AB000793049B0AEB850B03EB85015846D3
:10D2E000FFF752FB06F14403194634A80393FFF7F6
:10D2F0004BFB039BA90059183CA8FFF745FB331DC6
:10D30000514634AA1CA800950593FFF775FD5B46AE
:10D3100052463CA934A80096FFF758FE1CA90846BF
:10D320002B46321DFFF7D9FE1CAA594650463346FC
:10D33000FFF7FCFC039B0993049B08944146384685
:10D34000CDE90A3AFFF700FB4146824614A8FFF7F1
:10D35000FBFA8245B8BF82461FFA8AFA0AF1FF310A
:10D3600009B238460391FFF7E6FA0399074614A875
:10D37000FFF7E1FA003818BF0120003F18BF01276E
:10D3800047EA40070DF1200B2A465BF8271024A836
:10D39000FFF7FAFAAB0019442CA8FFF7F5FA294673
:10D3A0001CA8FFF7AEFA069B1C93AAF1020A0FFA1B
:10D3B0008AFABAF1000F23DA1CA90846059A2B460F
:10D3C000FFF78BFE33461CAA2CA924A8FFF7AEFC5E
:10D3D000424624A94846FFF7E3FA012804D0434611
:10D3E0004A460846FFF7D4F8013D6DB24CAA2B0619
:10D3F00048D5B4FA84F4640920466DB0BDE8F08FD6
:10D4000033461CAAD6F8A4702CA924A8B8475146C4
:10D410000CA8FFF790FA5146074614A8FFF78BFABD
:10D42000003818BF0120003F18BF012747EA400716
:10D4300008AB53F8271011B32A4634A8FFF7A4FA13
:10D44000079B3CA81944FFF79FFA014633461CAAE4
:10D4500034A8FFF76BFC059B009534AA24A944A8C7
:10D46000FFF7CAFC2CAB24AA3CA934A80096FFF70E
:10D47000ADFD1CA9334644AA0846FFF76DFB0AF12F
:10D48000FF3A94E724AB52F8251053F825304B406F
:10D490001C43013DABE73C46AEE7000000230146DC
:10D4A0001A46184600F0DAB908B5074B044613B11E
:10D4B000002100F029FA054B1868836A03B19847E8
:10D4C000204600F085FA00BF09D90700C0DE07003A
:10D4D00038B5084B084D5B1B9C1007D0043B1D441E
:10D4E000013C55F804399847002CF9D1BDE8384083
:10D4F00000F076BA0C5A0020085A002070B50D4E84
:10D500000D4D761BB61006D0002455F8043B0134AF
:10D510009847A642F9D1094E094D761B00F05AFAF8
:10D52000B61006D0002455F8043B01349847A642B3
:10D53000F9D170BD045A0020045A0020085A002076
:10D54000045A0020032A70B515D940EA010C1CF0DA
:10D55000030F04460B4621D1194620460E68056884
:10D56000B54204F1040403F1040317D1043A032A79
:10D5700020461946F0D8541EA2B100F1FF3C0139F3
:10D5800001E0C3180CD01CF801EF11F8012F9645EB
:10D59000A4EB0C03F5D0AEEB020070BD541EECE71B
:10D5A000184670BD104670BD844641EA000313F072
:10D5B00003036DD1403A41D351F8043B40F8043B9A
:10D5C00051F8043B40F8043B51F8043B40F8043B5D
:10D5D00051F8043B40F8043B51F8043B40F8043B4D
:10D5E00051F8043B40F8043B51F8043B40F8043B3D
:10D5F00051F8043B40F8043B51F8043B40F8043B2D
:10D6000051F8043B40F8043B51F8043B40F8043B1C
:10D6100051F8043B40F8043B51F8043B40F8043B0C
:10D6200051F8043B40F8043B51F8043B40F8043BFC
:10D6300051F8043B40F8043B403ABDD2303211D39C
:10D6400051F8043B40F8043B51F8043B40F8043BDC
:10D6500051F8043B40F8043B51F8043B40F8043BCC
:10D66000103AEDD20C3205D351F8043B40F8043B9C
:10D67000043AF9D2043208D0D2071CBF11F8013B9A
:10D6800000F8013B01D30B8803806046704700BF60
:10D69000082A13D38B078DD010F003038AD0C3F16F
:10D6A0000403D21ADB071CBF11F8013B00F8013B51
:10D6B00080D331F8023B20F8023B7BE7043AD9D310
:10D6C000013A11F8013B00F8013BF9D20B780370E5
:10D6D0004B7843708B78837060467047830730B512
:10D6E00048D0541E002A3FD0CAB2034601E0013C94
:10D6F0003AD303F8012B9D07F9D1032C2DD9CDB2D4
:10D7000045EA05250F2C45EA054536D9A4F1100256
:10D7100022F00F0C03F1200EE6444FEA121C03F135
:10D72000100242E9045542E9025510327245F8D11F
:10D730000CF1010214F00C0F03EB021204F00F0CB9
:10D7400013D0ACF1040323F003030433134442F871
:10D75000045B9342FBD10CF003042CB1CAB21C440D
:10D7600003F8012B9C42FBD130BD64461346002CCC
:10D77000F4D1F9E703461446BFE71A46A446E0E7AA
:10D7800090F800F06DE9024520F007016FF0000C01
:10D7900010F0070491F820F040F049804FF00004A9
:10D7A0006FF00700D1E9002391F840F000F1080084
:10D7B00082FA4CF2A4FA8CF283FA4CF3A2FA8CF3BC
:10D7C0004BBBD1E9022382FA4CF200F10800A4FA23
:10D7D0008CF283FA4CF3A2FA8CF3E3B9D1E9042377
:10D7E00082FA4CF200F10800A4FA8CF283FA4CF3AE
:10D7F000A2FA8CF37BB9D1E9062301F1200182FA68
:10D800004CF200F10800A4FA8CF283FA4CF3A2FA6D
:10D810008CF3002BC6D0002A04BF04301A4612BA7B
:10D82000B2FA82F2FDE8024500EBD2007047D1E97E
:10D83000002304F00305C4F100004FEAC50514F00D
:10D84000040F91F840F00CFA05F562EA05021CBFDE
:10D8500063EA050362464FF00004A9E7F0B5264CE1
:10D86000256885B0064605B36C681F2C41DCA6B15F
:10D87000D5F8880048B3D0F8007140F824204FF064
:10D88000010C0CFA04FC00EB84024CEA0707022EA0
:10D89000C0F80071C2F8803010D0A31C01346C6055
:10D8A00045F82310002005B0F0BD1448144D256044
:10D8B0000028D9D00068C5F88800D5E7D0F8043131
:10D8C00043EA0C03C0F80431E7E70E480191CDE9C3
:10D8D000022370B14FF48470AFF3008048B1002789
:10D8E000C0E94077DDE902236C680199C5F888003A
:10D8F000C3E74FF0FF30D6E778800020000000003B
:10D90000EC7F0020000000002DE9F84FDFF8BCA0FC
:10D91000DAF800702DED028BE7B108EE100A8946A7
:10D920007D68D7F888806C1E14D407EB8506043612
:10D9300008EB8505B9F1000F10D0B8F1000F02D047
:10D94000EB6F4B450AD0013C631CA5F10405A6F121
:10D950000406EFD1BDEC028BBDE8F88F7B6832681E
:10D96000013BA34216BF00237C603360002AEAD04B
:10D97000D7F804B0B8F1000F1AD0D8F8000101238D
:10D9800003FA04F1014213D0D8F80401014218D17E
:10D9900055F8041C18EE100A90477A685A450BD1C6
:10D9A000DAF80030BB42CED01F46002FB8D1D1E705
:10D9B00090477A685A45F3D0DAF80070002FAFD15B
:10D9C000C8E755F8040C9047E7E700BF78800020CF
:10D9D000FEE700BFF8B500BFF8BC08BC9E46704724
:10D9E000F8B500BFF8BC08BC9E46704700000101B6
:10D9F0000100000001010000000001010000000022
:10DA0000001000000400000001000000ED8A070083
:10DA1000118B0700218B0700318B0700858B0700D6
:10DA2000F98A0700FD8A0700018B0700001000003B
:10DA300004000000010000009D8C07007D8C0700A1
:10DA40006D8C0700A58E0700598E07003F8C0700DC
:10DA5000438C0700498C0700982F8A429144377104
:10DA6000CFFBC0B5A5DBB5E95BC25639F111F15961
:10DA7000A4823F92D55E1CAB98AA07D8015B8312A3
:10DA8000BE853124C37D0C55745DBE72FEB1DE804F
:10DA9000A706DC9B74F19BC1C1699BE48647BEEF7E
:10DAA000C69DC10FCCA10C246F2CE92DAA84744A09
:10DAB000DCA9B05CDA88F97652513E986DC631A87F
:10DAC000C82703B0C77F59BFF30BE0C64791A7D55E
:10DAD0005163CA0667292914850AB72738211B2EE6
