:020000021000EC
:108000000080002029ED010071ED010073ED0100F9
:108010000000000000000000000000000000000060
:1080200000000000000000000000000075ED0100ED
:10803000000000000000000077ED010079ED010074
:108040007BED01007BED0100BD8E01007BED0100A9
:108050007BED010000000000A99201007BED010012
:108060007BED01007BED01007BED01007BED01006C
:108070007BED01007BED01007BED01007BED01005C
:108080007BED0100818401007BED01007BED0100AF
:108090006D8501007BED010001ED01007BED01002C
:1080A0007BED01007BED01000000000000000000FE
:1080B00000000000000000000000000000000000C0
:1080C000164B002B00D1144B9D46402292029A1A67
:1080D000924600218B460F461348144A121A00F0AC
:1080E00067F80F4B002B00D098470E4B002B00D0A9
:1080F00098470020002104000D000D48002802D000
:108100000C4800E000BF00F02DF82000290003F02B
:1081100087FB00F011F8C046000008000080002036
:10812000000000000000000074200020B82900209A
:108130000000000000000000084B10B5041C002BDC
:1081400002D0002100E000BF054B1868836A002BB5
:1081500000D09847201C00F033F8C0460000000013
:1081600068EF010070B50E4B0E4D0024ED1AAD10F6
:108170001E1CAC4204D0A300F35898470134F8E722
:1081800006F0E4FE084B094D0024ED1AAD101E1C4C
:10819000AC4204D0A300F35898470134F8E770BD0F
:1081A00074200020742000207420002074200020FF
:1081B000031C8218934202D019700133FAE770470A
:1081C000FEE7C046F0B54E4657464546E0B4224964
:1081D00089460978002929D0204B214A0024984655
:1081E000204F0126924603E00134E4B28C421DD2B6
:1081F00043461B68E5005D192878321C3B688240C5
:108200001342F1D093433B6001F044F82B7852467F
:108210001268311C99401140021C9A4091420AD0C8
:108220004B4601341978E4B28C42E1D31CBC904631
:108230009946A246F0BD6A686978002AF0D00139F3
:108240004D426941091A48424141C9B2181C904740
:108250004A461178C8E7C0467C20002078200020DC
:108260008020002088200020F8B5124C071C2068D0
:1082700000F038FD002807D10F4D01262B68BE40C5
:10828000334202D0B3432B60F8BD381C01F002F832
:108290000A4B1A6800280BD032431A602A68084B30
:1082A00016432068196800222E6000F08DFCEBE771
:1082B000B243F2E7842000208820002080200020A4
:1082C00074200020F0B5474680B4061C82B00D1C17
:1082D000141C0720042A03D802B004BC9046F0BD49
:1082E00000F0B4FE00282DD0194B1A4A1E601A4B1C
:1082F0001D701A4B1C6000231360194A6C1E13601A
:10830000E4B2002D18D0174903278846002500E065
:108310001C1C6A46E300F31817709570D5709A78A4
:1083200069464A701878424600F09AFE0028D3D178
:10833000631EDBB2002CEBD100210B4A0B4800F08E
:108340000FFCC9E700F048FE0028CDD0C4E7C046C6
:1083500078200020802000207C2000207420002035
:108360008820002069820100C5810100842000204E
:1083700070B5094D2B78002B0BD0084E00243268C5
:10838000E300985C012100F033FF2B780134A34215
:10839000F5D8002070BDC0467C2000207820002049
:1083A000BFF34F8F024A034BDA60BFF34F8FFEE7F4
:1083B0000400FA0500ED00E010B5031C9A888068FF
:1083C000DC68241A0420A24200D210BDD868024002
:1083D00018688154DA6800200132DA60F5E7C04697
:1083E00010B58468C268031C0520944209D09868BF
:1083F0009A8802401868825C00200A709A680132EC
:108400009A6010BD1A4A802189028023D150194BED
:108410008022D221520289005A50C22189005A502A
:1084200001225A602F200138C046C046C046C046CF
:10843000C046C046C046C046C046C046C046C0460C
:10844000F1D19A600C4B00221A602F200138C046EF
:10845000C046C046C046C046C046C046C046C046EC
:10846000C046C046C046F1D1044B1A707047C046A2
:1084700000E100E0001001408C200020B42000202A
:10848000F0B5304BA02100224900474680B45A5035
:10849000A22149005A50A42149005A50A62149005E
:1084A0005A50802149005A50822149005A50264A88
:1084B0001468601C37D0254A00269D58244B254A55
:1084C0001B68254FED1A2D022D0A904601E0621C13
:1084D0001AD0E3001B1938689B00C3185A68AA42D7
:1084E00012D84046AD1AB6181C6A9A69D969036851
:1084F000002B1BD0101C98470028E8D00022002138
:10850000FFF74EFF621CE4D1144B15491A780B7823
:108510009A420ED0134A9B009E5080218023124A1B
:1085200049035B00D15004BC9046F0BD081C904745
:10853000CDE7531CDBB2022B01D00B70EAE700231E
:108540000B70E7E700100140A420002004050000A4
:108550008C2000209020002094200020A0200020CB
:10856000A1200020AC20002000E100E0F0B55F4633
:1085700056464D464446F0B4BA48BB4BBB4900682A
:108580001A7809788BB00690914200D134E201321A
:10859000D2B2022A00D1FDE11A70B54B9200D25836
:1085A0000699039253181B02AE4A1B0A136001235B
:1085B0000793111CAF4EB04BB04FB14C36681B78CF
:1085C000B0483F68096824780268049602930197CE
:1085D00009910894B14605969B460020351C5B46E0
:1085E000013BDBB29B46FF2B72D05F460199FE0038
:1085F0008E1974783378A4466345F0D05C007768B0
:10860000E418B1780133DBB2E4003C19C91A4F1EFB
:10861000B941277849420B40022F15D0032F10D1C2
:10862000291C6C1C0DD0CC006118890051180875EC
:10863000096A4C1CF7D175788946AC460C1C251C80
:10864000DAE72C1C251CD7E76168CF007C18A40052
:10865000A418BA46277DA0462C1C002FEFD06F1C13
:1086600014D0A94200D183E19C462F1C0B1C00951D
:1086700002E0A34210D0271CF900C9198900511843
:108680000C6A651CF5D1009D63462C1C4546287577
:108690007778251CBC46AFE70C1C009D191C63466F
:1086A000A4468F4200D14FE154466718BF00D71946
:1086B0002C1C396A7D68674639624F1CE6D0CC00B5
:1086C0006118890051184C6865194D604C46DDE70A
:1086D000684F4E4605953E6009986249089D684C72
:1086E000079E08602570002E00D055E1059804997A
:1086F000431A5A1E9341DBB2069301235B429C4608
:108700005E4E604F3668574804965D4C594E3D6842
:10871000076824783668BB460021059F03940096BD
:108720008946029B013BDBB20293FF2B00D1ADE0F7
:10873000049CDB00E418A246644601343FD0664640
:10874000F4006444A4002C19216AA368E068E046A0
:108750008C465E469A1B4C491202120A8A4263D822
:108760001018606001214E4601204942A660E66073
:10877000207521627A1C6DD0F900C9198900691829
:10878000626848683E1C824208D855E0D900C91882
:10879000890069184868904259D21E1C0B6A121A47
:1087A000581CF3D12362F3009E19B600AE1941465E
:1087B00062603B1C31621F1C64460134BFD15646C7
:1087C000337872789A42ACD05A0056465446D21842
:1087D00064680133B178D200DBB2A21833709942D9
:1087E0003CD051683B1C884611780129E3D14346AF
:1087F000DC004444A4002C19217D3B1C0029DAD163
:108800009368A360D068E060166926615269E261EE
:10881000039A002A9DD000235E46A1609A1B1A4944
:108820001202120A8A429BD9F31A1B021B0A8342C4
:108830000AD2C01A606095E7821A4A6043462762EE
:10884000444600941F1CB7E74B4663608AE7801AD2
:108850004860A7E7434600931F1CADE748463070C9
:10886000BFE7C0468C200020A0200020A1200020CF
:10887000AC200020A4200020982000209C20002074
:10888000A820002094200020FEFF7F00009863496C
:10889000059A0860974200D16EE07C1C00D1BAE0D6
:1088A0005F4DFA002B68D719BF00DB195C685D4A81
:1088B0005D4B5E4E9A5831685D4D571A3F023F0A34
:1088C00028780337B846002821D18020D1264002DD
:1088D000B6009851C126B6009851C0275548802649
:1088E000B6027F00C6510660012018602F200138B3
:1088F000C046C046C046C046C046C046C046C04648
:10890000C046C046C046C046F1D101232B70434645
:10891000A34200D2231C5B181B024349A8201B0A58
:10892000C0000B503F489B1A09581B02891A0902C4
:10893000090A03311B0A994222D9802180233D4A2A
:1089400089025B00D1501BE0E900491989005118E8
:10895000271C096A4C1C02D089460C1CA9E6324C23
:108960000125A56089460C1C002108950991A0E607
:1089700047464146C446ECE7069B002B00D08CE7F7
:108980002D4C002323700BB03CBC90469946A24668
:10899000AB46F0BD0022FFE5214A012317685B4288
:1089A0004A46059D00240026181CBC461BE0EB002F
:1089B0005B199B0063445968039FB94222D87A1A15
:1089C00003921F6A1A6964185E601E75B846002A11
:1089D00007D00699186267183F023F0A9F60DA6065
:1089E000281C454642466B1CE1D10C4C05950125DF
:1089F00084462260069583E60024002503940795AB
:108A00000A49D7E5C91B8446044859600121026020
:108A10000595069174E6FFF7F5FCB1E7A420002068
:108A20009420002004050000001001408C2000204C
:108A3000B420002000E100E0A8200020F0B5574657
:108A40004E464546E0B481468A4690461F1C0720A4
:108A5000990704D01CBC90469946A246F0BD002B55
:108A6000F8D0FFF7CFFC314B089A50461A60304BD4
:108A7000514618702F4B1F60002955D05146CA002F
:108A800053189B003C1C00250026243526702675B3
:108A900024349D42F9D152449200274BBF1803223F
:108AA0001A70264B391C1F6043465A004244183145
:108AB000D200796089188A18F9607A610121204A08
:108AC000494211601F4A002313701F4A3B70137004
:108AD0007B703B727B723B747B7480221B4BC0218A
:108AE000404652034900B870B872B8745A50C52154
:108AF00089005858FF24A043C024204358501A60CE
:108B0000A121134AC90048465050C42189005C582D
:108B100010482040C0242402204358500E4B00200F
:108B2000D2580E4B1A6095E70022B4E7902000203F
:108B3000A220002094200020982000209C200020CB
:108B4000A4200020A0200020A120002000E100E0BF
:108B500000100140FF00FFFF040500008C200020F2
:108B6000F0B5174B94461C68002C1CD0002A18D076
:108B7000002816D0134B1E78002E10D02378002B1F
:108B800013D02434002307E0271C2434251C243D63
:108B90002D781A1C002D0AD00133B342F4DB0420D7
:108BA000F0BD0720FCE70820FAE7271C002201237C
:108BB0003B7063467970BB6102600020F0E7C046FD
:108BC00094200020A2200020F0B5474680B43D4B01
:108BD0001C68002C47D03C4B1D780723854203D8E6
:108BE000181C04BC9046F0BD0429F9D9C3001B1819
:108BF0009B00E41825780823012DF1D16378012B1F
:108C000033D000239846314B5C681023E405E40D13
:108C10002FD12F4C2668F6187378B4785D1C2C1B66
:108C2000671EBC41644225403478AC421FD05C00D2
:108C3000E4187368E4001C190423002CD0D001232D
:108C400023706060234B24484746C358E160A3600B
:108C5000626180218023214A5B004903276175708E
:108C6000D1500023BCE70823BAE78846CBE70423AA
:108C7000B6E7103CE3B25DB2002D13DBAD08C035A2
:108C8000164BAD00EB5803252C40E400E3401C06D6
:108C9000A40FE4B20023012CBBD00823032CB8D0CE
:108CA0001023B6E70F241C40083C0D4DA408A40077
:108CB0006419032564682B40AB40DC40E4B2A4098E
:108CC000E7E7C04694200020A220002000ED00E04D
:108CD0009C200020040500000010014000E100E09D
:108CE00018ED00E030B5334B1A68002A35D0324B0E
:108CF00019780723814201D8181C30BDC3001B1806
:108D00009B009A5C0823012AF6D12C4B5A68102349
:108D1000D205D20D25D12A4A1168C9184B788C7812
:108D20005A1C141B651EAC41644222400C789442CC
:108D300015D05C00E4184B68E4001C190423002CD7
:108D4000DAD002232370606080234A7080211D4A9C
:108D50005B004903D1500023CEE70823CCE704236E
:108D6000CAE7103AD1B24BB2002B13DB9908C031DD
:108D7000144B8900CB5803210A40D200D3401A0675
:108D8000920FD2B20023012AC5D00823032AC2D0F1
:108D90001023C0E70F230B40083B0B4A9B089B00A6
:108DA0009B185A68032319409940CA40D2B29209CD
:108DB000E7E7C04694200020A220002000ED00E05C
:108DC0009C20002000E100E018ED00E00B7B002B70
:108DD00004D10B6801220271036070474B680022C6
:108DE000F9E7C04610B50279031C002A08D048688C
:108DF0001A688968841A8C420CD98818186008E0AF
:108E000004688A680868211A914207D8012218600C
:108E10001A7110BD002218601A71FAE7A01A1860C2
:108E2000F7E7C04610B5204C84B02378DBB2002BA6
:108E30000CD0022B0CD9032B08D11C4B0121002292
:108E40002270D9605960A021C9005A5004B010BDE9
:108E500017488268C3689A421AD02378022B02D03E
:108E6000124B01229A6069460731FFF7B9FA0028D0
:108E70000ED10E4BC221802289005A506946C87912
:108E80000C49585002212170C12189005A50DDE758
:108E9000064A0123D36002A8237003230370064B04
:108EA0001B689847D2E7C046CC2000200020004035
:108EB000BC2000201C050000B820002010B5244B69
:108EC00084225200995882B0002920D1204A8E2352
:108ED0005B00D158002915D11D4B922252009958A0
:108EE00000290DD0002199509021C9005A58684698
:108EF0005A50022369460B70164B01921B68984723
:108F000002B010BD0021D150FFF78CFFE4E7002133
:108F10009950A322D20099580F4CC9B2201CFFF7D8
:108F20004BFA00280BD1A368E268D31A012BCDD1EC
:108F3000084B6A4610701B6868469847C6E70123CD
:108F400069460B70034B01901B6868469847BDE764
:108F500000200040B8200020D0200020F0B50028DC
:108F60001FDB82081A4B9200D218C0B2C023032420
:108F70009B00FF250440E400D6582F1CA740890120
:108F8000BE430D40A540341C2C43D4501F23184031
:108F900001238340181CC0220D4B520098501860CA
:108FA000F0BDC0B20F230340083B0A4A9B089B0058
:108FB0009B180322FF240240D200DE69251C954045
:108FC0008901AE430C409440321C2243DA61DDE754
:108FD00000E100E000ED00E070B51A4C4E26A35D04
:108FE0000820002B00D070BD01256D42201C291CDB
:108FF00020222830FFF7DCF84823E554FF224923DC
:10900000E2544A23E5544B23E5544C23E55406200F
:109010004D230121E55425606560A560E56025616B
:109020006561A561E56125626562FFF797FF8021B3
:10903000C123054A9B000906D1500123A3550020F6
:10904000D1E7C046E020002000600040034A4E23E4
:10905000D05C431E9841C0B27047C046E02000205B
:10906000F0B54F464646C0B45E4B041C1818283075
:10907000057808207F2D03D80CBC90469946F0BD9A
:10908000C8788146002858D10425AC4604200A251A
:1090900086009F59013758D0461CB046B5424AD980
:1090A000B600F7583E1C01364BD0871CB846BD426F
:1090B00041D9BF00FE58371C013742D0C61CB0460C
:1090C000B54238D9B600F7583E1C013639D0071DD5
:1090D000B846BD422FD9BF00FE58371C013730D0EB
:1090E000461DB046B54226D9B6009F593E1C0136F2
:1090F00027D0871DB846BD421DD9BF00FE58371C7A
:1091000001371ED0C61DB046B54214D9B600F75877
:109110003E1C013615D008273F18B846BD420AD973
:10912000BF00FE58371C01370BD00930854202D9E9
:10913000586A01303AD004209EE700208446042576
:10914000A6E74046C6B2B44686001D192F1C283734
:1091500065469A514E463D70002E02D11818443093
:1091600004708A78002A16D1E0224D785200A018A7
:10917000A022AD008000D2058550CA78002A17D100
:1091800067467AB29B1844330A78197892010A43E9
:109190001A70002070E7A027A000FF05E022C01988
:1091A000D20085580226B5438550E6E70920C9E775
:1091B00063465AB20C4E9200A2239219DB00D0589B
:1091C0000D780A4924020140F82040010440C020E3
:1091D000D1502D048002D158284004430C43D45070
:1091E000002049E7E020002000600040FFE0FCFF95
:1091F000F0B5254A151828352C7863B2032B17DDF6
:10920000D31844331B789B09032B30D0012B37D064
:10921000C0229202A023DB058000C018E023DB00FF
:10922000C4581A492140C150C1580A43C250F0BD28
:10923000032CFCD816489C002418A220C0002758F4
:109240000126374327501C1C4034A4001048A4B208
:10925000002727500029EAD00021695689008A5842
:10926000002AE4D0C1229E4092008650DFE7A2236C
:10927000A022DB00D205D258012383401A42C7D175
:1092800080229202C6E7C046E0200020FFFFFCFFDC
:1092900000600040A223A022D205DB00D358C340C7
:1092A000181C012318407047F0B544465F465646E7
:1092B0004D46F0B4854A85B013680024012B6ED06A
:1092C000834B1968012900D177E0824B1A68012A83
:1092D00000D182E0804B1E68012E00D18DE07F4BD3
:1092E00000261968012900D198E022070BD0E30776
:1092F00000D59DE0A10700D5A9E0620700D5B4E044
:10930000230700D5C0E0002C06DB05B03CBC90462E
:109310009946A246AB46F0BDE023714DDB0098466E
:10932000C0232C1C2F1CC0219B0248344E37894679
:109330009A46019606E05946032900D1B0E001346F
:10934000BC42E2D021784BB20133F8D0C9B2081C3C
:109350004A4690432B1828331B785BB29B00EB588E
:10936000002BECD0A0268909F60582000291921903
:1093700041465658311C56463140090C8B46012156
:109380000E1C019986403142D5D05E46022ED6D1C0
:109390000299032900D196E002999847CFE7C121AD
:1093A0005048890041580B4200D189E7484B14606E
:1093B00019680124012900D087E7C1224949920098
:1093C000895802220A4200D17FE700211960414BEF
:1093D00014431A68012A00D07CE7C1224149920057
:1093E000895804220A4200D174E7002119603A4BDF
:1093F00014431E68012E00D071E7C1223949920042
:10940000895808220A4200D169E700211960334BCC
:10941000144319680026012900D066E71E608023E6
:109420001B061C43A022A223DB00D205D6585CE712
:109430002C4AA223DB00D058D158294BC004890301
:10944000890FC00E1B689847A10700D455E7254A2D
:10945000254BD058D158224BC0048903C00E890F28
:109460005B689847620700D44AE71E4AA323DB00E3
:10947000D058D1581A4BC00489039B68C00E890F7D
:109480009847230700D43EE7164A184BD058D158C6
:10949000134BC0048903C00E890FDB68984732E77D
:1094A000029E032E00D077E7022603964646915986
:1094B0000F4E3140464691519159039E36040E435A
:1094C0004146565068E702990391EFE7006100407A
:1094D00004610040086100400C6100407C61004074
:1094E000E020002000600040140500001C05000082
:1094F000FFFFFCFF29DF704728DF704730B5021CF3
:1095000083B0002806D0112806D10F4B0822196815
:109510000A431A6003B030BD0C490D4C0B78246827
:109520009800C3189B00CB18D968181C4D00691807
:109530008D0019795B690094064C0C302C59A047BA
:10954000054B04221A70E5E7142200203021002088
:10955000202200200422002019220020F0B55646C7
:109560004D4644465F46F0B45C4D85B02C785C4E69
:10957000012C00D186E0002C6CD0022C16D0032CDC
:109580000DD1584B1868FFF7B7FF021E07D01128FE
:1095900000D07FE0544B08221C6822431A6005B0BB
:1095A0003CBC90469946A246AB46F0BD33784E4F40
:1095B0009A00D3189B00F31804333968DA68994687
:1095C00080235B0503911969101C0904090C92465C
:1095D0009B4605F0D3FB434B4A4618605B4619692E
:1095E00080465388504601380904C018090C05F01C
:1095F000C5FB804549D0039C03239C433B4B3C6007
:109600001B68002B02D1022323425ED0384B00227C
:109610001A70384B586980235B05421C50D0196979
:109620000904090C05F0AAFB80235B051A69196976
:10963000431E1004000C09045843090C05F09EFB5E
:10964000FFF75AFF021EAAD0112823D108231C437A
:109650003C60A4E7284B1C60284B1C607378002BEF
:109660009DD033789A00D3189B00F618F288244BCB
:109670001A603379032B25D0042B23D0012B00D083
:109680008DE72B7000F0CEFB89E703990123994306
:109690000C43B3E733781A4C9900CB189B00F618AB
:1096A000F16824684F00791873698F00317900944C
:1096B000144C301C0C303C59A04704232B706EE72F
:1096C0005869B1E700F020F869E7094A404613708D
:1096D000FFF712FFFFF712FF61E7C04619220020D3
:1096E000302100202C2200201422002028220020DB
:1096F000182200200010001024220020FC2100204D
:109700002022002004220020F8B55F4656464D4630
:109710004446F0B4464A474813789900CB189B005A
:10972000D318DD6880225205116991466A005219EA
:109730009200821856891089526870431C698018FB
:109740001E89DA883C4B97199B46904600235A465F
:10975000090482461360090C201C3F1905F052FBD6
:10976000002906D14A4613699BB2984525D0574532
:1097700021D0022D21D080256D05296930190904D9
:10978000090C05F03FFB2D4B8908196029695745E5
:1097900006D00904090C381C05F034FB00291CD143
:1097A000274B02221A70FFF7D9FE3CBC904699461F
:1097B000A246AB46F8BD002EDBD180235B051969BC
:1097C000201C0904090C05F0D9FA1E4B032218606D
:1097D0001B4B1A70FFF7C2FEE7E7296952462B6957
:1097E00090B289B2984605F0C9FABCB24346061C4D
:1097F00099B2201C05F0C2FAB6B280B286420DD0F2
:109800002B692969201C89B21D0405F0FBFA2D0C77
:1098100089B26D1AAD085B461D60C1E7524613045C
:109820003F041B0C3F0CDB1B9B085A461360B7E739
:1098300030210020042200200022002028220020C5
:10984000192200202C220020F8B54F464646C0B40D
:1098500008AC24880427A4461B4C6578261C0A2DD6
:109860002DD02478A0466419092C00D90A3C14276D
:109870007C4334196261221C20710C32B94681C9C3
:1098800081C2E380114B60461A78013500272081A0
:109890007570BA4213D142464C46544336190C4AAD
:1098A000F18811603279032A07D0042A05D0012AF1
:1098B00005D11A70FFF752FE01E0FFF725FF381CB3
:1098C0000CBC90469946F8BD30210020192200209A
:1098D0002022002070B5254B08211A680C1C82B08C
:1098E000144009D08A431A60214B1A78214B920008
:1098F000D358984702B070BD1F4D2B789800C01800
:10990000800028180179031D042929D0C2681B6929
:109910005600B218194E920036680C300096184E58
:1099200096590022B0472A78012093009B189B008B
:10993000EB181C71DC80D8601C615C611C816B7849
:109940000132013BD2B26B700A2A06D02A700D4B4D
:1099500000221A70FFF702FECCE700232B70F6E717
:10996000084B01221A70FFF7F9FDC3E7142200200B
:10997000182200206CEF010030210020202200205E
:10998000042200201922002030B5224B83B05869F0
:1099900080235B05411C3BD019690904090C05F0C3
:1099A000EDF980235B051C6919691A69431E2004BF
:1099B000000C5843184B09041B68090C92B292081A
:1099C0005943FFF797FD021E06D0112806D1134B0D
:1099D00008221C6822431A6003B030BD1049114CA4
:1099E0000B7824689800C3189B00CB18D968181C02
:1099F0004D0069188D0019795B6900940A4C0C3090
:109A00002C59A047094B04221A70FFF7A7FDE3E782
:109A10005869C6E7001000102C22002014220020F4
:109A200030210020202200200422002019220020C2
:109A300030B580235B0522491A690C681204120CA8
:109A4000013C54431F4A83B05069411C35D0196909
:109A50000904090C05F092F980235B0519691A4B7A
:109A600009040138090C41431A68201CFFF742FD24
:109A7000021E06D0112806D1144B08221C6822436E
:109A80001A6003B030BD1249124C0B78246898005C
:109A9000C3189B00CB18D968181C4D0069188D009D
:109AA00019795B6900940C4C0C302C59A0470B4B76
:109AB00004221A70FFF752FDE3E75869CCE7C0466D
:109AC0002C22002000100010282200201422002048
:109AD0003021002020220020042200201922002012
:109AE00030B51F4C0822236883B01A4215D11D1CC3
:109AF000AB0702D501231D4325601A4B02221A70C1
:109B0000194B1868FFF7F8FC021E04D011280DD17C
:109B100008231D43256003B030BD93432360114BE0
:109B20001A78124B9200D3589847F4E71049114C19
:109B30000B7824689800C3189B00CB18D968181CB0
:109B40004D0069188D0019795B6900940A4C0C303E
:109B50002C59A047094B04221A70FFF7FFFCDAE7E3
:109B600014220020182200202C2200206CEF01007B
:109B70003021002020220020042200201922002071
:109B8000F0B5294C8026237876059A00D3189B00DF
:109B9000E3181A89DD880433DB683169AD18ED18E4
:109BA000090483B0090C281C05F02CF91F4B0F1C6D
:109BB0005869411C35D031690904090C05F0DEF8FB
:109BC00080235B05196901380904090C4143184BCE
:109BD000C9191A68281CFFF78DFC021E06D011282F
:109BE00006D1144B08221C6822431A6003B0F0BD52
:109BF00023789900CB189B00E418E36821795E0074
:109C0000F3189E00201C63690B4C0C3024680094F0
:109C10000A4C3459A0470A4B04221A70FFF79EFCE5
:109C2000E4E77069CCE7C046302100200010001046
:109C300000220020142200202022002004220020E4
:109C40001922002030B5154B83B01868FFF754FC7B
:109C5000021E06D0112806D1114B082219680A43AA
:109C60001A6003B030BD0F490F4C0B782468980080
:109C7000C3189B00CB18D968181C4D0069188D00BB
:109C800019795B690094094C0C302C59A047084B9A
:109C900004221A70FFF762FCE3E7C0462C22002082
:109CA0001422002030210020202200200422002045
:109CB0001922002070B52B4C0823256882B02B4256
:109CC00009D09D43284B25601A78284B9200D35821
:109CD000984702B070BD244B01221A70244B58697A
:109CE000431C3AD080235B0519690904090C05F06F
:109CF00045F880235B051E6919691A69431E300403
:109D0000000C58431B4B09041B68090C92B29208C3
:109D10005943FFF7EFFB021EDBD0112803D10823C4
:109D20001D432560D5E71449144C0B78246898002E
:109D3000C3189B00CB18D968181C4D0069188D00FA
:109D400019795B6900940E4C0C302C59A0470D4BCF
:109D500004221A70FFF702FCBBE780235B055869F9
:109D6000C7E7C04614220020182200206CEF010033
:109D7000001000102C220020302100202022002082
:109D8000042200201922002030B5204B83B05869EE
:109D900080235B05411C37D019690904090C04F0C4
:109DA000EDFF80235B051A691969431E1004000C3E
:109DB00009045843090C04F0E1FFFFF79DFB021E64
:109DC00006D0112806D1124B08221C6822431A60C3
:109DD00003B030BD0F49104C0B7824689800C318AD
:109DE0009B00CB18D968181C4D0069188D00197993
:109DF0005B690094094C0C302C59A047084B042295
:109E00001A70FFF7ABFBE3E75869CAE700100010D0
:109E100014220020302100202022002004220020D3
:109E200019220020F0B53E4D83B02B789C00E41839
:109E3000A40080232C195B0504341969628889B257
:109E40008A4214D8E168A088920840182169FFF777
:109E500051FB021E06D0112829D1324B08221D6861
:109E60002A431A606288304B1A6003B0F0BD19694A
:109E7000A0880904090C521AE1681B69401821697D
:109E8000801889189AB29208FFF734FB021E06D098
:109E9000112825D1234B08221C6822431A608023F5
:109EA0005B051A69204B1204120C1A60DDE72B784F
:109EB0009900CB189B00ED18EB6829795F00FB181F
:109EC0009F00281C6B69194D0C302D680095184DAA
:109ED0007D59A847174B04221A70FFF73FFBC1E7D3
:109EE0002B78124C9900CB189B00ED18EB68246876
:109EF0005E00F31829799E006B6900940C4C281CB5
:109F00000C303459A0470B4B04221A70FFF726FB84
:109F100080235B051A69044B1204120C1A60A4E733
:109F20003021002014220020FC21002020220020CB
:109F30000422002019220020F0B55F464D46444619
:109F40005646F0B4734D08232C681F1C85B027407B
:109F50005BD17148037880469A00D3189B00434434
:109F60001E1C04360393F2687388013AD218B38832
:109F7000D21880235B059B461969684B9246186886
:109F8000674B814600284FD11F6880235B05196904
:109F900050460904090C04F0F1FE874259D34FD012
:109FA0004A46002A4FD1039C2179042900D1ABE015
:109FB000B3685C4A5C001268E3189C003369009245
:109FC000594A301CA45808300022A0474046027865
:109FD000012093009B189B0043444C46D86049469F
:109FE0004846DC801C8119714446186158616378C9
:109FF0000132013BD2B263700A2A55D022704B4B1A
:10A0000000221A70FFF7AAFA07E09C43484B2C6025
:10A010001A78484B9200D358984705B03CBC9046FC
:10A020009946A246AB46F0BD1B680904090C504690
:10A03000029304F0A3FE029B984238D01F1CA4E7B1
:10A040004846002805D03A4B03221A70FFF798FDC6
:10A05000E3E7394B00221A60354B0222381C1A7094
:10A06000FFF74AFA021ED8D0112819D041460B78C2
:10A070009900CB189B004344D9682A4C4D002468B2
:10A0800069188D00181C19795B690094264C0C30F6
:10A090002C59A047254B04221A70FFF75FFABCE742
:10A0A00008231C432C60B8E700232370A7E7224B4A
:10A0B0001F60012323432B601D4B1F701F4B5869EA
:10A0C000411C1BD05A4611690904090C04F056FEC4
:10A0D00080235B051A691969431E1004000C0904EA
:10A0E0005843090C04F04AFEFFF706FA021E94D00A
:10A0F000112806D109231C432C608EE75B46586962
:10A10000E6E744462378B3E7084B01221A70FFF7CD
:10A1100025FA82E7142200203021002000220020AE
:10A120002C220020202200200422002019220020BE
:10A13000182200206CEF01002822002000100010DF
:10A14000F0B54F464646C0B47E4D08232C6883B018
:10A15000234200D08FE07C4B1A68561C1E607B4B5C
:10A160001F68002F4BD17A4A137890469A00D31873
:10A170009B009946C1444F46043780235B05F8682D
:10A1800019697B880138C018BB880904C018090CFC
:10A1900004F0F4FD864200D280E06E4B00D179E0FD
:10A1A0001E68002E00D194E00122131C234000D031
:10A1B00089E022432A60684A1370684B58698023FB
:10A1C0005B05411C00D1B2E019690904090C04F0D7
:10A1D000D5FD80235B051A691969431E1004000C24
:10A1E00009045843090C04F0C9FDFFF785F9021E64
:10A1F00049D0112860D109231C432C6043E0564B01
:10A200000421197080235B0519690904090C4A436C
:10A210009046524A5069411C3AD019690904090C08
:10A2200004F0ACFD80235B05196901380904090CB1
:10A2300041433A1C4046FFF75DF9021E23D0112826
:10A2400036D043490B789800C3189B00CB18D968C7
:10A25000434C4D00246869188D00181C19795B69FE
:10A260000094404C0C302C59A0473F4B04221A70EC
:10A27000FFF774F907E09C43374B2C601A783B4B8F
:10A280009200D358984703B00CBC90469946F0BD55
:10A290005869C7E71B68002B00D085E72E4B0222C8
:10A2A000301C1A70FFF728F9021EECD0112803D1D8
:10A2B00008231C432C60E6E7444623789900CB181A
:10A2C0009B004344C3E7244B03221A70FFF758FC5A
:10A2D000D9E74A46117904292BD0BB68204A5C0093
:10A2E0001268E3189C003B6900921E4A4846A45835
:10A2F0000C300022A04743461A78012093009B1897
:10A300009B00434444461E71DE80D8601E615E613E
:10A310001E8163780132013BD2B263700A2A0ED0EB
:10A320002270114B00221A70FFF718F9ABE7586939
:10A330004FE70D4B01221A70FFF710F9A3E7002336
:10A340002370EEE7142200202C2200202822002077
:10A3500030210020002200201822002000100010D0
:10A360002022002004220020192200206CEF01008E
:10A3700070B5274C274D23782E689A00D3189B0080
:10A38000E318DA6882B051008A18181C19795B69E1
:10A390000096214E920096590C300022B047217849
:10A3A00000228B005B189B00E31801261A71DA80EB
:10A3B000DE601A615A611A8162780131013AD2B2C3
:10A3C000C9B262700A290BD02170144E0023336089
:10A3D0001348144E03703360002A05D102B070BDDB
:10A3E000002323700021F0E78B00591889006418BE
:10A3F000E3882B602379032B07D0042B05D0012B96
:10A40000ECD10370FFF7AAF8E8E7FFF77DF9E5E77D
:10A4100030210020202200200422002024220020BD
:10A4200019220020FC210020F0B546464F46C0B45A
:10A43000644D04262C7883B0231CB3430ED002282D
:10A4400011D003280AD1604B08211A6811425DD04F
:10A45000022C54D0032C4DD0012C4BD003B00CBC9B
:10A4600090469946F0BD022C49D0032C5DD0012CBA
:10A47000F4D1554B08211A6811423BD1534F54492E
:10A480003B7809689A00D2189200BA18D688761AD2
:10A49000B6B2D680002E6DD1D1684E4B480041181F
:10A4A00089008C46101C11795269984691464A4A97
:10A4B00063461268434400921A680C3094464B4637
:10A4C0000022E0473A7893009B189B00FB181E710E
:10A4D000DE80DC601E615E611E817B780132013BA3
:10A4E000D2B27B700A2A61D03A7000232B70FFF73A
:10A4F00035F8B3E78A431A60FFF730F8AEE7374B19
:10A500001A78374B9200D3589847A7E7354A136813
:10A5100001331360032B30D0022CEDD12F4B1A786E
:10A52000314B9200D358984798E7274B08211A6877
:10A530001142DFD12D4B1C6801341C60234B1A786B
:10A540009600B618B6009E1980225205306911692E
:10A55000F2880138338980180904C018090C04F006
:10A560000DFC8442C8D328D03379042B20D0FFF7C8
:10A57000FFFE73E7FFF756FC70E7144A164C13789A
:10A5800024689900CB189B00D318DA68181C510076
:10A590008A1819795B6900940E4C920014590C309A
:10A5A0000D22A0472E70FEF7D9FF57E73E709CE7BB
:10A5B00001232B70FEF7D2FF50E70D4B1B68002BD9
:10A5C000D2D199E719220020142200203021002046
:10A5D000FC2100200422002020220020182200203C
:10A5E00080EF0100242200206CEF01002C220020CB
:10A5F00000220020484B10B500202C241855402480
:10A600000022185542241A5344241A53542418552E
:10A61000562401211A535824D960187619625963B7
:10A620009964D9651A705A701A71DA801A615A6180
:10A630001A815A835A629A629A83DA859A63DA6334
:10A640001A86DA641A651A665A661A536824185507
:10A650006A241A536C241A537C2418557E241A53E6
:10A660008424195188241A518C241A5180241A5395
:10A670009024185592241A53982419519C241A5145
:10A68000A0241A5194241A53A4241855A6241A530A
:10A69000AC241951B0241A51B4241A51A8241A53C5
:10A6A000B8241855BA201A52C02019501967C4216D
:10A6B0005A50C8215A50BC215A525A679A67174BB0
:10A6C0001A80174B5869431C22D080235B051969F7
:10A6D0000904090C04F052FB80235B051A69831EF0
:10A6E0001004000C58430F4B0F4A186000231360EE
:10A6F0000E4A00211360138153810D4A002011700E
:10A700000C4A13600C4A13600C4B04221A6010BDF3
:10A7100080235B055869DFE73021002010220020EC
:10A72000001000101C2200202C22002004220020F7
:10A730001922002024220020FC21002014220020C5
:10A74000F8B54F464646C0B4304B041C1A680D1C81
:10A750000820530703D40CBC90469946F8BD002C42
:10A7600050D000294ED02368002B4BD080225205B8
:10A770001169A68889B207208E42ECD80F2EEAD93B
:10A78000E1880029E7D0224B71431F689846214B8E
:10A79000C91958698946431C36D011690904090C46
:10A7A00004F0ECFA802252051169431E0904090CD9
:10A7B000594307208945CED8B307CCD1164B042086
:10A7C0001E889946012EC6D00C20C0C5704313497F
:10A7D00025680B185F604550A08801361881E48811
:10A7E00060435C811169013889B2156904F014FB7A
:10A7F000ADB2013045434346EF194D461F602E80F0
:10A800000020A8E70E20A6E75069CBE7142200201D
:10A810001C22002000100010102200200422002022
:10A8200030B5114B1C680823650701D4181C30BDD6
:10A83000002806D0002A04D00368002B03D0072389
:10A84000F4E70E23F2E7094C2568002DF7D025899F
:10A850004068694309186089454360682D18A9421A
:10A86000EDD213605160E1E71422002004220020A1
:10A87000F0B5474680B41E4C051C246882B00E1CFF
:10A88000171C0820610703D402B004BC9046F0BD39
:10A89000002E2BD0002D29D02A680720002AF3D1C2
:10A8A000144A1468002CEFD06968548988461189CD
:10A8B00052684C43A44662449045E5D2002FE3D051
:10A8C000B942E1D3FA189142DEDB1020B107DBD1A7
:10A8D00003221342D8D144461442D5D10093291CF7
:10A8E000321C3B1C0120FEF7AFFFCDE70E20CBE76B
:10A8F0001422002004220020F0B5474680B41E4CEC
:10A90000051C246882B00E1C171C0820610703D4A4
:10A9100002B004BC9046F0BD002E2BD0002D29D0F3
:10A920002A680720002AF3D1144A1468002CEFD0BB
:10A93000696854898846118952684C43A446624428
:10A940009045E5D2002FE3D0B942E1D3FA18914205
:10A95000DEDB1020B107DBD103221342D8D14446FD
:10A960001442D5D10093291C321C3B1C0420FEF755
:10A970006BFFCDE70E20CBE714220020042200203D
:10A98000F0B546464F46C0B4254C83B02568071C39
:10A990000E1C90460824680705D4201C03B00CBC8C
:10A9A00090469946F0BD002906D0002F04D00C68CF
:10A9B000002C03D00724F0E70E24EEE7194D2A6897
:10A9C000002AF7D02A896889496850438446686814
:10A9D00084446145EED240460028EBD04245E9D39D
:10A9E0009C46C4446245E5DBBA0701D01024D4E795
:10A9F00003221342FAD10A409146F7D15918424630
:10AA0000381C04F07AFA30680C2343434246009223
:10AA1000ED58301C02214A463B1CA847BDE7C04602
:10AA20001422002004220020F0B546464F46C0B450
:10AA3000214A83B01268051C0E1C0824530705D454
:10AA4000201C03B00CBC90469946F0BD002830D0C5
:10AA500002680724002AF3D1184B1A68002AEFD0A5
:10AA60001A89476858685B89904653431B18994672
:10AA70009F42E5D21024BB07E2D1381A111C04F022
:10AA8000C1F907240029DBD1301C414604F0BAF992
:10AA900089B20029D4D1002ED2D0F719B945CFD32D
:10AAA000002200920320291C331CFEF7CDFE041C5B
:10AAB000C6E70E24C4E7C04614220020042200206A
:10AAC000074B1A680823510701D4181C7047002847
:10AAD00004D0044B5B7803600023F6E70E23F4E711
:10AAE000142200203021002010B5074AA023DB05E6
:10AAF000995880221204141CA1208C43C0001C50C1
:10AB000002480A401A5010BD040500000C05000060
:10AB1000F8B54F464646C0B4041E112C09D0122881
:10AB20003AD013283AD014283AD00CBC9046994613
:10AB3000F8BD0025012911D000291FD00229F4D128
:10AB40006B005D19204B5D196E78002EEDD01F4B08
:10AB50001B68002BE9D0301C9847E6E71A4F6A00C3
:10AB60005319FE5CFB185B789046002B1AD14246C5
:10AB70005319FF18BA78164B5A55E6E7154B186863
:10AB8000FEF7B0F8104A6B005B19D318104A9B7897
:10AB9000565D9E42C9D1D8E70125CBE70225C9E71A
:10ABA0000325C7E70B4B18680B4B1B689900CB18A4
:10ABB00059000A4B1A1C9946FEF706F80028D6D110
:10ABC0004A461470D3E7C046542200204422002095
:10ABD0004C220020342200203C2200203822002079
:10ABE000F8B5AA4B1B68DA0700D4F8BDA84B1C784F
:10ABF000172CFAD8A749A2008A589746A64AA0233C
:10AC0000DB0599588022D203141CA1208C43C0007C
:10AC10001C50A2480A401A50A14B00221868A14BB0
:10AC20001B689900C918FDF7CFFFDEE7A023F021CC
:10AC3000DB054904994A9950A1220021D20099507C
:10AC4000D3E7954AA023DB0599588022D203141C30
:10AC5000A120C0008C431C5090480A401A50904BD1
:10AC6000002218688F4B1968FDF7AEFFBDE7A022E0
:10AC7000A121A020D2054004C900505087480026D9
:10AC8000854C16501459F0256D0465408024A403AA
:10AC9000254000D1F2E054501650032108221970CB
:10ACA0007F4B18687F4B196851430022FDF78CFFDA
:10ACB0009BE7A022A121A020D2054004C90050504A
:10ACC00076480026744C16501459F0256D046540E2
:10ACD0008024A403254000D1CBE054501650042119
:10ACE0002822DCE7A023A122DB05D200E0214904D1
:10ACF0006A4880249950A403002119501C5099508F
:10AD000073E7694D2868FDF7EDFF11231C1B00D187
:10AD10009FE0002800D09CE0012C0CD0C8206421CA
:10AD2000604304F02BF85F4B2D6819680022414303
:10AD3000281CFDF749FFA0238021DB05090479E7E2
:10AD4000A023B021DB054904A122D2009950534A27
:10AD50000021995049E7A022A121A020D20540045A
:10AD6000C90050504D4800274B4D17505559F026FB
:10AD700076046E408025AD032E406FD0555017509D
:10AD80002822022C62D01C708AE7A023A122C021B5
:10AD9000DB05D20049044148C0249950E403002156
:10ADA00019501C50995020E7A023A122D021DB0587
:10ADB000D2004904394880249950E40300211950F5
:10ADC0001C50995011E7A023F021DB054904BBE793
:10ADD000A023A122DB05D200A02188E7A022A12187
:10ADE000A020D2054004C90050502C4800262A4C0F
:10ADF00016501459F0256D0465408024A4032540A5
:10AE000034D05450165005221A70254B0022186871
:10AE1000244B19684900FDF7D7FEE6E6A022A121E0
:10AE2000A020D2054004C90050501C4800261A4CEE
:10AE300016501459F0256D0465408024A403254064
:10AE400021D05450165006221A7008E712221C70A6
:10AE500026E7A0238021DB05090475E7155056502D
:10AE60000422022C8FD102221C7019E71450555075
:10AE7000C9E7145055500422042110E714505550CE
:10AE8000022203210BE714505550DCE7302200204A
:10AE90004822002094EF0100040500000C0500008A
:10AEA000502200203C2200204022002008B50378D8
:10AEB000112B06D0122B12D0132B12D0142B12D020
:10AEC00008BD00235A00D318084AD3185878002820
:10AED000F6D0074B1B68002BF2D09847F0E7012310
:10AEE000F0E70223EEE70323ECE7C04654220020FC
:10AEF00044220020002303280ED8A223A022DB0036
:10AF0000D205D258064B8000C35801209840031C3C
:10AF100093435A1E9341DBB200200B707047C0462A
:10AF200054F0010070B5CD4B041C1B680020DA07FB
:10AF300000D470BD172CFCD8C94AA300D3589F4633
:10AF4000C84AA023DB0599588022D203141CA120F3
:10AF50008C43C0001C50C4480A401A50C34B002206
:10AF60001868C34B1B689900C918FDF72DFEE0E770
:10AF7000BC4AA023DB0599588022D203141CA120CF
:10AF8000C0008C431C50B8480A401A50B74B0022EE
:10AF90001868B74B1968FDF717FECAE7B54D286862
:10AFA000FDF7A0FE11231C1B00D132E1002800D0C8
:10AFB0002FE1012C0CD0C8206421604303F0DEFE99
:10AFC000AB4B2D68196800224143281CFDF7FCFD9E
:10AFD000A54AA0238021DB0509049950A122002164
:10AFE000D2009950A5E7A023F021A122DB05490456
:10AFF000D20099509C4A002199509F4B12221A70FE
:10B00000002096E7A023A122E021DB05D20096488C
:10B01000490480249950A403002119501C509950D0
:10B02000954B13221A70002083E78F4AA023F0214A
:10B03000DB0549049950A1220021D20099508E4B82
:10B0400000201C7075E7A022B021A123D20549047D
:10B05000DB00D150844900235350874A00201370ED
:10B0600067E7A023A122A021DB054904D200995063
:10B070007D4900267B485E501858F0256D044540F8
:10B0800080208003054000D1D6E098505E502823F0
:10B09000022C00D1DFE0784A1470744A1068744AB8
:10B0A000116800225943FDF78FFD42E76E4AA02345
:10B0B000F021DB0549049950A1220021D2009950CA
:10B0C000002036E7A023A122D021DB05D20066486C
:10B0D000490480249950E403002119501C509950D0
:10B0E000654B14221A70002023E7A023A122A0217F
:10B0F000DB054904D20099505B49002559485D5051
:10B100001858F0246404444080208003044000D197
:10B110008AE098505D500823032117E0A023A12264
:10B12000A021DB054904D20099504F4900254D4824
:10B130005D501858F024640444408020800304408B
:10B1400000D181E098505D50282304214A4A1170B3
:10B15000A3E7A023A122A021DB05D2004248490495
:10B1600080249950A403002119501C509950424B3F
:10B1700007221A700020DCE6A023A122C021DB05F3
:10B18000D20039484904C0249950E40300211950E1
:10B190001C509950384B15221A700020C9E6A02384
:10B1A000A122A021DB054904D20099502E49002597
:10B1B0002C485D501858F0246404444080208003DB
:10B1C000044036D098505D502B4B05221A70274B07
:10B1D00000221868264B19684900FDF7F5FCA8E61F
:10B1E000A023A122A021DB054904D20099501E49C9
:10B1F00000251C485D501858F02464044440802009
:10B200008003044024D098505D501B4B06221A70D6
:10B21000BCE6A0238021A122DB050904D2009950BD
:10B22000114A0021995084E658509C500321022372
:10B230008CE758509C50C7E758509D500423022C6F
:10B2400000D028E7022326E758509C5004237CE7CF
:10B2500058509C50D9E712231DE7C04630220020E9
:10B26000F4EF0100040500000C050000502200204E
:10B270003C2200204022002048220020214B10B513
:10B280001960214B041C1860204B00201A60A30792
:10B290000FD51F4B0D221A700E22DA700F229A71F1
:10B2A00010225A721B484A080421FDF70BF80028A7
:10B2B0001ED0E3070CD5A023F022A121DB05520408
:10B2C000C9005A50144900245C50A321C9005A50A7
:10B2D000002800D010BD11480021114AFDF740FCA4
:10B2E0000028F7D101210F4A0F48FDF739FCF1E79B
:10B2F000FDF73EF80028DCD100210C4A0C48FDF790
:10B300002FFCD6E73C2200203022002044220020DF
:10B310005422002064F001000C050000502200209F
:10B32000E1AB0100E9AA010040220020ADAE01001E
:10B3300034220020031C0720032B00D97047012A68
:10B3400013D0012917D0002908D0022919D159009A
:10B35000CB180D490020CB185A70EFE75900CB18D5
:10B3600009490020CB189A70E8E700220129E8D1AA
:10B370001A1C0D32D2B25900CB18034900205A547E
:10B38000DCE70720DAE7C046542200201E4BA0224B
:10B39000D205D2581D4B1A400023C10701D5C02346
:10B3A0009B021343A021184AC9058B50E023184A79
:10B3B000DB00D158154B19400023820701D5C0236B
:10B3C0009B021943124AE023DB00D150114AD158A5
:10B3D0000E4B19400023420701D5C0239B0219439D
:10B3E0000C4AE023DB00D1500B4AD258074B1A40DD
:10B3F0000023010701D5C0239B0213430649E02225
:10B40000D20000208B50704744070000FFFFFCFF74
:10B41000480000504C0000505000005008B5032078
:10B42000FFF7B4FF031C0020002B04D0981F421E1E
:10B4300090414042184008BD10B50388102B08D039
:10B44000112B05D1294A1368013B1360002B07D04B
:10B4500010BD264C2368002B11D001332360F7E781
:10B46000002002210122FFF765FF00282BD00728CA
:10B4700029D01F4B1B68002BEAD09847E8E7002033
:10B4800000210122FFF756FF002808D0072806D028
:10B49000174B1B68002B00D098472368DDE701207D
:10B4A00002210722FFF746FF002801D00728EFD12D
:10B4B000002002210422FFF73DFF0028EDD00728DD
:10B4C000E6D12368C9E7012002210722FFF732FFF6
:10B4D000002801D00728CCD1002000210A22FFF744
:10B4E00029FF0028B4D00728C3D1B1E76422002087
:10B4F0006022002010B5234B84B00C1C186016D0BD
:10B5000000206946FFF7F6FC002801D004B010BD0A
:10B51000012002A9FFF7EEFC0028F7D16A46137A52
:10B52000002B29D16A461378002B28D12370164BA3
:10B5300000201B68002BE9D102210122FFF7FAFE4F
:10B54000002801D00728E1D1012002210722FFF7BE
:10B55000F1FE002801D00728D8D1002000210A22BE
:10B56000FFF7E8FE031C0020002BCFD0D81F421E9F
:10B57000904140421840C9E702232370D7E70B23CC
:10B580002370D4E7602200206422002076DF704719
:10B5900078DF70477ADF70477CDF704760DF704785
:10B5A0003CDF704748DF704708B500210022FCF7F8
:10B5B000F7FE08BD08B5044B012219780348514035
:10B5C000197002F063FB08BD90260020D8250020EA
:10B5D00010B511491148FDF705FC114C81B22368E3
:10B5E00010480133236002F0AFFA0823021C9A438B
:10B5F00009D00D4B984206D00C4B984203D0002145
:10B600000022FCF7CDFE2068032103F0FBFB4B1E5C
:10B610009941074B197010BDC825002068220020F1
:10B6200090220020D82500200430000001340000C2
:10B630006020002008B50B490B48FDF7D3FBC1B2D1
:10B640000A4801F093FD0823021C9A4309D0084BD5
:10B65000984206D0074B984203D000210022FCF705
:10B660009FFE08BD7822002088220020942600201A
:10B67000043000000134000010B5041CFEF7D4FEB5
:10B68000201C01F077F910BD08B5002A04D0101C69
:10B6900000210022FCF784FE002008BD08B50378D5
:10B6A000002B00D008BD064B3B211888FFF76EFF2A
:10B6B0000028F7D000210022FCF772FEF2E7C04616
:10B6C0006220002010B5041C02F0CAFE1348211CA1
:10B6D00002F098F8211C124801F036FC201C01F001
:10B6E00051FE201CFFF7A8FE2388102B09D0112B38
:10B6F00003D101220B4B52421A80201C01F0E2F8C8
:10B7000010BD0720FFF70EFC002803D00021002207
:10B71000FCF746FEA288034B1A80EEE7D8250020EE
:10B72000942600206220002008B5072820D00A288F
:10B7300010D0042800D008BD144B13211888FFF73F
:10B7400025FF0823021C9A43F5D000210022FCF7B4
:10B7500027FEF0E70020FFF7E5FB002810D1FFF7F8
:10B760005DFE002807D1FFF71BFF0028E3D0ECE7C0
:10B7700001F066FAE5E700210022FCF711FEF2E78E
:10B7800000210022FCF70CFEE9E7C0466220002001
:10B7900008B5064B1B78002B07D005490548FDF777
:10B7A00021FB81B2044802F057FA08BD6020002056
:10B7B0003826002070220020D825002008B5002857
:10B7C00007D0032804D10220FFF7ACFB00280DD1DD
:10B7D00008BD0020FFF7A6FB00280CD1FFF71EFED6
:10B7E00000280DD1FFF7DCFE0028F1D00021002257
:10B7F000FCF7D6FDECE700210022FCF7D1FDEDE7D8
:10B8000000210022FCF7CCFDECE7C04608B5031C84
:10B810000A1C0248191CFCF7C3FD08BDEFBEADDED3
:10B82000F0B55F4656464D464446F0B40023A3B0FB
:10B830000093002009210522E84BFDF7FFF80028BE
:10B8400003D000210022FCF7ABFDE54A012193461D
:10B85000101CE44AFDF784F9002803D000210022DF
:10B86000FCF79EFDE04B0121181CE04A9A46FDF7CB
:10B8700077F9002803D000210022FCF791FDDC4A73
:10B8800001219146101CDB4AFDF76AF9002803D01C
:10B8900000210022FCF784FDD74B0121181CD74A58
:10B8A0009846FDF75DF9002803D000210022FCF73F
:10B8B00077FD0320D249D34AFFF7E0FC002803D0EC
:10B8C00000210022FCF76CFD12AC0020211CFFF7C8
:10B8D00011FE002803D000210022FCF761FD26782C
:10B8E0000820023E73425E41C74948220023F6B257
:10B8F00003F0CCF9002803D000210022FCF750FD12
:10B900000822201C0021FCF753FC2278012313435A
:10B91000201C2370FFF742FE002803D000210022E4
:10B92000FCF73EFDB94803F0D7F9002803D0002109
:10B930000022FCF735FDB64803F0D8F9002803D003
:10B9400000210022FCF72CFD08AD2E70FEF752FE00
:10B95000002803D000210022FCF722FD281C02F061
:10B9600075FC002803D000210022FCF719FD684671
:10B97000002105224D30FCF71BFC627901231A439C
:10B98000E1231A400C231A43CD231340637107238C
:10B99000A3711023E3719F4B9F481293211C012335
:10B9A000237102F0F7FC002803D000210022FCF7ED
:10B9B000F7FC29780F23994301220A43974E13403D
:10B9C00010221343301C2B7003F0B9FA311C82B2E1
:10B9D000281CFFF7E1FD002803D000210022FCF71E
:10B9E000DFFC8F48FFF7D4FD002803D000210022A0
:10B9F000FCF7D6FC201C00210822FCF7D9FBA02371
:10BA00005B00238082239B0063800023A380C823E4
:10BA10005B00201CE380FFF7BDFD002803D0002160
:10BA20000022FCF7BDFC00213022201CFCF7C0FBEB
:10BA3000022323700623E37003232382794B012220
:10BA400063610023EB60A2702A73962252002A6180
:10BA5000B4226B60AB60AB61EB612B626A610893EF
:10BA60000093201C00212A1C6F4B00F02BFD0028A6
:10BA700003D000210022FCF793FC03AE03236F46A2
:10BA800000211422301CFB72FCF792FB0023307B58
:10BA90000393012333710F23012198430843184076
:10BAA00010221043307300207073B073F07B0B379B
:10BAB000984301430B401A435C480023311CB76094
:10BAC000F273337401F0C8FE002803D00021002275
:10BAD000FCF766FC00211422281CFCF769FB687B3C
:10BAE0000F23012198430843102218401043687324
:10BAF000A87B9843084318401043A8730020E873BC
:10BB0000287C984301430B401A4300232A7408936E
:10BB10000122AB6046486423291C2A712B7301F073
:10BB20003FFA002803D000210022FCF739FC402214
:10BB30000021201CFCF73CFB201C3E4902F0B0F821
:10BB40003C23E05C0F229043012101430A40102175
:10BB50000A43E254201C00223D23E25401F0D4FCAD
:10BB6000002803D000210022FCF71AFC324951239F
:10BB70000126642731480B604F608E600E73FDF71D
:10BB800025F92F498C230B6096235B0000254B6021
:10BB90002C480A238B600D73FDF718F92A49FA2304
:10BBA0005B002A484B600F608E600D73FDF70EF945
:10BBB0001C22201C0021FCF7FBFAA0239B026360DF
:10BBC000F0231B03A360194A03231295237393895F
:10BBD000201CE3811E4B257463613BE0982200200A
:10BBE0003426002035B6010030260020D1B50100F2
:10BBF0002C26002091B7010028260020B5B50100B1
:10BC0000CD0C000029B7010048260020C5B6010070
:10BC100079B6010089B601009422002084F0010069
:10BC20004103000064200020BDB70100D82500209A
:10BC30009426002090F00100782200208822002025
:10BC4000C82500206822002038260020702200200D
:10BC50009DB60100254BA36101F058FB002803D0DD
:10BC600000210022FCF79CFB5B46802118684902FA
:10BC70000022FCF7A9FF002803D000210022FCF7D6
:10BC80008FFB52468021106809020022FCF79CFFBE
:10BC9000002803D000210022FCF782FB4B461868E5
:10BCA00013490022FCF790FF002803D00021002256
:10BCB000FCF776FB4246A021106889020022FCF7BF
:10BCC00083FF002803D000210022FCF769FB03203A
:10BCD00000F09EFC002803D1FFF764FC0028FBD095
:10BCE00000210022FCF75CFBF6E7C046A9B5010085
:10BCF0006626000072DF704779DF70477DDF70478E
:10BD000065DF7047F0B55F4656464D464446F0B491
:10BD100083B00C9F8A46994639780388051C161C07
:10BD20008B46002B3CD000229046002403E02B8859
:10BD30000134A3422ADD6B68A1005918042201A82E
:10BD400003F0DBF801A869460022FFF7D9FF0028BD
:10BD500027D169460B78B342E9D14246002A27D061
:10BD60003A7893191F2B30DC4A4401A86946FFF743
:10BD7000C7FF002815D169463A780B780134D318EB
:10BD80003B702B8801229046A342D4DC4346002B13
:10BD900006D03B785946013B4A465B1A5A44137019
:10BDA000002003B03CBC90469946A246AB46F0BD8D
:10BDB0003B789A191D2A08DC9A1C01333A70DBB2D1
:10BDC00052464946CA543A78CEE70C20E9E7C046C5
:10BDD000F0B556464D4644465F46F0B49BB000234E
:10BDE000041C04AD68460E1C2B700376002C00D199
:10BDF000BFE0E378590700D4A3E02378002B00D0FC
:10BE0000E4E0A278002A00D00AE1E278002A00D01B
:10BE10009FE06268002A0FD012781C2B00DDD3E06F
:10BE20000AAF0221F954591CC9B20A207854D91C0E
:10BE30000233DBB22970FA542389002B00D0BAE117
:10BE4000238A002B00D046E2238B002B00D05BE23C
:10BE5000236A002B40D02A780C20971DBA461F2F4A
:10BE600070D81988072005296CD97D4F7F18BFB27B
:10BE7000B8467C4FBC46B84564D95F88B846052FA4
:10BE800060D9774FB946C1444F46BFB2674559D9CB
:10BE9000754FB94203D0B84501D0414552D80AAFD9
:10BEA0000520B854901CC0B228708146501CC1B205
:10BEB00012207854198804328C4649467818614615
:10BEC00001706146090A41705B88D2B2BF183B70AD
:10BED00052461B0A7B702A70606A8046002828D070
:10BEE00001792B788F1C9A1CFFB2D7190C201F2FB9
:10BEF00028DC0AAF0331F954591CD2B2C9B2FF2071
:10BF000078542A7040460188BA1804331170DBB2A5
:10BF1000090A51702B708288002A0AD08168002992
:10BF20000FD0F81802F0E9FF41468A882B78D31821
:10BF30002B702C23E15C0AAF002900D06FE1B946D9
:10BF400019E007201BB03CBC90469946A246AB4680
:10BF5000F0BD0AAF0221F954991CC9B2581C884699
:10BF6000C0B2012103333954DBB240462B703A543E
:10BF70004FE70024A146002E00D128E2F478002CDF
:10BF8000DFD16B461C763378002B00D0D5E1B37837
:10BF9000002B00D0FBE1F378002B0FD012A88046D5
:10BFA0000222611C02554746A21C0120C9B203347B
:10BFB0007854D2B2E4B268460476BB547368002B5E
:10BFC00063D01B781C2C51DD0C20BBE763780C2060
:10BFD0001D2BB7DC12AA68461D232A30111C90467F
:10BFE000171C1380FFF78AFE0028ABD12378022BA1
:10BFF00000D157E26378002B02D008221D2B02D912
:10C00000404603880822DBB2591C0AAF39706946E2
:10C0100029310A702A7802329B18DBB22B70F0E6C5
:10C020000C201B2B00DD8DE712A9081C8846FFF7AA
:10C0300063FE002800D085E72B780AAF0322FA546C
:10C040005A1CD2B21921B9544046991C0288C9B26F
:10C050007F1804333A70DBB2120A7A702B70D4E680
:10C060007FF3FFFF7DF30000FFFF000012A9022213
:10C070000A558846621CD2B247460A21B954E21CCE
:10C0800002346846E4B202763B553389002B00D077
:10C09000AAE0338A002B00D003E1338B002B00D0C1
:10C0A00099E1336A002B46D06846027E0C20911D30
:10C0B0001F2900D946E71C880720052C00D841E736
:10C0C000DA4F3F19BFB2BC46D94FBA46BC4500D87B
:10C0D00038E75F88BC46052F00D833E7D34FB84612
:10C0E000E0444746BFB2574500D82BE7D14FBC428A
:10C0F00004D0BC4502D0644500D923E712AC05202A
:10C10000A054A046541CE4B2901CC0B26F46A44692
:10C11000444638766444122727701C8840440470D3
:10C12000240A44705888131DDBB2434418706F46CC
:10C13000000A58703976746A002C2DD0684621792F
:10C14000037E8F1C9A1CFFB2D7190C201F2F00DD15
:10C15000F8E612AF0331F954D2B26846591C0276A0
:10C16000C9B2FF2078542188B84642441170043384
:10C17000090A5170DBB269460B76A288002A0BD0FF
:10C18000A168002900D1DCE6F81802F0B6FEA2880A
:10C190006C46237ED31823762C23F05C002800D035
:10C1A00034E1684612A9037E88464246297848460B
:10C1B000FFF7A0FDC6E6082109190AAF8846081C4A
:10C1C0000095022102223B1CFFF79CFD002800D0B5
:10C1D000B8E600954046062110223B1CFFF792FD71
:10C1E000002800D12CE6ADE612A9341C884606AA28
:10C1F00008340092201C022102224346FFF782FDF0
:10C20000002800D09EE606AB0093201C06211022D9
:10C210004346FFF777FD002800D13AE792E6A36A8C
:10C22000002B00D18DE600228C46904616212C2250
:10C2300028788A46934600E0A36A41464A00424471
:10C2400092009B1899469B88421C03333B54831CE5
:10C25000DBB2D2B25146B9542B7049460A88FB185A
:10C2600004301A70C0B2120A5A7028708A88002AE4
:10C270000FD08968002900D163E6381802F03DFE2E
:10C280004A462B789088C0185B46E35CC0B22870A1
:10C290009C4643460133DBB298466345CCD3B9464E
:10C2A00069E6341C06A8103412AF00900321201C4C
:10C2B00002223B1CFFF726FD002800D042E606A91B
:10C2C0000091201C072110223B1CFFF71BFD0028BA
:10C2D00000D1E2E636E6102212190AAF9046101C91
:10C2E0000095032102223B1CFFF70CFD002800D023
:10C2F00028E600954046072110223B1CFFF702FD6F
:10C30000002800D1A0E51DE618231B190AAF9846A6
:10C31000181C0095142102223B1CFFF7F3FC002897
:10C3200000D00FE600954046152110223B1CFFF778
:10C33000E9FC002800D18BE504E673780C201D2B66
:10C3400000DDFFE508AC68461D234A30211C238030
:10C35000FFF7D4FC002800D0F4E53378022B00D19D
:10C36000A6E07378002B02D008221D2B01D9238868
:10C3700008226846047EDBB2591C023412AF3970C1
:10C380001B1969464931DCB20A700476FFE50C20BE
:10C390001B2C00DDD6E508A8FFF7AEFC002800D076
:10C3A000D0E569460C7E12AA032313559046631C00
:10C3B000DBB219224746FA54A31C0A8CDBB2434471
:10C3C00004341A70E4B2120A5A700C76E3E56A4635
:10C3D000137E0022EAE612AA341C904606AB1834FB
:10C3E0000093201C142102224346FFF78BFC0028F7
:10C3F00000D0A7E506AF0097201C15211022434668
:10C40000FFF780FC002800D14BE69BE5B26A002ACA
:10C4100000D196E56F463B7E0390162112A82C278B
:10C42000002480468A46BB4607E0C0467FF3FFFFF4
:10C430007DF30000FFFF0000B26A67003F19BF00F4
:10C44000D719BA8840460332C2549A1CD2B2694600
:10C450000A76591CC9B28C4660445146017039882D
:10C46000424411700433090A5170DBB26A461376F4
:10C47000BA88002A10D0B968002900D161E5434488
:10C48000181C02F03AFDBA886F463B7E5846D31816
:10C49000305CDBB23B76039001340399E4B28C420A
:10C4A000CAD382E63B8809221D2B00D8ABE5A1E563
:10C4B000238809221D2B00D85BE752E773DF704702
:10C4C00074DF7047F0B54746051C80B488460E20DF
:10C4D000002D00D17BE0002A79D03E490020087071
:10C4E0003D4906980B603D493D4B18600B1CD0CA76
:10C4F000D0C313CA13C30021C1CAC1C3072239481C
:10C50000FBF756FE384B394A394E1A60394A00213A
:10C510009A60301C3022FBF74BFE2B782A1C3370BC
:10C52000AB781032B370EB78F3706B787370331CA8
:10C53000103312CA12C3331C0833103A81CA81C3A4
:10C54000331C1833083212CA12C36F6A002F11D07D
:10C55000294B2A4C7362696A9C600A881A80888811
:10C560009880002806D000238F68FA5CE2540133DB
:10C570008342F9D1A86A002814D0214B2148B36224
:10C58000A96A98608C889C800A881A800023002CF5
:10C5900005D08F68FA5CC2540133A342F9D12C2331
:10C5A000EA5CF254286A002806D0174B33622A6AE4
:10C5B0005188598012881A806968002903D0134B6A
:10C5C00073606D687560301C4146FFF701FC04BC68
:10C5D0009046F0BDB8270020E82600201C27002048
:10C5E0001027002014270020642700204027002067
:10C5F000AC26002098270020DC260020EC26002016
:10C60000C027002074270020BC27002060270020BE
:10C61000F0B5474680B4A04C88B02070002568462D
:10C620000095FEF74DFA08280BD0002805D1009997
:10C63000002907D0994B01221A7008B004BC90461B
:10C64000F0BD0095964B0021181C07229846FBF779
:10C65000AFFD944E7378002B49D12378B278002A2D
:10C6600056D1914F3A68012B58D0022B74D0317BB0
:10C67000002902D1032B00D18AE0317E002902D1AA
:10C68000042B00D18AE0002A03D0033B012B00D801
:10C69000A0E0864B00221A7002AD1822281C00214F
:10C6A000FBF786FD227800232B706B602B72EB600A
:10C6B000022A00D1B0E076D9032A00D1B7E0042ADB
:10C6C00000D0A6E0F369316A2B82794B69821A792E
:10C6D000002A00D1BEE03278002A04D0754A1278D0
:10C6E000002A00D1C7E0744B04221A7064E023785A
:10C6F000012BB3D101236C4F3A68002A00D1B6E078
:10C700006E4B012108201970904723783A68AAE7F8
:10C71000022BF0D0644F3A68012BA8D17378002B1C
:10C7200018D041464B78002B00D09EE08B78002B30
:10C7300000D09AE0CB78002B00D096E00B79002B4C
:10C7400000D092E04B79002B00D08EE08B79002B4B
:10C7500000D08AE002232370B378002B12D0414628
:10C760004B78002B7FD18B78002B7CD1CB78002BA2
:10C7700079D10B79002B76D14B79002B73D18B7942
:10C78000002B70D103232370317B002900D07AE77E
:10C7900004232370317E002900D074E7464900232A
:10C7A00023700B706FE7012A33D16B822B82424BCF
:10C7B000414669602A701A70281CFFF77FFE002826
:10C7C00000D03AE73B68002B02D03B4A10789847EC
:10C7D000002032E73378002B00D15AE7354B1B7825
:10C7E000002B00D055E7314B0121197007209047ED
:10C7F00052E733480222EB60002104232A72C370FF
:10C80000FFF7E6FA002800D017E72B4B05221A7035
:10C810002278002AD6D0CFE743466B6001232B70E5
:10C820007368B1682B82244B69821A70C4E77369FC
:10C8300031696B821E4B29821A79002A0FD0327817
:10C84000002A03D01B4A1278002AD2D01A4B0322A6
:10C850001A70B1E71A7B002A00D03CE743E71A7B45
:10C86000002AECD1F2E7022307E7012305E7134989
:10C870000A700022F7E612480222EB60002104232E
:10C880002A72C370FFF7A4FA002800D0D5E60A4B3D
:10C8900006221A702278BCE7B8270020B9270020AA
:10C8A000142700201C270020E826002095270020C0
:10C8B000642700200C270020CC270020942700208C
:10C8C000AC26002008B50388112B1DD0192B06D0EB
:10C8D000102B00D008BD8288204B1A80FAE782799D
:10C8E000002AF7D11E4B1B78022B30D027D9032BFF
:10C8F0001DD0042BEED11B4B1A701B4B1B68002B59
:10C90000E8D000209847E5E7184B00221A70134B37
:10C9100082881B889A42DDD10120FFF779FE00282A
:10C92000D8D0134B1B68002BD4D09847D2E70D4AC0
:10C9300004201370FFF76CFE0028F2D1CAE7012B28
:10C94000C8D10220FFF764FE0028EAD1C2E7032025
:10C95000FFF75EFE0028E4D1BCE7C046702000204F
:10C96000B8270020CC270020E82600200C27002034
:10C9700010270020F0B5474680B4023888B001285F
:10C9800003D8A34C2378002B03D108B004BC9046F5
:10C99000F0BD0025684625700095FEF791F808283F
:10C9A00007D000286DD10099002903D001232370FE
:10C9B000EBE70095974F0021381C0722FBF7F8FBA7
:10C9C000954D964E6B78002B62D13378AA78002A69
:10C9D00071D1934A90461268012B73D0022B00D17B
:10C9E0008AE0297B002902D1032B00D19FE0297E18
:10C9F000002902D1042B00D19FE0002A03D0033B81
:10CA0000012B00D8A7E0874B00221A7002AC182235
:10CA1000201C0021FBF7CCFB3278002323706360DD
:10CA20002372E360022A00D1B8E000D88AE0032A2A
:10CA300000D1BDE0042A00D0ACE0EB69296A238272
:10CA4000794B61821A79002A02D11A7B002A07D019
:10CA50002A78002A04D0754A1278002A00D1C5E04D
:10CA6000734B04221A70201CFFF728FD002808D100
:10CA700042461368002B00D187E76D4A107898472B
:10CA800083E76C4B1B68002B00D17EE798477CE75F
:10CA90003378012B9AD10123614A90461268002A0B
:10CAA00000D19BE0644B012108201970904741465A
:10CAB00033780A6890E7022BEED0594A9046126804
:10CAC000012B8ED16B78002B14D07B78002B00D0FB
:10CAD00088E0BB78002B00D084E0FB78002B00D0EE
:10CAE00080E03B79002B7DD17B79002B7AD1BB791B
:10CAF000002B77D102233370AB78002B11D07B78D9
:10CB0000002B71D1BB78002B6ED1FB78002B6BD141
:10CB10003B79002B68D17B79002B65D1BB79002B49
:10CB200062D103233370297B002900D065E70423F9
:10CB30003370297E002900D05FE73D490023337020
:10CB40000B705AE7012A25D163822382384B676034
:10CB500022701A7087E72B78002B00D153E7334BF4
:10CB60001B78002B00D04EE72E4B012119700720B7
:10CB700090474BE731480222E360002104232272F0
:10CB8000C370FFF725F9002800D07AE7284B05226B
:10CB90001A703278002A00D16AE764E70123237013
:10CBA000AB68676063826B682382214B1A705AE717
:10CBB0002A691D4B696922821A796182002A02D191
:10CBC0001A7B002A06D02A78002A03D0174A127846
:10CBD000002ACFD0164B03221A7044E716490A7078
:10CBE0000022F9E6012302E7022300E713480222AC
:10CBF000E360002104232272C370FFF7E9F80028E4
:10CC000000D03EE70A4B06221A703278C2E7C046CF
:10CC1000B9270020142700201C270020B827002057
:10CC2000E826002095270020642700200C270020FC
:10CC3000CC2700201027002094270020AC260020BD
:10CC4000F0B54F464646C0B4AE4C89B02378002BB1
:10CC500000D182E0AC4D2B78002B7ED1AB4E3378E7
:10CC6000002B00D07FE00021012768462F70884606
:10CC70000091FDF725FF082808D0002800D078E0B3
:10CC80000099002904D0A24B1F7067E0434600932F
:10CC9000A04A0021101C90460722FBF789FA63780E
:10CCA000002B6CD13378A278002A00D07BE09A491F
:10CCB0000A688946012B00D17DE0022B00D195E066
:10CCC000217B002902D1032B00D1ABE0217E00297A
:10CCD00002D1042B00D1ABE0002A03D0033B012B8F
:10CCE00000D8B4E08D4B00221A7002AF1822381C15
:10CCF0000021FBF75DFA327800233B707B603B72CA
:10CD0000FB60022A00D1C4E000D896E0032A00D1DB
:10CD1000CAE0042A00D0B8E0226A814BE1697A8235
:10CD20001A793982002A02D11A7B002A06D0227889
:10CD3000002A03D02A78002A00D1D2E0794B0422BD
:10CD40001A70381CFFF7BAFB002812D149460B684D
:10CD5000002B02D0734A10789847002009B00CBC11
:10CD600090469946F0BDFFF7ABFB002800D17AE76B
:10CD7000F4E76D4B1B68002BEFD09847EDE7337855
:10CD8000012B00D08FE70123634A91461268002AE5
:10CD900000D19EE0654B012108201970904749465B
:10CDA00033780A6886E7022BEED05B4A9146126818
:10CDB000012B00D084E76378002B15D041464B78D7
:10CDC000002B00D089E08B78002B00D085E0CB7859
:10CDD000002B00D081E00B79002B7ED14B79002B0A
:10CDE0007BD18B79002B78D102233370A378002B71
:10CDF00012D041464B78002B71D18B78002B6ED12D
:10CE0000CB78002B6BD10B79002B68D14B79002BA1
:10CE100065D18B79002B62D103233370217B0029EC
:10CE200000D059E704233370217E002900D053E756
:10CE30003C49002333700B704EE7012A25D17B82D9
:10CE40003B82384B414679603A701A7079E7237813
:10CE5000002B00D146E72B78002B00D042E72F4B68
:10CE600001211970072090473FE731480222FB60FB
:10CE7000002104233A72C370FEF7AAFF002800D0F5
:10CE800077E7284B05221A703278002A00D15DE737
:10CE900057E743467B6001233B706368A1683B8290
:10CEA000204B79821A704CE7236962693B821C4BE4
:10CEB0007A821A79002A02D11A7B002A05D02278B8
:10CEC000002A02D02A78002ACFD0164B03221A70EB
:10CED00037E716490A700022ECE60123F6E6022342
:10CEE000F4E613480222FB60002104233A72C37067
:10CEF000FEF76EFF002800D03BE70A4B06221A70AF
:10CF00003278C2E71C2700200C270020B827002019
:10CF1000B927002014270020E826002095270020AC
:10CF200064270020CC270020102700209427002011
:10CF3000AC260020A0DF7047A2DF7047A3DF704758
:10CF4000A4DF7047A6DF704710B50B8882B0112BA5
:10CF500022D0502B06D0102B01D002B010BD8B88F0
:10CF60004382FAE7037D002BF7D0CA8843899A42AF
:10CF7000F3D1CB8B022BF0D10368002BEDD0212213
:10CF80008A5C2024095D12020A4301210A404A40BA
:10CF900069460A709847E0E701235B424382DCE779
:10CFA000F0B55F464D4644465646F0B489460123E7
:10CFB00009685B420160438293B049460A79037471
:10CFC00005A901238B70664B0275071C021D012009
:10CFD0000B80FFF7AFFF041E07D0201C13B03CBC32
:10CFE00090469946A246AB46F0BD3B7D002B00D053
:10CFF0009CE00BAC00211C22201CFBF7D9F8227806
:10D000000223134323703A7D01211140DBB210202B
:10D01000090183430B43237000236360E3602361B2
:10D02000002A00D07EE063610023A36101229B46B9
:10D030006B469A744B4B03AE92466A4613820021AC
:10D040000322301CFBF7B4F849468B7B0622337071
:10D05000CB7B02217370B37806AD93430B43082258
:10D06000DBB2102193438B43884651468B43B37008
:10D070004A46137B6946CB7014220021281CFBF71B
:10D0800097F853462B81AB81032304AA59466B447E
:10D09000069269812B616E60211CB888BB1D2A1C19
:10D0A000FFF74AFF041E98D14946896800293BD002
:10D0B0006A46012393742C4B00211382301C0322F7
:10D0C000FBF776F84A46137C062133700023737011
:10D0D000B37802228B4313430821DBB242468B43D1
:10D0E000934351468B4301AAB3704B469968101C79
:10D0F000904600F0CFFD002181461422281CFBF74A
:10D1000057F804A929604A4641462A816C81AA81C0
:10D1100029616E603A1CF8880E32291CFFF70EFF59
:10D12000041C5AE702AB7EE7F88156E702AC002107
:10D130000322201CFBF73CF822780F239A4301219D
:10D140000A4313401022134323704A46537B06229E
:10D150006370A378934302221343A37049E7C04648
:10D160000F180000192A000008290000F0B589B046
:10D170006D46E971027CCBB2041C073500269A4249
:10D180001AD002AF00210822381CFBF711F8012346
:10D190003B802B787E807D602374608AE1883A1C16
:10D1A000FFF7CEFE061E07D1628A104B9A421BD0B3
:10D1B000237D0826002B02D1301C09B0F0BD04AD40
:10D1C00000211022281CFAF7F3FFE388608A2B80E5
:10D1D0000123AB707B88AF607F68291CAB80EF6058
:10D1E000FFF7B0FE061CE7E70826E5E7FFFF0000B3
:10D1F00075DF704776DF70477ADF70477BDF7047F7
:10D2000010B5194B82B01888184B984215D0184B9E
:10D21000184C1A780132D2B21A70217B91420ED288
:10D2200000221A70237C002B13D16369002B04D0D9
:10D23000002269460A706846984702B010BD0E4940
:10D24000FFF7D6FF0028F8D0A369002BF5D0984748
:10D25000F3E73B21FFF7CEFF0028E6D0A369002BC0
:10D26000E3D09847E1E7C046FC270020FFFF00001D
:10D27000D8270020DC2700200028002030B51D4BD7
:10D280001D4A5B88118883B0994210D852889A420F
:10D290000DD31A4B5B69002B04D0012269460A703A
:10D2A00068469847164C0023237003B030BD144CD9
:10D2B0002378002B09D0114B5B69002BF3D000229F
:10D2C00069460A7068469847EDE70E4B0B4D1B7890
:10D2D000002B0CD0A9680C4B00221868FBF774FCDB
:10D2E0000028E0D0AB69002BDDD09847DBE7696808
:10D2F000F1E7C046D027002000280020DC270020CE
:10D30000CD270020D8270020F827002070B5164927
:10D31000021C0B1C70CA70C332CA32C312681A6076
:10D320000168124B00221A70002916D0104C0822F6
:10D33000201C01F0E2FD201CFFF75EFF00280BD14E
:10D340000C4B012252421A800B4B00221A700B48E0
:10D3500000210B4AFBF704FC70BD0548FFF74EFFA8
:10D360000028EDD0F8E7C046DC270020CD270020BC
:10D3700000280020FC270020D8270020F8270020C4
:10D3800001D2010010B50388112B36D022D9122BFF
:10D3900018D0502B1DD1224CC288E3899A4218D153
:10D3A000C38B022B15D12023C35CDA070FD41D4B8E
:10D3B0001868FBF797FC00280BD0A369002B08D056
:10D3C000984706E0811D0822174801F096FDFFF7F7
:10D3D00055FF10BD102BFCD18288144B011C1A8004
:10D3E00016310822104801F088FD114B00221A70F6
:10D3F0000B4BDB89002BECD1E9E70C4B01225242AD
:10D400001A800B4B00221A70064B1868FBF76AFC57
:10D410000028DED0024B9B69002BDAD09847D8E772
:10D42000DC270020F8270020D0270020FC27002040
:10D43000D8270020A0DF7047A2DF7047F0B556461E
:10D440004D4644465F46F0B491B0019089469046FF
:10D450009A46002950D04246002A03D100200021DC
:10D46000FAF79EFF09AC201C00211C22FAF7A0FE4F
:10D47000237802252B4303AF237001239B46BB7007
:10D48000019B002602A8002103223B806660E66023
:10D4900026616661A661FAF78BFE524613786A46EA
:10D4A0001372524653786A465372937A0622934314
:10D4B0001D43E7231D405B469D436A46957204ADBC
:10D4C000281C00211422FAF773FE02AB42466B605F
:10D4D0000C4B2A81AA814A462A611888211C2A1CE1
:10D4E0001A9B04976E81FFF7A7FF11B03CBC9046D2
:10D4F0009946A246AB46F0BD00200022FAF750FF45
:10D50000A9E7C04650280020F0B55F464D46564674
:10D51000E0B494B004A901238B70A34AA34B071C69
:10D5200001200B809146FFF785FF002800D0EAE03C
:10D530003A88002A00D0ECE03A89002A00D0F6E0D0
:10D540003A8A002A00D0FEE03A8B002A00D006E199
:10D550003A8C002A00D00EE13A8D002A00D016E164
:10D560003B6B002B64D01A6869460A7600218A4614
:10D5700059786A46517699786A469176D9786A469A
:10D58000D176197907AA11709B686A465377190AF0
:10D590006A460DAC91771B0C6A46D37700211C229A
:10D5A000201CFAF705FE02229346237859460B43C6
:10D5B000012523706B469D757D4B524603AE69462F
:10D5C0008B826260E26022616261A26100210322BB
:10D5D000301CFAF7EDFD3C23FB5C062233703B1C4C
:10D5E0003C335B7808217370B37893435A461343F6
:10D5F000DBB28B4310229343AB4308AD8B4614221E
:10D600000021281CB370FAF7D3FD5946524605ABEA
:10D6100029816A81A9814A4606A90893296110884F
:10D62000211C2A1C634B6E60FFF706FF00286AD19D
:10D630007B6B002B0AD019681A795F4B5F48009307
:10D640003B1C3C33FFF7FAFE00285CD1BB6B00208B
:10D65000002B58D01A7869460A765A880DAC4A765B
:10D66000120A69468A769A886946CA76120A07A912
:10D670000A70DB886A4653771B0A6A469377002153
:10D680001C22201CFAF794FD022223789346594667
:10D690000B4323704A4B002203AD012669468E7569
:10D6A0008B8292466260E26022616261A261002127
:10D6B0000322281CFAF77CFD3C23FB5C06222B701E
:10D6C0003B1C3C335B7859466B70AB7893430B4300
:10D6D000E7221340B34308AE00211422301CAB7084
:10D6E000FAF766FD072305AA51460892338106AA78
:10D6F000B3814B46718132611888211C321C314B39
:10D700007560FFF799FE14B01CBC91469A46A3467B
:10D71000F0BD2D4B2D4800933B1C79683C33FFF73F
:10D720008DFE0028EFD13A89002A00D108E7284B66
:10D73000284800933B1CF9683C33FFF77FFE002824
:10D7400000D1FDE6DFE7244B244800933B1C7969B8
:10D750003C33FFF773FE002800D1F5E6D3E7204BFA
:10D76000204800933B1CF9693C33FFF767FE002813
:10D7700000D1EDE6C7E71C4B1C4800933B1C796ABF
:10D780003C33FFF75BFE002800D1E5E6BBE7184B12
:10D79000184800933B1CF96A3C33FFF74FFE002802
:10D7A00000D1DDE6AFE7C046502800200A1800008F
:10D7B000232A000018280020282800202A2A0000F8
:10D7C000502A00003028002020280020292A0000AC
:10D7D00010280020242A000040280020252A0000CC
:10D7E00038280020272A000048280020262A000088
:10D7F00008280020282A0000A0DF7047A2DF704719
:10D80000A6DF704710B50B8882B0112B1FD0502BAC
:10D8100006D0102B01D002B010BD8B880384FAE72C
:10D82000CA8883899A42F6D1CB8B022BF3D1036845
:10D83000002BF0D021228A5C2024095D12020A43C9
:10D8400001210A404A4069460A709847E3E70123EC
:10D850005B420384DFE7C046F0B55F4656464D465F
:10D860004446F0B4894609684A4601601379222289
:10D87000437101235B420384002383544C2283526F
:10D88000012397B09B46AD4B02A9821D071C0125C1
:10D8900001208D700B80FFF7AFFF061C824607D07A
:10D8A000504617B03CBC90469946A246AB46F0BDE8
:10D8B000002103226846FAF77BFC69460A780F23A9
:10D8C0009A4359460A4313401022694613430B708A
:10D8D0004A46137B0FAC4B708B7806218A468B43EC
:10D8E000022188464246134369468B701C22002160
:10D8F000201CFAF75DFC237810221343237000AB41
:10D9000063618F4B69466660E6602661A66101AE81
:10D910008D738B8103220021301CFAF749FC4946A4
:10D920004B7B524633708B7B41467370B37804ADAA
:10D9300093430B43E72213405A461343281C00210C
:10D940001422B370FAF734FC03AB04936E607B7956
:10D95000002B00D0CEE0002102228A462223FB5C6D
:10D96000002B00D092466B46293300221A704C23BC
:10D97000FB5A002B00D1C1E0514610220A43D2B21B
:10D9800092466946BA8C2A310A70120A4A700121FD
:10D990000422012B00DCB6E0FA8C0BA90A70120AF3
:10D9A0004A700131022B00DCAFE03A8D4A70120A56
:10D9B0008A70032B00DCACE07A8D0CA90A70120A85
:10D9C0004A700131042B00DCA7E0BA8D4A70120ABC
:10D9D0008A70052B00DCA4E0FA8D0DA90A70120AEA
:10D9E0004A700131062B00DC8BE03A8E4A70120A35
:10D9F0008A70072B00DC98E07A8E0EA90A70120A52
:10DA00004A700131082B00DC93E0BA8E4A70120A8A
:10DA10008A7009211422092B75DD093B381C391C39
:10DA20005A003631243001F071FA4C23FB5A092197
:10DA300014225B1A4C203B520AAE5346337000232B
:10DA40006B8114232A81AB812E613B1CF888211C39
:10DA50002A1C0833FFF7D2FE8246002800D01FE7B9
:10DA600049468968002900D11AE700211C22201CA0
:10DA7000FAF79EFB02222378904641460B4323701F
:10DA8000012352469B46AB702E4B6260E2602261DE
:10DA90006261A2610021032203A82B80FAF788FBB0
:10DAA0004A46D37B69460B73137C06224B738B7BF0
:10DAB0005946934342461343E72213408B436A4639
:10DAC000937300211422301CFAF772FB59463181FE
:10DAD000B18149468968524603AB736072813161F6
