:020000023000CC
:10C00000807F0020E9F5030031F6030033F60300DA
:10C010000000000000000000000000000000000020
:10C02000000000000000000000000000C5E5030063
:10C03000000000000000000037F6030039F603009E
:10C040003BF603003BF603003BF603003BF6030020
:10C050003BF60300000000003BF603003BF6030044
:10C060003BF603003BF603003BF603003BF6030000
:10C070003BF603003BF603003BF603003BF60300F0
:10C080003BF60300DDC403003BF603003BF6030070
:10C090009DC503003BF6030099F503003BF6030042
:10C0A0003BF603003BF60300000000000000000028
:10C0B0000000000000000000000000000000000080
:10C0C000164B002B00D1144B9D46402292029A1A27
:10C0D000924600218B460F461348144A121A00F06C
:10C0E00067F80F4B002B00D098470E4B002B00D069
:10C0F00098470020002104000D000D48002802D0C0
:10C100000C4800E000BF00F02DF82000290002F0EC
:10C11000F9FA00F011F8C04600000800807F002006
:10C120000000000000000000682C0020DC3400202B
:10C130000000000000000000084B10B5041C002B9C
:10C1400002D0002100E000BF054B1868836A002B75
:10C1500000D09847201C00F033F8C04600000000D3
:10C1600060F7030070B50E4B0E4D0024ED1AAD10B4
:10C170001E1CAC4204D0A300F35898470134F8E7E2
:10C1800003F0E0FA084B094D0024ED1AAD101E1C17
:10C19000AC4204D0A300F35898470134F8E770BDCF
:10C1A000682C0020682C0020682C0020682C0020BF
:10C1B000031C8218934202D019700133FAE77047CA
:10C1C000FEE7C046BFF34F8F024A034BDA60BFF36E
:10C1D0004F8FFEE70400FA0500ED00E036DF704700
:10C1E00037DF7047032310B51340041C0720002BD2
:10C1F00010D109480260481CC00080B212180748DC
:10C200000260074A181C1370064A1370064A14800D
:10C21000064A118010BDC046682C00206C2C0020FE
:10C22000732C0020722C0020702C0020742C002015
:10C23000F0B5464B85B001921A8800900C1C09207D
:10C240008A4200D27FE06E4600230F363370404BA7
:10C2500004275A68D205D20D20D0103AD3B259B271
:10C2600000290DDA0F221A40083A3A499208920042
:10C270005218032152680B408B40DA40131C08E02F
:10C280008908C031344B8900CB5803210A408A40C9
:10C29000D340DBB29B09DFB2012F0CD0301CFFF77B
:10C2A0009DFF022801D172B605E0002803D00021CD
:10C2B0000A1CFFF787FF294B294A1B781088DBB23D
:10C2C0009C46284B00221978C9B2814201D24A1CEF
:10C2D000D2B2254D624509D01D781978EDB2C9B2A8
:10C2E0000022814201D24A1CD2B21A70012F0BD017
:10C2F00062B63078FFF774FF0223021C9A4303D022
:10C3000000210A1CFFF75EFF174B04209D421AD044
:10C31000164FEE003968019A8B1900991A600029AE
:10C320000FD0002C0DD0094A114B1088221C454318
:10C330001868401903F0F5F93B6800209E19B48095
:10C3400001E00020988005B0F0BDC046702C0020B0
:10C3500000ED00E018ED00E000E100E0722C0020AC
:10C36000742C0020732C0020FFFF0000682C00209C
:10C370006C2C002010B5104B10491A7809789142A6
:10C3800019D00F491A7818780C88C0B2D2B200219F
:10C39000844201D9411CC9B219700A49D300096805
:10C3A000CB180949088809494243086899888018C8
:10C3B0001B689847DFE710BD722C0020732C00200B
:10C3C000742C0020682C0020702C00206C2C002085
:10C3D00010B54378827801339A1A541EA241524212
:10C3E00013400278934206D00B60437818225343DF
:10C3F0004068C01800E0002010BD0000164B02206D
:10C400005A68D205D20D26D0103AD3B259B20029BB
:10C410000DDA0F221A40083A1049C24082405218E1
:10C42000032152680B408B40DA40131C08E0890856
:10C43000C0310B4B8900CB5803210A408A40D340BE
:10C44000DBB29B09DBB20020012B04D0033B584236
:10C4500043410220C01A704700ED00E018ED00E0F3
:10C4600000E100E0194B80229202DA67D221184BDA
:10C470008022520289005A50C22189005A5001225A
:10C480005A602F200138C046C046C046C046C0464C
:10C49000C046C046C046C046C046C046C046F1D1B0
:10C4A0009A600C4B00221A602F200138C046C0460B
:10C4B000C046C046C046C046C046C046C046C0464C
:10C4C000C046C046F1D1044B1A70704704E100E049
:10C4D00000100140782C0020A02C0020F8B5244A40
:10C4E000002353649364D364136553609360214ABB
:10C4F0001468621C3AD0204A20491E1C8D58204ADC
:10C500001268AD1A2D022D0A242254431D4B1A68BD
:10C51000121953689D4215D3ED1AF6181A4B146A76
:10C520001B689769D169002B08D0381C98470028F0
:10C5300006D000210A1CFFF745FE01E0081CB847A1
:10C54000631CE1D1114B1978114B1A788A4205D13D
:10C550000132D2B2022A00D100221A701A780D4B91
:10C560009200D65080220C4B52035A60F8BDC04650
:10C57000FC100140902C0020040500000010014038
:10C58000782C0020802C00207C2C00208C2C00207B
:10C590008D2C0020982C0020FCE100E0F0B5B6497D
:10C5A0008BB00868B54B0390B5481A780078904274
:10C5B00011D00132D2B2022A00D100221A701A78A8
:10C5C000B04B9200D258039C012513191B021B0A81
:10C5D0000B60019501E000220192AB4B09681B68DA
:10C5E00006910893A94B08991B780593A84B059EC3
:10C5F0001B6802960993A74B1C68A74B1B780793EF
:10C60000029B013BDBB20293FF2B5BD0029F099898
:10C61000FD0045192B7868789842F1D018205843CE
:10C620006E6801333018AE78DBB2F61A771EBE4161
:10C63000764233400678022E02D0032EEBD138E04A
:10C6400047682420784320180490007DBC460028C9
:10C65000E1D0081C0091471C27D02427604504D056
:10C660004743E7190090386AF5E7009E86420AD1F1
:10C6700079436118096A4E1C05D1884F0126BE60B6
:10C680000796002606962427784320184668006AF5
:10C69000B446009E7E43A6193062461C05D07843FE
:10C6A000201847683E1C66444660049E0020307592
:10C6B000B1E74F1CAFD0242041430020611808751A
:10C6C000096AF6E76C4B06986F4E1860079C724B30
:10C6D000019D31601C70002D09D1089E891B4B1EE5
:10C6E00099410123C9B25B42039102932DE0694B4A
:10C6F00000201B68019301235B4202934D1C20D054
:10C7000024234B43019FFB185C68A24205D2A21A66
:10C71000012031605A60039017E0121B00190024B9
:10C720005C601C751C691F6A002C08D0039DDC60CE
:10C730002D18029C2D022D0A9D601C620291391C4D
:10C74000DCE7514B0126196003964F4B1B6806939B
:10C750004F4B1B6808934F4B1F684F4BBC461B78D1
:10C760000493454B1B680793069B059A013AD2B286
:10C770000592FF2A00D195E00598089AC10051184A
:10C780000298013007D0029C242262436244156A59
:10C79000201C029526E00A7848789042E5D01824BB
:10C7A00054434E6801328878D2B234190A709042EC
:10C7B00001D100220A70227860681D1C012A59D11B
:10C7C000242242436244167D002E53D1A76897600D
:10C7D000E568D560276917616469D461049C002C01
:10C7E00000D09660079F9568D468EE1B2C4F3602E8
:10C7F000360ABE4201D8341908E0079E751B2D0287
:10C800002D0AAC4201D9641B00E0002454600024CE
:10C810009460D46001241475644214622424251C9D
:10C82000454365445F1C24D05C4364446A68666881
:10C83000B24202D901931C1C09E0B21A62602B6259
:10C8400017E0366AD21B771C0BD00194341C2426C7
:10C85000664366447768BA42F3D8BF1A7760261CED
:10C86000019C6A602422624362442E6210621D1C95
:10C8700000E0051C2B1C83E7782C00208C2C00206A
:10C880008D2C0020982C0020902C0020842C00203F
:10C89000882C0020802C0020942C002000100140C7
:10C8A000FEFF7F00304A069913608B4202D1039A43
:10C8B000002A53D05C1C4FD024214B432B4A2C4DD3
:10C8C00012682C49D3185C682B4B09685A592B4FB6
:10C8D000561A3602360A387803360196002821D1D6
:10C8E0008020D1254002AD005851C125AD005851DE
:10C8F000C02623488025AD027600855105600120C1
:10C9000018602F200138C046C046C046C046C04609
:10C91000C046C046C046C046C046C046C046F1D12B
:10C9200001203870019EA64200D2261C76183602DD
:10C93000A821360AC9000E4F5E50DB599B1A1B0214
:10C940001B0AB21A12020333120A934206D980223A
:10C950000C4B92025A6001E0FFF784FD0A4B002263
:10C960001A700BB0F0BDC046902C0020802C002027
:10C9700004050000782C002000100140A02C0020AD
:10C9800000E100E0FCE100E0942C0020F7B5032773
:10C9900001900D1C161C1C1C1F400720002F52D19B
:10C9A000002B50D0FFF75EFD274B089A1A60274BEB
:10C9B0001D70274B1C60231CAF4205DA00221A7041
:10C9C0001A7501372433F7E724235D43214B0320F5
:10C9D000182118707143204B64191C60231C1833F4
:10C9E00000220138636022706270A6705B18083400
:10C9F0009042F5D1194B012252421A60184B802205
:10CA00001870184BC0211870174B520349005A5028
:10CA1000C52189005C58FF25AC43C0252C435C50E0
:10CA20001A60019C114AA121C9005450C4218900F7
:10CA30005D580F4C2C40C0252D022C435C500D4BF3
:10CA4000D2580D4B1A60FEBD7C2C00208E2C00208D
:10CA5000802C0020842C0020882C0020902C00208A
:10CA60008C2C00208D2C002000E100E00010014003
:10CA7000FF00FFFF04050000782C0020F0B5114BEB
:10CA80001C68002C1AD0002A1AD0002818D00E4B8F
:10CA90001F780023BB420FDA251C2434261C243EB9
:10CAA0003678002E06D101242C706970AA610360CB
:10CAB000301C06E00133EDE7042002E0082000E02E
:10CAC0000720F0BD802C00208E2C0020F0B5204BDC
:10CAD00085B001921A68051C0C1C002A34D01D4B2D
:10CAE00007201B789D4230D204292ED924236B4382
:10CAF000D3181A780820012A27D15B78012B01D09E
:10CB0000002700E00F1CFFF779FC134BC0001E68E4
:10CB100003A93618301CFFF75BFC031C0420002B14
:10CB200013D001221A700D490D4A5D608A58DC60ED
:10CB30009A60019A1F615A61039B80227370094BAE
:10CB400052035A60002000E0082005B0F0BDC04646
:10CB5000802C00208E2C0020882C0020001001400A
:10CB600004050000FCE100E037B5154B041C1A6811
:10CB7000002A22D0134B1978072388421ED224237F
:10CB800043439A5C0823012A18D1FFF737FC0E4B68
:10CB9000C0001D6801A92D18281CFFF719FC0423EB
:10CBA00000280BD002230370019B446080226B702D
:10CBB000064B52035A60002300E00823181C3EBDB8
:10CBC000802C00208E2C0020882C0020FCE100E02E
:10CBD00010B5041C082904D00020011C021CFFF71A
:10CBE000F1FA60682368984710BD000007B5044A51
:10CBF0000090019168460821FFF71AFB0EBDC04660
:10CC0000D1CB030048DF704711DF704713DF704757
:10CC100008B5FFF7F7FF002803D000210A1CFFF733
:10CC2000D1FAFFF7A7FB034B1B78023B022BF0D88E
:10CC300008BDC046C02C002008B5084B1878012854
:10CC400003D1012901D102211970002A04D0002149
:10CC5000101C0A1CFFF7B6FA08BDC046C02C002005
:10CC600010B50C4C1C21201C01F075FC002803D0D1
:10CC700000210A1CFFF7A6FA201C07491C220023EA
:10CC800001F058FC002803D000210A1CFFF79AFA93
:10CC900010BDC046C42C0020A42C002007B503689A
:10CCA000013301D1002016E001A800F05FF9019BDB
:10CCB0001A78012AF6D159880022914205D00649F6
:10CCC0000868996800F0ACF9021C019B5888801A2A
:10CCD00042425041C0B20EBD0830000084B0F0B5F1
:10CCE000051C85B0C4B22D0C0A9003A801950F1C39
:10CCF0000B91161C0C920D931D1C00F037F9002CA3
:10CD000008D1364B019901225980FF219D601A708C
:10CD100019713EE0012C13D1304B019A0E995A80C3
:10CD2000F21952199A60A5221A70FF221A71DF6057
:10CD30001E615D6199612A4B1C70FFF791FF48E00D
:10CD4000032C0DD1039A254B1178197051889268E4
:10CD500059809A60AA221A71DF601E615D6117E036
:10CD6000022C19D1039A1D4B1178A52905D1002257
:10CD70005A809A60FF221A7004E0197051889268F4
:10CD800059809A60FF221A710022DA601A615A6192
:10CD90000122134B1A70D0E7052C09D101F08CF851
:10CDA000002803D000210A1CFFF70CFA03220EE032
:10CDB000042C09D1094B00225A809A600399FF2262
:10CDC0001A700A791A71B8E7062C02D10422044BB2
:10CDD0001A7005B0F0BC08BC04B01847A42C0020A1
:10CDE000C02C00201FB5002101A80C22FFF7E0F99C
:10CDF000074B019301F066FB002806D10549FF238C
:10CE00009B0201A84B6001F081FB05B000BDC0464C
:10CE100039CC0300C42C002010B500F071FA0028B2
:10CE200005D100F07BFF041CFFF7F2FE201C10BDB3
:10CE300010B5FFF7E9FE002803D000210A1CFFF718
:10CE4000C1F90D4B1968002301229A40114201D00B
:10CE50000A48C2670133202BF6D1094C2068FFF73E
:10CE6000D5FE002803D000210A1CFFF7ABF920688B
:10CE700000F0B8F810BDC04600E100E004E100E0B9
:10CE80000830000007B501A800F070F8019B1A787F
:10CE9000A52A05D01879AA3843425841C0B200E00B
:10CEA00001200EBD10B500F05FFC00280BD06420FF
:10CEB00001F01EFA00F0C8FB002809D000210A1C6E
:10CEC000FFF780F904E000F02BFC021EEFD111E027
:10CED00000F04AFC002803D000210A1CFFF772F979
:10CEE00000F0FEFB0022041E944203D0111CFFF749
:10CEF00069F9221C101C10BD10B588B003AC201CB1
:10CF000000211422FFF754F9022323700023009319
:10CF1000043403980ECCFFF7E1FEFFF779FE002002
:10CF200008B010BD13B5041C01A800F01FF8019B48
:10CF30001A7822705A8862809A68A2601A792271DF
:10CF4000DA68E2601A6922615A6962619B69A361C9
:10CF500013BD4278837812021B041A4303781A43E4
:10CF6000C378101C1B0618437047000070B51B4C9B
:10CF7000061C637A227A1B021343A27A120413431B
:10CF8000E27A12061343FF22934301D1046023E0A7
:10CF9000134D2378A2782B70E378201C1B021343D7
:10CFA0006B80237908302B71FFF7D3FFA860201C1A
:10CFB0000C30FFF7CEFFE860201C1030FFF7C9FFF0
:10CFC0002861201C1430FFF7C4FF6861201C183052
:10CFD000FFF7BFFFA861356070BDC04600FC0300CD
:10CFE000CC2C0020F0B5031C186880F30888586822
:10CFF000FF2464B2EFF30585002D01D1A64600475A
:10D00000251C061C21273FBAF0B400240025002669
:10D010000027F0B4F92040B20047C046F0BDC0463A
:10D0200010B5031C002A01D0108800E009485918E7
:10D030008B420ED042BA1C7892B26240D0B2000944
:10D0400042401003424092B2D0B2400150400133FE
:10D05000EEE710BDFFFF000018DF704770470000CB
:10D06000F8B50D1C141C1E1C012902D003290AD07E
:10D0700019E0114B1B78052B15D1104B1B68002BA9
:10D0800011D004200CE00C4F3B78022B0BD10C4B41
:10D090005B689847094B3D701B68002B03D0281C28
:10D0A000211C321C9847002C04D00021201C0A1C93
:10D0B000FFF788F8F8BDC046F02C0020E82C0020CF
:10D0C000182D002000B5084B89B001221A7003AB5F
:10D0D00005221A70079A039800920499059A069BF4
:10D0E000FFF7FCFD09B000BDFC2C002000B589B0A5
:10D0F00003A803230370074B1B884380064B079844
:10D1000059689A68DB6800900398FFF7E7FD0020F4
:10D1100009B000BDEE2C0020082D002000B589B01C
:10D1200003AB01221A70084A12885A80074B0398F1
:10D130001B680093064B59689A68DB68FFF7CEFDC1
:10D14000002009B000BDC046EE2C002008300000D1
:10D15000082D002010B588B003AC201C002114223B
:10D16000FFF726F804232370002300930434039868
:10D170000ECCFFF7B3FD08B010BD000008B50A489B
:10D180000A4B022218600A4BF0211A70094B8902DF
:10D190001B68C91A490801F0DEF9002803D00021F4
:10D1A0000A1CFFF70FF808BD002D0020A82D002055
:10D1B000F02C00200830000008B50848084B022277
:10D1C0001860084B1A70084B196801F0C4F9002860
:10D1D00003D000210A1CFEF7F5FF08BDF42C002047
:10D1E000A82D0020F02C0020B02D002070B5164C8A
:10D1F000164E88B0201CF16801F0ADF9002803D06C
:10D2000000210A1CFEF7DEFF114B201C5968F26852
:10D21000002301F08FF9051E12D103AC291C142242
:10D22000201CFEF7C5FF0B4B22691B88257063800D
:10D23000F3680398E36000926168A268FFF74EFD0F
:10D24000281C08B070BDC046F42C0020082D00201A
:10D25000002D0020EE2C002038B50E4B08201D7844
:10D26000002D16D10C4C2068FFF77EFC002803D05F
:10D27000291C2A1CFEF7A6FFF02120688903002242
:10D28000FFF724FC041E03D000210A1CFEF79AFFBE
:10D29000201C38BDFC2C0020A42D0020F0B585B04A
:10D2A000051C1E1C01900323970868460C1C009364
:10D2B00002910397FFF7D0FE00281ED080235B0168
:10D2C0009C4212D80123684600930195029403976B
:10D2D000FFF7C2FE002810D1032368460093019592
:10D2E00002940397FFF7B8FE07E0A81BA11B321CAE
:10D2F000331CFFF7D3FF0028E4D005B0F0BD0000D9
:10D30000F0B585B000210C2201A8FEF751FF1F4B9C
:10D31000002701931E4B1F4D1F701F4B01A8291C96
:10D320001F8001F0F3F81D4E041EBC4201D037707F
:10D330002AE01B4A1B4B1068191C686081CD81C113
:10D34000F02112688902891A4908174D8A185A6013
:10D35000281C211C154AFFF791FB002803D0211C33
:10D36000221CFEF72FFFF021286889030022FFF717
:10D37000ADFB002803D000210A1CFEF723FF0C4B55
:10D38000002018600123337005B0F0BD61D00300A8
:10D39000EC2C0020F42C0020EE2C0020F02C00209F
:10D3A00008300000002D0020A42D0020C5D003006F
:10D3B000AC2D0020014B18607047C046E82C0020BF
:10D3C00070B5284B4268191C31CA31C112680A6015
:10D3D0001A78560702D50624900740D15E680320CC
:10D3E000062406423BD19968014238D1DD680542E6
:10D3F00035D18B195B191C4DF0202B600C2480015A
:10D4000081422CD8F02119488902D6070AD5026832
:10D41000891A8B4223D8164B164A1A60164A5A604C
:10D42000164A0EE00068091A49088B4217D8104BBB
:10D430001349196013495960900701D5124A00E059
:10D44000124A9A60124B08241B78012B07D1FFF770
:10D4500003FF041E03D1064B28681B689847201C55
:10D4600070BDC046082D0020B02D002008300000FF
:10D47000182D0020B9D1030055D103001DD10300A0
:10D480007DD103005DD00300EDD00300EDD103009A
:10D49000F02C0020F8B5051E2BD0AA6810209207AA
:10D4A00028D1154B08201B78052B23D1134C6B6812
:10D4B0002268134F9E00B3183A68934204D901239F
:10D4C0005B4223600C2015E0FFF7C6FE002811D157
:10D4D0000C4BA9681868321C236801F02BF800284F
:10D4E00008D12368F6183B6826609E4202D00920C6
:10D4F00000E00E20F8BDC046F02C0020AC2D00202E
:10D50000B02D0020A82D002070B50A4B08201C6803
:10D51000002C0ED1084D2B78042B0AD1074E084859
:10D52000317800F053F9002802D105232B7000E078
:10D53000347070BDAC2D0020F02C0020EC2C0020AD
:10D54000242D0020F8B5144B061C1A78032A02D0AB
:10D55000042A02D01DE004221A70104B08201B6818
:10D56000002B17D1FFF778FE071E13D173680C4C00
:10D570009D00237809205A19802A0BD809482A1CB3
:10D58000C018B16802F0CDF82378381CED1825706A
:10D5900000E00820F8BDC046F02C0020AC2D002093
:10D5A000EC2C0020242D002038B50E4C08202378C8
:10D5B000052B16D10C4D0D4B2A681B680820934291
:10D5C0000FD106232370FFF747FE002809D1084B2F
:10D5D00029681B68586800F043F9002801D1072327
:10D5E000237038BDF02C0020B02D0020AC2D002081
:10D5F000A82D002008B5094B08201B78072B0CD15B
:10D60000074B1868FFF7B0FA002803D000210A1C66
:10D61000FEF7D8FD034B9B68984708BDF02C00200F
:10D62000A42D0020182D002000B589B003AB0622E0
:10D630001A70079A039800920499059A069BFFF7BF
:10D640004DFB09B000BD0000F0B58DB005A8FFF797
:10D6500069FC089C002C3BD0802252010B9DA31832
:10D66000AB4229D91C4BEF181C4B7F081B68A34207
:10D6700009D380237A005B01D11850193B1CA21AF0
:10D68000FFF70CFE23E0802252010126BB1801A8FF
:10D690000196029303930496FFF7DEFC002816D14F
:10D6A00080235B0101A80196029303930496FFF780
:10D6B000D3FC00280BD1DCE70123019380235B011D
:10D6C000A40801A8029503930494FFF7C5FC041C69
:10D6D000201C0DB0F0BDC04600F0FFFF0830000078
:10D6E00000B58DB005A8FFF71DFC0998002813D0E0
:10D6F000089B002B06D1094B1A68F0239B029B1A4A
:10D700005B0800E00B9A80089B180390002201A898
:10D7100001920293FFF7A0FC0DB000BD083000009D
:10D7200000B58DB005A8FFF7FDFB0998002816D0BD
:10D73000089B002B06D10B4B1A68F0239B029B1A07
:10D740005B0800E00B9A9B18032280080192F022EC
:10D750009202049001A802920393FFF77DFC0DB0A2
:10D7600000BDC0460830000030B58DB005A8FFF7F9
:10D77000D9FB0898002823D0802252010B9C8318E3
:10D78000A34210D90F4B1B68834218D30E4D631967
:10D790005B085A00802514196D015119821A201C4A
:10D7A000FFF77CFD0CE003230193800880235B01DD
:10D7B000049001A802930394FFF74EFC00E00E20B2
:10D7C0000DB030BD0830000000F0FFFF38B5041C7C
:10D7D0000B2901D8092036E0038904335B00C31804
:10D7E0000233C21A52181848D2B20270012AF1D973
:10D7F00061188B42EED8191C144801F092FF144AAC
:10D800001388111C134A934203D025880B209D4294
:10D8100019D14B88934203D062880B209A4212D1CF
:10D82000218900238B420BD25A00A21852890A4840
:10D83000824207D00948013300888242F2D101E0D8
:10D840000B2000E0002038BDBE2D0020B42D0020AC
:10D8500080100010FFFF0000FEFF00000C300000F1
:10D8600008B50022FFF7DCFB054B5A781B78120243
:10D870001343984201D00B2000E0002008BDC046B1
:10D88000B42D00204278837812021B041A430378D7
:10D890001A43C378101C1B061843704770DF70478B
:10D8A00071DF704773DF704774DF704776DF704752
:10D8B0007ADF70477CDF70477FDF704782DF704719
:10D8C000A7DF7047A8DF7047A9DF7047AADF70475E
:10D8D00067DF704700B50C2813D801F0AFFE0712C0
:10D8E0001212121209121412120D0B0001200BE079
:10D8F000032009E0042007E00439481E8141481D47
:10D9000002E0062000E0022000BD08B500210A1C4C
:10D91000FEF758FC08BD08B500210A1CFEF752FCB2
:10D9200008BD10B5041C081C0321FFF7D3FF032119
:10D93000021C201C01F05EFC002803D000210A1C00
:10D94000FEF740FC10BD0000F0B5114B8FB09B7985
:10D9500001AE02ACB3700F4B071C0021201C30221B
:10D9600000253380FEF724FC02232370201C0123B2
:10D97000291CA570E7702381E66001F04FF9A842E9
:10D9800003D0291C2A1CFEF71DFC0FB0F0BDC046B9
:10D99000D42D00203015000038B50C1C151C0328B0
:10D9A0001DD004282AD1002908D0154B1888154B02
:10D9B000984223D01321FFF779FF19E0101C00F0E3
:10D9C0002DFC002803D0211C221CFEF7FBFB0E4B74
:10D9D0001B68AB4212D10D480321012206E0081C4E
:10D9E0000121FFF777FF021C0848012101F002FC2A
:10D9F000002803D000210A1CFEF7E4FB38BDC04616
:10DA0000602C0020FFFF0000C42D0020D42D00203A
:10DA1000F0B52C4B8BB01D78002D50D12A4C291C11
:10DA2000201C1822FEF7C4FB284B1E78002E2BD09A
:10DA3000291C102202A8FEF7BBFB254802A91022D0
:10DA4000244F01F05FFE061E08D10520FFF77CFF82
:10DA5000012222706760267226821DE01C4B06AEF2
:10DA6000009301AB01220693042000AB08930197B9
:10DA700032713273FFF768FF022323722823257067
:10DA8000E6602382658208E00620FFF75DFF282319
:10DA900026706660267223826682201CFFF702FFD2
:10DAA000002803D000210A1CFEF78CFB0A4B8021C2
:10DAB000A022D2058903D150024A012313700BB072
:10DAC000F0BDC046C02D0020502E0020BF2D0020EC
:10DAD000112E00200A2E00200C05000070B5041C39
:10DAE000AEB001F08DF98148211C01F0B7FB23880D
:10DAF000142B00D1B2E02DD8102B3AD008D8022B2D
:10DB000000D0F1E07A4B00211888FFF7E1FEB3E086
:10DB1000112B40D0132B00D0E6E0764C02AE211C36
:10DB200006A8072201F0FDFDE11D301C102201F0C6
:10DB3000F8FD0EAD211C1831281C1C2201F0F1FD4E
:10DB40006B4B852118886C4A08AB0C960B95FFF738
:10DB5000B3FE91E0512B6DD005D8182B00D18EE08B
:10DB6000192B4AD0C0E0522B00D188E0552B35D07C
:10DB7000BAE0624AA0238021DB05C90399508021C5
:10DB8000A122D20089039950A288594B1A805C4B7C
:10DB900000221A70A8E0802308AA1380594B322172
:10DBA00019608020A123A021C003DB00C905504CCF
:10DBB000C85020880EA90123FFF788FE002803D053
:10DBC00000210A1CFEF7FEFA4F4B1B78002B01D1F7
:10DBD000FFF71EFF01235B42238085E0A479002C20
:10DBE00000D081E0424B13211888FFF75FFE002828
:10DBF00000D179E0211C221C71E0A379002B73D1A4
:10DC00003F4A13703F4B19680139196000290ED142
:10DC10000EAC201C1422FEF7CBFA226905232370D8
:10DC2000009204340E980ECCFFF758F85CE0FFF732
:10DC3000EFFE59E0A379002B56D0A27A043A022ACB
:10DC400052D80EA9022B00D001230B70C1235B0018
:10DC50008B80274B1888FFF735FE0DE0254AE189B8
:10DC6000538D994201D0002101E0111C1831A08888
:10DC700007320023FFF722FE002835D02DE01C4B91
:10DC8000224D1C88AC422DD0214B201C1B78002B30
:10DC90001CD01849082234310123FFF715FE021E5B
:10DCA0001AD1111C201C0223FFF70EFE021E13D1F5
:10DCB000201C0C212A1CFFF703FE164B984213D0A0
:10DCC000082811D0144B984204D10DE0191C1A1CDD
:10DCD000FFF7FAFD021E07D0101C00210A1CFEF7F8
:10DCE00071FA01E00822F7E72EB070BDD42D0020B4
:10DCF000602C00200A2E0020042E00200C050000BD
:10DD0000C02D0020642C0020682E0020FFFF0000A2
:10DD1000BF2D00200230000004300000584A0023CC
:10DD200030B51370574A58491370A023DB050322FE
:10DD30005A50EB2191405A50A1228021D2008903F0
:10DD400099508021C90389B09950504801F010FCC6
:10DD5000002800D092E04E48FFF72CFB00F022FA9A
:10DD6000051C002D00D089E04A4800F03BFC01ACC6
:10DD7000002803D1484B01221A7015E0201CFFF740
:10DD80008FFD002803D0291C2A1CFEF71BFA63789C
:10DD900000200133211C6370FFF780FD002803D0B1
:10DDA00000210A1CFEF70EFA3C4D6A461123281C7E
:10DDB000137001F0BFFC291C82B26846FFF77AFDA0
:10DDC000002803D000210A1CFEF7FCF9201C0021CA
:10DDD0000822FEF7EDF90C23238018236380C82363
:10DDE00000255B00201CA580E380FFF761FDA842B1
:10DDF00003D0291C2A1CFEF7E5F90021201C0C2267
:10DE0000FEF7D6F908232380254B26486360264B6E
:10DE1000211CA36001F058F8002803D000210A1C3F
:10DE2000FEF7D0F9201C00211C22FEF7C1F91F4B80
:10DE3000002563608023DB01A360032323731C4B55
:10DE4000201C0195E58125746561A36100F098FFB0
:10DE5000A84203D0291C2A1CFEF7B4F9154BE02276
:10DE600019780A400C210A4320218A431A7007229C
:10DE70005A7010229A70FFF7CBFD002009B030BD18
:10DE8000682E0020D02D002054070000DDDA0300AA
:10DE900099D903000A2E0020BF2D002064F703004B
:10DEA00031DF0300D42D00200BD90300CD0C00007E
:10DEB00017D90300042E002010B5194B01221A7047
:10DEC000184B1888184B984209D01321FFF7EEFC25
:10DED00000281AD000210A1CFEF774F915E0134B34
:10DEE0001A781C1C002A10D0FFF7DEFC002803D093
:10DEF00000210A1CFEF766F98021A123A022DB0085
:10DF00008903D205D1500023237000F071FF00284F
:10DF100003D000210A1CFEF755F9002010BDC046B1
:10DF2000682E0020602C0020FFFF0000C02D002084
:10DF3000F0B5051C087889B00C1C092800D91EE131
:10DF400001F086FB2C00330046000A00130023007A
:10DF500004010C014A001201FFF726FB0421FFF720
:10DF6000B9FC0421021C281C2FE0FFF7A5FF0028A4
:10DF700003D000210A1CFEF725F9FFF73BFB002820
:10DF800000D1FCE0FFF750FBF9E0FFF795FF002818
:10DF9000F8D000210A1CFEF715F9F3E7794B0122AE
:10DFA0001A704B681A78784B14E0764B02261E7074
:10DFB0004B681B78012B00D0E1E0FFF7A5FA311C7C
:10DFC000FFF788FC021C281C311C01F013F9D0E07B
:10DFD0006C4B03221A70D2E06A4B1E78022E2DD0B1
:10DFE000032E51D0012E00D0C9E004AF0021102231
:10DFF000381CFEF7DDF8644B0C221B7801A80021C9
:10E000003B70FEF7D5F8032201920297237A0C2B7E
:10E01000D9D16468201CFFF735FC7860201DFFF71C
:10E0200031FCB860201C0830FFF72CFCF86001A818
:10E03000FFF7C6F9002800D1A1E0C0E70B7A032260
:10E040001A400DD00420801A00226768591C00264F
:10E050000132C9B2FE54824201D20B1CF5E7217293
:10E060006168012304930691237A04A89B08059311
:10E07000FFF768FA002800D181E00221FFF72AFCAF
:10E080000221021C281CA0E7087A304203D0281C79
:10E09000311C321C99E73D4E0190311C00F096F87E
:10E0A000011E0FD16168019A306801F03AFB0198B6
:10E0B00000F0EEF8011E05D101A9301C00F0F6F8C1
:10E0C000011E01D0281C3EE0019A0423049393080A
:10E0D0000593336804A80693FFF7DCF9071E08D1FF
:10E0E0002B4B227A1F68D2191A603268294B1A60AA
:10E0F00045E009281DD1264B217A1A688918196034
:10E10000254B1B78002B3AD0244B1A881C1C013A53
:10E1100092B21A80002A32D1281C01F033F800286C
:10E1200003D000210A1CFEF74DF81D4B1B882380ED
:10E1300025E0306800F072F8011E02D0281CFFF7BD
:10E14000F0FB281C391CFFF7ECFB18E0124B0122F6
:10E150001A708B88124A1380104A03E00E4A00237B
:10E1600013700F4A13800AE0094B281C196800F04D
:10E17000CFFF002803D000210A1CFEF723F809B0C6
:10E18000F0BDC046D02D0020092E0020CC2D00204F
:10E190004C2E0020C42D0020482E0020C82D002029
:10E1A000462E0020064B00201870064A064B1A60C7
:10E1B00008225A609860D860186158619861704769
:10E1C000A82F00206C2E00208C2F002030B50029B5
:10E1D0001FD0114B00245D680C600422A54219D0A9
:10E1E0000C22202816D8DA6824200132DA601A6955
:10E1F000013D50435D601D68281808609869012141
:10E20000914001439961013207210A401A61221CA1
:10E2100000E00E22101C30BD8C2F0020F7B51B4BE8
:10E22000061C9C680420002C2FD05A690721141B5F
:10E230000C401868211C24254D434519AE4206D1D7
:10E24000986901228A4042409A61002005E001312C
:10E25000072529409142EED110209A699E685F6897
:10E2600001920097321C05E0002A0CD04D1C0724B7
:10E270002C40013A009FF5190127A7403C1C019F43
:10E28000AD1A2742F0D09A605D60FEBD8C2F002051
:10E29000054B07221969013911401A6824234B43A1
:10E2A000D3181862002070478C2F002030B500284A
:10E2B00019D0002917D00D4B0422DC68002C13D094
:10E2C0009A68013C01329A605A69DC602424544304
:10E2D0001D6801322C190460246A0C6007210A4071
:10E2E0005A61002200E00E22101C30BD8C2F00204D
:10E2F00082B00190019B002B12D0019B0948013B89
:10E3000001930138C046C046C046C046C046C0461C
:10E31000C046C046C046C046C046C046F1D1E9E747
:10E3200002B07047E703000029DF704728DF70471D
:10E3300037B5CB680D78021C9C00081C4B694968F6
:10E340000C30009102496458291CA04737BDC046D3
:10E35000A030002070B5194A18211378151C5943B4
:10E3600051180B1D0979186901290DD0032923D1F2
:10E3700080235B05196989B201F074F9104B1B68A1
:10E38000C018FFF7D3FF12E00D4A59685E699B6819
:10E390001468C0180B4BA4020A1B001931199A42C9
:10E3A00001D8920801E080225200FFF7BDFF00284B
:10E3B00003D10123AB7000E00F2070BDAC2F002013
:10E3C000AC300020FF030000F8B5144C061C657843
:10E3D00004200A2D20D020782D18EDB2092D01D966
:10E3E0000A3DEDB2182045436519281C0830AA6182
:10E3F000021C2E710832C0C9C0C2AB60069B4360CC
:10E40000A378002B01D0002003E0FFF7A3FF112821
:10E41000F9D0637801336370F8BDC046AC2F00209B
:10E4200070B5264B9A781C1C002A45D000229A70A1
:10E43000022808D003283FD11A78182151435B18CD
:10E44000191D0D2036E01D781821694359181C4B01
:10E45000043118684E68013018608002B04218D349
:10E460001A606378013B63706B1CDBB2092B01D926
:10E470002B1C093B00202370FFF75AFF18235D4334
:10E480000221651900232B71AB6029616B61AB61BF
:10E49000EB606378002B0FD0A378002B0CD1FFF733
:10E4A00059FF002808D0112806D023781821594395
:10E4B0006418211DFFF73CFF70BDC046AC2F002043
:10E4C000AC3000200D490E4A002310B513600B70CC
:10E4D0004B708B701A1C8B18002002241832187194
:10E4E00098601C6158619861D860F02AF3D1054B9F
:10E4F0001860054B1860586010BDC046AC2F002056
:10E50000AC300020A8300020A030002010B5074C0F
:10E5100004222368022B07D05A1C0B60226001687A
:10E52000034A9B0099500022101C10BDA830002007
:10E53000A030002073B5151CCA180A43061C0C1C19
:10E540001020910706D100930120311C221C2B1CA6
:10E55000FFF73AFF76BD13B50022041C0B1C009296
:10E56000211C0320FFF730FF16BD000070B501230A
:10E570000D1C002821D10B68002B1DD0104C201C35
:10E58000A34211D0E21A3B2A09D8221C611E3C3258
:10E590008A4209D01E1AB65C013A5670F8E7201C70
:10E5A000191C3C2201F0BDF8201C3C210022FEF782
:10E5B00037FD0023A08700E00E232B6070BDC0460E
:10E5C000807F00200323064A5B429E4502D1EFF381
:10E5D000098101E0EFF3088188690238007810476B
:10E5E0006DE5030070B50E23061E11D0094C3C21C9
:10E5F000201C0022FEF714FDA58F0B23854207D1B6
:10E60000301C211C3C22013501F08BF8A58700232A
:10E61000181C70BD807F002013DF704760DF7047DB
:10E6200018DF704710B586B0041C002102A8102224
:10E63000FDF7BEFD02230293002C08D002A8FFF7CD
:10E64000EFFF002803D000210A1CFDF7BBFDF020DE
:10E650008002FFF7E1FF002803D000210A1CFDF72C
:10E66000B1FD082015494822154B00F05DFF002838
:10E6700003D000210A1CFDF7A5FD082268460021F1
:10E68000FDF796FD6A46137801220024134368467D
:10E690006A4601941370FFF7C1FFA04203D0211C0A
:10E6A000221CFDF78FFD074800F06CFF002803D007
:10E6B00000210A1CFDF786FD06B010BDB030002019
:10E6C000D5F50300C9E6030008B5FFF7A9FE08BDAC
:10E6D00008B508201421054AFDF784FD002803D061
:10E6E00000210A1CFDF76EFD08BDC046383300202E
:10E6F00008B5031C0A1C0248191CFDF763FD08BD80
:10E70000EFBEADDE73B58022524BD205D458B13C7A
:10E7100061424C41E4B2002C01D00021D1504E4A5C
:10E72000A023DB05032199508021A122D2000904F6
:10E7300099504A4B1A68F0239B029A4204D0002059
:10E74000011C021CFDF73EFD80235B051A69802336
:10E75000DB009A4204D00020011C021CFDF732FDB0
:10E760003F4B00200093032105223E4BFEF70EF99C
:10E77000002803D000210A1CFDF724FD3A4AA025F9
:10E78000EA23DB00ED05EA50FEF72CFBFEF77AFBEF
:10E79000002821D08022354B1204EA50FEF782FB7C
:10E7A000002803D000210A1CFDF70CFD0120604069
:10E7B000FFF738FFFFF78CFFFEF79EFB002803D022
:10E7C00000210A1CFDF7FEFC8021A123A0220904E0
:10E7D000DB00D205D15005E001206040FFF722FFA9
:10E7E000FFF776FFA023A222DB05D2009A581E1C59
:10E7F0001F4DD30201D5002C0CD080241B4B2404C8
:10E80000F450FEF709FB00280AD000210A1CFDF78E
:10E81000D9FC05E02868FEF741FA002805D1ECE7AD
:10E82000A123A022DB00D205D4502868FEF736FAD7
:10E83000002807D0FEF726FB002803D10C4B1868F0
:10E84000FEF7F6FABFF34F8F0A4A0B4BDA60BFF3BD
:10E850004F8FFEE71C0500005C070000141000103D
:10E86000EDCB0300F83000200C0003000C05000085
:10E87000083000000400FA0500ED00E072DF704788
:10E8800079DF70477DDF704765DF7047F0B587B08F
:10E890000C9F061C3878002403910292009301908B
:10E8A000251C33889D4238DA7268A900511805A8E2
:10E8B000042200F036FF694605A813310022FFF755
:10E8C000E3FF002832D16846C37C02998B4220D1F5
:10E8D000624262413B78520059188A181F2A1ADC9A
:10E8E000002C06D19A1C3A7001330398009ADBB2CF
:10E8F000D05400996C463A7813348A1805A8211C24
:10E90000FFF7C2FF002811D13A7823780124D318E9
:10E910003B700135C5E70C2008E00020844205D09B
:10E920003B78019A013B00999B1A8B5407B0F0BDCC
:10E93000F7B5089E171C00960222051C1C1CFFF749
:10E94000A5FF002806D10096281C391C1022231C84
:10E95000FFF79CFFFEBD0000F0B5002313700378A5
:10E9600087B0061C0D1C141C002B03D1B378002BA0
:10E9700047D027E043780C201D2B00DD46E16F4691
:10E9800016371D23881C391C3B80FFF77BFF0028AE
:10E9900000D03BE13378022B03D13B8809221D2BA9
:10E9A00007D97378002B02D008221D2B01D93B8890
:10E9B0000822DBB2591C29706A70227802329B1837
:10E9C0002370D3E723780C201B2B00DD1EE16F465C
:10E9D0001637381CFFF754FF002800D016E12378C3
:10E9E00039885A1C22700322EA5423785A1C227058
:10E9F0001922EA542378EA1811700233090A517077
:10EA00002370F378002B0ED023785A1C2270022238
:10EA1000EA5423785A1C22700122EA5423789A1867
:10EA20002270F278EA547368002B12D01A78237897
:10EA30000C201C2B00DDE9E0591C21700221E95457
:10EA40002378591C21700A21E9542378591C21701C
:10EA5000EA543389002B03D1338A002B16D00AE005
:10EA6000301C00940830022106222B1CFFF760FFA7
:10EA70000028F1D0CAE0301C009410300321072296
:10EA80002B1CFFF755FF002800D0BFE0338B002B75
:10EA90000AD0301C00941830142115222B1CFFF7CB
:10EAA00047FF002800D0B1E0336A002B42D0217824
:10EAB0000C200A1C063202911F2A00D9A6E01988F0
:10EAC0000720052900D8A1E0514A8F18514ABFB24A
:10EAD000974200D89AE05A88052A00D896E04C4F11
:10EAE000BF18BFB2BC464B4FBC4500D88EE04A4F62
:10EAF000B94204D0BA4202D0914200D986E0029ACB
:10EB000002990132227005226A542278511C217028
:10EB10001221A95422781888A9180870000A487090
:10EB2000901CC0B2207059882B1819700432090A41
:10EB300059702270776A002F28D03A792378911C77
:10EB4000981CC9B241180C201F295FDC591C0332E4
:10EB50002170EA5423785A1C2270FF22EA54237849
:10EB60003988EA1802331170DBB2090A5170237038
:10EB7000BA88002A0AD0B9680720002946D0E818C8
:10EB800000F0CFFDBA882378D3182370371C2C37B8
:10EB900003973B780020834238D0B16A814201D08C
:10EBA000029021E0072031E0029A0C275743B36A14
:10EBB000DF193A7923780332591C2170EA542378FB
:10EBC0005A1C22701622EA5420783A882B180230F8
:10EBD0001A70C0B2120A5A702070BA88002A09D17D
:10EBE000029B0133DBB20293039F3B78029FBB423F
:10EBF000DAD80AE0B9680029D4D0281800F091FDCD
:10EC0000BA882378D3182370EAE7002007B0F0BD54
:10EC10007FF3FFFF7DF30000FFFF0000F0B593B02E
:10EC20006D466E460023063507360C1C2B7033707C
:10EC3000984204D0C3785A070FD407201DE0071C60
:10EC4000002C03D0E378002BF7D10EE0221C2978AA
:10EC50003378381CFFF712FE0FE002A92A1CFFF7D9
:10EC60007BFE02AF0028EBD007E0321C201C0AA973
:10EC7000FFF772FE0AAA0028E9D013B0F0BD75DFD5
:10EC8000704776DF70477ADF70477BDF70470000A0
:10EC900037B5174B1888174B984227D0164B174D8E
:10ECA0001A782C1C0132D2B21A70297B914208D3F7
:10ECB0001349FFF7E4FF002818D0AB69002B14D1EB
:10ECC00014E000221A702B7C934208D03B21FFF7FE
:10ECD000D8FF002803D0AB69002B00D098476369A8
:10ECE000002B03D001A800220270984737BDC04610
:10ECF000B4340020FFFF0000923400209434002040
:10ED0000B634002037B5184B184A5B881188184C68
:10ED1000184D99420CD852889A4209D36369002B46
:10ED200003D001A801220270984700232B7037BD41
:10ED30002B78002B05D06369002BF6D001A80022A8
:10ED4000F1E70D4B1B78002B01D1616800E0A16851
:10ED50000A4B00221868FDF7B9FE0028E5D0A36928
:10ED6000002BE1D1E1E7C0468A340020B634002010
:10ED7000943400208834002092340020B0340020E5
:10ED800070B51449021C0B1C70CA70C332CA32C35E
:10ED90001268114C1A600168104B00221A70201C76
:10EDA000914213D0082200F0BCFC201CFFF76BFF3F
:10EDB00000280ED10A4B012252421A80094B002131
:10EDC000094A0A481970FDF759FE02E0FFF75DFF96
:10EDD000EEE770BD94340020B63400208834002063
:10EDE000B43400209234002091EC0300B0340020B1
:10EDF00008B5024B1868FDF7B7FE08BDB034002017
:10EE000010B50388112B19D002D8102B05D043E080
:10EE1000122B3AD0502B21D03EE082881F4B011C90
:10EE20001A80163108221E4800F07BFC1D4B002280
:10EE30001A701D4BDB8993422ED12BE0174B012218
:10EE400052421A80174B00221A70184B1868FDF7AF
:10EE50008BFE002820D0144B9B6912E0124CC18815
:10EE6000E289914218D1C38B022B15D10130C37FA7
:10EE7000DA070FD40D4B1868FDF776FE00280BD08B
:10EE8000A369002B08D0984706E0811D082204489A
:10EE900000F047FCFFF736FF10BDC046B434002039
:10EEA0008A3400209234002094340020B0340020B2
:10EEB000A0DF7047A2DF7047A5DF7047A6DF70476D
:10EEC000A8DF704763DF7047F0B599B002900391F7
:10EED000002800D10BE1002900D108E14A680E2486
:10EEE000002A00D104E101235B4203808249102201
:10EEF00008A800F016FC814B694606AD08A81A3137
:10EF00002B80FFF7DFFF041E00D0F1E0029A012002
:10EF10000432291CFFF7CCFF041E00D0E8E0AB78D8
:10EF2000029A11AD9371211C1C22281CFDF740F997
:10EF30002B7804221343029A6C60EC602C616C61A4
:10EF4000AC612B7093796A4693776D4B05AF9383D1
:10EF5000211C0322381CFDF72BF900233B700122F2
:10EF6000102313437B70BB78062293430222134382
:10EF70000822934310220CAE934301221343211C19
:10EF80001422301CBB70FDF713F907AB0C9314224D
:10EF9000029B34817481B281346177609888291C26
:10EFA000321C0833FFF786FF041E00D0A0E0211CAE
:10EFB0001C22281CFDF7FCF82B7808221343102292
:10EFC0001343029A6C60EC602C616C61AC612B7035
:10EFD00093796A4693774B4B211C9383381C032209
:10EFE000FDF7E6F800233B707B780F229343012264
:10EFF00013430F221340102213437B70BB78062269
:10F000009343022213430822934310221343012205
:10F010001343211C1422301CBB70FDF7C9F807AB49
:10F020000C931723B381029A029B3481748134615B
:10F0300077609088291C321C1033FFF73BFF041EB9
:10F0400056D1211C1C22281CFDF7B2F82B78022275
:10F050001343029A6C60EC602C616C61AC612B70A4
:10F0600093796A469377284B211C9383381C03229B
:10F07000FDF79EF83B780F229343012213430F22A2
:10F080001340102213433B7000237B70BB78062291
:10F0900093430222134308229343102293430122F5
:10F0A0001343211C1422301CBB70FDF781F802228F
:10F0B0003281B28107AB039A3360029B7481326163
:10F0C00077609888291C321C2033FFF7F3FE041E5A
:10F0D0000ED1039A029B52689A62039A9368002B9E
:10F0E00001D0029AD362094B01221A7000E00E246B
:10F0F000201C19B0F0BDC0466CF7030030150000AD
:10F10000321500003115000034150000BE34002017
:10F11000F0B5061C87B000282BD00288164B0820BB
:10F120009A4227D0154B1B78002B23D0144C080A89
:10F13000E1702071080C090E02AD0723A171694628
:10F14000102201276071CB80281C0021637022707F
:10F15000A770FDF72DF8338A30882B800023AB8011
:10F1600006236B44291CAF70AB60EC60FFF7A6FE72
:10F1700000E00E2007B0F0BDFFFF0000BE3400200D
:10F18000BF340020F0B5061C87B0002829D00288C3
:10F19000154B08209A4225D0144B1B78002B21D008
:10F1A000134D11232B700B0A02AC6970AB700B0C62
:10F1B000090EEB7029716F460523201C00211022D7
:10F1C000FB80FCF7F5FF338A063723800123A37009
:10F1D00030880023211CA380A760E560FFF76EFE46
:10F1E00000E00E2007B0F0BDFFFF0000BE3400209D
:10F1F000BF340020F0B5051C87B0002824D0048857
:10F20000134B08209C4220D0124B1B78002B1CD0A3
:10F21000114E02AC102371706F460321F980B27059
:10F22000201C1A1C00213370FCF7C2FF2B8A063702
:10F2300023800123A37028880023211CA380A760BA
:10F24000E660FFF73BFE00E00E2007B0F0BDC046D1
:10F25000FFFF0000BE340020BF340020F0B5041CC6
:10F2600089B00E1C002800D1AFE0002900D1ACE02D
:10F27000826A002A00D1A8E00B88112B18D004D88C
:10F28000102B00D0A1E08B8814E0502B02D0512B22
:10F2900012D09AE0C9880389994200D095E004A968
:10F2A00008230B70F38B20360B724E6090478CE076
:10F2B00001235B42238088E08A79022A00D084E01F
:10F2C0000A89038A9A4200D07FE08B7A043B022BA2
:10F2D00000D87AE001AD022204AF3A700021082282
:10F2E000281CFCF765FF022300AA2B806A6000231C
:10F2F0002088A18A2A1C6B80FFF7DEFD002804D03D
:10F30000E36A002B05D0984703E06A461378DA07D2
:10F3100007D4FE23FF332088391CBB80FFF7D0FDC4
:10F320004DE0B880391C2088FFF7CAFD002846D17F
:10F33000F31CD97F481E07283DD800F07FF9040E42
:10F340001B1D1F213A2300232B70338C012B02D865
:10F35000201C012108E0012308E001232B70328CDE
:10F360009A4203D8201C0221062226E023362B7263
:10F370006E6019E0022316E0032314E0042312E078
:10F38000052310E0338C022B02D8201C082113E047
:10F39000731DDB7F0436F27F1B021343AB8001D168
:10F3A000072300E006232B70A36A201C291C984722
:10F3B0000BE00923F7E7201C0322FFF71BFF0028BF
:10F3C00003D0E36A002B00D0984709B0F0BD0000DD
:10F3D00010B51C4B1A78181C012A12D11A4B1B6845
:10F3E00019070ED1194BF0221B68E024191C11409B
:10F3F000234204D1164B1B68134202D118E0302976
:10F40000F8D00378012B1BD10F4A1268110717D1CE
:10F410000E4A1168F0221140402911D10C490968A7
:10F4200011420DD1C1228021D200C9058B5007E0C5
:10F430000849094A11608021084A09021160E0E781
:10F4400010BDC046E00F00F0E40F00F0E80F00F040
:10F45000EC0F00F0DFFF07C004050040186C00400F
:10F460002EDF704751DF704710DF704761DF704754
:10F4700008B5081C111CFFF73BF908BDF0B5254B7A
:10F4800085B01B78002B42D0234E244F3268544263
:10F4900054413A68E4B255425541EDB2002C34D1A2
:10F4A00003A8FFF7DFFF05280AD0002804D0211C9D
:10F4B000221CFCF787FE04E003983368984700E0BD
:10F4C0000124002D1ED1164B03A91B880B80154B60
:10F4D0001B68181C0193FFF7C9FF051E052D0BD0F3
:10F4E000002805D000210A1CFCF76CFE002504E072
:10F4F00001983A68904700E00125002CCED0002DFD
:10F50000CCD004E0002C02D1C8E7002DDBD005B040
:10F51000F0BDC046C6340020D0340020D4340020D2
:10F52000C8340020CC34002038B5041C0720002942
:10F5300013D08D0711D1094801600949201C0A80A8
:10F54000084A09491360FFF78FFF002805D1074BD0
:10F55000012216201A70FFF783FF38BDCC3400203B
:10F56000C8340020D834002071F40300C6340020D1
:10F57000002803D0024B1860002000E00E207047E6
:10F58000D4340020002803D0024B1860002000E093
:10F590000E207047D034002008B5074B1B68002BA5
:10F5A00007D09847002806D000210A1CFCF70AFE65
:10F5B00001E0FFF763FF08BDD834002008B500293B
:10F5C00004D00020011C021CFCF7FCFDFFF756FFD5
:10F5D00008BD000008B50020011C024AFCF728FE07
:10F5E00008BDC046BDF5030003210A4802680A436E
:10F5F0000260094802680A4302600849084A094B48
:10F600009B1A03DD043BC858D050FBDC06488047FA
:10F6100006480047240500405405004084F70300D5
:10F62000002C0020682C0020D1F30300C1C003008F
:10F63000FEE7FEE7FEE7FEE7FEE7FEE702B47146FF
:10F6400049084900095C49008E4402BC7047C04625
:10F6500003B47146490840004900095A49008E44E4
:10F6600003BC7047002934D00123002210B4884223
:10F670002CD301242407A14204D2814202D20901E1
:10F680001B01F8E7E400A14204D2814202D2490002
:10F690005B00F8E7884201D3401A1A434C08A042A5
:10F6A00002D3001B5C0822438C08A04202D3001B3B
:10F6B0009C082243CC08A04202D3001BDC08224352
:10F6C000002803D01B0901D00909E3E7101C10BC76
:10F6D0007047002801D00020C04307B4024802A1AF
:10F6E0004018029003BDC046190000000029F0D068
:10F6F00003B5FFF7B9FF0EBC4243891A1847C0464D
:10F700007047C04630B50023934208D0C55C013332
:10F71000CC18013C2478A542F6D0281B00E000203C
:10F7200030BD10B50023934203D0CC5CC4540133E8
:10F73000F9E710BD0023C25C0133002AFBD1581E3B
:10F7400070470000F8B5C046F8BC08BC9E4670473C
:10F75000F8B5C046F8BC08BC9E46704743000000A0
:10F76000002C0020446675546172670023D1BCEA06
:0CF770005F782315DEEF1212000000008D
:08F77C0044C9FF7F01000000F9
:10F784000000000000000000000000000000000075
:10F794000000000000000000000000000000000065
:10F7A4005CF70300000000000000000000000000FF
:10F7B4000000000000000000000000000000000045
:10F7C4000000000000000000000000000000000035
:10F7D4000000000000000000000000000000000025
:08F7E400FFFF000032000000ED
:020000020000FC
:020000041000EA
:0410140000C0030015
:040000033000F5E9EB
:00000001FF
