:020000023000CC
:10AC0000807F00206DE20300ADE20300AFE20300AD
:10AC10000000000000000000000000000000000034
:10AC2000000000000000000000000000B1E203008E
:10AC30000000000000000000B3E20300B5E20300E2
:10AC4000B7E20300B7E20300B7E20300B7E2030094
:10AC5000B7E2030000000000B7E20300B7E2030020
:10AC6000B7E20300B7E20300B7E20300B7E2030074
:10AC7000B7E2030045DD0300B7E20300B7E20300DB
:10AC8000B7E2030051D90300B7E20300B7E20300C3
:10AC9000F9D90300B7E20300D9DE0300B7E20300ED
:10ACA000B7E20300B7E2030000000000000000006C
:10ACB0000000000000000000000000000000000094
:10ACC0000448054B10B5834203D0044B002B00D041
:10ACD000984710BD742C0020742C00200000000048
:10ACE00006480749091A8B10C90FC91810B5491031
:10ACF00003D0044B002B00D0984710BD742C0020CB
:10AD0000742C00200000000010B5074C2378002BA5
:10AD100009D1FFF7D5FF054B002B02D0044800E016
:10AD200000BF0123237010BD8C2C00200000000008
:10AD3000E4F50300054B10B5002B03D0044905488A
:10AD400000E000BFFFF7CCFF10BDC04600000000D0
:10AD5000902C0020E4F50300402292029A1A9246B9
:10AD60007047C046154B002B00D1114B9D46FFF795
:10AD7000F3FF00218B460F461148124A121A00F0C9
:10AD800079F80C4B002B00D098470B4B002B00D0D0
:10AD900098470020002104000D000B4800F016F831
:10ADA00000F046F82000290003F0ACF800F016F897
:10ADB000000008000000000000000000807F00206C
:10ADC0008C2C00204839002009AE030010B501008A
:10ADD00000230022002000F0A1F810BD084B10B5A0
:10ADE0000400002B02D0002100F000F9054B186888
:10ADF000836A002B00D09847200000F075F9C04608
:10AE0000EDAF030078F2030070B5074D074C641BEB
:10AE1000A41005D0013CA300EB589847002CF9D1B1
:10AE200004F024FA70BDC046702C0020742C002061
:10AE300070B50C4D0C4E761BB61005D0002408CD15
:10AE400001349847A642FAD104F00AFA074D084E99
:10AE5000761BB61005D0002408CD01349847A642D1
:10AE6000FAD170BD6C2C00206C2C00206C2C0020C2
:10AE7000702C0020F0B50500830749D0541E002A2D
:10AE800045D003000326CAB202E00135013C3ED39F
:10AE900001332A703342F8D1032C30D9FF220A4003
:10AEA000150215432A0415430F2C34D92700103FEF
:10AEB0003F093E01B4461E001A0010366644156074
:10AEC00055609560D5601032B242F8D101373F012C
:10AED000DB190F270C22274022403C00002A0ED00D
:10AEE0003E1FB608B400A4461A001C1D644420C2CC
:10AEF000A242FCD103240136B6009B193C40002C31
:10AF000005D0C9B21C19197001339C42FBD1F0BDA8
:10AF100003001400C0E72700E2E7C046F0B54F4643
:10AF20004646D646C0B598462C4B06001D680F0015
:10AF3000914682B0002D27D06C681F2C4ADC002E71
:10AF400016D08823E8589A4600282FD07833C15865
:10AF50004A46A300C3181A600122A2401143914639
:10AF6000802252008150802142465A50022E16D033
:10AF70000020631C0234A4006B60675102B0E0BC87
:10AF8000BA46B146A846F0BD154D1D60154B002BC5
:10AF9000D2D01B6801938823019AEA50CCE7822320
:10AFA00049465B00C2581143C150E1E70E4B002BEC
:10AFB00010D08420400000E000BF00280AD080228A
:10AFC00000235200835004328350534600216C68A2
:10AFD000E850BDE701204042D0E7C046342D0020B4
:10AFE000A82C00200000000000000000F0B5DE46A4
:10AFF00057464E464546E0B53A4B85B09A461B68E3
:10B0000089469B460390002B55D05B4688229B586F
:10B0100098465B465E68741E4DD443461F36B600A4
:10B0200035009F194B46803E4644783DB1465D440D
:10B030005E469B460DE04346002B02D03B685B45D5
:10B040000AD004235B429C46043F043DE144013C9A
:10B0500031D35B46002BEED173682A68013BA342D3
:10B060003AD000232B60002AEBD07368019343464B
:10B07000002B27D0012380204146A34040000958DF
:10B08000029119421ED08220414640000958029187
:10B09000194223D14B460398196890477368019A67
:10B0A000934214D153461B68B342CAD0D9469B463B
:10B0B0005B46002BA9D105B0F0BCBB46B246A94601
:10B0C000A046F0BD90477368019A9342EAD0534678
:10B0D0001B68D9469B46EBE77460C4E74B4618688B
:10B0E0009047DBE7342D0020FEE7C04610B50D4C3D
:10B0F0002278237C9A4200D110BD20786268C30078
:10B10000D318A28999885043A2681B6810189847E1
:10B110002178E0890022CBB2884201D90133DAB22A
:10B120002270E4E7382D002030B5094A0100547D33
:10B13000907D631CDBB2984200D10023157D002076
:10B140009D4204D01830444390690B70001930BD03
:10B15000382D002070B5002A07D01368DB43012486
:10B160004118814204D1D84370BD01235B42F6E708
:10B170000278534008221D005E082540234200D07B
:10B18000034D3300013A6B40002AF4D10130E8E767
:10B190002083B8ED29DF704728DF70470A4B191D5F
:10B1A000CA6F013ACA67002A04D1022007490A7906
:10B1B00082430A71DA6F511C032A01D0D9677047A4
:10B1C0000022DA67FBE7C046382D0020B82D0020AA
:10B1D000F0B5CDB00D000CAA140040350B784E78B8
:10B1E0001B0636043343CE7833438E78043136025F
:10B1F000334308C48D42F1D110251127936B1326D8
:10B200001900F9418C461900F14166469B0A7140CC
:10B210004B401668516A546889195B18072621004B
:10B22000F1418C4621000B36F1416646E40871403D
:10B2300061405B18013513640432402DDED1036D8B
:10B2400000270293436D029C0393836D039E049336
:10B25000C36D0593036E0693436E06990793836E41
:10B260000893C36E09930A93089B0193079B00936D
:10B27000059B0B93049B9C460B230D000A00DD41AC
:10B28000053BDA416A400D001333DD412A4B55403E
:10B290000CAADB59BA5804379A18AA18019B009DCA
:10B2A0008B430D406B40D2180A9B2500D3180A939C
:10B2B0000D23DD4102222B002500D54122005D40F7
:10B2C0001623DA41634655406246734032402340BC
:10B2D0005340ED180A9A0B9BD318521965460B95EB
:10B2E000019D0A9580256D00AF421DD1029DAA18CF
:10B2F0000265039A1419049A44659619059A86659D
:10B300006244C265069AD318009A03669446079B66
:10B31000019A5918089B4166634494468366099BC9
:10B320006344C3664DB0F0BD009DB4460091260055
:10B330001900140001959FE734F4030070DF704793
:10B3400071DF704772DF704773DF704774DF7047DB
:10B3500076DF70477ADF70477CDF70477DDF7047AC
:10B360007FDF704786DF7047A0DF7047A2DF70473E
:10B37000A5DF7047A6DF7047A8DF7047A9DF7047D9
:10B3800063DF704767DF704713DF7047084B094A78
:10B390001B68C046C046C046C046C046C046C04600
:10B3A000C046934200D0C0460138F2D17047C04633
:10B3B000642C00200024F400024A9368013B93604F
:10B3C0007047C046B82D0020BFF34F8F034B044A8F
:10B3D000DA60BFF34F8FC046FDE7C04600ED00E0E6
:10B3E0000400FA0510B5082901D0FFF7EDFF036846
:10B3F0004068984710BD10B5FFF7E6FF70B500260E
:10B40000074D084C641BE408B44204D06B689847AD
:10B410000835002801D0FFF7D7FF0136F4E7C04612
:10B42000842C00208C2C00205A68064B92689A428B
:10B4300006D14268836804490132013BCA600B614E
:10B440007047C04684F20300B82D002010B5446850
:10B45000A31843600023994204D1012010BDE05C91
:10B46000C85401339A42FAD1F7E775DF704713B534
:10B47000174C184BA08A984211D0A37D621D01334E
:10B48000DBB2A375D27F9A420AD321003431FFF791
:10B49000ECFF002803D0236B002B00D0984713BD8E
:10B4A0000023A375230028331B78002B08D03B21F1
:10B4B000FFF74EFF002803D0236B002B00D09847E6
:10B4C000E36A002BEBD0002201A80270E6E7C04639
:10B4D000B82D0020FFFF00007BDF70470023C26013
:10B4E0000160416083608B78D21803230261CB56E0
:10B4F000D21842610878431E9841C0B2704770B5B7
:10B50000436819780C1E09D01A000C3242601C7B6B
:10B51000002C05D1C2680168FFF7E0FF200070BD74
:10B5200030245A7819791440302C1AD15D7B2C4084
:10B53000302C1ED101699A788A1A002102613022CA
:10B540005C78144202D18268013282609A7B0124C5
:10B55000521801698A180261DB7B5BB2D218426122
:10B56000DCE70F241500A543202D02D15A79514361
:10B57000E5E73F24A243802AE1D10421DFE730B58B
:10B580000400150085B0002903D1124B02689A42CD
:10B590000CD1A368AB4212D200200EE01022694603
:10B5A0002000FFF7ECFF002807D0103D102DF5D844
:10B5B0002A0069462000FFF7E2FF05B030BD2A00EF
:10B5C0002000236898470028E6D0A3685D1BA5608B
:10B5D000F3E7C0464DB4030010B583680400002BA8
:10B5E00001D1002010BD0122036898470028F8D03F
:10B5F000A368013BA360F5E7F0B585B002ABDE1DA3
:10B60000019131000090FFF7E7FF051E03D10025EF
:10B61000280005B0F0BD0023F3563478002B11DA72
:10B620007F2307271C4031000098FFF7D5FF002833
:10B63000EDD07F2233781A40BA405BB2144307370B
:10B64000002B02DB019B1C60E2E7232FEBD1DEE73E
:10B65000F0B500250C002E0087B00390029504ABD6
:10B66000DF1D39000398FFF7B7FF0190002810D0C5
:10B670007F203F7832003840002103F041FD029BDB
:10B680007FB20B43054302930736002F04DB25608E
:10B690006360019807B0F0BD462EE0D1002301930E
:10B6A000F7E737B504000800052920D803F00AFDA4
:10B6B000030F151F1F1D01AD012229002000FFF7F8
:10B6C0005EFF002802D02B787F2BF4D83EBD0822E5
:10B6D00000212000FFF753FFF8E7200001A9FFF742
:10B6E0008BFF0028F2D0019AF2E70422F0E7002055
:10B6F000ECE7F7B50D0001A90400FFF77DFF002876
:10B7000001D10020FEBD2B002200C2CAC2C31268B4
:10B710001A60019BAA689A42F3D3AB60A268D31A5D
:10B72000A360EFE737B50D0069461400FFF790FFFF
:10B73000002806D02A79009B0199082A02D12360AB
:10B7400061603EBDD917042A09D118000A002360A0
:10B7500058404A40104343425841C0B2F1E7022AE0
:10B7600003D118B22080C217F2E70020012AE8D1E5
:10B7700058B22070F7E737B50D0069461400FFF79F
:10B7800067FF00280ED02B79082B0CD1009B019865
:10B7900023606060009A5340019A5040184343422E
:10B7A0005841C0B23EBD042B03D1009B2360002052
:10B7B000F0E7022B03D1009B23809BB2F7E7002028
:10B7C000012BEFD1009B2370DBB2E3E773B50D00D3
:10B7D00069461400FFF73CFF00280ED0019A00993B
:10B7E000D6074B0833435208C90701D5DB43D24380
:10B7F0002979082902D12360626076BD042909D124
:10B8000018002360D91758404A401043434258411A
:10B81000C0B2F2E7022903D118B22080C117F2E7C3
:10B8200000200129E9D158B22070F7E713B51400C0
:10B8300001A90422FFF7A3FE002801D0019B236089
:10B8400016BD13B5140069460822FFF798FE0028BC
:10B8500003D0009A019B2260636016BD73B50E0091
:10B8600001A905001400FFF7C7FE002812D0019AB5
:10B870000020FF2A0ED873783F308343511C0020EC
:10B88000802B07D033798B4204D328002270611CAF
:10B89000FFF775FE76BD73B50E0001A90500140013
:10B8A000FFF7AAFE002814D0019A0020511C531C57
:10B8B0000FD273783F3083430020802B09D0337937
:10B8C0008B4206D321002800FFF759FE0023019A7E
:10B8D000A35476BD52DF704710DF704760DF7047BA
:10B8E00061DF704710B5FFF76FFD73B51F4DEB6B50
:10B8F0005C425C412A6CE4B2002A2FD02B00443316
:10B900001B78002B2DD101A8FFF7E4FF052829D0D3
:10B91000002801D0FFF758FD01982B6C9847002CA8
:10B92000ECD12B0044331B78002B1AD16B46991CA9
:10B930002B00AE6C0833DB8F30000B80FFF7D0FF9D
:10B94000052807D00028E5D13000EB6B9847002C84
:10B95000E7D1D3E7002C04D10134CFE70124002B39
:10B96000DFD173BD002CFCD10134DAE7B82D002003
:10B9700010B5002901D0FFF727FD044B4C331B788D
:10B98000002B01D0FFF7B1FF10BDC046B82D00203D
:10B99000F0B50300186880F308885868FF2464B283
:10B9A000EFF30585002D01D1A6460047251C061C96
:10B9B00021273FBAF0B40024002500260027F0B468
:10B9C000F92040B20047C046F0BD10B5084C236DC9
:10B9D000002907D10322934323654368002B00D03D
:10B9E000984710BD012293431A0002231343F3E743
:10B9F000B82D002018DF70471FB50C22002101A8C8
:10BA0000FFF738FA022368460093FFF7F3FF05B00B
:10BA100000BD10B50400FFF7EFFF00280BD1012295
:10BA2000054B52422000DA67FFF7AEFC002802D136
:10BA30002000FFF7ADFF10BD04E100E010B5054B9D
:10BA4000002902D11A00543211709B6D002B00D0D6
:10BA5000984710BDB82D002010B5064C0434E36F94
:10BA6000042B00D010BD0448FFF790FCFFF73EFB0D
:10BA7000F5E7C046382D0020A086010010B50A4B1E
:10BA800000201A6A012A0DD1DC691000002C09D0AF
:10BA90009969064B00221868FFF75CFB241A634281
:10BAA0005C41E0B210BDC046EC3700200830000019
:10BAB000084B09491A682F23C046C046C046C046F5
:10BAC000C046C046C046C0468A4200D0C046013B80
:10BAD000F2D17047642C00200024F40080220C4B2B
:10BAE000920270B5DA678023D2220125094C5B02ED
:10BAF0009200A350403AA3506560FFF7D9FFA560BC
:10BB00000025054CE5656034FFF7D2FF257070BD58
:10BB100004E100E000100140B82D002070B5EFF303
:10BB2000108672B6094B0122996E00290BD1084C80
:10BB30009A66E26F074D2A405A66E5670170002E4B
:10BB400000D162B670BD0270F9E7C046B82D002082
:10BB500004E100E0FC06FFBC70B586B06B46040053
:10BB60000B200D00DA800021052268449E1DFFF79E
:10BB700081F96B466A461D8101239372044B2000B4
:10BB80006C3302A904960593FFF7F4FB06B070BD71
:10BB9000B82D002010B50A4B02009888094B984236
:10BBA0000DD0094BDC6FE40709D560246C335A7063
:10BBB00099701C70054B03229989FFF7CDFF10BDCA
:10BBC000642C0020FFFF0000B82D0020382E00203C
:10BBD00070B5124B02009888114B98421DD0012479
:10BBE000104BDD6F254218D060256C339C70140A11
:10BBF000DA701C71140C120E9A710A0A1D70D97138
:10BC00001A725D3D0A0C090E5A7299725D705C7170
:10BC1000054B0B229989FFF79FFF70BD642C002014
:10BC2000FFFF0000B82D0020382E002010B5084B73
:10BC30009A6E002A0BD0002809D1EFF3108272B659
:10BC400004495C6E0C609866002A00D162B610BD93
:10BC5000B82D002000E100E0F0B5344D344CEB8A03
:10BC6000A28E85B09A4209D8E28E9A4206D3E36A40
:10BC7000002B57D100232B7705B0F0BD2B7F002B75
:10BC800006D0E36A002BF5D0002203A8027045E03D
:10BC9000A37D002B3BD1E769264B9B69002B3FD04E
:10BCA000042F36D96B6B002B3AD02B0031331B7825
:10BCB0000197012B01D000230193002303A80370F7
:10BCC000FFF72CFF02AAD01CFFF72EFA042600284B
:10BCD00012D02A000123203203704260164B174A0B
:10BCE0000026D358019A83600023436102AB0261AE
:10BCF000DA78104BC7605A7503AB1878FFF796FFD8
:10BD0000002E07D180220E4B52035A60B2E7276AF9
:10BD1000C2E70726236B3000002BABD09847A9E77A
:10BD20000826F7E7012203A8B0E7C046382E002016
:10BD3000B82D0020382D002004050000001001401F
:10BD4000FCE100E0F7B5164F0824BB69002B25D0B5
:10BD5000144D6B6B002B21D02B00002630331E704E
:10BD60006B46D81DDE71FFF7D9FE6B46981DFFF7B5
:10BD7000DBF9043CB04207D0022303706B46340069
:10BD80009B79203545607B756B46D879FFF74EFF70
:10BD9000002C03D18022044B52035A602000FEBDC8
:10BDA000382D0020382E0020FCE100E0042370B57F
:10BDB000144D0020EC6F1C420ED123431248EB6758
:10BDC000FFF7E4FA114B9888114B984205D01321E4
:10BDD000FFF7BEFA002810D070BDA3070DD5FFF7FE
:10BDE000B5FA0028F8D1A022A1238021DB00D205DA
:10BDF0008903D15006231C43EC67FFF7A3FF002003
:10BE0000EAE7C046B82D0020C0D40100642C002011
:10BE1000FFFF0000F0B5002585B002AB0090D81DF3
:10BE20000E000192DD71FFF779FE1D4C2B00227888
:10BE3000E189277CD2B2F8B28F4201D20130C3B27D
:10BE4000184F3D009A4208D0257C207C0022C3B2C6
:10BE5000814201D90133DAB2227402ABD879FFF7FB
:10BE6000E5FE0420BD4215D06368019AEF00DB199E
:10BE70001A60009A002A0FD0002E0DD0A089A36866
:10BE8000684332001818009903F06AF900206368CB
:10BE9000DF19BE8005B0F0BD00209880FAE7C046EB
:10BEA000382D0020FFFF000007B5064B00909B894E
:10BEB00009200191072B04D908216846024AFFF79F
:10BEC000A9FF0EBD382D0020E5B30300002110B5F9
:10BED0000800024AFFF79EFF10BDC04671B903007B
:10BEE00030B5040085B00D00102200216846FEF731
:10BEF000C1FF237A012B0AD0022B10D063682900DE
:10BF00000193236868469B68984705B030BD0023BD
:10BF10006A46137023690293A38A9381EEE7012393
:10BF20006A4669461370A289E3894A81D31A0B8154
:10BF3000E4E770B51D4B1A1DD26F002A2BD01822D2
:10BF40001C00D96F1C344A43A4189A18501DC07F96
:10BF5000012806D0022822D009212000FFF7C0FFC7
:10BF600019E0158E508E2A1AFF2A15DC92B2182578
:10BF700069435B18996ADB6A800009181818FFF793
:10BF800009F911280FD1022209490B7993431A00AC
:10BF9000042313430B7170BD80225200E7E7A08990
:10BFA000FFF7FAF8EDE70028F5D0D5E7382D0020A7
:10BFB000B82D0020062310B5044A1179194204D186
:10BFC000043B0B431371FFF7B4FF10BDB82D0020E5
:10BFD000022270B501002C480379134247D0182380
:10BFE0002A4A1000D56F1C306B43C018022904D0B8
:10BFF00003292FD0FFF79DFF70BD0021244CD318DB
:10C00000403421705C1DE47F012C0CD0022CF1D156
:10C010001A8D01321A855A8D013292B25A859B8D42
:10C020009342E7D10EE01C8E5B8EE11AFF290EDCF5
:10C0300089B25B1818214D439BB2521900215386D7
:10C040009C42D7D1FFF74CFFFFF7A8F8D2E7802139
:10C050004900EEE70E4A403213780133DBB2032B7E
:10C0600001D81370C6E7002308211370EAE7042102
:10C070000B42BFD08B43054903710431C96F0029BE
:10C08000B8D013430371B5E7B82D0020382D002038
:10C09000382E002070B50D4C0500221DD26F0020F7
:10C0A000042A11D0E36FD118032900D90439201DC7
:10C0B0000132C267182251431C3464182000002149
:10C0C000FEF7D8FE01202C6070BDC046382D002040
:10C0D000F0B5404E0D00316D87B0009201930A001B
:10C0E000042304001A40194247D0022006330142BB
:10C0F00019D101221143316531791300114212D057
:10C10000354F364A030097420DD3354A97420AD23B
:10C1100003221300002D06D0002C04D02B00234353
:10C12000134203D00623180007B0F0BD3B689C42C1
:10C1300001D20523F7E7009B7A689B00E3189A4237
:10C14000F7D3009A0423002AEDD002A8FFF7A2FF3C
:10C1500007230028E7D0029B019A1F6001275A603D
:10C16000029B009A1F72DD601C619A82FFF722FF1A
:10C17000336D1F4337650023D5E701208026194B17
:10C180001949F600585098590028FCD0802700988B
:10C19000FF008000824216D100225A50DA59002A4C
:10C1A000FCD00025019B1A00AB42BCD002AB1D7035
:10C1B0000392009A02AB1800049429009A81019B13
:10C1C00098472B00AFE7AE58A650DE59002EFCD0A2
:10C1D0000432DFE7B82D0020742C0020742C0020DE
:10C1E000842C002000E0014004050000F0B5444E1E
:10C1F00087B0336D050001925A0749D502220A2003
:10C20000134239D1093803433365337903420FD0E0
:10C210003C4F3D4B9F4237D33C4B10009F4207D2CF
:10C22000002D33D0AB052DD13B689D4205D20520B2
:10C230000123326D9A4332651EE08BB29B027A680D
:10C24000EB189A42F3D38CB2002C19D002A8FFF756
:10C2500021FF002812D0029B019A1F605A6002221F
:10C26000029BAD0A1A729D811C82FFF7A3FE012377
:10C270000020326D1343336507B0F0BD0720D7E7C8
:10C280000420D5E70620D3E71000D1E70320CFE74D
:10C2900002000220844680200E001D4B1D4CC00071
:10C2A00067461F511F58002FFCD0A127FF00DA510D
:10C2B0001F58002FFCD000271F511F58002FFCD003
:10C2C0008027013EFF00D219002EE9D101988C028F
:10C2D0002C190028D0D01022310002A8FEF7CAFD88
:10C2E000012302AA1370019BAD0AA40A0393100054
:10C2F0003100019B1581548198473000BCE7C0464E
:10C30000B82D0020742C0020742C0020842C0020D8
:10C3100000E001400405000070B505001C4C23003E
:10C3200054331A78002A14D101321A70A565FFF728
:10C3300093FB184D002201212800FFF757FF020050
:10C340000728F4D000280AD0002303205434237097
:10C3500070BD1148FFF71AF8FEF7C8FEDEE7582156
:10C360000E48FEF7F7FEAE220D490E4E0860520051
:10C37000300002F0F5FEFFF76FFB57223100280076
:10C38000094BFFF7A5FE0728F5D00028E0D0DBE732
:10C39000B82D002000FC0300A0860100F03700202B
:10C3A000EC370020143000203DBA03008022F0B5A5
:10C3B000214F52013B6B87B09A18204900927A6B4B
:10C3C0001E185418E41AA40AA50224026418A40A28
:10C3D000A402002A02D00020934228D0A30801938F
:10C3E00001230293009B02A80493019B03960593EB
:10C3F000FFF700FB00281AD103230293009B02A839
:10C400000393019B04960593FFF7F4FA00280ED1DD
:10C41000009B36191B190093AC420AD82D1B7B6B6D
:10C4200000205B1B3B63FFF777FF002DD8D107B0DF
:10C43000F0BD0500F3E7C046EC370020FF03000025
:10C4400010B58CB01822002106A8FEF713FD0B23AF
:10C450006A4601AC5380093B237023715733012294
:10C460006371A5330D20A3716B4662700532A27013
:10C47000991C033A6844E270FEF770FF00282DD142
:10C480006B4659880B292BD84B1CE3710923C9181B
:10C49000237289B2002320001A00C9B2FEF752FFAE
:10C4A00000281BD16B46202218769B181870282371
:10C4B000079006A80A93FEF747FF00280ED1A02395
:10C4C00080210A4ADB05890399508021043AC90377
:10C4D00099500223064AD16F0B43D3670CB010BDAD
:10C4E0000C23E371043B14212372D3E70C050000F5
:10C4F000B82D00200F2170B542680300527886B035
:10C50000114008291FD13F2503691C68002C01D167
:10C5100006B070BD00232373236868469E68626876
:10C520003100FEF7DBFF6368049323000C330593AF
:10C530007378AB43802B01D1231D04936846FFF72A
:10C54000D9FFA468E2E73F2110008843011E21D1F2
:10C550003020104010280ED15A6911700F215A68EE
:10C560001869537894680B40072B09D1010020000B
:10C5700000F018F8CCE79206F0D55B691970C7E7B0
:10C5800021001279002C02D002F0EAFDC0E7FEF78C
:10C5900071FCBDE78028BBD10021186901609206BB
:10C5A000B6D5EAE77FB50A0001006846FEF796FFB8
:10C5B000002806D06846FFF79DFF6846FEF79FFFFC
:10C5C000F6E707B000BDF0B50B00516815004A78DA
:10C5D000060014003F20844320008DB0002C04D0BE
:10C5E000402C00D16AE0002449E00F241440A70049
:10C5F000BC46634F6744BF6F019730273A40202AFB
:10C6000023D005D8002A16D0102A19D0040036E00D
:10C61000302AFBD10B786A691370072C13D16B6831
:10C6200001001A792869FEF725FC6B68296998686A
:10C63000FFF7B8FF07E02A693000019B9847E5E75C
:10C6400001236A6913702A6936E06F69022B28D1C9
:10C65000042C26D8300008A9FFF74BF8041EC2D0DE
:10C660000A9B0293002B04D069683A784B79934275
:10C6700008D8099B019373600A9B002BB3D120005B
:10C680000DB0F0BD0B7908A85A432B699A18019B8D
:10C690009847002803D03B7801333B70E0E7040063
:10C6A000E7E73B784A7900249A42E8D90979581C8F
:10C6B0004B432A693870D2186968BDE72A691700A8
:10C6C000029204CF002A04D119003000FEF7E9FFDE
:10C6D0009CE7022B17D1300008A9FFF70AF80028C1
:10C6E00000D180E7029B3A001B68696808A80193A3
:10C6F0009847041E00D176E70A9B0193002BF1D1E5
:10C70000099B7360BBE7012B29D0052B30D0002497
:10C71000A342B4D11C0005AA0192019B01340393EA
:10C720000B2C00D15FE7012230000199FEF727FFB3
:10C73000002800D157E7019B01330193039B1B782D
:10C740007F2BEAD80F4B0A94089305AB099300237B
:10C750000B93029B3A001B68696808A86EE70822E1
:10C76000300005A9FEF70BFF08240028EAD13AE7BC
:10C770000422300005A9FEF702FF0424F5E7C046B5
:10C7800084F203004DB40300F0B5002593B004001B
:10C7900006A804950595FEF7A1FE0295A368002B57
:10C7A00027D1079B06A80193089C5D78FEF7A7FE9A
:10C7B0000028F6D130231D4204D1079B1B785A1E56
:10C7C0009341E4180120002C1DD0002263099342FC
:10C7D00000D06BE01F22012014400132141B4042A4
:10C7E000E0409B0004AAD358C01A43425841C0B24B
:10C7F00009E020000CA9FEF7FFFE002805D1A36880
:10C80000002BCED0002013B0F0BD0C9E079F002E51
:10C81000C7D0F308019307231E40079B01991A789C
:10C82000914204D10F225B781A40082A66D106A8EB
:10C83000FEF765FE079DAF42EFD1029B019A93423E
:10C840000FD80F21079A53780B40082B38D006A831
:10C85000FEF755FE079B02939D42F2D101235B42F6
:10C86000029331002000FEF71CFF002896D1C9E793
:10C870009F68019A3B789A423ED16A6839000CA8B9
:10C88000FEF72CFE6B683F2210932B000C331193A4
:10C890007B789343802B01D12B1D10930123310012
:10C8A00020002B730CAAFFF78EFE22E0910004A853
:10C8B00041580131A6D1013289E79A42D1D06DE7C2
:10C8C0001378019A02939342CBD8A36803930A9BEF
:10C8D0001D68A368039A002DEFD09A4200D05DE74F
:10C8E0002B681F68002FC3D0330029002000019A55
:10C8F000B847002800D185E7AD68EAE73022134247
:10C900000ED1089B3F2B0BD81F215A091940012338
:10C910008B40920004A951580B43039104A9535032
:10C92000E568002D04D032002000019906ABA8472D
:10C930003100200006AAFFF746FE96E770B50E4AC2
:10C940000E4C0F4B62640F4A9B6BA2640022E3649F
:10C950000D4D0E4B0E4E1C3523650E4B310028003D
:10C96000DA601A61FFF71EFE200032002900443011
:10C97000FFF70AFF70BDC0464DB40300382E0020FB
:10C98000EC3700204838002004F3030029B40300EA
:10C99000C0360020B82D0020F0B585B00D008F689E
:10C9A000694606001400FEF7A4FE002812D0A8680D
:10C9B00000280FD030226B781340202B03D12100A8
:10C9C0003800FFF7EFFD220039006846FFF7DCFE74
:10C9D000019B736005B0F0BD0C2210B50021FEF77D
:10C9E00049FA0022024B1A635A631A615A6110BD58
:10C9F000EC370020F0B5134B85B05C6B0B68251845
:10CA00001C1B03230093104B6846A4080F000193DE
:10CA100002950394FEF7EEFF061E07D13800FFF7DC
:10CA2000DBFF3000FFF778FC05B0F0BD10220021DD
:10CA30006846FEF71FFA684601950294FEF7DAFF92
:10CA4000F2E7C046EC37002000AC0300F8B5174B06
:10CA500004001D68164B04201968164BC918491BA1
:10CA6000A1421ED3144B15481E6A4565012E19D1EB
:10CA7000134F9A69D219920A92020027891A8C429E
:10CA800003D91E615F610F4D04E0AA180E4D1F61AE
:10CA90005E6142650C2200212800FEF7EBF90020C0
:10CAA0002C60F8BD00221A615A61ECE708300000E2
:10CAB0001410001000F4FFFFEC370020382E002087
:10CAC000FF03000004380020103800200023F0B5D8
:10CAD0009FB000221293002314921593514B04002F
:10CAE0001693514B0D1E1793504B1893504B19939F
:10CAF000504B1A93504B1B93504B1C93504B1D9310
:10CB000001D000285FD0802600276519B600A54215
:10CB10005CD14C4DEC68002C55D08021129A02A8B3
:10CB2000531C8154372A00D96BE00022382B64D182
:10CB300012994B0FCA001498159912184B41160000
:10CB400012BA11923B221F0002ABD21817703A2280
:10CB500000900191D218390A11703922390CD2187B
:10CB6000117010AB3A0E02A91A70080014961597AE
:10CB7000FEF72EFB00231D9A1100D94021701C9A4C
:10CB800001341100D940E1701B9A1100D940E171C4
:10CB90001A9A1100D940E172199A1100D940E17333
:10CBA000189A1100D940E174179A1100D940E17523
:10CBB000169A1100D9400833E1760092202BDAD181
:10CBC00000202B6100E00E201FB0F0BD129B2278E8
:10CBD00002A9CA5401331293402B0CD10800FEF76E
:10CBE000F7FA149A159B0092019392197B411492C3
:10CBF000159300231293013489E702A9CA54013323
:10CC000094E7002202A93F2B08D90800FEF7E0FABA
:10CC10003822002102A8FEF72DF989E7CA54013312
:10CC2000F0E7C04667E6096A85AE67BB72F36E3C03
:10CC30003AF54FA57F520E518C68059BABD9831FE7
:10CC400019CDE05BB82D0020F0B5038804008FB04B
:10CC5000122B3DD00DD8102B19D0112B29D02088A4
:10CC6000142846D80F283AD8022800D186E00FB001
:10CC7000F0BD502BF3D1BA4DC188EA8C9142EED170
:10CC8000038A022BEBD1837CDB070FD417E0210052
:10CC90008388B448B24D082218311430AB8202F0B8
:10CCA0005FFA0023AB75EB8C002BD8D1FEF7D4FFD5
:10CCB000D5E70123AA4D5B42AB820023AB75FFF79A
:10CCC00041F80028CBD02B6B002BC8D09847C6E783
:10CCD0000822A448A118143002F042FAE6E71038FE
:10CCE0000428C4D802F0F8F913002600C3FF350069
:10CCF0005D03503883B2052BB9D80528B7D802F0A8
:10CD0000EBF95E0343005703B6FFB6FF3300A023E1
:10CD10008021954ADB05C90399508021043A890393
:10CD20009950A288914B9A8002238D4AD16F9943E2
:10CD3000D1679CE78A4BDB6F9B0705D4FFF780FB2D
:10CD4000002801D0FEF740FB0122884B52429A8016
:10CD50008DE7864B8521988800231A00FEF700FB9B
:10CD6000002800D183E7EDE7A379002B00D07EE710
:10CD70007E4B13219888FEF7EBFAF1E77B4B0021FD
:10CD80009888FEF7FFFAEBE7A679002E00D16EE750
:10CD90000AAD082200212800FEF76CF8022E00D010
:10CDA00065E7704A21899289914200D05FE7A37BB1
:10CDB000043B022B00D85AE70122AB792E701343B3
:10CDC000AB71238A2B81638A08966B81230014330D
:10CDD000EB60664E07AB0993624BB788198A08ABC4
:10CDE0001A003800FEF7C4FA00280CD1012204AB67
:10CDF0009B89134207D1FE23FF3329003800AB8003
:10CE0000FEF7BAFA33E7002329003800AB80FEF7BB
:10CE1000B3FA011E00D02AE70C222800FEF72AF8F8
:10CE2000237D581E0393052800D9B7E202F05EF96E
:10CE30000600210256028D00B6026A02638A0321AF
:10CE4000062B3BD1474B474A5A331B885832138035
:10CE5000E27DA07D1202217E1043627E090412064B
:10CE6000014311430122637DA9606B602A709342E4
:10CE700008D1B371B479012C08D0022C22D005233B
:10CE800003931AE0022BF4D00723F9E7032303935B
:10CE9000002912D00422FD33039299420DD80026B6
:10CEA000304B1C325C33310031481E70FDF7E2FF1D
:10CEB000304BAA681E639A63039403990120FEF71E
:10CEC00069FED4E600293AD08B0506D0294B254AC5
:10CED0005B6D126ECB18934231D180235B01994276
:10CEE0002FD8204A13005C331B78002B2BD0214B0A
:10CEF000156E586D0C18AC4225D8DC6C03259C646B
:10CF000014006434596418651863237801332B4086
:10CF100023701300002466331C80114CA368013376
:10CF2000A360154BC918536D890A144AC018FFF73E
:10CF30005DF90028C1D0A368013BA3609FE70323EC
:10CF40009EE704239CE708239AE70323B7792B7015
:10CF5000012F15D0022F00D102E10527D6E0C046EF
:10CF6000B82D0020382E00200C050000642C002075
:10CF700024380020EC370020FF030000B9B3030081
:10CF8000C44DEB6BAA6B934200D070E1C24B5C3393
:10CF90001B78002B00D0B9E0FFF7D0FC0128DCD1D2
:10CFA000BE4B1A0074321278002A00D1D2E01A0067
:10CFB0007A321278002AD0D0B94AD0681169002894
:10CFC0001BD0002919D01A00DB321278002A04D0B5
:10CFD0001A00DC321278002A0FD11A00843212783B
:10CFE000002A0AD01A0088321268332A05D18C33FD
:10CFF0001B789C460023634501DB0A2786E0A94A8B
:10D00000A94E12689C00345992B2944200D1E2E2D7
:10D010000133F0E723007C331B78002BEDD0231D78
:10D02000AA68DB6F9A42E8D82300E8331B78002B0C
:10D03000E3D1994B9A4D6833EB6020232B61FFF7C6
:10D0400045FD0028D9D1994B99491A7899489A4EAB
:10D0500002F086F8974BB364944B1B78F364402B33
:10D0600000D07AE7EE68002E00D176E70323320085
:10D070001A4004921E4200D06FE72D6901F0CCFEE9
:10D0800003008E4800932A0031008A4B403001F0A3
:10D09000C7FE002800D160E77F4B049AA1341A66CE
:10D0A00020780328A9D87D4B1A0002F00BF8023231
:10D0B0002039B0321278B433002A9ED01A68764BE9
:10D0C0001A66754C202220007D49683002F048F82D
:10D0D000206E002839D0FFF7B9FC002815D1FFF7E2
:10D0E0001BF9002889D101225C3422700EE0A8329D
:10D0F0001278002A81D0AC331A68674B1A66FF2376
:10D1000070499B025B1A9A42DBD9039F39000420C5
:10D11000D5E6A2321278002A00D16EE7A433CDE71B
:10D12000A8321278002A00D167E71A00A2321278DA
:10D13000002A00D161E71A00AC33A43211681A68E2
:10D14000554B88181866002901D10327DEE7002A0D
:10D15000D5D1FAE71B780527002B00D04DE7D5E79E
:10D160004C4C0827226D636D616CD31A9942CDD166
:10D170000020A36C60646265E364FFF7CDF80028CB
:10D1800000D03AE7444E236D326E073F9342BDD143
:10D19000434DAB68002B2CD1404B0A27B9331B7889
:10D1A000032B14D133006833EB602023316E706D94
:10D1B0002B61FFF78BFC093F002800D009372022A4
:10D1C0003F49E86801F0A8FF002800D005276369FF
:10D1D000002B11D0012B00D00FE73B4B012F42D188
:10D1E0002E4AA132107803283BD801F06BFF0724A8
:10D1F0002C33FDF77BFFCBE7344BEFE701229A603E
:10D20000264A151DEA6FA260A26C5A60326E1A603F
:10D21000002120222E48FDF72DFEB222FF212D48AD
:10D22000FDF728FE00232C482363FFF775F800283C
:10D2300000D16BE7E1E6A522184D9A60A4352A6873
:10D2400007006263E0E7AA229A60144A151DEA6F9C
:10D25000E260D9E7AC229A60104AA4321268626395
:10D26000F3E70A27D0E700229A605A60CFE7082741
:10D270004CE7638A0321032B0AD1A37D627D1B0245
:10D280001343054A11005A310B8001215832138093
:10D29000022014E6EC370020382E0020C036002093
:10D2A000B82D00200C30000050370020A937002096
:10D2B000AA370020C02E0020B82E002004F303005F
:10D2C0007B37002000AC0300103800200438002019
:10D2D0002438002048380020FDB3030004232B70BD
:10D2E000B379012B04D0022B08D005210320E6E5F9
:10D2F000C64BD86B196CFEF76BFCB8E4C34B186DCA
:10D30000996CF8E7638A0321022B15D10622637D0D
:10D310002A706B60012B0CD1B371B379012B0DD046
:10D320000521022B08D18024B84B64019A6C196D39
:10D3300009E0022BF0D007210620C0E58024B34B82
:10D3400064001A6CD96BB088B14B984200D18EE45E
:10D350000125B04BDE6F2E4200D188E46C3360268D
:10D360009D700025240A1C710C0AD9711C720C0CCA
:10D37000090E9972110A19731E70110C5A3EDA7255
:10D38000120E5E70DD705D719D715C7259739A73DF
:10D39000A14B0F229989FEF7DFFB68E40321039874
:10D3A0008DE50023A0881A001900FDF7DBFFD7E404
:10D3B0000023A0881A001900FDF7E0FFD0E4964B87
:10D3C000E2889B889A4200D051E40AAE0C220021E8
:10D3D0003000FDF74FFD0223337023001233049316
:10D3E00073608E4B278A9B79B760012B1CD0022B70
:10D3F00036D000231C000393874D2B005A331E8820
:10D40000002E01D1FFF733FC58352B88013B9BB22E
:10D410002B80002B01D0FFF72AFC20000399FEF798
:10D42000D7FB2E80FFF723FC784DEC6BAA6B3B19E2
:10D43000934202D92B6C0393DEE720005C303A0064
:10D440000499401901F08CFEB368EA6B19009C182E
:10D450007068734AEC63FDF77DFE03902864CBE7A8
:10D460006A4DAB6C2C6D03936B4B5C331B78002BBC
:10D47000C2D080235B009F42BED86A6D3B190593E2
:10D480009B1A6A6C9342B7D83900664A0498FDF734
:10D4900061FE059B03902B65634BA8641C88634B5E
:10D4A0001878634B00020019C0183B19FF2B3AD8BB
:10D4B0003A00049901F054FE5B4AB3681288059C57
:10D4C0009B18594A1380544B1F0066373A88002A2C
:10D4D00092D04E4D696D286B511A6E6C0918B1428D
:10D4E0008AD3596D4B4E4018B16864330131B16035
:10D4F00019784F4B03320902C91892104D4BFEF7B1
:10D50000E7FD00285ED12A6B3B88D3182B63424A83
:10D510000320110064310B786632013303400B7035
:10D520000023138068E780235B001C1BA4B2220049
:10D53000049901F015FE3C4B1A88A21892B21A8089
:10D54000B36803321B1BB360736892101C19324B13
:10D550007460586D2F4C2B6B1818A3680133A360AF
:10D56000324B1978324B0902C918324BFEF7B0FD25
:10D5700000281ED12C4B2A6B1B88059CD3182B63CB
:10D58000254D03222B006433187866350130104096
:10D59000187000230C9A2B809A4294D0244B0002DE
:10D5A000C0180B9901F0DCFD2A880C9B9B182B807E
:10D5B00089E7A368013BA360EB6C6C6D0393AB64DC
:10D5C0002C65DDE7B3686C6D013BB360EB6C2C65DB
:10D5D0000393AB649BE7184C2300A1331B78012B0A
:10D5E00000D121E500D815E5023B012B00D904E567
:10D5F00023007C331B78002B00D1FEE4231DEA6856
:10D60000DB6F9A4200D20FE5F7E4C046EC3700200A
:10D61000FFFF0000B82D0020382E0020642C0020D1
:10D620002C380020343800209E2E00209C2E002014
:10D63000C0320020B9B30300C0360020A02303226B
:10D64000AF49DB05F0B55A5004315A50A122802170
:10D65000D200890399508021C903995000230126E3
:10D6600097B006AC6370A37007332670E370FEF7C3
:10D67000C3F9051E00D02DE1A248FDF785FE051E69
:10D6800000D027E1A04BA14F5033BB643B004822A0
:10D690000833DA879E4B9F4A9F4D9A612B685B0B3C
:10D6A0001A0032400192334203D080229B4B9201F8
:10D6B000DA6720009A49FEF70FF9002807D0019B8E
:10D6C000002B02D080239B012B60FDF77DFE3B00E9
:10D6D00001224C331A70C5239B00EB589B0D13425B
:10D6E000F3D08023BA6EDB03002A00D1F5E07A6E16
:10D6F00013437B660FAE142200213000FDF7BAFB06
:10D70000002301223361337B3000934333730223C0
:10D71000FF333381834B32800393039BB2720AA998
:10D720000A93FEF7DBF8039B051E00D0D2E07E4B88
:10D73000010008223000FB63FDF79CFB11230AA8BF
:10D740002370FDF7FDFD051E00D0C3E0212102A8D6
:10D750004018037802A84118013328000B700AA969
:10D76000FDF7ECFD051E00D0B4E0704D280001F07F
:10D7700049FD290082B22000FDF7EEFD051E00D014
:10D78000A8E00C21C82331805B004918B08071806B
:10D790003000F380FDF7DEFD051E00D09AE0012287
:10D7A000634B52429A8002AD624B0232AA72012050
:10D7B000614A04A92B81FDF7D7FD051E00D089E041
:10D7C00010225E49200001F0CBFC5B4D2000A91C1B
:10D7D000FDF7D6FD051E00D07CE001001C223000C4
:10D7E000FDF748FB29000C220CA8FDF743FB04239E
:10D7F0003278514D13433370AB7805ACA3700223DC
:10D80000002102AD23800F33280029706B7003259F
:10D810005B1985700B900A94838547483100031D7E
:10D820000AAA0088FDF7A2FD051E53D101000C22B3
:10D830000CA8FDF71FFB29001C223000FDF71AFB86
:10D84000182030703C48012283782280A370112375
:10D8500002AA5370023393700021172311700B92A8
:10D860000A949385344A344B108831000C330AAA49
:10D87000FDF77CFD051E2DD10123FC6F1822010050
:10D8800023433000FB67FDF7F5FA2D4B033573603A
:10D890008023DB01B3602B4B3573B3613B0018333E
:10D8A00025CE25C325CE25C338000021326834306B
:10D8B0001A60214B1977FDF70FFE051E0AD10122D0
:10D8C000124B52429A8200229A751F4B9B699342D7
:10D8D00005D10825280017B0F0BD2B600AE7164BCC
:10D8E0001A0030321278002AF3D1190031310A704F
:10D8F000164A5A63A307EDD4FEF7A2FD0500E9E737
:10D900005407000000AC0300B82E0020B82D002002
:10D91000382F0020CDBE030000E100E004E100E06C
:10D92000E5B80300002C002049CC03007CF2030082
:10D93000642C002059FEFFFF382E002084F30300E2
:10D94000CD0C0000F7B30300382D00206FB40300A6
:10D95000F8B50024224B234E5C649C64DC641C6597
:10D960005C609C60F169A14237D01F4B1F4AD558BB
:10D970001F4BDB6DED1A2D022D0A0B68AB4218D838
:10D98000ED1AE4180B7CCF69002B10D00023326A0B
:10D990000B744B698969002A07D01800904700284A
:10D9A00005D0FDF711FD3900E7E708009847002F83
:10D9B000F9D1721DB31DD17FDB7F8B4204D10133BE
:10D9C000DBB2022B0AD0D3778022731DDB7F520398
:10D9D0009B00F618074BB4625A60F8BD0023F2E7CB
:10D9E000FC100140382F0020040500000010014009
:10D9F000B82D0020FCE100E0F0B50025C94C8BB04B
:10DA0000E36D01950293C84BDA69581D991DC67FD5
:10DA10000392CA7F2800964211D00132D2B2022A64
:10DA200000D1B0E0CA779A1DD27F92009B18986A05
:10DA3000029B1B181B021B0AE365012301930025AF
:10DA40000124BA4B1A7D00925A7D06929A6904927B
:10DA50009B7D009A0593B34B0895DB6D0793B24B02
:10DA600030331B780993039B06998A4200D08CE0DF
:10DA7000089A002A06D0AC4A099930321170A94A96
:10DA80000799D165A84A002D00D0D361D369019AC6
:10DA9000002A00D0C1E0039A0024D31A5A1E9341F1
:10DAA000DBB20193002501269F4B0395DA693033E1
:10DAB0001B78079208939B4BDB6D0293002C00D0E0
:10DAC000B0E0009B06998B4200D0C9E0039B002B7D
:10DAD00002D0964B00991975934B002D00D0DA6156
:10DAE000DB69079A9A4202D1019A002A45D0002B9D
:10DAF00000D1FEE01B688E4C8E4D03936659029B4D
:10DB0000F31A1B021B0A03330093864B6033019305
:10DB10001B78002B13D18023D1225B029200A350EB
:10DB2000403AA350C02180220127834B9202490032
:10DB30005A501A602760FDF7BBFF019B1F70039BC3
:10DB4000009A934200D21300A821029AC9009B18A0
:10DB50001B021B0A635062599B1B921B1202120A82
:10DB60001B0203321B0A9A4207D963596350FDF71F
:10DB70009FFF8022714B92025A6000226A4B303321
:10DB80001A700BB0F0BDCD774DE718215143049EBC
:10DB900001327118059ED2B2B24200D100220E7835
:10DBA000022E0AD0032E00D05EE7002B00D15BE7E7
:10DBB000002125001974DB69F7E749681E008C46CF
:10DBC0001900002900D14FE78C4500D194E00E00E8
:10DBD000C969F6E71D68854206D9002A01D0524A74
:10DBE000D361281A18605DE7401B4919DD68DF69B9
:10DBF0001E60002D07D0DC611C00029A9D60521847
:10DC00001202120A5A603B00019A002BE2D1002A4C
:10DC100000D147E7444AD36144E7002214001100D1
:10DC20001600F2E72300E469596802980991081A7E
:10DC3000434900029F68000A884238D8C01918601A
:10DC400000211E7459609960D9618A4206D0186813
:10DC5000116888424AD8091A1160DA61350043E038
:10DC60001821009B5943049B5918009B0133DBB2D8
:10DC700000930098059B834201D1002300930B7809
:10DC80000396012B00D01CE74B68187C002800D0BD
:10DC900017E78F685F60CF689F600F69DF60496931
:10DCA000996108990029BFD058600391BCE7029997
:10DCB0000998091A0902090AB94202D2791A1960A7
:10DCC000BEE70021FBE7C01BCF698C46002F07D0C1
:10DCD00039000F688742F6D33F1A0F600F00614684
:10DCE0001860DF61CB6113001A00E7E6944611006B
:10DCF000EFE7FDF7F3FE40E7B14208D1DB6925000D
:10DD0000002B04D10A4FBC600793089409940F6854
:10DD1000C969BC46F161002900D1A5E60E686644D8
:10DD20000E60A1E6B82D0020382F0020382D0020ED
:10DD3000001001400405000000E100E0FCE100E00B
:10DD4000FEFF7F00F7B56A460023901D9371FDF733
:10DD5000E5FE264B4C331B78DFB2002B3ED1244B23
:10DD60001A68002A3AD0C222224D9200AA58D2073D
:10DD700034D51F60A123DB00EE586B46D81DDF7140
:10DD8000FDF7CCFE1C4CF6B2A26B1F2A00D8571C24
:10DD9000636BA763BB4204D10021202F00D0791C04
:10DDA0006163A21840321670626BBB1A97421AD395
:10DDB000E26B9A4200D2E3636B46D879FDF736FFF7
:10DDC000A26B00231F2A00D8531C626B9A4205D114
:10DDD000C22201239200AB50084A13606B46987927
:10DDE000FDF724FFF7BD2133E2E7C046B82D002040
:10DDF00000D1004000D00040382F002004D0004067
:10DE000070B52B4A1368DBB2012B03D129490B688B
:10DE10001B0700D070BD284BF0201C68E0262500B1
:10DE2000054034423DD1254C246804420DD124489C
:10DE3000244C046080242448240204601068C0B28A
:10DE40000128E7D108680007E4D1F02418682040D1
:10DE5000402810D11948006820420CD18024C120EC
:10DE60000125E405C00025501268D2B2AA42D1D1E2
:10DE70000A681207CED1F0221B681340A02B13D1E1
:10DE80000E4B1B681342C5D1104B1A68012A04D0EF
:10DE90000F4A1A601A68012AFCD1C0220D4B1A6081
:10DEA000B8E7302DBFD0D0E7D02BB3D1E8E7C046DC
:10DEB000E00F00F0E40F00F0E80F00F0EC0F00F0CE
:10DEC00004050040DFFF07C0186C004000EC06406E
:10DED0007593000014EC064010B5084B9B69002BAD
:10DEE00004D09847002808D0FDF76EFA044B4C3355
:10DEF0001B78002B01D0FDF7F8FC10BD382F002057
:10DF0000B82D0020A0230322BF49DB05F0B55A50ED
:10DF100004315A50BD4980205A5004315A50A12230
:10DF20008021D200890399508021C9039950802112
:10DF30004004090499509850B54AB64F9950EA22C6
:10DF4000B549D20099503B00AE220025B34E543360
:10DF50003000B34989B052001D7001F001F93468F6
:10DF6000631C06D02A005821AE48FDF7F3F884421E
:10DF70000ED0AE22002130005200FCF77BFF0123BF
:10DF800000207360FEF7C8F9002801D0FDF71CFAE5
:10DF9000A54BA64D1A6833691400012B09D073698B
:10DFA000002B06D0B369A249A24D5C18A40AA402B2
:10DFB000A418AB68AA2B00D1ECE077D8012B00D1D4
:10DFC00080E0A52B00D1D8E00025A022A223D20515
:10DFD000DB00D358DB0200D5E2E0FDF77FFD052032
:10DFE000954A96499075964B08000B620023643061
:10DFF0009061881DC3778025C020C526FF24CB6192
:10E000000531CB778F496D0340009382B6000D50E8
:10E010008859A0430400C02020438851A1200D60EE
:10E02000894DC0002B50043E8859884C0440C020C4
:10E0300000022043885186491E006958854CF965C5
:10E040008549864D51608649641B91600821918104
:10E050000C311374D1811370E408B44200D0BEE0D7
:10E0600001233A796D4C13433B717E4B3B6404238F
:10E070003B650023BB60A36B002B14D0FEF75EFC56
:10E08000002810D0236A002B00D0B0E0A369002B39
:10E0900000D1ACE0744A1366734C206EFEF7D6FCD8
:10E0A00001235C342370FDF721F8FCE7AC2B8BD106
:10E0B0002000FEF77BF900285DD129002000FEF743
:10E0C00099FC65E073690025012B00D07DE7736A38
:10E0D000356B039353190293039B5D1B80230195BA
:10E0E000DB009D4200D90193002201210298FEF736
:10E0F0007DF8031E3FD12100019A0298FDF7E8FF49
:10E10000002838D103230493029B04A80593019BA4
:10E1100006949B080793FDF76DFC021E2BD101218D
:10E120002000FEF763F8002825D13C4E019A336B9E
:10E130009B183363FEF7F0F8019A029B9446634400
:10E140000293A418AD1AC9D1374B2A001868039955
:10E15000FDF700F8B36A984204D101233362039BB0
:10E16000F061B3613348FEF737FC0020FEF7D4F8C6
:10E17000002800D129E7012527E72000FEF716F93E
:10E18000041EF8D12800FEF727FC2000FEF7C4F893
:10E190000125EDE729002000FEF72CFC0025E7E72C
:10E1A0001E4B9A6D012A07D100209865FEF7B4F83E
:10E1B000002800D111E7E9E6002D00D00DE7FDF7BA
:10E1C0005DFC002800D108E7174B1C001868FDF71C
:10E1D00020FC2068FDF71DFC280009B0F0BDF3000D
:10E1E000EB589847002800D0D0E6013635E7E36ABF
:10E1F000002B00D057E7A369002B00D153E7626AD8
:10E20000194B1A6648E7C046540700005C07000037
:10E210000C050000B82D00200C000300EC37002096
:10E2200000FC0300F0370020083000000438002014
:10E23000FF03000010380020382D0020382F002068
:10E24000A9BE030000E100E000100140FF00FFFF55
:10E25000040500008C2C002070310020842C00204C
:10E2600018320020D1BF0300382E002003210A48B5
:10E2700002680A430260094802680A4302600849CA
:10E28000084A094B9B1A03DD043BC858D050FBDCFD
:10E29000FFF7B6FDFCF766FD24050040540500407D
:10E2A000F0F50300002C00208C2C0020FEE7FEE798
:10E2B000FEE7FEE7FEE7FEE7002A00D17047013ADD
:10E2C0008B5C8354F8E710B5013A52B2130601D5BE
:10E2D000002010BD9300C458CB589C4205D8013A89
:10E2E0009C42F3D201204042F3E70120F1E7000015
:10E2F00070B50824E31ADB0001330400002003A5F5
:10E300005B1920C940CAAD1920C4184720C940CAAA
:10E31000754120C420C940CA754120C420C940CAE3
:10E32000754120C420C940CA754120C420C940CAD3
:10E33000754120C420C940CA754120C420C940CAC3
:10E34000754120C4404170BD000000000000000085
:10E3500070B50824E31ADB000133002403A5C0468E
:10E360005B1920C940CAAD1B20C0184720C940CA4C
:10E37000B54120C020C940CAB54120C020C940CA0B
:10E38000B54120C020C940CAB54120C020C940CAFB
:10E39000B54120C020C940CAB54120C020C940CAEB
:10E3A000B54120C064416042604170BDF0B5DE46B9
:10E3B00057464E464546E0B5013B9B0098465B00FC
:10E3C0009946002300240025002601B4002702E01E
:10E3D000370040463F1A9A46A346AC46B646F01B65
:10E3E0001458C859030C80B2250CA4B21E006E4309
:10E3F0006343454360431C041B0C00195E412C041D
:10E400002D0C00196E4153465C4665461B1874413D
:10E410000020454176460437474501DCB742DADD46
:10E420000098835123462C46002504364645CDDD11
:10E430004E45CDDD835101BCF0BCBB46B246A9467A
:10E44000A046F0BDF0B5DE4657464E464546E0B51F
:10E45000013A920090465200914600220023002487
:10E46000002501B4002602E02E004046361A9246EE
:10E470009B46A446AE46AF1BCB598859020C80B2CE
:10E480001C0C9BB2150065435A4344435843130484
:10E49000120CC01855412304240CC0186541524683
:10E4A0005B466446BE4203DA002712186B417C418A
:10E4B000002712186B417C4175460436AE4202DAE1
:10E4C000AF1BBE42D3DD009842511A4623460024BA
:10E4D00004354545C6DD4D45C6DD425101BCF0BCA5
:10E4E000BB46B246A946A046F0BD002310B51C00AD
:10E4F0005AB2914200DC10BD9A0084500133F7E714
:10E50000F7B51E0001910223F45E050021001F20D3
:10E510001F31CB1703405B1807215B110093E31DEC
:10E52000DC170C40E418E410944200D914006B4648
:10E530000027DF5728003900FFF7D7FF2200280007
:10E540000199FFF7B9FE0222B35EE4009C421AD99A
:10E550000022E41A009B944620329B00121BEB1809
:10E560000092043B191D8D420ED324363A00290037
:10E570003000FFF7A8FE012805D03B00320029003B
:10E580002800FFF7E5FEF7BD186862460100E1408C
:10E590001143009A196090408446E2E7002302008C
:10E5A000180010B55CB2A14202DC4342584110BDD4
:10E5B0009C00145901332043F4E71F234A111940EA
:10E5C0001E3B8B40920010581840704702000139E2
:10E5D00010B549B2041DCBB2080604D40139880035
:10E5E00020580028F7D001335BB2181E0AD0002053
:10E5F0000649591889008A58002A04D1013B5B0159
:10E60000181800B210BD52080130F5E7FFFFFF3FB8
:10E61000002330B55CB2A24200DC30BD9C000D5935
:10E6200001330551F6E70000F0B50C0000278BB070
:10E6300008220500FFF7ECFFE36A02AA0593236BAB
:10E6400011000693636B10000793A36B0497089364
:10E65000E36B0397099308230297FFF749FE08230A
:10E660000600290002AA2800FFF742FE236B02AA37
:10E670000593636B11000693A36B36180793E36B46
:10E680001000089308230997FFF732FE082329009A
:10E69000361802AA2800FFF72BFE236A29000293EE
:10E6A000636A36180393A36A02AA0493A36B280033
:10E6B0000893E36B07970993082306970597FFF7DD
:10E6C00017FE636AA26B0293A36A06920393E36A3E
:10E6D000E26B0493636B290005930893236A361851
:10E6E0000792099302AA08232800FFF701FEE36AB4
:10E6F00029000293236B36180393636B02AA0493D9
:10E70000236A28000893A36A0797099308230697AA
:10E710000597FFF71DFE236B29000293636B361AE2
:10E720000393A36B02AA0493E36B28000593636A27
:10E7300007970893E36A069709930823FFF708FEF3
:10E74000636B29000293A36B361A0393E36B02AA4F
:10E750000493236A28000593636A08970693A36AC3
:10E760000793236B09930823FFF7F2FDA36B361A77
:10E770000293E36B29000393636A28000593A36A5D
:10E7800002AA0693E36A04970793636B08970193C1
:10E7900009930823FFF7DCFD341A0F4EBC4210DA50
:10E7A0000823320029002800FFF7A2FD2418F7D41F
:10E7B0000BB0F0BD0823320029002800FFF7C8FD88
:10E7C000241A002CF6D1082229003000FFF77BFD27
:10E7D0000128EFD1ECE7C04638F503000300002024
:10E7E00030B5013A52B2140602D54342584130BD09
:10E7F00095005C594D59013A6C402043F3E70022E3
:10E8000010B58900411804390B1D984200D310BD82
:10E810000C68630813430B60E207F4E770B515005A
:10E8200002680123160004001E401A4205D00A00A7
:10E830002B000100FFF75CFD060029002000FFF718
:10E84000DEFF002E08D0054BED188023AD006419C3
:10E8500022681B061343236070BDC046FFFFFF3FC5
:10E8600070B500261D0004AB9E5704003300FFF76F
:10E870003FFD002806D1320021002800FFF723FDCC
:10E88000012805D033002A0021002000FFF760FD99
:10E8900070BD70B500261D0004AB9E570400330008
:10E8A000FFF756FD002805D033002A002100200084
:10E8B000FFF71EFD70BD0000F0B51E00A9B018AB3B
:10E8C000049007911000310006931700FFF77EFEB9
:10E8D000B3011B1A1F201BB2DC1704403B4DE41888
:10E8E0006411019364B21D4004D52023013D5B42B5
:10E8F0001D43013508A821002DB2FFF7F6FDA00049
:10E90000002D25DDB3009C4608AB181800232022FB
:10E910001C00521B6146994212D1012473000293DC
:10E9200008AAB300D3180393019B002B48DA06AB67
:10E93000A4003200E1580498FFF76AFE29B0F0BD48
:10E94000F958A9402143FC58C150D4400433E1E7B1
:10E9500008AB320039001818FFF75AFEDDE706A8A9
:10E96000A10009589700C85908A979585918411A9F
:10E97000884202D088429B415B4206A8405901323E
:10E980000590C15152B202998A42E8DBE41A63420F
:10E990005C4108AD31002800FFF731FF721EB30063
:10E9A0005B5992005159DB070B43039853513100D7
:10E9B000FFF725FF0198E4B2013803B20193B3E7F2
:10E9C000012100220D1B1300AD00DCE71F000080B9
:10E9D00070B5002604001D0090B014AB9E57684629
:10E9E0003300FFF7E3FC33002A0069462000FFF7FD
:10E9F00063FF10B070BD30B51C000023050091B05E
:10EA00006846E356AC34FFF7D1FC6946280023681A
:10EA1000984711B030BD30B514000022050091B008
:10EA2000A2566846AC34FFF70DFD694628002368FE
:10EA3000984711B030BDF0B58DB0040015000E0040
:10EA40001C22002105A8FCF715FA032304930023D8
:10EA5000EB562A00310020000393FFF7DCFF039BF5
:10EA60002F1D21002000009304AA3B00FFF711FF97
:10EA70002B00320021002000FFF7BDFF2A00039B7E
:10EA80002100009320003B008432FFF7E9FE0DB027
:10EA9000F0BD0000F0B5002797B004910393DF5755
:10EAA0000500390010001400FFF778FD002800D0A1
:10EAB00092E0039A049906A8FFF7ADFF039B290093
:10EAC00006AA0EA8FFF797FF06A90800039AFFF70A
:10EAD000A2FF0499039B08002200FFF78CFF21008E
:10EAE0002000039AFFF797FF039B22001E1D3300AF
:10EAF000290028000097FFF7B3FE33002200210011
:10EB000020000097FFF7ACFE330022002900200010
:10EB10000097FFF7BEFE220029002800039BFFF7A5
:10EB20006AFF33002A00290020000097FFF798FEB3
:10EB300033002200290028000097FFF791FE2B6880
:10EB4000DB074BD53B00320029002800FFF7D0FB44
:10EB5000390005902800FFF752FE234B059AFB1859
:10EB60009B00EB181968D2070A431A60290020009D
:10EB7000039AFFF750FF3300210020000EAA0097F0
:10EB8000FFF787FE3300210020000EAA0097FFF751
:10EB900080FE0EA90800330022000097FFF779FEDF
:10EBA00029002800039B0EAAFFF725FF06AA3300C1
:10EBB000100029000097FFF76CFE3A0021002800A2
:10EBC000FFF726FD3A0020000499FFF721FD3A00E7
:10EBD000049806A9FFF71CFD17B0F0BD3900280006
:10EBE000FFF70DFEC2E7C046FFFFFF3FF0B5140080
:10EBF00006001D008DB0129B02001B7803915BB2D2
:10EC00000293129B21001F1D029B04A800933B004E
:10EC1000FFF73FFE04A90800129AFFF7FCFE31003F
:10EC20003000129B04AAFFF7E6FE21002000129B91
:10EC300004AAFFF7E0FE029B29002800039A009334
:10EC40003B00FFF726FE2900129A04A8FFF7E3FE17
:10EC5000029B04A93200080000933B00FFF719FE55
:10EC6000029B04A92200080000933B00FFF711FE5D
:10EC7000029B32002100200000933B00FFF709FEB9
:10EC8000039922000800129BFFF7B5FE029B31009A
:10EC90002000009304AA3B00FFF7FBFD220029009F
:10ECA0002800129BFFF7A7FE029B29002800039A69
:10ECB00000933B00FFF7EDFD2000029A04A9FFF747
:10ECC000A7FC0DB0F0BDF0B516001C0007000D004C
:10ECD00089B01A0031006846FFF79DFE23006A469E
:10ECE00039003800FFF787FE230032006946684686
:10ECF000FFF781FE23006A4629002800FFF77BFE0C
:10ED000009B0F0BDF0B50F000600A3B0190038003F
:10ED100015001C00FFF742FC002805D02100300040
:10ED2000FFF7E3FB23B0F0BD39000127220002A862
:10ED3000FFF76EFC220029000AA8FFF769FC2100FA
:10ED400012A8FFF7D2FB21001AA81297FFF7CDFBFC
:10ED500022000AA902A8FFF7B6FA002805D122006E
:10ED6000300012A9FFF754FCDCE7029B01933B4201
:10ED700009D1210002A8FFF742FD2200290012A8B4
:10ED8000FFF74CFDE4E70A9B01933B4207D12100CA
:10ED90000AA8FFF734FD220029001AA8F0E7230093
:10EDA00000281CDD02A90AAA0800FFF7D1FA2100F9
:10EDB00002A8FFF724FD22001AA912A8FFF783FA80
:10EDC000002805DA12A923002A000800FFF790FAAC
:10EDD00012A9230008001AAAFFF7BAFACDE70AA978
:10EDE00002AA0800FFF7B4FA21000AA8FFF707FDFE
:10EDF000220012A91AA8FFF766FA002805DA1AA954
:10EE000023002A000800FFF773FA1AA9230008005C
:10EE100012AAFFF79DFABEE70048704734F50300D9
:10EE2000F0B50024EFB007911F2100250493749BD7
:10EE3000089009921C5702229A5E4EAF1F32D317D8
:10EE40000B409B185B115BB20393013B9B00069345
:10EE5000069A26AB56AED550D55195510122749BDA
:10EE600038009A560499FFF727FA0122749B300064
:10EE70009A56049B9918FFF71FFA21003800FFF7F4
:10EE80008DFB0490A84200D0D5E021003000FFF7B0
:10EE900085FB049D0590002800D0CCE0749B3900D0
:10EEA00024331800039A0493FFF70DFA059D0128F7
:10EEB00000D0C0E03100039A0498FFF704FA01285B
:10EEC00000D0B8E03100039B049A1EA8FFF71AFF98
:10EED000069B059A0EAE9A513000749B099A0799C9
:10EEE000FFF70EFB039B3100300000931EAA049B2A
:10EEF000FFF76EFD039B5EAD390000931EAA049BD5
:10EF000016A8FFF765FD280022000899FFF780FB8F
:10EF1000A300EF180993089BA2009918380022005B
:10EF2000FFF776FB749B22004433190036A8079341
:10EF3000FFF76EFB079BA20099183EA82200FFF77F
:10EF400067FB749B2900043336AA1EA8009406931D
:10EF5000FFF79FFC749B2A0000933EA93B0036A854
:10EF6000FFF744FE1EA908002300069AFFF7CAFE19
:10EF7000390028001EAA749BFFF7A5FE059B039984
:10EF80000A93079B30000B93089B0D950C93FFF79A
:10EF90001DFB0399070016A8FFF718FB3D1C8742CD
:10EFA00000DA051CADB26F1E3FB239003000FFF72A
:10EFB00004FB431E98413900060016A8FFF7FDFA2E
:10EFC000431E9841400006430AABB600F6582200A3
:10EFD000310026A8FFF71CFBA300F11822002EA881
:10EFE000FFF716FB21001EA8FFF77FFA0123023D61
:10EFF0001E932DB2002D21DA1EA908002300069AC7
:10F00000FFF780FE1EAA2EA926A8749BFFF75BFEC1
:10F01000039A049826A9FFF756F9012805D026A9D6
:10F020000800039B049AFFF793F922004EA926A833
:10F03000FFF7D4FB050028006FB0F0BD749B1EAA3B
:10F04000A4331E682EA9749B26A8B04729000EA8D9
:10F05000FFF7B3FA431E98412900060016A8FFF7F0
:10F06000ACFA431E984140000643B6000AABF6587E
:10F07000002E25D02200310036A8FFF7C9FA099BDF
:10F080002200F1183EA8FFF7C3FA749B1EAA3EA9FE
:10F0900036A8FFF718FE069B36AA26A946A80094B4
:10F0A000FFF7F7FB749B26AA00933EA92EAB36A868
:10F0B000FFF79CFD1EA90800749B46AAFFF79BFC66
:10F0C000013D96E702B4714649084900095C4900D0
:10F0D0008E4402BC7047C04603B4714649084000E4
:10F0E0004900095E49008E4403BC704703B4714671
:10F0F000490840004900095A49008E4403BC704742
:10F100009140030090409C46203A9340194352425C
:10F110006346D3401943704730B5032A0CD9030026
:10F120000B439B0719D103680C68A34215D1043A1D
:10F1300004300431032AF6D8551E002A0BD00023D0
:10F1400003E05A1C9D4206D01300C25CCC5CA24274
:10F15000F7D0101B00E0002030BD551EEFE7C04681
:10F16000F0B5C64600B50F2A41D903270D003E0071
:10F1700005430C0003002E402F423DD11500103DE9
:10F180002D09A8462D01AC46844427681D001F6048
:10F1900067685F60A7689F60E7681034DF601033BE
:10F1A0006545F2D145460F230C2401352D0149193F
:10F1B00013404519144222D08C59AC5104369C1B83
:10F1C000032CF9D8043B9B0801339B00ED18C918A8
:10F1D00003231A40561E002A06D00023CC5C1A00D6
:10F1E000EC5401339642F9D180BCB846F0BD05001D
:10F1F000561E002AF1D1F7E70500561EEDE71A006A
:10F20000F6E7C04610B583070AD00300032102E0E9
:10F2100001330B4205D01A78002AF9D1181A10BD13
:10F22000030019680C4A0D4C8A188A4322420FD1F8
:10F230005968094A04338A188A43224208D1596816
:10F24000054A04338A188A432242F1D000E0013390
:10F250001A78002AFBD1E1E7FFFEFEFE8080808065
:10F26000F8B5C046F8BC08BC9E467047F8B5C04625
:10F27000F8BC08BC9E467047042C002044667554B8
:10F2800061726700011104FC04000000000000002E
:10F29000021104FC0400000000000000032104FC33
:10F2A0000404000000000000041101FF0100000040
:10F2B00000000000051102FE040000000000000034
:10F2C000061104FC0400000000000000071104FC0B
:10F2D0000400000000000000081701FF22000000E9
:10F2E00010F40300091001FF010000000CF40300FA
:10F2F00000000000000000000000000025B703002F
:10F3000077B70300CDB703002DB8030043B803005F
:10F310005DB8030097B8030099C90300000000001E
:10F32000011704FC70000000DCF30300021704FC6A
:10F33000B4000000ACF30300000000000000000077
:10F3400000000000430C991553354A5C77E772CFF3
:10F350004233DA420ABE4131F455648DD947B98649
:10F360006C852103BB12E1C4C622E66438CAFFE4FF
:10F3700097FBC115FC4BF23C1CBF9DEB6DF3DD9779
:10F38000379E650650EADA308883B89F604F15F3E0
:10F390000000C98E01010000040000000000000010
:10F3A0000000000000000000000000000107000055
:10F3B00070000000DCF30300020100000100000007
:10F3C00000000000030500004100000000000000F4
:10F3D000000000000000000000000000011101FF1B
:10F3E0000100000000000000021702FE640000009F
:10F3F00084F20300031704FC0400000094F30300EC
:10F4000000000000000000000000000000000000FC
:10F4100001010000010000000000000002050000E2
:10F4200021000000000000000000000000000000BB
:10F4300000000000982F8A4291443771CFFBC0B57D
:10F44000A5DBB5E95BC25639F111F159A4823F92AF
:10F45000D55E1CAB98AA07D8015B8312BE85312408
:10F46000C37D0C55745DBE72FEB1DE80A706DC9BC9
:10F4700074F19BC1C1699BE48647BEEFC69DC10F75
:10F48000CCA10C246F2CE92DAA84744ADCA9B05CB1
:10F49000DA88F97652513E986DC631A8C82703B074
:10F4A000C77F59BFF30BE0C64791A7D55163CA0682
:10F4B00067292914850AB72738211B2EFC6D2C4D8E
:10F4C000130D385354730A65BB0A6A762EC9C2817C
:10F4D000852C7292A1E8BFA24B661AA8708B4BC212
:10F4E000A3516CC719E892D1240699D685350EF43C
:10F4F00070A06A1016C1A419086C371E4C774827F3
:10F50000B5BCB034B30C1C394AAAD84E4FCA9C5B68
:10F51000F36F2E68EE828F746F63A5781478C884B9
:10F520000802C78CFAFFBE90EB6C50A4F7A3F9BE9B
:10F53000F27871C608200001FFFFFFFFFFFFFFFF09
:10F54000FFFFFFFF000000000000000000000000BF
:10F5500001000000FFFFFFFF512563FCC2CAB9F3A1
:10F56000849E17A7ADFAE6BCFFFFFFFFFFFFFFFF7A
:10F5700000000000FFFFFFFF96C298D84539A1F4B4
:10F58000A033EB2D817D0377F240A463E5E6BCF860
:10F5900047422CE1F2D1176BF551BF376840B6CB2B
:10F5A000CE5E316B5733CE2B169E0F7C4AEBE78E27
:10F5B0009B7F1AFEE242E34F4B60D2273E3CCE3B9C
:10F5C000F6B053CCB0061D65BC86987655BDEBB33E
:10F5D000E7933AAAD835C65A95EA030037EA0300FA
:08F5E00029E603000000000011
:08F5E80070B7FF7F0100000075
:10F5F000042C0020000000000000000000000000BB
:10F6000000000000000000000000000000000000FA
:10F6100000000000000000000000000000000000EA
:10F6200000000000000000000000000000000000DA
:10F6300000000000000000000000000000000000CA
:10F6400000000000000000000000000000000000BA
:10F65000000000000024F400FFFF010035AD0300AE
:04F6600009AD0300ED
:10F6640000100000000C0400CBB9030000000000EF
:08F674003DD60300ADBD03000B
:020000020000FC
:020000041000EA
:0410140000AC030029
:040000033000E26D7A
:00000001FF
