:020000021000EC
:10F000000000012099290200C1290200C329020041
:10F01000C5290200C7290200C9290200000000001A
:10F02000000000000000000000000000CB290200EA
:10F03000CD29020000000000CF290200D1290200E2
:10F040008D080200D329020089140200D32902008E
:10F05000D3290200D32902004D0D0200D32902005A
:10F06000D3290200D3290200D3290200D3290200A8
:10F07000D3290200D3290200D3290200D329020098
:10F08000D32902000DFE0100D3290200D32902007A
:10F09000ADFE0100D3290200E5300200D3290200B1
:10F0A000D3290200D3290200D3290200D329020068
:10F0B000D3290200D3290200000000000000000054
:10F0C000D3290200D3290200D3290200D329020048
:10F0D000D3290200D3290200D32902000000000036
:10F0E0000000000000000000000000000000000020
:10F0F0000000000000000000000000000000000010
:10F1000000000000000000000000000000000000FF
:10F1100000000000000000000000000000000000EF
:10F1200000000000000000000000000000000000DF
:10F1300000000000000000000000000000000000CF
:10F1400000000000000000000000000000000000BF
:10F1500000000000000000000000000000000000AF
:10F16000000000000000000000000000000000009F
:10F17000000000000000000000000000000000008F
:10F18000000000000000000000000000000000007F
:10F19000000000000000000000000000000000006F
:10F1A000000000000000000000000000000000005F
:10F1B000000000000000000000000000000000004F
:10F1C000000000000000000000000000000000003F
:10F1D000000000000000000000000000000000002F
:10F1E000000000000000000000000000000000001F
:10F1F000000000000000000000000000000000000F
:10F2000010B5054C237833B9044B13B10448AFF360
:10F2100000800123237010BDEC20002000000000BE
:10F22000D03E0200084B10B51BB108480849AFF3A7
:10F2300000800848036803B910BD074B002BFBD0C2
:10F24000BDE81040184700BF00000000D03E02009B
:10F25000F0200020E820002000000000154B002BCB
:10F2600008BF134B9D46A3F5803A00218B460F46FD
:10F270001348144A121A00F065F80F4B002B00D007
:10F2800098470E4B002B00D0984700200021040027
:10F290000D000D48002802D00C48AFF3008000F0AC
:10F2A0002BF82000290002F07BFB00F011F800BFD2
:10F2B0000000080000000120000000000000000025
:10F2C000EC200020142900200000000000000000B5
:10F2D00008B5074B044613B10021AFF30080054B7E
:10F2E0001868836A03B19847204600F033F800BFDE
:10F2F00000000000203A020070B50E4B0E4CE41ADC
:10F30000A41000251E46A54204D056F82530984783
:10F310000135F8E704F076FB084C094BE41AA41019
:10F3200000251E46A54204D056F8253098470135E1
:10F33000F8E770BDE0200020E0200020E42000205D
:10F34000E020002002440346934202D003F8011B50
:10F35000FAE77047FEE700BF0378012B04BF014ABC
:10F3600013707047082200202DE9F04FC5B0914876
:10F370004F9F16461C460D46002914BF4FF00A0B3E
:10F380004FF0000B02F074F8002840F0E280002CEF
:10F3900000F0E38004AB02460193519B4F97FE18A7
:10F3A0002025104600EB0B03019A03933133D31849
:10F3B00002931318BBF1000F60D05A4202F003020F
:10F3C0005A4528BF5A46BBF1060F00F2E5805A465F
:10F3D0000199012A0D5403F1010100F0DB80022A9A
:10F3E0005D7003F1020100F0D580032A9D7003F1E6
:10F3F000030100F0CF80042ADD7003F1040100F066
:10F40000C980062A1D7103F1050140F0CB805D71B2
:10F41000991D9446934530D0C2EB0B09A9F1040E17
:10F420000BF1FF3A4FEA9E0EC2EB0A0A0EF1010EF3
:10F43000BAF1020F4FEA8E0814D90244019F4FF02F
:10F440002030BEF1010F07EB020AB85006D0BEF122
:10F45000020FCAF8040001D0CAF80800C8454144A8
:10F46000C4440AD00CF1010293450D7005D90CF18A
:10F47000020CE3454D7000D98D705B444E4A0299F1
:10F48000D2F800804F9FDDF84091DA1C481C03F150
:10F49000330C0CE002F8035C02F8025C02F8015C39
:10F4A0000332624500F8015C00F1010033D0A6424E
:10F4B000F0D9A74295BFE11B4E9919F80110095DDB
:10F4C00002F8015C4FEA211E5FFA8EFABEF1090FC5
:10F4D00001F00F0ED4BF0AF1300A0AF1370ABEF16B
:10F4E000090F02F803AC94BF0EF1300E0EF1370E87
:10F4F00008EB010A02F802EC9AF801E003321EF070
:10F50000970F08BF2E21624500F8011C04F1010489
:10F5100000F10100CBD1039A4F97029F274802F1D7
:10F5200043080A210D223A7479744246019983F8FE
:10F53000305003F02DFE5FFA88F21E481F4901F09B
:10F54000DDFE30B91B4801F093FF10B9A6423FF62B
:10F5500029AF204645B0BDE8F08F35B304A82B682D
:10F56000174A01904FF4807103F01EFE0028F0DB73
:10F570000546304603F04AFE019BC22828BFC22040
:10F58000024680463146581903F002FE08EB050397
:10F590001A4602E794463DE7002A7FF419AF194660
:10F5A000944639E74FF0050C34E704AB2546019348
:10F5B000DFE700BFC4200020DC200020082100205D
:10F5C000443A02002DE9F0415C48C6B00C461746AB
:10F5D0001D4601F04DFF002831D1002C33D006AE7E
:10F5E0002368574A30464FF4807103F0DDFD002850
:10F5F00025DB4C9B0446062B00F29E80DFE803F0DF
:10F600007887915B6947050006AE2A1D92E80411D0
:10F6100029692B686D6904950092039130193A4667
:10F62000CDF80480CDF808C0C4F5807103F0BCFDAE
:10F630000546002D03DB2C44B4F5807F18D900204B
:10F6400046B0BDE8F0814C9B0024062B10D801A2E7
:10F6500052F823F0F1F601000DF7010021F7010047
:10F66000B5F60100D1F601008DF6010009F60100A2
:10F6700006A92246334803F08BFDE2B22F483149F8
:10F6800001F03CFEB0FA80F04009D9E706AE6A68A6
:10F69000E9682B68D5F808C02D690395009202919E
:10F6A00030193A46CDF804C0C4F5807103F07CFDF2
:10F6B0000546BEE706AE6A68A9682B68009201910C
:10F6C00030193A46C4F5807103F06EFD0546B0E787
:10F6D00006AE6A68A9682B68ED68029500920191F0
:10F6E00030193A46C4F5807103F05EFD0546A0E787
:10F6F000384603F08BFD0319FF2B054699D806AB5E
:10F70000394618192A4603F043FD92E706AE2B68E6
:10F7100030193A46C4F5807103F046FD054688E786
:10F7200006AE6A682B68009230193A46C4F58071BB
:10F7300003F03AFD05467CE700257CE7C420002065
:10F74000443A020008210020F0B51A4F3B7889B0F6
:10F7500006461BB1184B1B78834228D0174D0FCD9E
:10F760006C460FC495E80F004FF0000E84E80F00C0
:10F770000625052107224FF0EB7311480391082459
:10F7800002928DF814E000950194069301F030FD8B
:10F79000002E0C4A0A4818BF0022694601F03AFCC4
:10F7A00018B9054A012316703B7009B0F0BD00205E
:10F7B00009B0F0BD0A22002009220020243A0200EC
:10F7C000C420002059F3010000487047C5F501002E
:10F7D0000048704769F3010038B50020FFF7B4FF17
:10F7E000044668B9FFF7F0FF0546FFF7F1FF054B48
:10F7F000FF22C3F810541C605C60C3F814049A60C4
:10F80000204638BD0C2200200120FFF79DBF00BF1D
:10F810002DE9F04383B002AB4FF0000903F8019DDE
:10F82000254C074618460E46A56800F0B9FFA268A9
:10F830006368D4F8008013440133C8EB0303012B41
:10F8400007D80BBB9DF8070000F0D2FF03B0BDE85E
:10F85000F08308F101039DF80700236000F0C8FF62
:10F860000122002362F3010369F3820308EA05051C
:10F8700067F3C50304EB850469F3891366F39F23DB
:10F88000E36003B0BDE8F08301214B4661F301035F
:10F8900069F38203052161F3C50302EA08020749FF
:10F8A00004EB820269F3891308F1010561F39F23D8
:10F8B0002560D360C6E700BF0C2200204C3A02004E
:10F8C0002DE9F04782B002AB4FF0000903F8019D2B
:10F8D000DFF8B4800746184615460E46D8F80840AB
:10F8E00000F05EFFD8F80820D8F80430D8F800A05F
:10F8F00013440133CAEB0303022B07D853BB9DF813
:10F90000070000F075FF02B0BDE8F0870AF10203BE
:10F910009DF80700C8F8003000F06AFF01220023BC
:10F9200062F301030AEB020169F3820367F3C50383
:10F930000AEA040A0C4008EB8A0A62F3891308EB0E
:10F94000840866F39F23CAF80C30C8F80C5002B044
:10F95000BDE8F08701214B4661F3010369F382039F
:10F96000052161F3C50302EA0A02064808EB820298
:10F9700069F389130AF1010160F39F23C8F80010AD
:10F98000D360BCE74C3A02000C2200202DE9F04F76
:10F9900083B002AD4FF0000A05F801AD2C4C814652
:10F9A000284617461E468846A56800F0F9FEA2685C
:10F9B0006368D4F800B013440133CBEB0303032B8B
:10F9C00007D873BB9DF8070000F012FF03B0BDE835
:10F9D000F08F0BF103039DF80700236000F008FF90
:10F9E0000122002362F301030BF102006AF3820398
:10F9F0005A4469F3C50302210BEA050B2A4005406E
:10FA000004EB8B0B04EB820261F3891304EB850496
:10FA100068F39F23CBF80C30D760E66003B0BDE8F5
:10FA2000F08F0121534661F301036AF3820305213C
:10FA300061F3C50302EA0B02064804EB82026AF393
:10FA400089130BF1010160F39F232160D360B9E7B3
:10FA50000C2200204C3A02002DE9F0474C4E96E86B
:10FA60000C0093428AB070D0B06804E0C4F38912ED
:10FA700002EB9452134400EA0305023506EB8502BB
:10FA80000133546814F00302F0D0022A28D0C4F3E2
:10FA90008312C4F3952C002A75D00DF1100E754613
:10FAA0009F1803EA000106EB81010133C96845F89C
:10FAB000041BBB42F5D10092C4F3C20062467346F8
:10FAC000D6F81044324D0021A04738B17760306835
:10FAD000C01B18BF01200AB0BDE8F0876F68F6E7C9
:10FAE00003F1010A20EA0A010340013106EB830316
:10FAF00089004FEA94588845DA68DFF894E0C4F347
:10FB0000891326D9A9B30AEA000C5FFA81F90EEB32
:10FB10008C0CC9EB08010CF10C0C0EF10C00C9B2F5
:10FB200002900391CDF800C0CDF80490C4F3C20058
:10FB30000021D6F81474B847404520D006EB85055F
:10FB400060F38F146C607768C1E700200AB0BDE8ED
:10FB5000F08700EA0A000EEB80000C308DE801010E
:10FB60000021DEF814C402910391C4F3C200E047FF
:10FB7000E2E70EF10C0C08465FFA88F9D0E7033093
:10FB80000AEB9007A2E71F460DF1100E93E700BFA6
:10FB90000C2200202DE9F84F234B1A788AB3DFF8A6
:10FBA0008CB0DFF88C80DFF88C9000244FF0010AD5
:10FBB00003E00134E4B2944223D226B2D8F80050D4
:10FBC000DBF8003015F836000AFA00F1194205EBAF
:10FBD000C607EED0154A23EA0103136001F0ACF822
:10FBE00015F83650D9F800300AFA05F10B4000FA42
:10FBF00005F18B4207D00C4B01341A78E4B29442E1
:10FC0000DBD3BDE8F88F79787B68A1F10101B1FA07
:10FC100081F14909002BEED0091A2846B1FA81F189
:10FC200049099847E7E700BF2C260020542600200A
:10FC3000282600205026002070B50646114800F006
:10FC400073FD40B9104D01242B68B4401C4203D011
:10FC500023EA04042C6070BD304601F06DF80B4EB1
:10FC6000326860B122432B68094932601C432C6022
:10FC7000044809680022BDE8704000F0FBBC22EA9D
:10FC80000402F0E7302600205426002050260020F1
:10FC900024260020F0B5042A85B0174602D8072094
:10FCA00005B0F0BD0191054600F0E0FE0199002885
:10FCB00030D01C4CDFF888E01B481C4A1C4B2560E8
:10FCC00000264C1E07608EF8001016601E60E4B21D
:10FCD000032709B918E01C4623B205EBC30215F847
:10FCE00033009378134A8DF80D3003A98DF80C700A
:10FCF0008DF80E608DF80F6000F0C2FE631E0028C4
:10FD0000CED1DBB2002CE6D10B4A0C48002100F02A
:10FD10009FFCC5E7019100F067FE01990028C8D05B
:10FD2000BEE700BF28260020242600205026002001
:10FD30005426002039FC010095FB0100583A0200CE
:10FD40002C26002070B5084D2B785BB1074E00249F
:10FD50003368012113F8340000F05CFF2B78013484
:10FD6000A342F5D8002070BD2C26002028260020B4
:10FD700070B5094D2B7853B1084E0024336813F841
:10FD8000340000F0A9FF2B780134A342F6D80448D0
:10FD9000BDE8704000F0C8BC2C26002028260020BA
:10FDA0003026002000B585B000230390194644F2A8
:10FDB000010001AAADF80430029300F003F805B089
:10FDC0005DF804FB08B501200C49FFF721FDFFF7A2
:10FDD0001BFDFFF741FE0028FBD103200849FFF778
:10FDE00017FDBFF34F8F0749074BCA6802F4E06263
:10FDF0001343CB60BFF34F8F00BFFDE75C3A0200B7
:10FE00006C3A020000ED00E00400FA05F8B5204A63
:10FE1000204B0025C2F84051C2F84451C2F8485165
:10FE2000C2F84C51C2F80051C2F804511B6813B318
:10FE30001949D2F804250C68141B1A6824F07F4471
:10FE4000A2422F4609D8197CDE69A41A154499B933
:10FE50001EB133461A68A242F5D9104B10491A78E0
:10FE60000B789A420DD00F490F4A41F823504FF4B6
:10FE70008013C2F80031F8BD1F745A699869904721
:10FE8000E6E7531CDBB2022B08BF00230B70EAE746
:10FE9000001001405C26002058260020602600202B
:10FEA000612600207027002000E100E02DE9F04FDE
:10FEB0007D4A7E49137809787D48994287B0066863
:10FEC00000F0E8810133DBB2022B08BF002379493F
:10FED0001370794A0291084652F823100368744857
:10FEE0008A19002522F07F420260AE462846A3B15F
:10FEF0001A688A4200F2D681DC68C3F800E0891AE9
:10FF00001044DA6934B1871927F07F47DD619C60BE
:10FF10005F601D461346002BEAD1029A04931360DA
:10FF2000049C01230593654BDFF894811B780193B2
:10FF3000029BDFF890C11F685D4BBB46D3F800A061
:10FF40002F4600230093C1461E464FF0010E37B3E3
:10FF50007A68B9683D46FF69CAEB020323F07F4324
:10FF600063453CD80B442B606E60AE6085F810E0B2
:10FF7000EE61002C67D021688B4242D9204603E015
:10FF80001168994244D21046C2695B1A002AF7D11F
:10FF90002B60EA612346C5611C46002FD8D198F832
:10FFA000003098F801209A4200F08E805A1C03EB32
:10FFB000430308EBC30399F802109D68D2B2914243
:10FFC00089F800201A7908BF89F80070022A48D001
:10FFD000032A3CD0012A22D023461C46DDE7C2EB8F
:10FFE0000A0222F07F428A4202D28B1A2B60BBE7C0
:10FFF0002E606E60AE6085F810E0EE611CB3216883
:020000022000DC
:100000000023CB1A23602B46EC61AB461C46C4E7A9
:10001000C91A11602B60EA612346C561BCE72A7CDE
:100020000392002AD8D1DA686A601969A960586910
:10003000E86010339B68AB61019B002B8CD0039B65
:100040006B601A4688E72B46AB461C46A5E70CB901
:10005000C2E71C46E3692674002BFAD19B461C4676
:100060009BE754B1A54200F00881234602E0954287
:1000700007D01346DA69002AF9D123462E741C46AC
:100080008BE7AB4200F0FA80E9692868D961002962
:10009000F3D023460A6802440A60009A2E749C42F8
:1000A00018BF01220092EAE76026002061260020A6
:1000B000582600205C2600207027002062260020A1
:1000C00064260020FEFF7F00029B9DF80420C3F8F9
:1000D00000B0764BC3F800A0754B1A70009B1BB99B
:1000E000049BA34200F0D081002C00F03C81714DB4
:1000F0006E4BD5F804051B686F4ED4F800C03178FC
:10010000C21A22F07F420332002952D16B4FDFF82E
:10011000B091DFF8B0814FF480314FF4003E0124FC
:10012000C5F84413C5F80413C7F880E1C7F800E028
:100130002C602F21D9F8005000BF00BF00BF00BFC6
:1001400000BF00BF00BF00BF45452FD000BF00BFAC
:1001500000BF00BF00BF00BF00BF00BF00BF00BFA7
:1001600000BF00BF00BF00BF00BF00BF00BF00BF97
:1001700000BF00BF00BF00BF00BF00BF00BF00BF87
:1001800000BF00BF00BF00BF00BF00BF00BF00BF77
:1001900000BF00BF00BF00BF00BF00BF00BF00BF67
:1001A00000BF00BF00BF00BF00BF00BF0139C3D107
:1001B000347062452CBF9A1803EB0C023D4922F0C3
:1001C0007F43C1F84035D1F80425121A1B1A22F0DA
:1001D0007F4223F07F4303329A4248D9D1F8043555
:1001E000374AC1F84035126836492F2300BF00BF97
:1001F00000BF00BF00BF00BF00BF00BF8A422FD0BA
:1002000000BF00BF00BF00BF00BF00BF00BF00BFF6
:1002100000BF00BF00BF00BF00BF00BF00BF00BFE6
:1002200000BF00BF00BF00BF00BF00BF00BF00BFD6
:1002300000BF00BF00BF00BF00BF00BF00BF00BFC6
:1002400000BF00BF00BF00BF00BF00BF00BF00BFB6
:1002500000BF00BF00BF00BF00BF00BF00BF00BFA6
:10026000013BC3D1154B4FF40032C3F80021104AB3
:100270000023137007B0BDE8F08F2246D4F81CB0FD
:10028000BBF1000F22D0D16910685B4600297FF4D2
:1002900001AF02E70C4B02931B6804930025059500
:1002A0001C4640E6521A1A6037E600BF5826002066
:1002B00062260020001001407827002000E100E0C5
:1002C000D82000200024F4005C2600207549764BDD
:1002D000C1F808E075492F20096800BF00BF00BFC2
:1002E00000BF00BF00BF00BF00BF99422FD000BFBA
:1002F00000BF00BF00BF00BF00BF00BF00BF00BF06
:1003000000BF00BF00BF00BF00BF00BF00BF00BFF5
:1003100000BF00BF00BF00BF00BF00BF00BF00BFE5
:1003200000BF00BF00BF00BF00BF00BF00BF00BFD5
:1003300000BF00BF00BF00BF00BF00BF00BF00BFC5
:1003400000BF00BF00BF00BF00BF00BF00BF01383B
:10035000C3D1D1691068002900F09B800122DA46E0
:100360005B46019296E64F4A514B504E4E484FF431
:1003700080314FF400370125C3F88070C2F848136C
:100380002F23C2F80813556031681E4600BF00BF16
:1003900000BF00BF00BF00BF00BF00BF81422FD021
:1003A00000BF00BF00BF00BF00BF00BF00BF00BF55
:1003B00000BF00BF00BF00BF00BF00BF00BF00BF45
:1003C00000BF00BF00BF00BF00BF00BF00BF00BF35
:1003D00000BF00BF00BF00BF00BF00BF00BF00BF25
:1003E00000BF00BF00BF00BF00BF00BF00BF00BF15
:1003F00000BF00BF00BF00BF00BF00BF00BF00BF05
:10040000013EC3D195602B4A146000BF00BF00BFFE
:1004100000BF00BF00BF00BF00BF81422FD000BFA0
:1004200000BF00BF00BF00BF00BF00BF00BF00BFD4
:1004300000BF00BF00BF00BF00BF00BF00BF00BFC4
:1004400000BF00BF00BF00BF00BF00BF00BF00BFB4
:1004500000BF00BF00BF00BF00BF00BF00BF00BFA4
:1004600000BF00BF00BF00BF00BF00BF00BF00BF94
:1004700000BF00BF00BF00BF00BF00BF00BF013B07
:10048000C3D10D4B1C70F2E6059B002B3FF4EFAE81
:100490002AE601231A4601938A468B460B460092B0
:1004A0002E74ECE5001001400024F400D820002058
:1004B00000E100E058260020782700202DE9F041D7
:1004C000594B5A4A5A4D5B4E4FF480344FF4003129
:1004D0000120C2F88010C3F848432F21C3F8084315
:1004E00058602D680C4600BF00BF00BF00BF00BFB2
:1004F00000BF00BF00BFB5422FD000BF00BF00BF8C
:1005000000BF00BF00BF00BF00BF00BF00BF00BFF3
:1005100000BF00BF00BF00BF00BF00BF00BF00BFE3
:1005200000BF00BF00BF00BF00BF00BF00BF00BFD3
:1005300000BF00BF00BF00BF00BF00BF00BF00BFC3
:1005400000BF00BF00BF00BF00BF00BF00BF00BFB3
:1005500000BF00BF00BF00BF00BF013CC3D1364C8D
:1005600098600020206000BF00BF00BF00BF00BF38
:1005700000BF00BF00BFB5422FD000BF00BF00BF0B
:1005800000BF00BF00BF00BF00BF00BF00BF00BF73
:1005900000BF00BF00BF00BF00BF00BF00BF00BF63
:1005A00000BF00BF00BF00BF00BF00BF00BF00BF53
:1005B00000BF00BF00BF00BF00BF00BF00BF00BF43
:1005C00000BF00BF00BF00BF00BF00BF00BF00BF33
:1005D00000BF00BF00BF00BF00BF0139C3D1174D2E
:1005E0001749DFF86080DFF860C0DFF860E028704E
:1005F0004FF48016E0250B27C8F800008CF80000A7
:100600008EF80000087048708F70C2F8806182F820
:1006100014531660C3F8080582F81153D3F8043553
:100620002360BDE8F08100BF0010014000E100E060
:10063000D82000200024F40058260020782700202D
:10064000642600205C260020602600206126002011
:10065000074B9B780BB9082070473AB130B103685B
:10066000187C0028F7D159745A61704707207047E9
:10067000642600202DE9F043284CA37883B01BB9F1
:10068000082003B0BDE8F0830028F9D0042903D87E
:10069000072003B0BDE8F0834369002BF0D0064685
:1006A00002A8737C0025012B00F8015D0CBF894670
:1006B000A94690460F4600F073F86378A078217839
:1006C0005A1CD2B2904208BF2A4691421FD003EB77
:1006D000430304EBC30319464FF0010E41F8086FC2
:1006E0000F4883F804E0D0F804654E608F609DF8F1
:1006F0000700C3F81490C3F81880627000F078F80F
:10070000084B4FF480122846C3F80021B9E79DF842
:10071000070000F06DF80420B3E700BF6426002056
:100720000010014000E100E070B51B4CA37882B0DE
:1007300013B9082002B070BD0028FAD04369002B1D
:10074000F7D0064602A8002500F8015D357400F0D8
:1007500027F86278A0782178531CDBB2984208BF52
:100760002B46994212D002EB420204EBC202022154
:100770009DF8070096601171637000F039F8074B1F
:100780004FF480122846C3F80021D3E79DF80700F4
:1007900000F02EF80420CDE76426002000E100E000
:1007A000F0B4EFF3108472B60E4B9A68B2B90E49EA
:1007B00001259D60D1F880700C4D2E463D401D6096
:1007C000C1F88060D1F884505D604FF0FF33C1F80C
:1007D0008430027004B962B6F0BC70470123037024
:1007E000F8E700BF0429002000E100E0FC06FFBD9F
:1007F000094B9A6872B168B910B4EFF3108272B6FF
:1008000006491C680C605C684C60986002B962B66E
:100810005DF8044B704700BF0429002000E100E0B0
:10082000044B195C4FF0A04201238B40C2F80C35F9
:10083000704700BF883A0200044B195C4FF0A04299
:1008400001238B40C2F80835704700BF883A020088
:1008500030B44FF0A04303224FF400354FF480240E
:100860004FF400204FF48011C3F84427C3F8482701
:10087000C3F84C27C3F85027C3F80855C3F80845F8
:10088000C3F80805C3F8081530BC704710B51D4BF8
:100890001A6882B0F2B91C4B1A680AB902B010BDCE
:1008A00000221A601B6801934FF080430222174C0C
:1008B0000199C3F8082323690122A270002BEDD00F
:1008C0001A6822615B68012098472369002BF7D1E1
:1008D00002B010BD00221A601B6800934FF08043E5
:1008E00001220A4C0099C3F80823A3686270002B08
:1008F000D1D01A68A2605B6800209847A368002BDB
:10090000F7D1C8E700010040040100407C27002027
:1009100000B1704710B5064CA3683BB11A68A260DD
:100920005B6800209847A368002BF7D110BD00BF7B
:100930007C27002010B582B002A80023144C00F8D8
:10094000013DFFF72DFF237893B9124A6360E360FE
:100950001068A36010F00100236114D002F066FB60
:1009600020B94FF080430122C3F8182501232370DA
:10097000E3689DF8070001330122E360A270FFF7EE
:1009800037FF02B010BD072100F006F8E6E700BF10
:100990007C27002000E100E0002810B418DB00F103
:1009A000604303F561434901C9B283F80013C3B240
:1009B0004009800000F1604000F5614003F01F0233
:1009C00001239340C0F8803103605DF8044B704709
:1009D000C3B2044A03F00F0449012244C9B211769C
:1009E000E6E700BFFCEC00E030B51D4C94F8545035
:1009F00083B015B1082003B030BD4FF0FF33FF22A4
:100A00000620072123636363A363E36323646364B2
:100A1000A364E36423606360A360E36023616361B4
:100A2000A361E361236284F850306362A36284F8B7
:100A30005230E36284F8533084F85120FFF7ACFF62
:100A4000084B094A1D601B68019301984FF0004351
:100A50000121284684F85410C2F8043303B030BD95
:100A6000902700207C61004000600040034B93F819
:100A70005400003018BF0120704700BF90270020AD
:100A8000F0B5634C251895F93030002B01DB0820B8
:100A9000F0BD91F803E09446BEF1000F56D02368F4
:100AA000013300F0AD80082600256B1C584F54F828
:100AB0002320013251D0AB1C9E4245D957F8232048
:100AC00001324AD0EB1C9E423ED957F82320013216
:100AD00043D02B1D9E4237D957F8232001323CD0FA
:100AE0006B1D9E4230D957F82370013735D0AB1DAE
:100AF0009E4229D954F82320454F01322DD0EB1DB9
:100B00009E4221D957F82320013226D005F108034F
:100B10009E4219D957F8232001321ED005F109034E
:100B20009E4211D957F82320013216D005F10A034D
:100B30009E4209D957F8237001370ED00B35AE42CB
:100B400002D9E36A013307D00420F0BD236A0133E0
:100B50004ED00C260825A8E70B232618DDB244F852
:100B600023C086F83050BEF1000F02D1234483F831
:100B700048008B78ABB94A784FF0A04600F5E07397
:100B8000920046F82320CB78ABB96AB2083A1444F5
:100B9000097894F8502042EA811284F850201846CF
:100BA000F0BD830003F1A043D3F8002722F0020236
:100BB000C3F80027E7E76BB29B0003F1804303F51E
:100BC000C0430A78D3F8101521F4473121F440715D
:100BD000C3F810151204000202F44031D3F8104596
:100BE00000F4F8520A432243C3F810250020F0BD58
:100BF000082685F830603346C4F820C03546B5E78E
:100C0000002385F83030C4F800C01D46B1E700BFAE
:100C100090270020F0B42E4D2E1882B096F8302088
:100C200053B2072B1CDD2B4493F848309B09032B50
:100C300040D0012B0CBF4FF400314FF44031800005
:100C400000F1A040D0F8002722F44032C0F800277D
:100C5000D0F800370B43C0F8003702B0F0BC704743
:100C6000072AFAD8980000F1804000F5C04003F14F
:100C700040029200D0F8104592B202F18042002763
:100C800044F0010402F5C042C0F8104501970198F4
:100C900017600029E1D096F9302055F82220002A6B
:100CA000DBD001220B4902FA03F3C1F8043302B08E
:100CB000F0BC70474FF0A043D3F81035C34013F099
:100CC000010F14BF4FF440314FF40031B7E700BFBC
:100CD0009027002000600040154B034493F830201B
:100CE00053B2072B16DC072A13D810B49A0002F16E
:100CF000804202F5C0420F4CD2F81005012120F0CD
:100D0000010001FA03F3C2F81005C4F808335DF8D6
:100D1000044B7047800000F1A040D0F8003723F466
:100D20004033C0F80037D0F80037C0F800377047BC
:100D300090270020006000404FF0A043D3F810350A
:100D400023FA00F000F00100704700BF2DE9F047E2
:100D500086B00026A24B01961A68012A00F0328163
:100D6000A04B1A68012A00F01F819F4B1A68012AC4
:100D700000F00C819D4B1A68012A00F0F9809C4B11
:100D80001A68012A00F0E6809A4B1A68012A00F0DE
:100D9000D380994B1A68012A00F0C080974B1A68DB
:100DA000012A00F0AD80964B1A68012A00F09B8062
:100DB00016F0FF0F1AD0934F01250024A30003F172
:100DC0008043354203F5C0434FEA45050BD0D3F8C5
:100DD000100557F82420D3F81015C0F30420C1F3F0
:100DE000014102B190470134082CE7D1002E02DB0B
:100DF00006B0BDE8F087844D00224FF0FF33A5F127
:100E0000530702920393814C4FF00008012614F817
:100E1000011FFF292BD0C9B221F0C00006AB4FEA59
:100E2000D00E03EB0E0201F0070312F80CCC06FA09
:100E300003F31CEA030F1AD007EB000C89099CF995
:100E400030C057F82CC0BCF1000F3CD003293CD077
:100E50004FEA800E0EF1A04E12F8149CDEF8002727
:100E600019EA030FC2F3014211D1032A36D0AC4272
:100E7000CDD1B8F1000FBBD04FF0A043019AD3F809
:100E800010359342B4D0029A01930392BBE7022A31
:100E9000EDD1032904D0BCF1000FE8D0E047E6E72C
:100EA0004FF44039DEF8002722F44032CEF8002714
:100EB000DEF8003708F1010849EA03035FFA88F811
:100EC000CEF80037E7E70329D1D10DF1080A1AF867
:100ED0000E9049EA03090AF80E90B9E70329DAD11E
:100EE0004FF40039DEE700221A601B6805934FF0CB
:100EF000A043059AD3F81035019346F0004657E712
:100F0000434AD2F8042312067FF54DAF00221A603F
:100F10001B680493049B46F0800644E73C4AD2F8E1
:100F2000042351067FF53AAF00221A601B68049330
:100F3000049B46F0400631E7354AD2F80423900678
:100F40007FF527AF00221A601B680493049B46F0CC
:100F500020061EE72E4AD2F80423D4067FF514AFEC
:100F600000221A601B680493049B46F010060BE7EE
:100F7000274AD2F8042315077FF501AF00221A6033
:100F80001B680493049B46F00806F8E6204AD2F852
:100F9000042357077FF5EEAE00221A601B68049306
:100FA000049B46F00406E5E6194AD2F804239207AA
:100FB0007FF5DBAE00221A601B680493049B46F0A9
:100FC0000206D2E61249D1F8041311F0010105D04E
:100FD0001E601B680493049B1646C1E60E46BFE6DE
:100FE0000061004004610040086100400C61004065
:100FF0001061004014610040186100401C61004015
:101000007C61004090270020E3270020DF2700209C
:1010100000600040F0B50479724E6401331987B066
:10102000DD7E183315B1082007B0F0BD4D7F1D716E
:101030000D686B1C0BD04FF0A0470123AB40C7F8E5
:1010400008350B6803F5E073032547F823504B6818
:101050005F1C06D003F5E0734FF0A045002745F86C
:101060002370037906EB43131B7F002B4DD00368DD
:101070008D69C3F824550F7D4B7D05683B43C5F84A
:101080006C3503680F684D68C3F80C75C3F81455C8
:101090000B7D012B00F09B80331905465A600B69CC
:1010A00050483351EAB12B79097F2A6800EB43108D
:1010B000037F002B65D1C2F81C31D2F81C712A685D
:1010C0000197019FC2F84431D2F844212B68464869
:1010D0000092009AC3F80403286840F30730FFF732
:1010E0005BFC2B792A6806EB43131B7F002B44D053
:1010F0000823C2F80035344400200121E075A075B2
:101100002076A076E17607B0F0BD05688F69C5F856
:10111000247591F814E04D7D07684EEA0505C7F87F
:101120006C550568D1F800E04F68C5F81475C5F82E
:101130000CE50D7D012DAFD18D686F1C05D005F537
:10114000E0754FF0A04747F82530CB685D1C0DD007
:1011500001254FF0A04705FA03F3C7F80835CB681F
:1011600003F5E073032547F82350CB6805688F68C3
:10117000C5F80835C5F810758EE70423C2F80035A8
:10118000B9E70023C2F81031D2F810712A68059728
:10119000059FC2F82031D2F820712A680497049F75
:1011A000C2F82431D2F824712A680397039FC2F849
:1011B0004431D2F844212B6802920C48029AC3F8B9
:1011C0000403286840F30730FFF7E6FB89E78B68E4
:1011D0005D1CBAD003F5E0734FF0A045002745F839
:1011E0002370B2E7E827002080000200100302000D
:1011F000F0B503793D4A04685B01D118097F0029E5
:101200006DD00021C4F80015D118384C4968B1B12F
:10121000017904EB4114217F002963D10168344C2A
:10122000C1F808430168334E090B4CB264092034FD
:1012300001F01F01012505FA01F146F8241001799A
:10124000076802EB4111D7F80C65097FD7F81455F0
:101250004FF0FF3EA9B3D7F80815D7F81045C7F8E7
:101260000CE5C7F814E50068C0F808E5C0F810E51B
:10127000771C06D006F5E0764FF0A040022740F834
:1012800026706E1C06D005F5E0754FF0A0400226D2
:1012900040F82560651C06D004F5E0744FF0A040CE
:1012A000022540F82450481C06D001F5E0714FF0AB
:1012B000A040022440F8214013440022DA765A600C
:1012C000F0BDD7F80815D7F81045C7F814E5C7F8EA
:1012D0000CE50068C0F808E5C0F810E5C8E7C4F8F8
:1012E000001591E70168044C9AE700BFE827002049
:1012F0008402020000E100E0100302002DE9F04149
:1013000003795A4D5B01EC1886B0247F44B101F09B
:101310006044B4F1005F03D0102006B0BDE8F08156
:101320002B44DFF848E19F7D1FB1112006B0BDE8D6
:10133000F08199609A759F82067976010EEB06011D
:101340000B7F2BBB0268C2F81C31D2F81C4102682B
:1013500005940124059F94600468D1F808C0C4F87E
:101360001C31D4F81C310493049B8F8A8B8AD1F8EA
:1013700004E0BFB201331CF807709BB28B82C4F843
:101380001C75BEF1000F33D0002006B0BDE8F0811F
:1013900003688A68C3F82071D3F820410368029477
:1013A000029CC3F85871D3F85841036801948C7DAE
:1013B000019FC3F84425C3F84845036801229A6099
:1013C0004B68002BE0D1026801E0002B4CD1D2F831
:1013D0002011D2F85831003318BF01230029F4D06E
:1013E000002B0CBF00200F20AB1900229A7594E748
:1013F0008F7D8B8A01F110029BB2BB4226D204681A
:1014000004E093889BB2B3F5807F05D0D4F81C31FB
:1014100001F11002002BF4D001F1100293889BB26D
:10142000B3F5807FE5D0C4F81CE1D4F81C310393F8
:10143000039BB2F8048093881FFA88F801331CF8E4
:1014400008809BB29380C4F81C85D2E793889BB236
:10145000B3F5807F08D00268D2F81C31002BFBD096
:101460000123D3600020BFE70F20BDE7E82700205D
:101470000279044B03EB4213987D003018BF012022
:10148000704700BFE8270020F0B59B4C237F8FB04A
:10149000002B75D1994AD2F80413890548D4974B8B
:1014A000D3F80423520704D5D3F80821002A40F0CA
:1014B000CA80924BD3F81C21C2B1A28AA07D8E496A
:1014C00092B282424FF00002C3F81C2180F0A98042
:1014D000D3F81C210692069A888A8A8A8D6880B27F
:1014E0000132285C92B28A82C3F81C05834BD3F880
:1014F0004421DAB10022C3F84421D3F84411A27E7A
:1015000004910499002A40F08980E27D7A4B6AB107
:101510000022587ED968DA7501228DF830000B91CF
:101520008DF828200AA893E8060090470FB0F0BD78
:10153000D2F824110029B2D0C2F82431D2F82411F3
:10154000A37E07914FF401710798C2F808130BB9F5
:1015500001235360694A02238DF82830D2F8803481
:10156000C2F88034E07DE2680D9300238DF83000EE
:10157000E375237621680B9263680AA8984798E779
:101580005E4BD3F82421002A40F09380D3F8101149
:1015900061B1C3F81021D3F8101103910399D3F866
:1015A0003C15E07DC9B2884200F0AA80534BD3F8C5
:1015B0004421B2B10022C3F84421D3F84411E07DA4
:1015C000019101994C4960B1D3F83C35C8688DF858
:1015D00030300123CA750B908DF828300AA80AC94B
:1015E0009847464BD3F82021002A9FD00022C3F809
:1015F0002021D3F82011A07D009100993E490028B8
:1016000094D0D3F84C058B688DF830008A750B9315
:101610008DF828200AC90AA8984787E701221A608E
:1016200073E7D3F81C310593059B00283FF45EAFA8
:101630008B688DF830008A750B938DF828200AC9C5
:101640000AA8984752E7E17D2B4A002970D0002173
:10165000C3F80811D3F8081108910899D068517E91
:10166000D3F818354354537ED17D0133DBB2537622
:10167000627E214B8A427FF41CAF1A7E002A6DD114
:101680009B7E13B91D4B01225A601C4AE0686368B7
:101690004FF40171C2F80813627E8DF830200025E6
:1016A00001220B902168E5758DF828200AA898473B
:1016B000FFE60022C3F82421D3F82411029102216D
:1016C0008DF828100299D3F88014C3F880140D9176
:1016D000D3F83C15E368E27522768DF830100B9351
:1016E000216863680AA89847044BD3F84421002A6C
:1016F0003FF477AF5EE700BFE827002000200040FE
:10170000217EF1B1D3F80072E17527F02001E6687F
:101710002569C3F8001201238DF830008DF82830B8
:10172000227621680B96E56063680AA898473DE732
:10173000C3F80811D3F808210992099AD3F818358B
:1017400096E7E268E17501238DF830008DF82830C6
:101750000B9294E80A000AA8984727E7DE685D7EA6
:101760001869DA7501210022D8601A765A768DF848
:1017700028100B968DF8305093E806000AA8904781
:1017800097E600BF73DF704776DF70477ADF7047F8
:101790007CDF70477FDF7047A8DF7047A9DF7047A5
:1017A00069DF704766DF70473EDF7047FEF7FABAC1
:1017B00008B5037803B108BD054B3B211888FFF736
:1017C000E3FF0028F7D0BDE80840FEF7EBBA00BF02
:1017D000D42000200D281AD110B503200C460D4945
:1017E000FEF716F80C4B0D491888224601F098FBBD
:1017F00030F008020DD043F20202904209D043F2C9
:101800000142904205D0BDE81040FEF7CBBAFEF78A
:10181000C9BA10BD903A0200D420002058280020F8
:1018200008B502203AB9FFF707F803200649BDE8DA
:101830000840FDF7EDBFFEF7F3FF03200349BDE8C5
:101840000840FDF7E5BF00BFD43A0200B83A0200F5
:1018500010B50388132B84B0044600F08C800ED999
:10186000512B70D053D9522B47D0562B0DD1A08875
:101870001321FFF789FF40B1FEF794FA05E0102B22
:1018800048D0112B0ED0012B56D0204600F0FCFE84
:1018900021463E4801F040FA21463D4800F076FFDF
:1018A00004B010BD03203B49FDF7B2FF0120FEF755
:1018B000C3FF394B4FF6FF721A80FEF759FA08B191
:1018C000FEF770FA002110226846FDF73BFD002369
:1018D0004022684619468DF8003001938DF8083093
:1018E000ADF80C30ADF80A20FFF74CFF08B1FEF759
:1018F00059FA0020FEF794FFC7E7274B002118880C
:101900000A460B46FFF74AFF0028BED0B4E73B2B40
:10191000ADD0BAE721490320FDF77AFF0120FEF799
:101920007FFF0020FEF788FF1B4BA2881A80FEF77E
:1019300009FA0028A9D09FE780880021FFF732FF2D
:101940000028A2D098E78279837B002A9DD0043BAF
:10195000022B9AD8022A0CBF022201224FF4C17333
:1019600080888DF800206946ADF80430FFF714FF39
:1019700000288AD080E7084B00221888852113466A
:10198000FFF708FF002880D076E700BF5828002026
:10199000702800200C3B0200D4200020F43A020002
:1019A00080B5A0B0FEF754FFFEF788FD08B1FEF742
:1019B000F9F90020FDF710FF08B1FEF7F3F97448BC
:1019C000012140F26662FEF765F908B1FEF7EAF917
:1019D000704B71491868019001AD284650220023D0
:1019E00001F02AFB08B1FEF7DDF920AC002344F832
:1019F000783D204601F08EFB08B1FEF7D3F90021B7
:101A00000C2211A8FDF79EFC0126002311A94020FD
:101A1000029A8DF844608DF845308DF84630FFF716
:101A2000BFFE08B1FEF7BEF9204601F07DFB08B10C
:101A3000FEF7B8F9594801F04BFB08B1FEF7B2F9CF
:101A40009DF808305648012262F3030362F307133E
:101A50008DF8083001F0DAFB514982B22046FFF7D9
:101A600097FE08B1FEF79EF90021082211A8FDF7A4
:101A700069FC5026A02100224FF4C87311A8ADF8CC
:101A80004460ADF84610ADF84820ADF84A30FFF795
:101A90007DFE08B1FEF786F94248002100F05AFEAB
:101AA00008B1FEF77FF9404B4048119311A901F0AE
:101AB0004DF908B1FEF776F93C4A927C8DF8062084
:101AC00041F2235300213C222046ADF80430012688
:101AD000FDF738FC02270623002111A83C228DF8CF
:101AE00008708DF80A608DF80B30FDF72BFC20464E
:101AF00011A9ADF85460169500F0D0FA08B1FEF7C0
:101B000051F900211C2211A8FDF71CFC4FF42026DE
:101B100000234FF4203503242549264A119311A8A8
:101B2000ADF852308DF85430129613958DF8504020
:101B30001691179200F06EFD08B1FEF733F90320FD
:101B40001D49FDF765FE0021102211A8FDF7FAFBE3
:101B50000023402211A819468DF8443012938DF8C5
:101B60004C30ADF85030ADF84E20FFF70BFE08B109
:101B7000FEF718F90020FEF753FEFDF76DFF002871
:101B8000FBD1FFF711FE0028F7D0FEF70BF9F4E7C1
:101B9000CC2000208C3A02000828002051180200B6
:101BA000243B020070280020211802005828002041
:101BB000B1170200AD170200343B02006DDF704721
:101BC00072DF704779DF70477DDF704764DF7047F1
:101BD000F0B50488012C83B007D0148804F1020EFC
:101BE0009E4505D90C2003B0F0BD072003B0F0BD21
:101BF0000578012D04D1457802352544AB42F1D357
:101C0000023B0F461C1B02A9A4B2054621F8024D57
:101C100007EB0E001646FFF7D7FF0028E3D12B781D
:101C2000022B17D0012B11D023460821FE2BD9D827
:101C30003288581CB8543288013292B23280B9547A
:101C400032880132134433800020CCE76B789C4209
:101C5000EBD2E9E7BDF806309C42E5D30921E5E780
:101C60002DE9F04F85B083460E9D00882C880194A5
:101C7000BDF83C9000284ED000278A46164698466C
:101C80003C4604E0BBF800300134A34226DDDBF81B
:101C9000043053F8240003900DF10B0103A8002237
:101CA000FFF794FF18BB9DF80B30B342EAD10FB396
:101CB0002A8893194B4519DC424403A80DF10B0106
:101CC0000127FFF783FF90B92B889DF80B20134461
:101CD0002B80BBF800300134A342D8DCDFB12B8865
:101CE000019A013B9B1A9BB2FF2B12D90C2005B025
:101CF000BDE8F08F2B885A1C334402334B4592B217
:101D0000F4DC2A8008F802A02A88013292B22A80E4
:101D1000D2E708F80230002005B0BDE8F08F00BF20
:101D20002DE9F04700231788138090F82D3086B0F6
:101D3000144605460E46002B40F0C880AA78002ABB
:101D400040F0F080EA78002A2CD1696899B1DA1C59
:101D5000BA42097822D80222F254238801339BB276
:101D60000A222380F254238801339BB22380F1544A
:101D70002388013323802B89002B40F0F7802B8AA6
:101D8000002B40F00C812B8B002B40F021812B6A23
:101D9000002B5CD02288911DB94218D90C2006B0C6
:101DA000BDE8F087D91CB942F8D80221F154238844
:101DB00001339BB201212380F15423880B449BB251
:101DC0002380F25423880B449BB22380BDE71988FB
:101DD000052940F2C9806FF4486801EB080080B221
:101DE0004FF27D3E704540F2BF805888052840F292
:101DF000BB806FF4486C84441FFA8CFCF44540F2BD
:101E0000B3804FF6FF7E714504D0704502D0814209
:101E100000F2AA800521B1542288013292B2122127
:101E20002280B1542288013292B222801988B154A2
:101E30003244090A51702288023292B222805B88B1
:101E4000B35432441B0A53702388023323806B6AD5
:101E5000002B2BD0998820880A1D0244BA429DD8B5
:101E60008A1CFE2A9AD8033131542288013292B258
:101E7000FF212280B1542288013292B22280198837
:101E8000B1543244090A51702088023080B2208057
:101E90009A885AB199680393002965D0304401F0BB
:101EA00077F9039B22889B881344238095F82C3074
:101EB000002B40F0A680287800283FF470AF284619
:101EC000314622463B46FFF783FE68E7082F7FF640
:101ED00065AF04A8FFF772FE00287FF460AF238887
:101EE0000822F254238801339BB21B222380F25430
:101EF0002088013080B22080062230440DF111018B
:101F000001F046F923889DF8102006339BB212F0A9
:101F1000FE0218BF01222380F254238801339BB2B2
:101F200023800BE70433BB423FF638AF04A8FFF72A
:101F300049FE00287FF433AF2388BDF81020032129
:101F4000F154238801339BB219212380F154238853
:101F500001339BB2F1182380100AF2544870238891
:101F600002339BB22380EDE6072018E705F108084D
:101F700002218DE8900040460A463346FFF770FE86
:101F800000287FF40CAF8DE8900040460621102217
:101F90003346FFF765FE00287FF401AFEFE605F159
:101FA00010088DE890004046032102223346FFF7D7
:101FB00057FE00287FF4F3AE8DE8900040460721DD
:101FC00010223346FFF74CFE00287FF4E8AEDAE635
:101FD00005F118088DE8900040461421022233468E
:101FE000FFF73EFE00287FF4DAAE8DE89000404611
:101FF000152110223346FFF733FE00287FF4CFAEC1
:10200000C5E6D5F82880B8F1000FADD0B8F80420A7
:102010000232FE2A3FF6C2AE23884FF000094FF08D
:10202000160A0132F254238801339BB2238006F84A
:1020300003A0238801339BB22380B8F80020F25418
:102040003344120A5A70238802339BB22380B8F8B3
:102050000410F0180A4661B1D8F808301946002B70
:1020600082D001F095F8B8F80430228813449BB26E
:10207000238009F1010995F82C205FFA89F94A4576
:1020800009EB49087FF617AFAA6A02EB8808B8F88F
:1020900004200232FE2AC4D980E600BF2DE9F047B1
:1020A00094B01F230D46ADF80E30044600285AD0D8
:1020B000C278530753D590F82D300021ADF80C109D
:1020C000002B6BD18378002B40F0AB8018460321A6
:1020D00014AE5F1C0233304416FA87F716FA83F603
:1020E0004FF0020E8BB2012100F840ECADF80C303D
:1020F00007F8401C06F8402C6268B2B1D91C1F29B1
:10210000167828D814AF581C9A1C17FA80F03B4454
:1021100017FA82F24FF0020E0A2703F840ECADF8EE
:102120000C1000F8407C02F8406C2389002B40F032
:102130008581238A002B40F09F81238B002B40F068
:10214000B981236A002B00F0D880BDF80C20911DC6
:102150001F2940F28F800C2014B0BDE8F0870720C3
:1021600014B0BDE8F087ADF80C00002D00F004813C
:10217000EB78002BF3D128460CA90DF10E02FFF7E6
:10218000CFFD0028ECD19DF80E300CAA20469DF81A
:102190000C10FFF715FD14B0BDE8F0870CAF384602
:1021A000FFF70CFD0028DBD1BDF80C3014AA03F1B9
:1021B000010C12FA8CFC03F1020E13441FFA8EFE7E
:1021C00004AE4FF008094FF01B0803F8409C0DF1D6
:1021D0003101062206EB0E000CF8408CADF80CE045
:1021E00000F0D6FFBDF80C209DF83010931D11F0C3
:1021F000FE019BB240F07C8114A8034403F8401C0C
:10220000D31DA2789BB2ADF80C30002A40F01181AA
:10221000E278002A3FF470AFD91C1F2918469AD8DB
:1022200056E70CAF3846FFF7CDFC002898D1BDF833
:102230000C30BDF83070E278991C0DF1500E581C2E
:1022400089B204AE0EEB03091EFA80F0043306EBEC
:10225000010E4FF0030A4FF019089BB24FEA172CFA
:1022600009F840ACADF80C3000F8408C77548EF88B
:1022700001C0CEE7188805287FF671AF6FF4486C6F
:1022800000EB0C06B6B24FF27D37BE427FF667AF69
:102290005E88052E7FF663AF6FF4486EB6441FFA72
:1022A0008EFEBE457FF65BAF4FF6FF77B84204D097
:1022B000BE4202D0B0423FF652AF14A8561C10FAEC
:1022C00086F600EB020E901C80B212274FF0050C30
:1022D0000EF840CCADF80C0006F8407C1F88ADF835
:1022E0000C1004AE3118375404323F0A4F7092B2CA
:1022F0005B88B35432441B0A5370676A9FB3B88833
:10230000BDF80C30811C9A1C56181F2E3FF623AFC7
:10231000FE293FF620AF14AE591C06EB030E16FA49
:1023200081F192B20330FF260EF8400CADF80C207C
:1023300001F8406C398804AEB018B154090A4170F4
:102340000433BA8898B2ADF80C0062B1B9680029BC
:102350003FF405AF304400F01BFFBDF80C30BA88E5
:102360001344ADF80C3094F82C3053B904AE2378F4
:10237000002B53D13446F8E62B46ADF80E502A46D2
:1023800004E7A76A002F3FF4EAAEB9880231FE29BC
:102390003FF6E1AE9E46BDF80C304FF0000804AEAB
:1023A0004FF0160914AA581C02EB030C12FA80F025
:1023B0009A1C92B201310CF8401CADF80C2000F8C8
:1023C000409C3988B1543244090A51700433B988A9
:1023D0009BB20A46F018ADF80C3079B1BB681946CB
:1023E000002B3FF4BCAE00F0D3FEBDF80C30BA8831
:1023F00094F82CE013449BB2ADF80C3008F10108BE
:102400005FFA88F8F04508EB4802B0D2A76A07EBFC
:102410008207B9880231FE29C4D99CE6204631469C
:1024200003AA1F23FFF7D4FB00287FF499AE34469C
:102430009BE604331F2B3FF68EAEF3E603AA04F1AE
:10244000080704AE4FF01F0802218DE8040138464A
:1024500033460A46FFF704FC00287FF481AE03AB45
:102460008DE808013846334606211022FFF7F8FBB5
:1024700000287FF475AE5CE603AA04F1100704AEF1
:102480004FF01F088DE8040138463346032102222D
:10249000FFF7E6FB00287FF463AE03AB8DE808018D
:1024A0003846334607211022FFF7DAFB00287FF475
:1024B00057AE42E603AA04F1180704AE4FF01F0816
:1024C0008DE804013846334614210222FFF7C8FB89
:1024D00000287FF445AE03AB8DE80801384633464B
:1024E00015211022FFF7BCFB00287FF439AE28E647
:1024F00014A90B44012103F8401C81E675DF7047E5
:1025000076DF70477ADF70477BDF7047184B18889B
:102510004FF6FF7398422AD010B5164A164C13781E
:10252000217B0133DBB2994282B013700CD2237C41
:10253000002111708BB9636923B102A8002200F851
:10254000042D984702B010BD0C49FFF7D7FF0028B3
:10255000F8D0A369002BF4D1F4E73B21FFF7D0FFBB
:102560000028E8D0A369002BE5D09847E3E770473F
:10257000D8280020982800209C280020DC28002053
:1025800070B51E4B1E4A5B881188994282B00FD8E5
:1025900052889A420CD31B4B5B6923B102A80122DB
:1025A00000F8042D9847184C0023237002B070BD2A
:1025B000154C227862B1134B5B69002BF4D002A852
:1025C000002200F8042D98470023237002B070BD4C
:1025D0000C4D0E4869680678AB680D48002E18BF90
:1025E0001946FEF747F80028DED0AB69002BDBD098
:1025F00098470023237002B070BD00BF90280020D0
:10260000DC2800209C2800208C280020982800200E
:10261000B8280020F8B505460FCD144C144F0FC450
:10262000064695E80700002384E807003B70B6B132
:102630003068104B716803C3A3F10800FFF762FF15
:1026400090B90D4D0D4C0E480E4A00234FF6FF7603
:102650002E8023701946BDE8F840FDF7F9BF054804
:10266000FFF752FF0028ECD0F8BD00BF9C280020E7
:102670008C280020DC280020D82800209828002062
:10268000583B02000D25020070B50388112B27D09E
:1026900012D9122B07D0502B47D1244CC288E38982
:1026A0009A4230D070BD083003C8214B83E8030044
:1026B000BDE87040FFF764BF102B35D11D491B4C9E
:1026C0001B4B1D4DE48900F110028088088092E8C0
:1026D0000300002283E803002A70002CE8D070BDBC
:1026E0001449154B15484FF6FF7400220C801A70E0
:1026F000FEF71AF80028D5D00C4B9B69002BD1D0DF
:10270000BDE870401847038A022BCBD1123000F08D
:1027100017F80028CCD10948FEF706F80028C1D0E8
:10272000A369002BECD1BDE770BD70BD9C280020D3
:1027300090280020D828002098280020B8280020C1
:10274000007800F0010070478FDF70479EDF704710
:10275000ADDF7047B8B110B417221B24002381618C
:1027600002804280C2800281C281028204710473AD
:102770004473047544758372C3728374C3745DF8C3
:10278000044B184670470E20704700BFF0B58D8887
:10279000012D83B001D903B0F0BD0B88212B044675
:1027A00074D01BD93A2B00F0B380552B00F08A80EF
:1027B000222B23D0EE00A3199B7A002BEBD03444BC
:1027C0002846E188FFF7C2FF00285BD01128E2D03D
:1027D00002466D490120FDF773F8DCE7102B24D089
:1027E000112BE7D100EBC503002117201B22D88055
:1027F00018819972D9721A735A73CCE7EE0087194F
:102800000A7A7A738369002B3AD04FF0000E4DF6A6
:102810007A21ADF804E0ADF80010ADF802508DF863
:10282000042069469847BB7AC7E7EE008719037909
:102830003B73CB7B012B00F08880022B00F08E8055
:10284000F9883B898B42C0F08C803B7B7A7B9A4233
:1028500016D24FF0000E9BB2724628466946ADF87C
:102860000030ADF80230ADF804E0ADF806E0FFF757
:102870006BFF28B10346454901202A46FDF786F83B
:10288000BB7A9AE70123A072E37284E7EE0087190E
:102890000A7A3B7B4FF0000E934228BF134628462E
:1028A00072466946ADF80030ADF80230CDF804E06C
:1028B000FFF74AFF0028E3D0024635490120FCF724
:1028C000FFFFDDE7EE00CB888719172BF98838BFAB
:1028D00017238B4228BF0B4600223B81BA72284641
:1028E000FFF736FF002833D1FB7A002BC8D1A3694C
:1028F000002BC5D040F677213A89ADF80010ADF82D
:102900000250ADF80420204669469847BB7A54E748
:1029100000EBC5064A89F388934228BF1346172B5C
:1029200038BF1723338182695AB1F17A49B140F631
:102930007721ADF80010ADF80250ADF804306946CB
:1029400090470023F372B37225E70188F98078E796
:10295000024610490120FCF7B3FFC5E74188F98022
:102960006FE72846FFF7F2FE10B90123FB726CE710
:10297000112802D10123BB7267E7024602490120F8
:10298000FCF79EFF61E700BF5C3B0200B83B020022
:10299000843C02002C3C02000649074A074B9B1A64
:1029A00003DD043BC858D050FBDC00F013F8FCF703
:1029B00055FC0000DC3E020060200020EC200020DE
:1029C000FEE7FEE7FEE7FEE7FEE7FEE7FEE7FEE7DF
:1029D000FEE7FEE7F0B4B54B1B78062B1BD0B44ADC
:1029E000D2F8883043F47003C2F88830BFF34F8FB9
:1029F000BFF36F8F4FF01023D3F80022002AC0F2EC
:102A00002481D3F80432002BC0F21F81A94BAA4ABB
:102A10001A60F0BC7047A94B1B681B07DFD1A84B9D
:102A20001B6803F0F002302A6BD003F0E003402B68
:102A300067D0A34B1B6803F0F003302B70D0A04B82
:102A40001B6803F0F002302A4BD003F0E003402B68
:102A500047D09B4B1B6803F0F003302B00F0E58060
:102A6000974B1B6803F0F002302A27D003F0E003F5
:102A7000402B23D0924B1B6803F0F003302B00F067
:102A8000C6808F4B1B6803F0F003302B56D08C4B65
:102A90001B6803F0F003502B67D0894B1B6803F0D1
:102AA000F002302A03D003F0E003402B97D1854B8E
:102AB000854A1B6803F04F03136090E74FF0804393
:102AC0000022C3F80C21C3F81021C3F83825774B36
:102AD0001B78062B83D1794B1B681C077FF47FAFD3
:102AE000C8E77A4B714A1B6812787949C3F34233BD
:102AF000062A0B602ED1714B1B681E077FF46FAF47
:102B0000A7E7744B694A1B6812787349C3F304231F
:102B1000062A0B60DBD1694B1B681B0789D05EE777
:102B2000624B6E4A1B786E491160062B7FF457AFDB
:102B3000624B1B681F077FF452AF80E7694E6A4CF7
:102B40006A496B4B0527012500203F22376025602D
:102B500008601A60554B1B78062B7FF440AF574B2B
:102B60001B6819077FF43BAF91E74FF08052614B30
:102B7000D2F80414C3F82015D2F80814C3F82415A9
:102B8000D2F80C14C3F82815D2F81014C3F82C1579
:102B9000D2F81414C3F83015D2F81814C3F8341549
:102BA000D2F81C14C3F84015D2F82014C3F8441509
:102BB000D2F82414C3F84815D2F82814C3F84C15D9
:102BC000D2F82C14C3F85015D2F83014C3F85415A9
:102BD000D2F83414C3F86015D2F83814C3F8641569
:102BE000D2F83C14C3F86815D2F84014C3F86C1539
:102BF0002E49D2F84424C3F870250B78062B7FF4B5
:102C0000EEAE2E4B1B681A077FF4E9AE45E7274B63
:102C1000394A1B780321062B11607FF4E0AE274B65
:102C20001B6818077FF4DBAE2BE734491F4BCA68DB
:102C30001B7822F08072062BCA607FF4D0AE1F4B47
:102C40001B681D077FF4CBAE0AE72D4B0122C3F8AA
:102C50000425D3F80024002AFBD04FF010231522BE
:102C60002749C3F80022D1F80034002BFBD04FF0E5
:102C7000102315222249C3F80422D1F80024204B46
:102C8000002AFAD00022C3F80425D3F80024002A31
:102C9000FBD0BFF34F8F06491A4BCA6802F4E062BB
:102CA0001343CB60BFF34F8F00BFFDE7E00F00F091
:102CB00000ED00E0D82000200090D003E40F00F0E9
:102CC000E80F00F058020010E40E0040440200102B
:102CD0003C050040240300104035014074C007400B
:102CE0000DF0ADBA1056004088560040185600400E
:102CF0001456004000C00040A0050040F0ED00E088
:102D000000E001400400FA05A0DF7047A2DF704731
:102D1000A6DF704762DF70470A88502A0B4600D052
:102D20007047C98842889142FAD11A8A012AF7D19C
:102D300010B4446934B101469A7C988823465DF802
:102D4000044B18475DF8044BEAE700BFF0B5734C3D
:102D50000E68A2686168E36895B0054620686E61F8
:102D600004AC0FC405F1120104A8FFF7D3FF18B19A
:102D70000446204615B0F0BD14A941F2235321F8B2
:102D8000483D0120AB7C8DF80A302A46FFF7BCFF96
:102D900004460028EDD1214603226846FCF7D2FA0A
:102DA0009DF800709DF801309DF802E0012666F361
:102DB000030766F3030366F3071366F3420E214627
:102DC00066F307171C220DA88DF800708DF80130EE
:102DD0008DF802E0FCF7B6FA9DF8343095F812E071
:102DE0000E9443F01203214641F22457032201A816
:102DF0001094119413948DF834308DF80EE0ADF8E2
:102E00000C70CDF848D0FCF79DFA9DF806309DF87F
:102E100004E09DF8057066F3420364F3C30364F3B2
:102E2000041364F3030766F3030E64F3000366F30D
:102E3000071E214664F30717142208A88DF80630F0
:102E40008DF804E08DF80570FCF77CFA2B4601AA9A
:102E50000992ADF82A400C940DA903AC33F80A0B83
:102E6000089408AAADF82860ADF82C60FFF74EFF73
:102E7000044600287FF47DAF21461C220DA8FCF7F4
:102E800061FA9DF8343095F812E00E9443F00A038D
:102E9000214641F22557032201A81094119412945F
:102EA00013948DF834308DF80EE0ADF80C70FCF70B
:102EB00049FA9DF806309DF804E09DF8057066F328
:102EC000420364F3C30364F3041366F3030E66F36F
:102ED000030764F3000366F3071E2146142266F31A
:102EE000071708A88DF806308DF804E08DF80570F6
:102EF000FCF728FA2B4603AA08920DA933F8020B17
:102F0000ADF82A4008AA01AD0C940995ADF82860E7
:102F1000ADF82C60FFF7FAFE04462AE7E43C020015
:102F200070B588B00E4605468DF80720012404A828
:102F300000211022ADF80E40FCF704FA7389ADF8B9
:102F400010300DF107020DF10E03284604A98DF88B
:102F5000124007920693FFF7DBFE08B070BD00BF7A
:102F600048DF704710DF704760DF704761DF7047F0
:102F7000FCF728BF2DE9F047DFF8A890264EDFF8D0
:102F8000A880264FD9F80040B4FA84F482B0002516
:102F900064097DB93378DFF880A063B901A8FFF731
:102FA000DFFF05280AD018B3FCF7FCFE4CB1012462
:102FB0000025EFE7CCB102B0BDE8F087002CFAD1D4
:102FC00001259AF80030002BF5D102A93C68B8F829
:102FD000003021F8043D2046FFF7C8FF052816D031
:102FE00080B1FCF7DFFE0024D3E7DFF82CA0E8E790
:102FF0000198FDF78DFC0A4B1B68002BD6D0019879
:103000009847D3E72046D9F800309847EBE7002DE2
:10301000CDD002B0BDE8F087E4280020E8280020E9
:10302000EC280020F0280020E6280020014B18782A
:10303000704700BFE528002011B111F0030F01D047
:1030400007207047F8B51B4F1B4E1C4D1C4C3960B8
:1030500032802B602368DB0708D50125C4F8805037
:103060001849FFF77FFF30B12560F8BD1549FFF71C
:1030700079FF00B1F8BD144B01221A70FDF75AFC1C
:103080000F4A92F816335B09991E052909D8043BAB
:10309000012B06D90D4B986830B94FF480031360AB
:1030A000F8BD42F20200F8BD1A6842F480021A60CC
:1030B0000020F8BDE8280020E6280020F4280020A1
:1030C00000E100E0712F0200E52800200429002023
:1030D000034618B1024A0020136070470E20704763
:1030E000F028002008B5094B1B6833B1984700B998
:1030F00008BDBDE80840FCF755BE054B1B78002B0A
:10310000F6D0BDE80840FFF735BF00BFF428002027
:10311000E528002082B0034B0193019B036000204F
:1031200002B070476020002030B5044683B002A88A
:10313000236840F8043DFFF717FF2368019A934284
:1031400005460BD110B9284603B030BD01200D490A
:103150002A46FCF7B5FB284603B030BD02200A49D9
:10316000FCF7AEFB4FF08052019BD2F80C210749CF
:10317000C3EB822202F100520220FCF7A1FB284699
:1031800003B030BD5C3D0200F43C0200283D02006B
:1031900010B5431E0A44914204D011F8014B03F8C4
:1031A000014FF8E710BD00000CB430B5164B0C1EF3
:1031B0009DB01D6804DA8B232B604FF0FF301EE0BA
:1031C0004FF40273ADF8143014BF04F1FF332346FB
:1031D000049307934FF6FF7302900690ADF81630F4
:1031E000284621AB02A9209A019300F071F8431CF4
:1031F000BCBF8B232B6014B1029B00221A701DB040
:10320000BDE8304002B07047C0200020034613F8EC
:10321000012B002AFBD1181A013870472DE9F0471D
:103220008E68B34282460C469046994640D38A89BE
:1032300012F4906F3AD0256809696F1A6569022304
:1032400005EB450595FBF3F57B1C4B449D4238BFD0
:103250001D4653050FD5294600F030FB064698B1B0
:1032600021693A46FFF794FFA38923F4906343F062
:103270008003A38113E02A4600F076FB064670B96E
:103280005046216900F0D6FA0C23CAF80030A38911
:1032900043F04003A3814FF0FF30BDE8F087266183
:1032A00065613E44ED1B2660A5604E46B14500D2E7
:1032B0004E4632462068414600F0A1FAA3689B1BA7
:1032C000A36023681E4426600020BDE8F08700004C
:1032D0002DE9F0439DB0064603938B891C060D46ED
:1032E00090460CD50B6953B9402100F0E7FA2860ED
:1032F000286110B90C233360CCE040236B610023BC
:10330000099320238DF8293030238DF82A30434645
:103310001C4613F8012B1AB9B4EB08090FD002E0D0
:10332000252AF5D1F8E73046294642464B46FFF7B5
:1033300075FF013000F0A980099B4B440993237865
:10334000002B00F0A28000234FF0FF32049307937C
:10335000059206938DF853301A9304F10108444600
:10336000DFF8489121784846052200F039FA08F143
:103370000108049B30B1C9EB0000012282401343D5
:103380000493ECE7D80644BF20228DF85320190798
:1033900044BF2B228DF8532022782A2A02D0079985
:1033A00023460EE0039A111D12680391002ABBBF49
:1033B000524243F0020307920792B8BF04930134CC
:1033C0000AE01C4601332278303A092A03D80A2041
:1033D00000FB0121F5E7079123782E2B1AD16378A2
:1033E0002A2B0AD1039B1A1D1B680392002BB8BF1E
:1033F0004FF0FF33023405930CE0611C00220C46B1
:1034000001312378303B092B03D80A2000FB02321C
:10341000F5E70592DFF8988021784046032200F016
:10342000DFF938B1049AC8EB00004023834013430E
:103430000493013421781A488DF82810062204F1EB
:10344000010800F0CDF988B1164B33B9039B07335F
:1034500023F007030833039313E003AB00933046D4
:1034600004A92A46104BAFF3008007E003AB00939A
:10347000304604A92A460C4B00F092F8421C07463D
:1034800003D0099B3B44099341E7AB895B0601D418
:10349000099801E04FF0FF301DB0BDE8F08300BF98
:1034A000A73E0200000000001D3202009D3E020007
:1034B000A33E02002DE9F84391461F468A680B6936
:1034C000DDF820809342B8BF1346C9F8003091F868
:1034D000432006460C4612B10133C9F80030236878
:1034E000990642BFD9F800300233C9F80030256888
:1034F00015F006051CD094F843302268003318BF3D
:10350000012392061FD5E1185A1C302081F8430090
:10351000224494F8451082F84310023313E03046F9
:10352000394604F119020123C047013007D00135A3
:10353000E368D9F800209B1A9D42F0DBDBE74FF0EF
:10354000FF30BDE8F8833046394604F14302C047F6
:103550000130F4D02268D9F80050E36802F0060286
:10356000042A08BF5D1B2269A3680CBF25EAE57524
:1035700000259342C4BF9B1AED184FF00009A945DE
:103580000ADA3046394604F11A020123C0470130F5
:10359000D5D009F10109F2E70020BDE8F883000069
:1035A0002DE9FF410C461746227E6E2A98460646B4
:1035B0000A9B01F1430100F0AF8012D8632A23D0A7
:1035C0000AD8002A00F0BC80582A40F0CB8084F84A
:1035D0004520DFF804E257E0642A1ED0692A1CD097
:1035E000C0E0732A00F0B08009D86F2A2ED0702A6C
:1035F00040F0B880226842F0200222603FE0752A45
:1036000024D0782A3BD0ADE01A68111D19601368E8
:1036100084F8423004F14205A8E020681A6810F0EE
:10362000800F02D0101D186008E010F0400F02F16A
:103630000400186002D0B2F9003000E01368002BDB
:103640003EDA2D225B4284F8432039E020681A6874
:1036500010F0800F02D0101D186007E010F0400F2E
:1036600002F10400186001D0138800E01368227E84
:10367000DFF864E16F2A0CBF08220A221CE07822DE
:10368000DFF858E184F845202268186812F0800FAE
:1036900000F104051D6003D1550601D5038800E043
:1036A0000368D00744BF42F0200222601BB92268A1
:1036B00022F0200222601022002084F8430002E061
:1036C000DFF814E10A226568A560002DA2BF20681A
:1036D00020F00400206003B965B10D46B3FBF2F0A1
:1036E00002FB10331EF8033005F8013D03460028A5
:1036F000F4D100E00D46082A0BD12368DA0708D57B
:10370000236962689A42DEBF302305F8013C05F167
:10371000FF35491B21612EE025681A68606915F0A4
:10372000800F03D0151D1D60136808E015F0400FD1
:1037300002F104051D60136801D0188000E01860D4
:10374000002323610D4616E01A68111D19601568E3
:1037500062682846002100F043F808B1401B606011
:10376000636804E004F1420584F8422001232361E8
:10377000002384F84330CDF800803046214603AA68
:103780003B46FFF797FE013002D14FF0FF301FE0BC
:10379000304639462A462369C0470130F5D02368B0
:1037A0009B0705D4E068039B9842B8BF18460FE01A
:1037B0000025E368039A9B1A9D42F3DA30463946A6
:1037C00004F119020123C0470130DED00135F0E7D2
:1037D00004B0BDE8F08100BFAE3E0200BF3E020073
:1037E00010B5C9B202449042034606D01C788C4200
:1037F00000F10100F7D1184610BD002010BD814234
:1038000010B501EB020301D3421E0BE09842FBD23C
:103810008118D21AD34204D013F8014D01F8014D9A
:10382000F8E710BD994204D011F8014B02F8014F9E
:10383000F8E710BD30B500293DD051F8042C0B1F1E
:103840001D49002AB8BF9B180A680C4612B95A6075
:103850000B6030BD93420DD219685818904201BFD9
:103860005A5852181A6042685A60236030BD994213
:1038700003D80A4651680029F9D1146815199D42E8
:103880000AD11B682344D0188842136013D10868FA
:10389000034413604B680DE002D90C23036030BD74
:1038A0001C681819884204BF08684968596004BF39
:1038B00000191860536030BDFC28002070B5CC1C86
:1038C00024F0030408340C2C38BF0C24002C0646CA
:1038D00003DA0C233360002070BD8C42F9D3204AF8
:1038E000136810461946A1B10A68121B0ED40B2AA0
:1038F00003D90A608B188C501FE08B420DBF5A68A9
:103900004A685A60026018BF0B4616E00B464968C9
:10391000E9E7144D2B681BB9304600F04BF82860DE
:103920003046214600F046F8421C0346D1D0C51C63
:1039300025F0030585420AD11C6003F10B001A1D16
:1039400020F00700821A0AD05142995070BD3046CB
:10395000E91A00F02FF80130BBD02B46ECE770BD20
:10396000FC280020F8280020F8B5074615460E462A
:1039700021B91146BDE8F840FFF7A0BF1AB9FFF71B
:1039800059FF2846F8BD00F025F8A8420ED2384667
:103990002946FFF793FF044650B131462A46FFF708
:1039A000F7FB38463146FFF745FF01E03046F8BDEA
:1039B0002046F8BD38B5064C00230546084623606E
:1039C00000F012F8431C02D1236803B12B6038BD0C
:1039D0001029002051F8040C0028BEBF091851F826
:1039E000043CC01804387047044A05491368002B8A
:1039F00008BF0B4618441060184670470029002085
:103A000018290020F8B500BFF8BC08BC9E467047D6
:103A1000F8B500BFF8BC08BC9E46704743000000E4
:103A200060200020FFFFFFFFFFFFFFFFFFFFFFFF02
:103A3000FFFFFFFF00000000000000000000D601B3
:103A4000070100005B253038645D00004F76657229
:103A5000666C6F770D0A0000302600203A455252FE
:103A60004F523A466174616C0D0A00003A494E4665
:103A70004F3A486974207765616B2068616E646CA9
:103A800065720D0A000000001112131401000007F6
:103A90004150503A494E464F3A53656E6420627524
:103AA00074746F6E207374617465206368616E67EF
:103AB000652E0D0A000000004150503A494E464F15
:103AC0003A5265636569766564204C4544204F4EE3
:103AD000210D0A004150503A494E464F3A52656313
:103AE0006569766564204C4544204F4646210D0AA1
:103AF000000000004150503A494E464F3A436F6E25
:103B00006E65637465640D0A000000004150503A10
:103B1000494E464F3A446973636F6E6E65637465D0
:103B2000640D0A004E6F726469635F426C696E6B6C
:103B3000790000004150503A494E464F3A426C6974
:103B40006E6B79206578616D706C6520737461723D
:103B50007465642E0D0A0000B82800206E72665F3E
:103B6000626C655F676174743A4552524F523A73A2
:103B7000645F626C655F67617474635F65786368D6
:103B8000616E67655F6D74755F726571756573747D
:103B900028292072657475726E656420756E65786B
:103BA0007065637465642076616C75652030782576
:103BB000782E0D0A000000006E72665F626C655F11
:103BC000676174743A4552524F523A73645F626C43
:103BD000655F6761705F646174615F6C656E677477
:103BE000685F757064617465282920287265717535
:103BF00065737429206F6E20636F6E6E65637469E0
:103C00006F6E20307825782072657475726E6564E9
:103C100020756E65787065637465642076616C7577
:103C20006520307825782E0D0A0000006E72665FE0
:103C3000626C655F676174743A4552524F523A73D1
:103C4000645F626C655F67617474735F65786368F5
:103C5000616E67655F6D74755F7265706C79282938
:103C60002072657475726E656420756E6578706516
:103C7000637465642076616C756520307825782ED4
:103C80000D0A00006E72665F626C655F6761747436
:103C90003A4552524F523A73645F626C655F676196
:103CA000705F646174615F6C656E6774685F757086
:103CB00064617465282920287265706C79292072E6
:103CC000657475726E656420756E65787065637471
:103CD00065642076616C756520307825782E0D0A34
:103CE0000000000023D1BCEA5F782315DEEF12123A
:103CF000000000005344483A5741524E494E473A5B
:103D000052414D2073746172742073686F756C64D6
:103D10002062652061646A757374656420746F2025
:103D2000307825782E0D0A005344483A5741524EB8
:103D3000494E473A52414D2073697A652073686F46
:103D4000756C642062652061646A757374656420B3
:103D5000746F20307825782E0D0A00005344483ABD
:103D60004552524F523A73645F626C655F656E6193
:103D7000626C6528292072657475726E65642075A1
:103D80006E65787065637465642076616C75653AFC
:103D900020307825782E0D0A000000000020202019
:103DA00020202020202028282828282020202020EB
:103DB00020202020202020202020202020881010BB
:103DC0001010101010101010101010101004040417
:103DD00004040404040404101010101010104141D5
:103DE00041414141010101010101010101010101C3
:103DF00001010101010101011010101010104242D7
:103E00004242424202020202020202020202020292
:103E10000202020202020202101010102000000032
:103E20000000000000000000000000000000000092
:103E30000000000000000000000000000000000082
:103E40000000000000000000000000000000000072
:103E50000000000000000000000000000000000062
:103E60000000000000000000000000000000000052
:103E70000000000000000000000000000000000042
:103E80000000000000000000000000000000000032
:103E900000000000000000000000000000232D30A2
:103EA0002B2000686C4C0065666745464700303142
:103EB0003233343536373839414243444546003091
:103EC00031323334353637383961626364656600C0
:043ED00000000000EE
:083ED40088B3FF7F010000002C
:103EDC0000000000000000000000000000000000D6
:103EEC0000000000000000000000000000000000C6
:103EFC001C3A02000000000000000000000000005E
:103F0C0000000000000000000000000000000000A5
:103F1C000000000000000000000000000000000095
:103F2C000000000000000000000000000000000085
:103F3C006020002000200040000000000D00030065
:103F4C00D5170200FFFF00000090D0039C3D02003B
:0C3F5C0025F2010001F20100000000004D
:040000032000299917
:00000001FF
