:0200000270008C
:10800000807F0020FDBB070025BC070027BC0700C0
:1080100029BC07002BBC07002DBC07000000000096
:108020000000000000000000000000002FBC07005E
:1080300031BC07000000000033BC070035BC07005E
:1080400037BC070037BC070037BC070037BC070048
:1080500037BC070037BC070037BC070037BC070038
:1080600037BC070037BC070037BC070037BC070028
:1080700037BC07002594070037BC070037BC070052
:1080800037BC07000D99070037BC070037BC070055
:10809000C195070037BC0700FDAD070037BC0700DE
:1080A00037BC070037BC070037BC070037BC0700E8
:1080B00037BC070037BC07000000000000000000CC
:1080C00037BC070037BC070037BC070037BC0700C8
:1080D00037BC070037BC070037BC070000000000B2
:1080E0000000000000000000000000000000000090
:1080F0000000000000000000000000000000000080
:10810000000000000000000000000000000000006F
:10811000000000000000000000000000000000005F
:10812000000000000000000000000000000000004F
:10813000000000000000000000000000000000003F
:10814000000000000000000000000000000000002F
:10815000000000000000000000000000000000001F
:10816000000000000000000000000000000000000F
:1081700000000000000000000000000000000000FF
:1081800000000000000000000000000000000000EF
:1081900000000000000000000000000000000000DF
:1081A00000000000000000000000000000000000CF
:1081B00000000000000000000000000000000000BF
:1081C00000000000000000000000000000000000AF
:1081D000000000000000000000000000000000009F
:1081E000000000000000000000000000000000008F
:1081F000000000000000000000000000000000007F
:1082000010B5054C237833B9044B13B10448AFF3D0
:1082100000800123237010BDB02C0020000000005E
:1082200098D20700084B10B51BB108480849AFF3B6
:1082300000800848036803B910BD074B002BFBD032
:10824000BDE81040184700BF0000000098D20700AA
:10825000B42C0020942C002000000000154B002BB3
:1082600008BF134B9D46A3F5803A00218B460F466D
:108270001348144A121A00F065F80F4B002B00D077
:1082800098470E4B002B00D0984700200021040097
:108290000D000D48002802D00C48AFF3008000F01C
:1082A0002BF82000290003F0FDF800F011F800BFC2
:1082B00000000800807F0020000000000000000097
:1082C000B02C0020A83900200000000000000000B1
:1082D00008B5074B044613B10021AFF30080054BEE
:1082E0001868836A03B19847204600F033F800BF4E
:1082F0000000000024CF070070B50E4B0E4CE41AAE
:10830000A41000251E46A54204D056F825309847F3
:108310000135F8E704F0F8FD084C094BE41AA41005
:1083200000251E46A54204D056F825309847013551
:10833000F8E770BD8C2C00208C2C0020902C0020A5
:108340008C2C002002440346934202D003F8011B08
:10835000FAE77047FEE700BF2DE9F04F0388112BC5
:108360008DB0044618D002D8102B05D03DE0122B5A
:1083700033D0502B1ED038E0A64B82881A8000F1F3
:10838000100303CBA44AA54B1060516000221A7061
:10839000A34BDB894BBB26E09E4BA2484FF6FF72F6
:1083A0001A809E4B00221A7001F0B6F8E8B19C4B7F
:1083B0009B690FE09A4DC288EB899A4215D1038AD6
:1083C000022B12D1837CDE070DD4964801F0A4F86D
:1083D00058B1AB694BB1984707E000F1080303CBF4
:1083E0008D4A1060516002F0D8FF2388212B00F0E5
:1083F0005F8428D8112B3ED018D8012B66D0102BC3
:1084000040F086854FF0A0434FF48022C3F80C253E
:108410004FF40032C3F80825834BA2881A80834AA0
:10842000136823F00203136000F072BD132B3AD0DF
:10843000142B40F06D850021A0880A460B4600F001
:108440002AFF00F03CBC522B00F0008306D8502BD2
:1084500000F00383512B3FD000F05ABD562B2BD098
:10846000572B13D0552B40F05385A088172100F0CF
:1084700004FF00F024BC00F07FFE08B103F000F818
:10848000694B4FF6FF721A8000F042BD684B1B78B3
:10849000012B03D1674A137000F03ABD022B40F064
:1084A000378500F031FF604B002218888521134684
:1084B00000F0F3FE00F003BCA379002B40F0288508
:1084C000594B1321188800F0EEFEF8E3564B0021BB
:1084D000188800F0CCFEF2E3A579002D00F0188595
:1084E00008A800211022FFF72DFF022D40F0108573
:1084F000514D2289AB899A4240F00A85A37B043B07
:10850000022B40F205859DF82630474E298A308897
:1085100043F001038DF82630238AADF82830638AB2
:10852000ADF82A3004F1140302220B9300230593C3
:108530008DF82020ADF8142004AB05AA069300F0B6
:10854000A2FE374668B99DF81030D80709D440F22A
:10855000FD133088ADF8243008A900F092FE00F039
:10856000D7BC00263888ADF8246008A900F089FE41
:10857000002840F0CD8405A831460C22FFF7E2FE2A
:10858000207D431E052B00F21B82DFE813F006005E
:1085900015022502AD0019023702638A062B01D0AD
:1085A00001200DE22549E07D4B880B80237E627D12
:1085B00006921B0443EA0023A07D0343607E43EA46
:1085C00000630120824207938DF8140001D0022A33
:1085D00079D11B4802701A4A1478012C02D0022C5F
:1085E00038D072E0002B72D0B3F5807F71D8154877
:1085F00000F092FF054600287FF440AF124B202286
:10860000187029461148FFF79DFE114B079A1D630C
:108610009A6363E08C370020B43700208E37002047
:1086200090370020BC370020842C0020D835002053
:108630005539002054390020EE350020CC2C002084
:10864000602C0020043600204C390020B03400207B
:1086500078340020002B3AD0C3F30B0232B1A04A89
:10866000A048526D00681A44824230D1B3F5805F51
:108670002FD89D4A1278002A2DD0994A994C506DD6
:1086800024681D18A54226D853645369D46C946499
:108690001065106303B913620B79944C944A01334B
:1086A00003F003030B710023CB80236801332360A5
:1086B000904B1B680121184402F098F968B12368B7
:1086C000013B236001E0072408E0052406E00324C1
:1086D00004E0042402E0082400E0012401202146F3
:1086E00002F0FAF800F014BC834F3B784FF0030817
:1086F000012B8DF8148002D0022B53D0BCE3784BB1
:10870000D96B9A6B91421E4640F05381764D2B787F
:108710000BB101244EE100F0CEFD012840F0AC8306
:10872000764B93F87C201C46A2B393F88230002B42
:1087300000F0A283D4F83411D4F8382141B33AB30D
:1087400094F8E33023B194F8E430002B40F09283A6
:1087500094F88C00694BD8B1D3F89000342803D139
:1087600013F894EF00200BE00622AEE243F20C0C6B
:1087700053F8048FBCF800C0E04500F0AA82013035
:108780007045F3DBA0E294F88430002B40F0B28215
:1087900004229AE21B7A002B00F06E83584B83F878
:1087A000008094E24E4D2A6D6B6D696CD31A99422C
:1087B00040F0FF800020AB6C68646A65EB6402F0F7
:1087C0004DFA002840F05683464B296D1A689142B5
:1087D00098469ED1454B1B6823B102F0FBFA01F08D
:1087E000F9F8F7E7454E96F8C120032A1CD1454910
:1087F0000A7848781B0C42EA00201B0418433D4BC2
:10880000D8F800201968404B01F076FD06F1C3014D
:1088100000284FF02002F8690CBF01240A2404F05C
:108820004FFB28B10C2200E00922354B0B241A70B3
:108830006F6927B1012F40F01D83344A00E0344AAC
:1088400096F8A910032900F29980DFE801F065028B
:1088500065224FF440531B78142B89BF43F2140355
:10886000002018682B4B88BFB0FBF3F0214B1B682E
:1088700003F500573F78142F89BF42F214070023F5
:10888000DB59244F88BFB3FBF7F3984252D005243D
:1088900075E04FF440531B78142B89BF43F2140347
:1088A000002018681B4B88BFB0FBF3F0114B1B680E
:1088B00003F5005E9EF800E0BEF1140F89BF42F29E
:1088C000140E002353F80E30DFF848E088BFB3FBE6
:1088D000FEF398423AD0012F38D100232B6235E0C5
:1088E00078340020483900204C39002050390020CD
:1088F000598F0700D4350020602C0020CC2C00209C
:108900000236002028CF07007C2C00209C34002059
:108910009034002040420F00012C30D101290BD0AF
:10892000022910D094606B69012B1BD19C4B002154
:10893000196217E0012C22D1A5239360D6F8AC3040
:108940006B63012409E0AA2393600FE0012C16D188
:10895000AC239360D6F8AC306B6319B102390129AE
:1089600007D803E0D6F88830AB6002E0D6F888304C
:10897000EB60AB6C5360D8F8003003E00A240023AE
:10898000936053601360002120228648FFF7DAFCD1
:10899000FF21B2228448FFF7D5FC00232B63834BD1
:1089A000834801221A7002F059F9002818BF0A24DE
:1089B00000E00824042092E6638A032B02D0022000
:1089C00003218DE6A27D637D43EA0223794A0220DA
:1089D00053801380012183E604238DF81430764BF5
:1089E0001B78012B06D0022B40F04E826C4B186D89
:1089F000996C46E26A4BD86B196C42E2638A022B8F
:108A000001D00620DCE7637D06930622012B8DF85A
:108A1000142002D0022B40F03A82674A1370664B52
:108A20001B78012B0AD0022B40F033825C4B4FF4B1
:108A30008050D3F84880D3F8509043E2584B4FF41D
:108A40008070D3F84080D3F83C903BE20021A088AE
:108A50000A460B4600F013FC31E1584BE2889B8834
:108A60009A4240F055820C2208A80021FFF76AFCC8
:108A7000514A504E127802238DF8203004F1120B27
:108A8000238ACDF824B0012A0A9302D0022A1AD0F0
:108A9000FAE0434FFC6BBA6B1919914201D93D6C56
:108AA000F4E038191A4659465C3004F019FA0A996C
:108AB000FC6B09980C4407F14002FC6300F080FC59
:108AC00005463864E2E03E49354A0978146D956CF4
:108AD0009046002900F0DA80B3F5807F00F2D6805E
:108AE0001746526DD8F8441003EB040AC2EB0A0291
:108AF0008A4200F2CB80194608F148025846039397
:108B000000F05EFC039BB8640546F088294CC8F869
:108B100050A0C218FF2A04F59E7932790CD800EBD8
:108B2000022048441A46594604F0DAF9E3880A9AC2
:108B30001344E38054466BE0C0F580739BB200EBB6
:108B4000022059461A464844039304F0C9F9039B8E
:108B50000A99E288DFF874B0D8F83000C91A0A918F
:108B600009991A440B440993164B1968DBF8003035
:108B7000013392B2CBF800302379E280033208440B
:108B8000921009EB0321104B01F0CEFF00BBE288ED
:108B9000D8F830301344C8F83030544625E000BFD0
:108BA00078340020B0340020D4340020553900201F
:108BB00055930700CC2C0020602C0020EE350020BF
:108BC0004C390020D4350020598F0700503900203F
:108BD000DBF80030D8F84C50D8F85440C8F848506A
:108BE000013BCBF80030C8F8504030790A9AAA4FC0
:108BF000013000F0030000233071F38042B109EB33
:108C00000020099904F06CF9FB880A9A1344FB8050
:108C1000F288DFF884A2002A38D0D8F85430D8F887
:108C20003000D8F844109D4FD31A03448B422DD303
:108C30009B4BDFF88C82D3F800E0D8F800309AF82C
:108C4000041001330332C8F80030704409EB0121ED
:108C50009210944B01F068FF28B93B6BBAF80620DC
:108C600013443B6308E0D8F80030FD6C7C6DBD64B4
:108C7000013BC8F800303C653379013303F003034E
:108C800033710023F38001E000252C467688824F63
:108C9000002E00F03D813B88013B9BB23B80002BC6
:108CA00040F036812046294601F0E2FD3E802FE16A
:108CB0000022A088089208A9099200F0EAFA002888
:108CC00000F02681FFF7DABB0722774B1A700B24DE
:108CD00070E694F8A930032B3FF65AAD01A050F886
:108CE00023F000BF878707001D8D0700038D070055
:108CF000038D0700684BD3F88800B36898420DD203
:108D00000AE094F88430002B3FF442AD624BD3F874
:108D10008800F368984201D80522D6E794F8F0302D
:108D2000DFF87481002B4CD1604B614E18785B7872
:108D300040EA0320331D01F0DFFA002840F09A805A
:108D4000326998F8F1309A4240F0948008F1F201CB
:108D5000F06804F0C5F803F045FF73698146002B05
:108D600000F08A807168002900F08680F268002A8D
:108D700000F082800B4399077ED112F003087BD16B
:108D800020230993052040230BA908930A9302F09E
:108D90004BFD002870D1B269089B9A426CD1BA6829
:108DA0000B998A4268D130690A99884264D1CDF81A
:108DB000009070697168F36803F018FF00285BD0B9
:108DC00003E0394B0B241C70F4E53A4E94F8A930BB
:108DD000C6F80080032B3FF6DBACDFE803F0021B94
:108DE0000B2594F8B830002B3FF4D2AC2A4BD3F8C3
:108DF000BC3017E094F8B030002B3FF4C9AC264BE0
:108E0000D3F8B42032602C4BC3F5FC239A4222D90C
:108E10000424CFE594F8AA30002B3FF4B9AC1E4BE4
:108E2000D3F8AC30336016E094F8B0201A4B002A27
:108E30003FF4AEAC93F8AA20002A3FF4A9ACD3F8D3
:108E4000AC10D3F8B4205318336009B90324B1E54A
:108E5000002AFBD0D7E7F8691849202204F040F82F
:108E600030680028F2D001F0DBFF0028D0D101F0FB
:108E7000F5FE18B10A249DE505249BE501242C701C
:108E800098E501F0F5FC43E00320052128E40721E3
:108E900000E00521062023E4CC2C002078340020BB
:108EA000D4350020598F07000236002028CF070054
:108EB000602C002048390020008007008F2D002002
:108EC000503900203A884FF6FF739A4220D0124B57
:108ED0001B68DB071CD5114E6023337006237370AB
:108EE000F11C0123B37000F0B7F9033084B23119DB
:108EF000484600F0B1F9204484B23119404600F0F0
:108F0000ABF9074BA989221892B2188800F017F91B
:108F10000DB0BDE8F08F00BFD8350020DC35002053
:108F2000842C0020A6DF70477DDF704773DF704719
:108F300072DF70475B689A68054B9A4206D14268B7
:108F4000836804490132013B0A604B60704700BFEF
:108F50006CCF0700002E0020024A1368013B13600B
:108F6000704700BF50390020084B5A6E013A5A66CC
:108F700022B907490A7822F002020A701B6E034ADE
:108F80000133042B08BF002313667047E43200202E
:108F90002436002028DF704729DF704730B50446AB
:108FA00085B00D46684600211022FFF7CBF9237AE1
:108FB000012B0CD0022B12D10123A2898DF8003095
:108FC000E389ADF80A20D31AADF8083007E0002392
:108FD0008DF8003023690293A38AADF80C306368E2
:108FE0000193236868469B682946984705B030BDC1
:108FF00038B51B4A516E146E134681B3182505FB14
:1090000004252A7A012A05D0022A23D1A889FFF74C
:10901000C1FF14E0182000FB0433E98A1869AA8A0A
:109020000833521A5B68B2F5806F4FEA8101084439
:10903000B4BF92B24FF480621944FFF7ADFF11281C
:1090400007D1084A137823F0020343F00403137096
:1090500038BD20B128460921BDE838409EE738BD1B
:10906000E43200202436002070B52B492B4B0A78BF
:109070001C6E12F0020F06461D4640D01820022E2C
:1090800000FB043002D0032E29D042E0244B002103
:109090001970037A012B00F1080202D0022B13D0C1
:1090A00037E0C28A818A8B1AB3F5806FB4BF9BB256
:1090B0004FF48063134418229BB202FB04548B428A
:1090C000E38226D1002115E0938801339380D38871
:1090D00001339BB2D38012899A421AD10AE0104A16
:1090E00013780133DBB2032B01D8137011E0002396
:1090F00013700821FFF752FFFFF736FF09E0500712
:1091000007D55B6E02F0FB020A7013B142F0020257
:109110000A70BDE870406BE724360020E43200207E
:109120008832002008B502F0ABF9082910B501D04B
:1091300002F0A6F903684068BDE81040184730B552
:1091400087B004460D46ADF8062002A81022002183
:10915000FFF7F8F801238DF80A300DF106030493A8
:109160002046044BADF8085002A90593FFF7DAFE3C
:1091700007B030BDDC35002030B5354D296811F021
:1091800002018BB05ED1102201A8FFF7DBF80B23A0
:109190000122ADF8023002238DF814308DF815202D
:1091A0008DF81830062259238DF816208DF81930C5
:1091B0000322FE230DF11D000DF102018DF8172091
:1091C0008DF81A30FFF7B0FEE0B9BDF802100B2998
:1091D0009DBF4B1C8DF81B3009230C2395BFC9186C
:1091E0008DF81B3089B2082388BF14214FF000028C
:1091F00094BF8DF81C308DF81C3005A8C9B21346F9
:10920000FFF796FE044600BB8DF8040002908DF82F
:109210000C002823ADF81000214601A8ADF80E304F
:10922000FFF784FE80B94FF0A0434FF40032C3F83B
:109230000C254FF48022C3F808252B6843F0020365
:109240002B6002E0002400E0044620460BB030BD55
:10925000D835002013DF7047C0F3072308704B7028
:10926000C0F30743000EC8708B700420704766DFA0
:10927000704762DF704769DF7047ADDF7047A9DF75
:109280007047A8DF7047A5DF7047A2DF7047A0DFF7
:1092900070478FDF704786DF70477FDF70477CDF66
:1092A00070477ADF704776DF704774DF70476DDF95
:1092B00070476CDF704770B50C4B0D4C9A6B0D4EC0
:1092C0000D4D0E4961605C33A3600D4B23610D4B66
:1092D000E2603046002229461A605A6000F0DCFF46
:1092E000201D31462A4600F003FF70BD783400206F
:1092F00088320020E4CF0700D42C0020A9AE07005C
:10930000358F0700002E002008B50E4C0E4BE41AD6
:10931000E40800251E46A54204D006EBC5035B68A1
:10932000984758B1BFF34F8F0849094BCA6802F4F8
:10933000E0621343CB60BFF34F8F01E00135EAE7F2
:1093400000BFFDE7B02C0020A82C002000ED00E0BD
:109350000400FA0508B5044B02221A70034B1B786F
:109360000BB1FFF7D1FF08BD55390020543900205B
:1093700038B50C4C616E0429054610D0226E8B184E
:10938000032B88BF043B18220131616602FB0344B2
:1093900020460021FEF7D6FF2C60012038BD0020BA
:1093A00038BD00BFE4320020044A137813F0060FE2
:1093B00003D143F0020313701AE6704724360020ED
:1093C00030B512B11368DB4301E04FF0FF330144C5
:1093D00088420DD010F8012B53400822054D13F0A0
:1093E000010418BF2C46013A84EA5303F6D1EFE793
:1093F000D84330BD2083B8ED10B5084B9A685AB1F8
:1094000050B9EFF3108272B605491C680C605C68B5
:109410004C60986002B962B6002010BD6033002035
:1094200000E100E073B502A8002300F8063D01F05A
:109430007BF92A4B1B7803F0FF05002B48D1284B02
:109440001A68002A44D0274AD2F80813C9073FD522
:109450001D601B68244C019302A8019BD2F808658B
:1094600000F8055D01F060F96169A369A2691F2B2D
:1094700098BF5D1CA3691F2B94BF013300238D424D
:10948000A36106D1184B5B691F2B94BF01330023E6
:109490006361A318626983F82060A3699DF80300E3
:1094A000934238BF21339B1AE2699A423CBF0E4A6D
:1094B000D361FFF7A1FF6269A3691F2B94BF01333A
:1094C0000023934201BF074A0123C2F808335360C7
:1094D0009DF80200FFF790FF02B070BD5C330020E2
:1094E00000D1004000D0004088320020094A537863
:1094F00091780133DBB2994208BF00231178994279
:109500001FBF03705378182000FB032014BF0430E2
:10951000002070476C33002073B5154EB3780546B4
:1095200013B308B34369FBB10024047402A800F824
:10953000014D01F0F9F80DF10600FFF7D7FF30B14A
:10954000022303709DF806304560737000E0042428
:109550009DF80700FFF750FF24B9064B4FF4801227
:10956000C3F80021204600E0082002B070BD00BF13
:109570006C33002000E100E038B50D4B0D4C4FF48A
:109580000032C3F8802001254FF48033C4F84833FB
:10959000C4F80833656001F025F9074BA560002485
:1095A0001C6001F01FF9054B83F8414038BD00BF36
:1095B00000E100E000100140E83700208832002080
:1095C0002DE9F74F994A9A4913780978994F9A4E9D
:1095D0003C68994231D00133DBB2022B08BF002333
:1095E00013701278954B03EB82030025596C0B190D
:1095F00023F07F433B60AC463368DBB11A6891428D
:1096000002D2521A1A6015E0891A944400221A6094
:10961000D3F80CE0884AD8691060BEF1000FEBD097
:109620000CEB040222F07F42DD615A60C3F808E0CF
:109630001D46E1E74FF0010801E00025A846336828
:1096400001934FF0000A55B12C46ED6930E0D6F891
:1096500000B05B46D946002B63D1002323747849C0
:109660004B780A7893420B4667D08C78501CC0B276
:109670008442087008BF0D70182101FB02331A796B
:109680009C68022AE3D0032A49D0012AE7D1217C31
:109690000029E4D1DA6862601A69A2605A69E2605E
:1096A00010339B68A361654B93F84C3003B1616044
:1096B00060683A68831A23F07F41624B9942A3683D
:1096C00001D80B4406E0121A22F07F4293428CBF6D
:1096D0009B1A0023236000236360A360E361336867
:1096E00055480122227433B121681A68914204D886
:1096F000521A1A60E3610460A5E718461A6891429D
:1097000005D9891ADA6918462AB11346F6E7521ABA
:109710001A601A4603462160E261DC6193E7336810
:1097200004E0A34265D09946DB6994E71BB10022AF
:109730001A74DB69FAE7336091E7404DBAF1000F24
:1097400006D13368019A934202D1B8F1000F4AD092
:109750003368002B45D03C4E3C68D6F80485D3F8DE
:1097600000A095F84130C4EB080727F07F47033786
:10977000A3B9364A4FF480334FF400314FF001095A
:10978000C6F84433C6F80433C2F880111160C6F835
:10979000009001F027F8294B83F8419057452CBFE2
:1097A000E31904EB0A0323F07F44C6F84045D6F8DA
:1097B0000435254AC8EB030323F07F43C8EB0404B8
:1097C000033324F07F44A3420DD9D2F80435C2F804
:1097D000403501F007F81D4B4FF40032C3F800216B
:1097E00001E0FFF7C9FE002385F84C3003B0BDE867
:1097F000F08FA1450CD1DBF81C30336043B912491E
:1098000001228A603B600D4B83F84C2000F0EAFF98
:10981000E2692168C9F81C2012B113680B44136077
:1098200033689B4518BF4FF0010A16E7E437002064
:10983000E5370020E8370020E0370020883200209C
:109840006C330020FEFF7F000010014000E100E0CB
:109850002DE9F743064602A8002400F8014D0D4605
:10986000174600F061FF234B234A18781178CBB2DA
:10987000224909888B4238BF0133C0B238BFDCB2FD
:10988000844209D014781378DBB28B423ABF01339B
:10989000DBB20023137001E04FF6FF749DF8070060
:1098A000FFF7AAFD4FF6FF739C421FD0DFF85890D8
:1098B000D9F800304FEAC40803EB080243F83470CB
:1098C0008EB185B10E4B18880E4B1B68314600FBDC
:1098D00004302A4603F004FBD9F8003098440020F5
:1098E000A8F8045003E00020908000E0042003B0BA
:1098F000BDE8F08345390020443900204639002076
:109900008837002040390020EC37002073B5284903
:10991000284B0022C1F84021C1F84421C1F8482158
:10992000C1F84C21C1F80021C1F804211B68002BAB
:109930003BD02148D1F8041504680C1B24F07F4467
:1099400015461A6894421AD3A41A15441A7CDE6983
:1099500092B100221A745A699B690193174B0092C5
:109960001B88072B01D801F08BFD68460821144A9B
:10997000FFF76EFF0028F6D10EB13346E1E7114B39
:10998000114A197813788B4205D10133DBB2022BCF
:1099900008BF0023137012780C4B03EB82034FF4C3
:1099A00080125D640A4BC3F8002102B070BD00BF95
:1099B00000100140E0370020E83700208837002001
:1099C0002B910700E4370020E53700208832002083
:1099D00000E100E070B5114C114A237812789A42E8
:1099E0001BD023780F48104A068812680F48DBB254
:1099F00019B202EBC105006852F83120A98806FBB4
:109A0000030090470A4A23781288DBB29A4286BF45
:109A10000133DBB200232370DDE770BD4539002040
:109A20004439002088370020EC37002040390020DE
:109A3000463900202DE9F04F0022C9B00C468D5C5C
:109A4000E37843EA0563657843EA0543A57843EA8A
:109A5000052308AD0434AB500432402AEFD12A4626
:109A60003023916B576A92E860004FEA714484EAB0
:109A7000F14484EA91242F443D194FEAF61484EA14
:109A8000B64484EAD6012944013B116402F1040280
:109A9000E7D1426D0192826D0292C26D0392026E15
:109AA0000492426E0592826E0692C26E07929246B0
:109AB00004AA92E80450D0F85080DDF80CB0029E61
:109AC000019F4446274951F8235008A951F8231013
:109AD00005EB01094FEAB21585EAF22585EA7261C4
:109AE00009EB01052EEA02090CEA020189EA0101EB
:109AF0000D4486EA0701AA44214006EA07054D40C5
:109B00004FEAB40181EA743181EAB4510133294446
:109B1000402B0BEB0A0901EB0A05B346F24606D0CF
:109B2000E6463E46944627464A462C46CAE7019BEF
:109B30001C44029B44651F44039B87651E44049B91
:109B4000C6654B440366059B1A44069B4266634404
:109B50008366079B454473440565C36649B0BDE809
:109B6000F08F00BF08D007002DE9D34F1446694697
:109B7000082201F04FFA90B39DF801609DF8028031
:109B80009DF805A00027002332023B434FEA084618
:109B9000002732433B439DF800609DF80380002777
:109BA0003B439DF804704FEA0A2932439DF806A012
:109BB0004FEA086632433B43002643EA0903324337
:109BC0004FEA0A499DF807A0324343EA09033243AA
:109BD0004FEA0A69324343EA0903C4E9002302B0A9
:109BE000BDE8D08F13B5144601A9042201F012FA82
:109BF00070B19DF806309DF805201B0443EA02234E
:109C00009DF8042013439DF8072043EA0263236074
:109C100002B010BD73B50D4601A90646144601F009
:109C2000AEF998B1019A511C0FD26B7803F0C003C2
:109C3000802B0AD02B79994207D83046214601F073
:109C4000E9F9019B0022E25400E0002002B070BD5F
:109C500073B50D4601A90646144601F090F9A8B166
:109C6000019BFF2B11D8591C0FD26A7802F0C00259
:109C7000802A0AD02A79914207D82146304601F835
:109C8000013B1A4601F0C6F900E0002002B070BDA9
:109C9000F7B50F466946164601F042F950B3DDE9C3
:109CA0000045002304F001026D084FEA3404134319
:109CB0001CBFE443ED43E8B13B79082B02D1C6E970
:109CC000004517E0042B02D1346022460AE0022B43
:109CD00003D1A3B233801AB204E0012B09D1E3B25D
:109CE00033705AB2D317AB4206BFA2420120002004
:109CF00000E0002003B0F0BD37B50D4669461446BC
:109D000001F00EF920B32B79082B04D1DDE9000115
:109D1000C4E9000113E0042B03D1DDE90001206058
:109D20000CE0022B03D10098208080B206E0012BCA
:109D30000DD1DDE90001207000F0FF000021DDE918
:109D40000023994206BF90420120002000E000203D
:109D500003B030BD37B50D466946144601F0E0F852
:109D600020B32A79082A04D1DDE90023C4E90023BD
:109D70001CE0009B042A18464FEAE37103D12360DC
:109D80001A460B460BE0022A03D19BB223801AB27B
:109D900004E0012A09D1DBB223705AB2D3178B42F7
:109DA00006BF82420120002000E0002003B030BD49
:109DB00061DF704760DF704710DF704748DF704732
:109DC000B14B1B78062B0FD1B04B1B6818070BD17A
:109DD000AF4B1B6803F0F002302A00F0D58003F08F
:109DE000E003402B00F0D080A74B1B78062B0AD154
:109DF000A64B1B68190706D1A54B1B6803F0F0039F
:109E0000302B00F0C880A04B1B78062B0FD19F4B46
:109E10001B681A070BD19E4B1B6803F0F002302A17
:109E200000F0BD8003F0E003402B00F0B880964BBB
:109E30001B78062B0AD1954B1B681B0706D1944B48
:109E40001B6803F0F003302B00F0B0808E4B1B78C2
:109E5000062B0FD18D4B1B6818070BD18C4B1B6841
:109E600003F0F002302A00F0A78003F0E003402B5B
:109E700000F0A280844B1B78062B0AD1834B1B6811
:109E8000190706D1824B1B6803F0F003302B00F05A
:109E90009D807D4B1B78062B0BD17C4B1B6813F0F0
:109EA0000F0306D17A4A126802F0F002302A00F05D
:109EB0009180754B1B78062B0AD1744B1B681A07CF
:109EC00006D1734B1B6803F0F003502B00F08C801D
:109ED0006D4B1B78062B0FD16C4B1B681B070BD1EE
:109EE0006B4B1B6803F0F002302A00F0C58003F0D2
:109EF000E003402B00F0C080664AD2F8883043F47B
:109F00007003C2F88830BFF34F8FBFF36F8F4FF0ED
:109F10001023D3F80022002A03DBD3F80432002BED
:109F20002EDA5D4B0122C3F80425D3F80024002A61
:109F3000FBD04FF010221521C2F80012D3F80024F4
:109F4000002AFBD04FF010231522C3F80422524BF5
:109F5000D3F80024002AFAD00022C3F80425D3F84D
:109F60000024002AFBD0BFF34F8F4A494B4BCA68ED
:109F700002F4E0621343CB60BFF34F8F00BFFDE7F5
:109F8000474B484A1A607047474B484A1B68C3F31F
:109F90000423136028E7464B464A1A6033E7464BD2
:109FA000464A1B68C3F34233136040E7444AD36810
:109FB00023F08073D36049E74FF080430022C3F859
:109FC0000C21C3F81021C3F8382553E73D4B032279
:109FD0001A605EE73C4A0521116001219167936098
:109FE0003A4B3F221A6064E74FF08052384BD2F868
:109FF0000414C3F82015D2F80814C3F82415D2F8B5
:10A000000C14C3F82815D2F81014C3F82C15D2F884
:10A010001414C3F83015D2F81814C3F83415D2F854
:10A020001C14C3F84015D2F82014C3F84415D2F814
:10A030002414C3F84815D2F82814C3F84C15D2F8E4
:10A040002C14C3F85015D2F83014C3F85415D2F8B4
:10A050003414C3F86015D2F83814C3F86415D2F874
:10A060003C14C3F86815D2F84014C3F86C15D2F844
:10A070004424C3F870252BE7164B174A1B6803F0DE
:10A080004F03136038E700BFE00F00F0E40F00F06B
:10A09000E80F00F000ED00E000E001400400FA05E8
:10A0A000882C00200090D00324030010403501408C
:10A0B00074C007400DF0ADBA440200103C050040EA
:10A0C000F0ED00E0A005004010560040145600409E
:10A0D00000C0004058020010E40E004010B50122FC
:10A0E00003680446984710B1A368013BA36010BD04
:10A0F0002DE9F0478EB00027044602A8009701978B
:10A1000001F0A2F8A368002B44D0204608A900F073
:10A1100036FF18B9A368002B3CD033E0089E002E10
:10A1200038D0039D4FEAD60806F00706039B1A783D
:10A13000424529D002A801F0EDF8039BAB42F5D1CE
:10A14000B8455CD3039A537803F00F03082B4BD127
:10A150001778B84553D3069BD4F808901D68A368B8
:10A16000002D4AD0994548D12B68D3F800C0BCF1E6
:10A17000000F6CD02046294642463346E04700286F
:10A1800040F08580002084E05B7803F00F02082A0D
:10A19000D0D039E0039B049C5D7802A801F0BAF8A6
:10A1A0000028F7D115F0300F03D1039B1B7803B1C2
:10A1B0000134BCB162090023934205D05DF823103D
:10A1C0000131DFD10133F7E70EAA02EB830304F07C
:10A1D0001F04C4F120044FF0FF3253F8383CE24032
:10A1E0009342CFD1012054E002A801F093F8039BE1
:10A1F000AB42A7D14FF0FF3701E0994582D120460D
:10A20000314600F031FF1EE013F0300F0FD1049BF8
:10A210003F2B0CD85A090EA901EB820203F01F0351
:10A220000121994052F8383C0B4342F8383CE5682C
:10A2300025B120464146324602ABA847204631466A
:10A2400002AA00F039FF00287FF45CAF9AE7D3F848
:10A2500008A09AF80030434519D151466A6808A809
:10A2600000F0F2FF6B680C9305F10C030D939AF864
:10A27000013003F0C003802B04BF2B1D0C9301237E
:10A280002B732046314608AA00F016FF77E7AD6829
:10A2900065E70EB0BDE8F0877FB503460A4668461D
:10A2A000194600F0D1FF30B1684600F0DEFF684685
:10A2B00001F030F8F7E707B05DF804FBF0B585B0C2
:10A2C0000F468D6869460646144600F08BFE88B13D
:10A2D000B86878B17B7803F03003202B03D128468F
:10A2E0002146FFF7D9FF684629462246FFF700FFBF
:10A2F000019B736005B0F0BD70B5A0B00C46ADF821
:10A3000004001646C0B21D46002B00F0E78000296D
:10A3100000F0E4801B68002B00F0E280052840F08C
:10A32000E18002A901F080FA002840F0DE806B682D
:10A33000029A9A4240F0D88000230022CDE91623E9
:10A340006B4B18936B4B19936B4B1A936B4B1B9383
:10A350006B4B1C936B4B1D936B4B1E9303F1745310
:10A36000A3F52303A3F6924314901F932644B4420B
:10A3700019D0149B14F8011B20AA1A440133402B56
:10A3800002F8701C1493F2D104A80146FFF752FBA7
:10A39000DDE9162312F5007243F10003CDE916231F
:10A3A00000231493E3E7052003A99DF8054001F07D
:10A3B0003BFA002840F099806B68039A9A4240F07B
:10A3C00093802E68002E00F08980149A20AB1344ED
:10A3D000372A04AD4FF0800102F1010203F8701C2E
:10A3E0002A4406D8531B382B13D0002302F8013B14
:10A3F000F8E7531B3F2B03D8002302F8013BF8E793
:10A4000028462946FFF716FB284600213822FDF78B
:10A4100099FFDDE9162314980821E1FB002322FAB5
:10A4200001F1CDE916238DF84F208DF84E10110C57
:10A43000120E8DF84C201A0A8DF84D108DF84B3005
:10A440008DF84A2028461A0C29461B0E8DF84830F4
:10A450008DF84920FFF7EEFA3346FCB922461F99E2
:10A46000D14019701E99D14019711D99D1401972AE
:10A470001C99D14019731B99D14019741A99D14074
:10A4800019751999D14019761899D1400832202AA6
:10A49000197703F10103E2D1002026E00321189887
:10A4A000CA00D04018701998D04018711A98D0403E
:10A4B00018721B98D04018731C98D04018741D98BF
:10A4C000D04018751E98D04018761F980139D0409A
:10A4D0004A1C187703F10103E1D1DDE70E2004E007
:10A4E000102002E0062000E0092020B070BD00BF6F
:10A4F00067E6096A85AE67BB72F36E3C3AF54FA515
:10A500007F520E518C68059BABD9831F204B21498C
:10A510001A68214B00BF00BF00BF00BF00BF00BFD3
:10A5200000BF00BF8A422FD000BF00BF00BF00BFE6
:10A5300000BF00BF00BF00BF00BF00BF00BF00BF23
:10A5400000BF00BF00BF00BF00BF00BF00BF00BF13
:10A5500000BF00BF00BF00BF00BF00BF00BF00BF03
:10A5600000BF00BF00BF00BF00BF00BF00BF00BFF3
:10A5700000BF00BF00BF00BF00BF00BF00BF00BFE3
:10A5800000BF00BF00BF00BF013BC3D1704700BF89
:10A59000882C00200024F400A0860100034B01B9A0
:10A5A00019705B6803B11847704700BFD8320020AC
:10A5B000094A936810B523F0010419B923F0030385
:10A5C000936002E044F002049460436813B1BDE874
:10A5D0001040184710BD00BFD8320020BFF34F8F86
:10A5E0000549064BCA6802F4E0621343CB60BFF32F
:10A5F0004F8F00BFFDE700BF00ED00E00400FA054B
:10A60000F0B50346186880F308885868FF2464B2E0
:10A61000EFF30585002D08D1EFF31481022221EA22
:10A62000020181F31488A6460047254606462127E5
:10A630003FBAF0B40024002500260027F0B4F9202A
:10A6400040B20047F0BD13DF704708B500F018FFB7
:10A6500008B5054B1B6F042B04D1FFF757FFFFF71D
:10A66000B9F9F6E708BD00BFD83200200020014646
:10A67000014AFFF7EDB800BF0DA707002DE9F34130
:10A68000214B5D6F9C6FB5FA85F5B4FA84F46D09C2
:10A6900064091F46002D32D197F87C30002B30D151
:10A6A00001A8FFF78BFB052808D008B100F0E8FEF1
:10A6B000154B5B6F1BB10198984700E00125E4B989
:10A6C00097F87C30104EE3B902A9D6F88080B6F82E
:10A6D0007E3021F8063D4046FFF76AFB0528044618
:10A6E00005D00028E2D1B36F4046984700E001242E
:10A6F000002DD1D0002CCDD003E015B9CCE7002C33
:10A70000DED002B0BDE8F081D832002008B509B132
:10A7100000F0B6FE034B93F8843013B1BDE8084057
:10A72000ACE708BDD832002070B5EFF3108572B6E3
:10A730000F4AD2F890400123ACB9C2F890300D4BCB
:10A740000D49D3F880603140C2F888100A49C3F837
:10A750008010D3F88410C2F88C104FF0FF32C3F889
:10A760008420047000E0037005B962B6002070BD5B
:10A77000D832002000E100E0FC06FFBDF7B5074637
:10A7800002A8002400F8014D0E461546FFF7CCFF45
:10A790000DF10600FEF7AAFE78B1012303700E4BFF
:10A7A0004760D3F8043583600C4B9DF80620C660E3
:10A7B0000561446183F8952000E004249DF80700BA
:10A7C000FEF71AFE24B9064B4FF48012C3F800219D
:10A7D000204603B0F0BD00BF00100140D832002079
:10A7E00000E100E0204B21491A682F2300BF00BF81
:10A7F00000BF00BF00BF00BF00BF00BF8A422FD014
:10A8000000BF00BF00BF00BF00BF00BF00BF00BF50
:10A8100000BF00BF00BF00BF00BF00BF00BF00BF40
:10A8200000BF00BF00BF00BF00BF00BF00BF00BF30
:10A8300000BF00BF00BF00BF00BF00BF00BF00BF20
:10A8400000BF00BF00BF00BF00BF00BF00BF00BF10
:10A8500000BF00BF00BF00BF00BF00BF00BF00BF00
:10A86000013BC3D1704700BF882C00200024F400B6
:10A87000174B2DE9F0411E884FF6FF739E42884624
:10A8800022D0144CD4F80033DB071DD5602384F8A4
:10A890000433032384F8053304F20731012384F8D9
:10A8A0000633FEF7D9FC033085B204F541777919F8
:10A8B0004046FEF7D1FC2A18B4F82213304692B273
:10A8C000BDE8F041FEF73BBC0820BDE8F08100BFC9
:10A8D000842C0020D8320020144B024618884FF6F2
:10A8E000FF73984210B51FD0114BD3F80043E40713
:10A8F0001AD50B2983F8052383F8061304BF93F8B0
:10A900002A2383F807234FF0600404BF002183F853
:10A910002A1383F804430CBF04220322B3F8221342
:10A92000BDE81040FEF70BBC082010BD842C0020B1
:10A93000D832002010B50B4BD3F8C00101280ED13E
:10A94000D3F8BC4164B143F20802D3F8B8111068DF
:10A950000022FEF735FD031B5842584110BD002070
:10A9600010BD00BFD832002008B5FFF7E3FFB8B133
:10A970000C4890F896300BB900F082FDD0F84033C7
:10A98000002BF9D090F83D334FF4A021012B0CBFE0
:10A990000A46002200F54B70FFF7F0FE0028EBD1CD
:10A9A00008BD00BFD832002008B50C220021FDF7F9
:10A9B000C9FC054B0022C3F8D021C3F8D421C3F849
:10A9C000B021C3F8B42108BDD832002018DF704789
:10A9D0001FB5002110226846FDF7B4FC022368462B
:10A9E0000093FFF7F3FF05B05DF804FB2DE9FF418D
:10A9F000484FBB6805465807144616D59A074DD4EC
:10AA000043F00103BB6097F84C33DB077CD5424B26
:10AA1000424A93421E4602D3414A934244D3022003
:10AA2000BB6823F00103BB6070E0C5F30B03002B90
:10AA300036D10F462A463B4B0220C3F80405D3F813
:10AA400000040028FBD03748C0F80825D3F80004DC
:10AA50000028FBD0334B0020C3F80405314BD3F85A
:10AA60000034002BFAD0013F02F58052E3D105EB10
:10AA70000136BCB1394610226846FDF763FC2D0B48
:10AA800001236846360B39468DF800300194ADF845
:10AA90000850ADF80A60A047384637E00A2035E094
:10AAA000062033E0204631E065B3C5F30B030BBB52
:10AAB00033689D4220D31FFA81F8726805EB083392
:10AAC0009A4219D3B8F1000F18D06846FEF750FC2F
:10AAD000B0B1009B5C601E60009B02222D0B1A72BD
:10AAE0009D81A3F81080FEF75FFCBB68002043F057
:10AAF000010398E7062093E7052091E704208FE7FC
:10AB000007208DE703208BE7012089E704B0BDE82B
:10AB1000F08100BFD8320020982C0020982C002013
:10AB2000A82C002000E001402DE9F0430E464649E4
:10AB30001C468B6813F0040F85B00546884611D07B
:10AB40009F0742D443F001038B6091F84C33D80740
:10AB50006ED53E4B3E498B421F4638D33D498B4212
:10AB600035D238E0002E65D0002863D040EA0603D5
:10AB70009B0761D1002A63D0374B0121C3F804152C
:10AB8000D3F800140029FBD0002156F8213045F8F5
:10AB90002130314BD3F800040028FAD00131914222
:10ABA000F3D10021C3F80415D3F800140029FBD019
:10ABB000002674B1684631468DF800600194029514
:10ABC000ADF80C20A04730463BE00A2039E00220D7
:10ABD00037E0204635E06EB365B345EA06039907D2
:10ABE0002AD13B68AB4229D81FFA82F97A6805EB73
:10ABF00089039A4222D3B9F1000F21D06846FEF7AB
:10AC0000B7FB98B1009B5C601F60009B01221A7229
:10AC1000DE601D61A3F81490FEF7C6FBD8F808307B
:10AC200043F001030020C8F808300AE0072008E0DC
:10AC3000012006E0032004E0062002E0052000E0F9
:10AC4000042005B0BDE8F083D8320020982C002005
:10AC5000982C0020A82C002000E0014038B50546C3
:10AC6000194C237823B1FFF751FCFEF7B3FEF7E749
:10AC7000012323706560FFF7EBFC002213480121DC
:10AC8000FFF7B4FE07280246F5D018B10023237061
:10AC9000032038BD58210E48FEF792FBC4F8A001EE
:10ACA0000C484FF4AE72A0F5D87102F019F9FFF715
:10ACB000CFFC06480749084B5722FFF735FF072806
:10ACC000F5D00028E2D138BDD832002000F00700CE
:10ACD0007C340020283600209DA507002DE9F04394
:10ACE000254ED6F8D421D6F8D03102F6FF75ED1AEC
:10ACF00025F47F6525F00F05AC0804F6FF7424F4F5
:10AD00007F6485B003F5805724F00F0400EB03083F
:10AD10000AB193422BD0AC4282BF05F6FF7424F4F3
:10AD20007F6424F00F044FEA9409012368468DE8FC
:10AD300008010297CDF80C90FFF748FEC0B9032335
:10AD400068468DE88803FFF741FE88B9AC42D6F823
:10AD5000D4318CBF05462D1B5B1B00202744A0442B
:10AD6000C6F8D031FFF77AFF002DD4D100E00020E3
:10AD700005B0BDE8F08300BFD83200207FB5124B8C
:10AD8000D3F8D4410B6805191C1B0323A4080093B6
:10AD900068460E4B01930E4602950394FFF716FE8C
:10ADA00030B93046FFF700FE0948FFF757FF09E0CA
:10ADB000684600211022FDF7C5FA68460195029405
:10ADC000FFF704FE04B070BDD832002000800700F9
:10ADD00069A907003EDF7047074B4FF0FF3210B5FF
:10ADE000C3F880200446FFF72EFC18B92046BDE8C2
:10ADF000104005E410BD00BF00E100E008B5074BBE
:10AE0000D3F8AC241AB1904738B100F039FB93F86D
:10AE1000843013B1BDE8084030E408BDD8320020CA
:10AE200038B543F20803054619681D4B1A68A2F5A8
:10AE30004052521A824231D31A48D0F8C041C0F869
:10AE4000FC12012C1BD1D0F8B83103F6FF7323F4A8
:10AE50007F6323F00F03D21A95424FF0000204D90A
:10AE6000C0F8B041C0F8B4210EE00B44C0F8B441C2
:10AE7000C0F8B021C0F8FC3200F5E27406E000230F
:10AE8000C0F8B031C0F8B43100F5DC7420460021C0
:10AE90000C22FDF757FA2560002038BD042038BD8C
:10AEA00014100010D832002043681A44426039B1AF
:10AEB0000139934204D013F8010B01F8010FF8E7B0
:10AEC0000120704737B5154C20884FF6FF73984224
:10AED000254620D0A378227C0133DBB29A42A370AE
:10AEE00007D304F1200100F0C9FAA0B1E3698BB9DE
:10AEF00011E00023A370237D33B13B2100F0BCFAA5
:10AF000010B1E36903B19847AB6923B102A80022ED
:10AF100000F8042D984703B030BD00BF8C370020E7
:10AF20002DE9F34781468A46002600270024D9F8F8
:10AF300008300BB900251EE048460DF10701FFF768
:10AF4000CDF805460028F5D09DF8078008F07F0071
:10AF50002246C0B2002100F045FE18F0800F46EAFC
:10AF6000000647EA010704F1070402D0462CDED1AF
:10AF7000E0E7CAE90067284602B0BDE8F0872DE99E
:10AF8000F3418368074688460BB9002626E00DF199
:10AF90000701FFF7A3F806460028F6D09DF8074002
:10AFA000220619D504F07F040725BB68002BECD0DE
:10AFB00038460DF10701FFF791F80028E5D09DF81C
:10AFC000072002F07F03AB401C43130605F1070581
:10AFD00002D5232DE9D1D8E7C8F80040304602B0A9
:10AFE000BDE8F08173B50D4601A90446FFF7C7FF20
:10AFF000064608B900260AE094E80F0085E80F002D
:10B0000001998A42F6D3A960A3685B1AA36030460F
:10B0100002B070BD30B5044685B0154689B90268E6
:10B02000104B9A420DD0102D2046694605D91022AA
:10B03000FFF7F0FF98B1103DF5E72A46FFF7EAFF6A
:10B040000DE0A368AB4201D2002008E0236820464F
:10B050002A4698470028F7D0A3685D1BA56005B075
:10B0600030BD00BFA9AE070013B50446052920D89E
:10B07000DFE801F0070F121F1F1C9DF90430002BA1
:10B0800018DA204601A90122FFF7C4FF0028F4D1F5
:10B0900010E00021082206E001A9FFF770FF48B187
:10B0A000019A20460021FFF7B5FF03E000210422AA
:10B0B000F9E7002002B010BD2DE9F04357687B7816
:10B0C00013F0C00C89B006468E46144603D0BCF17E
:10B0D000400F66D0B0E003F00F02594903F030038F
:10B0E000102B51F822500AD004D8002B40F0A48035
:10B0F000394608E0202B09D0302B40D09CE0636912
:10B1000001221A7061682269A84796E0BEF1020F19
:10B11000D4F8148023D1042A21D804A9FFF762FFB0
:10B12000002800F08980069B93B1616898F80020A0
:10B130004B7993420CD90F79236904A807FB02329B
:10B14000A84730B198F80030013388F80030EAE7BA
:10B150000120059B7360069B002B6ED06CE098F875
:10B1600000307979226997F804E0994264D9591C32
:10B1700088F80010304661680EFB0322C4E763695B
:10B1800039781970072A0AD1636820691A796146EB
:10B19000FDF7D8F8636821699868FFF77DF83046B5
:10B1A000B0E717693B6807F1040913B9FFF75CFFC3
:10B1B00043E0022911D104A9FFF714FF00283BD076
:10B1C0003B68616804A84A469847002834D0069B2B
:10B1D000002BF5D1059B73602FE0012919D007D30F
:10B1E000052929D101A90422FFF714FF042515E040
:10B1F00000250DF1040801350B2D1DD030464146C8
:10B200000122FFF707FFB8B118F9013B002BF2DB71
:10B2100005E001A90822FFF7FDFE082568B1094BEA
:10B22000049301AB05930023069507933B6861687F
:10B2300004A84A46984700E0002009B0BDE8F08322
:10B24000A8D10700A9AE07000023C26001604160D9
:10B2500083608B781A44026191F903301A44426189
:10B260000878003018BF0120704730B54268527826
:10B2700002F00F01082987B003461ED103691C683C
:10B28000002C45D000232373236862689D686846BC
:10B290002946FFF7D9FF6368049304F10C03059373
:10B2A0006B7803F0C003802B08BF231D684608BFDE
:10B2B0000493FFF7DAFFA468E2E712F0C00109D1B6
:10B2C00002F03000102802D15A6911700CE090068B
:10B2D0000AD506E080291BD1006900219206016091
:10B2E00016D55B69197013E05A68517801F00F01A7
:10B2F000072904D190681969FEF7CEFF08E091682C
:10B300001869127911B101F0EBFD01E0FDF71AF8AF
:10B3100007B030BD10B542681178034600293AD015
:10B3200002F10C014160147B2CB90168C268FFF77F
:10B330008BFF204610BD5178107901F03004302C7D
:10B340000AD1547B04F03004302C05D1907819696F
:10B35000091A196100200CE001F0F004202C03D13F
:10B36000517911FB00F004E001F0C001802908BF11
:10B370000420517811F0300F02BF996801319960B3
:10B38000917B014418690144196192F90F2011441D
:10B390005961012010BD084610BD13B51E4C638DC8
:10B3A000228C9A420ED8628C9A420BD3A36923B1A5
:10B3B00002A8012200F8042D9847002384F8503099
:10B3C00002B010BD94F8503013482BB18369002BA4
:10B3D000F3D002A80022EDE7C36881688278002AD2
:10B3E00018BF19460D4B9B78A3B1042910D9636C83
:10B3F00083B190F84130012B0CBF0A460022303057
:10B40000FFF7BCF90028D8D0E369002BD4D1D4E7EA
:10B410000720F9E70820F7E78C3700206C3300207D
:10B420007BDF70477ADF7047104B18884FF6FF7349
:10B43000984210B504D01321FDF735FF88B110BD37
:10B440000B4C23689B070CD5FDF72FFF68B94FF015
:10B45000A0434FF40032C3F80825236843F00203E9
:10B4600023600448FEF758F8002010BD842C00200B
:10B47000D8350020BC37002076DF704775DF704775
:10B48000BFF34F8F0549064BCA6802F4E0621343CD
:10B49000CB60BFF34F8F00BFFDE700BF00ED00E0C2
:10B4A0000400FA054FF0A04303222DE9F04FC3F842
:10B4B0004427C3F84827C3F84C27C3F850274FF454
:10B4C0000032C3F808254FF48022C3F808254FF452
:10B4D00080114FF40022C3F80825AD4EC3F80815BB
:10B4E000C3F80C25AB4AC3F84027AB4BAB4985B03A
:10B4F000002530464FF4AE721D7001F0F1FC346847
:10B50000611C06D0301D58212A46FDF759FFA04284
:10B510000DD09F4800214FF4AE72FCF713FF0123BA
:10B5200000207360FFF79AFB08B1FFF7A9FFFEF751
:10B5300023F89B4A9B4D0B2191709B4900234FF4AC
:10B540008010E024137053702B602B716B71C1F865
:10B55000800181F81443086000F18040A0F56F205D
:10B56000C0F8083581F81143D0F80435AB60937802
:10B57000002BDAD08D4B1A7C002AD6D11A745A745B
:10B580008B4A5A613269824F43F20803012A1B68D1
:10B590000BD07A694AB1BC6904F6FF7424F47F6465
:10B5A00024F00F041C44243701E01C461837BA6805
:10B5B000A52A62D002D8012A05D07BE0AA2A67D04A
:10B5C000AC2A6BD076E07169714A012972D1D2F848
:10B5D00024B0126BD718C2EB0B08B8F5805F384661
:10B5E0004FF001014FF00002C14628BF4FF48059CF
:10B5F000FFF7FCF9034600285AD1384621464A464F
:10B60000FFF792FA002853D103238DE8880068469B
:10B610004FEA990302940393FFF7D8F902460028F2
:10B6200046D120460121FFF7E1F9002840D1336BD4
:10B63000DFF85CA14B443363FFF710FBB8EB09085C
:10B640004F444C44C9D143F2080359461868424656
:10B65000FDF7B6FEDAF82830984204BF0123CAF895
:10B660001C00544804BFCAF82030CAF818B0FFF7CD
:10B670009BF90020FFF7F2FA0EE02046FFF72EFBC1
:10B68000B0B93846FFF790F94B48FFF7E7FA0DE0FD
:10B6900020463946FFF772FB002308E02046FFF7FB
:10B6A0001DFB28B920463946FFF768FB012310B17E
:10B6B000012300E000234FF0A042D2F81025D2036E
:10B6C00010D54FF08042D2F81C25B12A0AD0B26DB5
:10B6D000012A08D12E4B00209865FFF7BFFA0028F9
:10B6E0007FF423AF01234FF080420021C2F81C15E4
:10B6F00013B9FFF71FF9F0B9304BEB60A833C5F869
:10B7000060312F4B2F4F08221A801423A5F8663181
:10B710002D4B0024FF1A85F86441FF0885F8654128
:10B720009846BC4212D058F83430984700287FF42D
:10B73000FCAE0134F5E743F208042568FFF748F949
:10B74000002862D12846FFF747FB5EE01F4A104CF5
:10B75000137843F0010313701D4B1E4A1A601E4BF1
:10B7600004221A600023C5F8703185F8743185F819
:10B770007531B36B002B40D0FDF79DFD00283CD008
:10B78000236A5BBBA3694BB3064AC2F868312DE05C
:10B79000783400200C000300D832002000F00700AD
:10B7A0006C330020E037002000E100E00436002088
:10B7B000DDA507009C34002069A90700F0370020B0
:10B7C00088370020B02C0020A82C00202436002030
:10B7D0004C33002069900700E0320020F26A104BE1
:10B7E00072B99A6962B15B6AC5F86831D5F86801C7
:10B7F000FFF716FB012385F86C310A4B00221A7003
:10B80000FFF7E8FAFEF7E6F8FAE72468FFF7E0F852
:10B8100010B92046FFF7E0FA002005B0BDE8F08F30
:10B8200078340020023600200138062811D8DFE8DD
:10B8300000F004100406080A0C00142306E01C2380
:10B8400004E0202302E0302300E040230B600020CE
:10B8500070470620704700002DE9F0434FF0A043E9
:10B860000322C3F84427C3F848274FF40032C3F833
:10B8700008254FF48022C3F80825B94B95B0186805
:10B880000490FFF7A5F8002854D1B648FDF7E2FC74
:10B8900000284FD1B44BB54A1A60B54B50221A80DC
:10B8A000B44BB54A1A60B54B1C68C4F340341CB1A4
:10B8B0004FF40052C3F8802004A8B149FEF77CFA87
:10B8C000AE4A20B17CB14FF4005313600BE0AD4B96
:10B8D0000121197092F816335B09991E052902D8C7
:10B8E000043B012B01D8FFF7CBFDA74B996800293A
:10B8F00000F070811A6842F480021A60A34B019331
:10B90000019C00210C220DA8FCF71CFD01238DF8E1
:10B910003430402000230DA922468DF835308DF8B3
:10B920003630FDF7A8FC0028DDD114A840F8304DD2
:10B93000FEF740FA0446002840F05081944B954AA7
:10B940001A609DF810300D90012262F303030E90EF
:10B9500062F3071308A88DF81030FDF7A8FC38B97A
:10B960009DF8213008A801338DF82130FDF7A1FCA6
:10B970000446002840F03281874801F0BCFA86492D
:10B9800082B204A8FDF78BFC70B90C23ADF83430FB
:10B990001823ADF836300DA84FF4C873ADF8384011
:10B9A000ADF83A30FDF77DFC0446002840F01681E2
:10B9B0007A4B4FF6FF7214A91A804FF65963012093
:10B9C00021F8483D764A8DF80A00FDF760FC002812
:10B9D00040F08E80734B04AC03F110051868596871
:10B9E000224603C20833AB421446F7D16E4E04A878
:10B9F0003146FDF73EFC044600287AD121461C2240
:10BA00004FF014090DA8FCF79DFC21464A4608A8F2
:10BA1000FCF798FC9DF83430ADF80040374643F011
:10BA200004038DF8343017F802398DF80E300223F4
:10BA30004FF00108ADF80C30230A68F3030368F3F4
:10BA4000420468F30713E4B28DF8013044EA0804B5
:10BA500003AD36F8020C8DF802400DA908AA3B1D73
:10BA60000895CDF824D0ADF82C90FDF70EFC0446D7
:10BA7000002840F0B38021461C220DA8FCF762FC90
:10BA800021464A4608A8FCF75DFC9DF83430ADF825
:10BA9000004043F018038DF83430BB788DF80E3039
:10BAA000230A204668F3030368F3071368F3420090
:10BAB0008DF80130C4B2172344F01104ADF82C30D6
:10BAC00036F8020C8DF802400DA908AA07F10C0304
:10BAD000ADF80C800895CDF824D0FDF7D6FB0446D0
:10BAE00000287BD1314A136843EA0803136002E05F
:10BAF0000446002C72D100211C220DA8FCF722FC68
:10BB000040F6CD430E934FF480430F9303238DF8FB
:10BB10004030274B13930DAD0FCD264E0FC695E841
:10BB20000700254B86E8070024481C70FFF778FCC7
:10BB300088B9234B4FF6FF721A80224B1C70224BA0
:10BB40009B7853B1214B1A7C3AB9214A1C745C741E
:10BB50005A61FDF711FB044640E008243EE000BFB7
:10BB6000CCD107000080070058330020583900204E
:10BB700056330020843700206DA6070000E100E066
:10BB80004BA607005C33002060330020002C00200F
:10BB90005033002059830700E0D10700842C002097
:10BBA000EE350020D0D10700F0350020D835002038
:10BBB0002591070090370020DC370020AC370020AB
:10BBC0008C3700208E3700206C330020BC370020DB
:10BBD000C5AE07004FF4800313608FE6204615B012
:10BBE000BDE8F0839140031C90409C46203A93406E
:10BBF000194352426346D340194370470649074AE6
:10BC0000074B9B1A03DD043BC858D050FBDCFEF702
:10BC1000D7F8FCF723FB0000A4D20700002C00207B
:10BC2000B02C0020FEE7FEE7FEE7FEE7FEE7FEE7BA
:10BC3000FEE7FEE7FEE7FEE71AB1013A8B5C8354AC
:10BC4000FAE7704710B5013AD2B253B2002B09DBC4
:10BC50001BB250F8234051F823309C4204D8F2D252
:10BC6000FF2002E0002000E0012040B210BD0000F3
:10BC7000C3F10803DB0070B501330446002003A5BF
:10BC80005B1920C940CAAD1920C4184720C940CA51
:10BC9000754120C420C940CA754120C420C940CA8A
:10BCA000754120C420C940CA754120C420C940CA7A
:10BCB000754120C420C940CA754120C420C940CA6A
:10BCC000754120C4404170BD00000000000000002C
:10BCD000C3F10803DB0070B50133002403A500BFE6
:10BCE0005B1920C940CAAD1B20C0184720C940CAF3
:10BCF000B54120C020C940CAB54120C020C940CAB2
:10BD0000B54120C020C940CAB54120C020C940CAA1
:10BD1000B54120C020C940CAB54120C020C940CA91
:10BD2000B54120C06441B4FA84F0400970BD00BF41
:10BD30002DE9F04F08B4F8CA04B451F8042BA3FB62
:10BD4000028940F8048B4FF0000AE4FB629A4FF03E
:10BD5000000BE5FB62AB4FF0000CE6FB62BC4FF062
:10BD6000000EE7FB62CE51F8042B4FF00008E3FB16
:10BD7000628940F8048BE4FB629AE5FB62ABE6FB68
:10BD800062BCE7FB62CE51F8042B4FF00008E3FBE6
:10BD9000628940F8048BE4FB629AE5FB62ABE6FB48
:10BDA00062BCE7FB62CE51F8042B4FF00008E3FBC6
:10BDB000628940F8048BE4FB629AE5FB62ABE6FB28
:10BDC00062BCE7FB62CE51F8042B4FF00008E3FBA6
:10BDD000628940F8048BE4FB629AE5FB62ABE6FB08
:10BDE00062BCE7FB62CE40F8049B40F804AB40F82D
:10BDF00004BB40F804CB40F804EB0CBC052B00F06E
:10BE00001E810C68A0F11400A1F11401A2F114022A
:10BE100052F804EB4FF0000550F8046BE4FB6E564B
:10BE200052F804EB50F8047BE4FB6E6752F804EB25
:10BE300050F8048BE4FB6E7852F804EB50F8049B46
:10BE4000E4FB6E8952F804EB50F804ABE4FB6E9A05
:10BE5000A0F1140052F8044B51F804EB4FF0000C21
:10BE6000E4FB6EC540F804CB51F804EBE4FB6E56DE
:10BE700040F8045B51F804EBE4FB6E6740F8046B98
:10BE800051F804EBE4FB6E7840F8047B51F804EBC6
:10BE9000E4FB6E8940F8048B51F804EBE4FB6E9AE6
:10BEA000A0E80006062B00F0CA800C68A0F118007C
:10BEB000A1F11801A2F1180252F804EB4FF00005AD
:10BEC00050F8046BE4FB6E5652F804EB50F8047B18
:10BED000E4FB6E6752F804EB50F8048BE4FB6E78D9
:10BEE00052F804EB50F8049BE4FB6E8952F804EB23
:10BEF00050F804ABE4FB6E9A52F804EB50F804BB24
:10BF0000E4FB6EABA0F1180052F8044B51F804EBBF
:10BF10004FF0000CE4FB6EC540F804CB51F804EB85
:10BF2000E4FB6E5640F8045B51F804EBE4FB6E67EB
:10BF300040F8046B51F804EBE4FB6E7840F8047BA6
:10BF400051F804EBE4FB6E8940F8048B51F804EBE4
:10BF5000E4FB6E9A40F8049B51F804EBE4FB6EABF3
:10BF6000A0E8000C072B6AD008B40C68A0F11C00F4
:10BF7000A1F11C01A2F11C0252F804EB4FF00005E4
:10BF800050F8046BE4FB6E5652F804EB50F8047B57
:10BF9000E4FB6E6752F804EB50F8048BE4FB6E7818
:10BFA00052F804EB50F8049BE4FB6E8952F804EB62
:10BFB00050F804ABE4FB6E9A52F804EB50F804BB63
:10BFC000E4FB6EAB52F804EB50F804CBE4FB6EBC20
:10BFD000A0F11C0052F8044B51F804EB4FF00003A1
:10BFE000E4FB6E3540F8043B51F804EBE4FB6E567D
:10BFF00040F8045B51F804EBE4FB6E6740F8046B17
:10C0000051F804EBE4FB6E7840F8047B51F804EB44
:10C01000E4FB6E8940F8048B51F804EBE4FB6E9A64
:10C0200040F8049B51F804EBE4FB6EAB40F804AB22
:10C0300051F804EBE4FB6EBCA0E8001808BCBDE8B6
:10C04000F08F2DE9F04FB1E8005E06B4AAFB0912AB
:10C050004FF00003EBFB69234FF00004ECFB693465
:10C060004FF00005EEFB69454FF00006EBFB6A63FD
:10C07000ECFB6A344918524176415B41A9FB0978CF
:10C080004FF0000949F1000918EB0108A0E8800110
:10C09000AAFB0A78574158EB0608A0E88001EEFB9E
:10C0A0006A454FF0000A4AF1000A4FF00001ECFB2C
:10C0B0006B14EEFB6B454FF00002EEFB6C255FEA64
:10C0C00059094941644152416D4149F10009EBFB75
:10C0D0006B3A1AEB010AA0E80804ACFB0C6A664153
:10C0E0005AEB020AA0E84004AEFB0E6A6E415AEB1E
:10C0F000090AA0E8400406BC052A00F0E680A0F189
:10C100001400A1F11401B1E8E043A5FB0E344FF097
:10C110000005E6FB6E454FF00006E7FB6E564FF05C
:10C120000007E8FB6E674FF00008E9FB6E784FF000
:10C130000009DB1864416D4176417F4158EB0808E6
:10C1400059F1000950F804CB13EB0C0350F804CB61
:10C1500054EB0C0450F804CB55EB0C0550F804CB11
:10C1600056EB0C0650F804CB57EB0C0758F10008BF
:10C1700059F10009A0F11400EEFB0E89A0E8F803C4
:10C18000062A00F0A280A0F11800A1F11801B1E880
:10C19000E047A5FB0E344FF00005E6FB6E454FF07F
:10C1A0000006E7FB6E564FF00007E8FB6E674FF0A6
:10C1B0000008E9FB6E784FF00009EAFB6E894FF04A
:10C1C000000ADB1864416D4176417F4158EB080855
:10C1D00059EB09095AF1000A50F804CB13EB0C0390
:10C1E00050F804CB54EB0C0450F804CB55EB0C0581
:10C1F00050F804CB56EB0C0650F804CB57EB0C0769
:10C2000050F804CB58EB0C0859F100095AF1000A18
:10C21000A0F11800EEFB0E9AA0E8F807072A54D008
:10C22000A0F11C00A1F11C01B1E8E04FA5FB0E3408
:10C230004FF00005E6FB6E454FF00006E7FB6E563B
:10C240004FF00007E8FB6E674FF00008E9FB6E78DF
:10C250004FF00009EAFB6E894FF0000AEBFB6E9A83
:10C260004FF0000BDB1864416D4176417F4158EB84
:10C27000080859EB09095AEB0A0A5BF1000B50F860
:10C2800004CB13EB0C0350F804CB54EB0C0450F824
:10C2900004CB55EB0C0550F804CB56EB0C0650F8CC
:10C2A00004CB57EB0C0750F804CB58EB0C0850F8B4
:10C2B00004CB59EB0C095AF1000A5BF1000BA0F119
:10C2C0001C00EEFB0EABA0E8F80FBDE8F08F10B538
:10C2D000002253B28B4205DA1BB2002440F82340FF
:10C2E0000132F6E710BD2DE9F0478846B3F9021098
:10C2F0001F460825CB1D202493FBF5F51F319542E1
:10C3000091FBF4F44FFA84F928BF154606464946D6
:10C31000FFF7DDFF2A4630464146FFF78DFCB7F9AF
:10C320000230ED009D4220D9ED1A06EB8401002277
:10C330008E420AD251F8040D20FA05F313430B6024
:10C34000C5F1200300FA03F2F2E7243738463146FC
:10C350004A46FFF777FC012807D0304631463A4677
:10C360004B46BDE8F047FFF7B3BCBDE8F08710B51A
:10C3700000231A465CB28C4204DA50F824400133A0
:10C380002243F7E7B2FA82F0400910BD4A110123B7
:10C3900001F01F0150F822008B401840704701390E
:10C3A000C9B24BB2002B0BDA013111F0FF0315D0EB
:10C3B00059B201F18043013B50F82320002304E0EF
:10C3C00050F82330002BEAD0EEE712B152080133C7
:10C3D000FBE7481E03EB401080B200E0184600B2B5
:10C3E000704730B5002463B2934206DA1BB20134C1
:10C3F00051F8235040F82350F5E730BDF0B50C4616
:10C4000089B008220646FFF7ECFFE36A0393236B2B
:10C410000493636B0593A36B0693E36B0793002769
:10C4200069466A4608236846029701970097FFF716
:10C430001FFC314605466A4608233046FFF718FCC4
:10C44000236B0393636B0493A36B0593E36B0693D6
:10C45000054469466A46082368460797FFF708FCC3
:10C46000314605446A4608233046FFF701FC236A3B
:10C470000093636A0193A36A0293A36B0693E36B31
:10C480000793054431466A460823304605970497CA
:10C490000397FFF7EDFB636A0093A36A0193E36AD6
:10C4A000A26B0293636B039304920693E26B236A7D
:10C4B00005920544079331466A4608233046FFF744
:10C4C000D7FBE36A0093236B0193636B0293236AA8
:10C4D0000693A36A0793054431466A46082330460B
:10C4E000059704970397FFF7F3FB236B0093636BA8
:10C4F0000193A36B0293E36B0393636A0693E36A6E
:10C5000007932D1A31466A4608233046059704974B
:10C51000FFF7DEFB636B0093A36B0193E36B029366
:10C52000236A0393636A0493A36A0593236B0793B7
:10C530002D1A31466A46082330460697FFF7C8FB96
:10C54000A36B0093E36B0193636A0393A36A049361
:10C55000E36A0593636B07932D1A314630466A46AA
:10C56000082302970697FFF7B3FB2D1A16D530461E
:10C5700031460D4A0823FFF77BFB4519F7D410E03D
:10C58000094831460822FFF75DFB012809D03046F3
:10C590003146054A0823FFF79BFB2D1A002DEFD0EB
:10C5A000F5E709B0F0BD00BFECD10700013A30B5A6
:10C5B000D2B2002453B2002B09DB1BB2013A51F86E
:10C5C000235050F823306B401C43D2B2F2E7B4FA48
:10C5D00084F0400930BD00EB81010023884206D27F
:10C5E00051F8042D43EA52030B60D307F6E7704776
:10C5F000F8B5036813F0010506460F46144605D04A
:10C6000001463A462346FFF733FB054630462146AE
:10C61000FFF7E1FF45B104F18042013A56F82230BC
:10C6200043F0004346F82230F8BD70B59DF9104044
:10C630001D4623460646FFF71BFB30B92846314608
:10C640002246FFF7FFFA012807D0304631462A4636
:10C650002346BDE87040FFF73BBB70BD70B59DF948
:10C6600010401D4623460646FFF732FB38B13046E0
:10C6700031462A462346BDE87040FFF7F9BA70BD3F
:10C680002DE9F043A3B09846019112AB414607460D
:10C69000104691460093FFF782FEC0EB881086B2E9
:10C6A000454C33B21C40002CBEBF04F1FF3464F093
:10C6B0001F040134202593FBF5F5EDB26DB2A4B251
:10C6C00002A8294624B2FFF702FE28B202AB002CD2
:10C6D00003EB800010DD00221346434510D259F8C9
:10C6E000235005FA04F10A4340F82320C4F1200244
:10C6F00025FA02F20133F0E749464246FFF771FEA0
:10C700000FFA88F502AB4FEA4509012403EB8505D2
:10C71000330444D40022114653B24B4522DA0DF1C2
:10C72000880E0EEB840E0DF1880C18B25EF888ECC2
:10C730000CEB83035EF820E053F8803CC3EB0E0360
:10C740005B1A734502D08CBF01210021C4F1010E98
:10C750000DF1880C0CEB8E0E01325EF888EC4EF871
:10C760002030D9E7621A544202A841465441FFF7EB
:10C7700032FF22AA08F1FF3302EB830302EB8802A7
:10C78000284652F8801C53F8802C013E42EAC172C0
:10C79000414643F8802CB6B2FFF71DFFB8E722AB45
:10C7A00003EB8404384654F8881C4246FFF719FE10
:10C7B00023B0BDE8F08300BF1F00008070B590B0CB
:10C7C00006469DF950401D4668462346FFF7B0FADD
:10C7D000304669462A462346FFF752FF10B070BD27
:10C7E00030B51C4691B0054693F900306846FFF716
:10C7F0009FFAD4F8AC3028466946984711B030BD4E
:10C8000030B5144691B0054692F900206846FFF70E
:10C8100018FCD4F8AC3028466946984711B030BDB2
:10C820002DE9F04115468AB00446884602A8002149
:10C830002022FBF787FD2E780323204641462A4617
:10C840002F1D76B20293FFF7DBFF2046214602AA96
:10C850003B460096FFF702FF2046214642462B4604
:10C86000FFF7BEFF00962046214605F184023B46B5
:10C87000FFF7DBFE0AB0BDE8F0812DE9F04793F940
:10C88000006092B0044689461046314615469846E7
:10C89000FFF76DFD002840F0978002A84946424608
:10C8A000FFF7AEFF43460AA8214602AAFFF798FF0A
:10C8B00002A801464246FFF7A3FF434648464946C1
:10C8C0002A46FFF78DFF08F104072846294642460D
:10C8D000FFF796FF204621462A463B460096FFF783
:10C8E000A4FE284629462A463B460096FFF79DFEB1
:10C8F000284621462A463B460096FFF7AFFE2046D3
:10C9000021462A464346FFF76BFF2846214622462A
:10C910003B460096FFF789FE20463B46009621469F
:10C920002A46FFF782FE2368DB07204613D53346ED
:10C9300021463A46FFF79CF9314682462046FFF7EA
:10C940004AFE06F18043013B54F8230040EACA70D6
:10C9500044F8230002E03146FFF73DFE2846214619
:10C960004246FFF74DFF284629460AAA3B46009655
:10C97000FFF774FE284629460AAA3B460096FFF7B1
:10C980006DFE0AA801462A463B460096FFF766FE62
:10C99000204621460AAA4346FFF722FF02A8024684
:10C9A0003B4621460096FFF759FE2046294632466F
:10C9B000FFF717FD284649463246FFF712FD484665
:10C9C00002A93246FFF70DFD12B0BDE8F0872DE950
:10C9D000F0438BB08046129D15F9046B0096144607
:10C9E0001F4689462B4602A811464246FFF736FEEF
:10C9F00002A80146129AFFF703FF4046414602AAE9
:10CA0000129BFFF7EDFE2046214602AA129BFFF77C
:10CA1000E7FE2B46384639464A460096FFF71EFE8B
:10CA200002A83946129AFFF7EBFE02A801464246D9
:10CA30002B460096FFF712FE02A8014622462B461F
:10CA40000096FFF70BFE2046214642462B460096F5
:10CA5000FFF704FE484649462246129BFFF7C0FEF8
:10CA60002046414602AA2B460096FFF7F7FD3846BE
:10CA700039462246129BFFF7B3FE384639464A46EE
:10CA80002B460096FFF7EAFD204602A93246FFF743
:10CA9000A8FC0BB0BDE8F083F0B589B01C46074692
:10CAA0000E461546684611461A46FFF7A9FE384657
:10CAB00039466A462346FFF793FE684669462A468A
:10CAC0002346FFF78DFE304631466A462346FFF780
:10CAD00087FE09B0F0BDF0B50646A1B00F46084686
:10CAE000194615461C46FFF742FC20B13046214648
:10CAF000FFF7EDFB73E0684639462246FFF771FC0D
:10CB000008A829462246FFF76CFC10A82146FFF72B
:10CB1000DEFB012318A821461093FFF7D8FB6846D7
:10CB200008A92246FFF78EF8002853D0009BDA07A9
:10CB300004D468462146FFF74EFD26E0089BDB073C
:10CB400004D408A82146FFF746FD3DE000281EDD7D
:10CB500008AA234669466846FFF7BAF868462146A0
:10CB6000FFF739FD10A818A92246FFF76BF8002837
:10CB700005DA10A801462A462346FFF779F810A8DF
:10CB8000014618AA2346FFF7A3F810A81DE008A83D
:10CB90006A4623460146FFF79BF808A82146FFF79F
:10CBA0001AFD18A810A92246FFF74CF8002805DA4C
:10CBB00018A801462A462346FFF75AF818A8014646
:10CBC00010AA2346FFF784F818A829462246FFF743
:10CBD0000FFDA4E7304610A92246FFF702FC21B062
:10CBE000F0BD000000487047E8D107002DE9F04F84
:10CBF000EFB01E46789C059023780493B4F9023078
:10CC000092461F33202293FBF2F3DBB206939DF989
:10CC1000187094F9012007F1FF3926AB002543F87D
:10CC200029506EAB03EB89034EA88B46314643F87F
:10CC3000805C43F8605CFEF7FFFF94F9012056A882
:10CC4000B118FEF7F9FF9DF910604EA83146FFF7C5
:10CC50008EFB8046002840F02F8156A83146FFF712
:10CC600086FB0546002840F0258104F12408404653
:10CC70004EA93A46FEF7E6FF012840F01D814046E6
:10CC800056A93A46FEF7DEFF0128089040F01481CD
:10CC90003B461EA856A94246FFF71DFF0DF1380C72
:10CCA00060465946524623464CF82950CDF80CC0F0
:10CCB000FFF719FBDDF80CC00097604661461EAA1D
:10CCC0004346CDF824C00DF5BC79FFF777FD434608
:10CCD000009716A84EA91EAAFFF770FD48463246D7
:10CCE0000599FFF77EFBB300039309EB030B039A4F
:10CCF000059B584699183246FFF773FB04F144032D
:10CD00001946324636A80793FFF76BFB04EB860102
:10CD100032463EA8443104F1040AFFF762FB49465B
:10CD200000961EA836AA5346FFF798FC4A465B4673
:10CD300036A83EA90094FFF74AFE1EA801463346D6
:10CD40005246FFF7C8FE1EAA484659462346FFF73B
:10CD5000A3FEDDF824C0079B0B936046059B0C9354
:10CD60003946CDF814C00A95CDF83490FFF717FB7B
:10CD70003946054616A8FFF712FBA842B8BF284659
:10CD800085B2DDF814C06F1E3FB260463946FFF72A
:10CD9000FDFA394610F1000916A818BF4FF0010935
:10CDA000FFF7F4FA002814BF0223002343EA09091D
:10CDB0000DF1280B32465BF8297026A83946FFF79B
:10CDC00010FB039B3246F9182EA8FFF70AFB3146E9
:10CDD0001EA8FFF77CFA023D089B1E93AEB237B245
:10CDE000002F44DB23461EAAD4F8A45026A82EA95F
:10CDF000A84739460EA8FFF7C9FA3946051C16A8F8
:10CE000018BF0125FFF7C2FA002814BF0223002330
:10CE10001D430AAB53F8257037B39DF9105036A85F
:10CE200039462A46FFF7DDFA039B3EA8F9182A4641
:10CE3000FFF7D7FA36A83EA91EAA2346FFF72CFE15
:10CE400046A826A936AA53460095FFF707FC36A840
:10CE50003EA926AA2EAB0094FFF7B9FD1EA80146F5
:10CE600046AA2346FFF7BCFC013EB6B2B7E79DF9E0
:10CE700010501EA8014652462B46FFF72CFE2346B3
:10CE800026A82EA91EAAFFF707FE9DF918404046C6
:10CE900026A92246FEF7D6FE012805D026A801467F
:10CEA00042462346FEF714FF26A84EA92A46FFF75E
:10CEB0007DFB02E0404600E028466FB0BDE8F08F01
:10CEC00010B50A44441E914208D014F8013F087876
:10CED000834201D0181A10BD0131F4E7002010BDC3
:10CEE00010B5431E0A44914204D011F8014B03F8D7
:10CEF000014FF8E710BD034613F8012B002AFBD1C0
:10CF0000181A013870470000F8B500BFF8BC08BC1B
:10CF10009E467047F8B500BFF8BC08BC9E467047F7
:10CF200043000000002C002005000000430C991570
:10CF300053354A5C77E772CF4233DA420ABE413159
:10CF4000F455648DD947B9866C852103BB12E1C4C1
:10CF5000C622E66438CAFFE497FBC115FC4BF23CDD
:10CF60001CBF9DEB6DF3DD97379E6506011104FC38
:10CF70000400000000000000021104FC0400000096
:10CF800000000000032104FC040400000000000075
:10CF9000041101FF0100000000000000051102FE65
:10CFA0000400000000000000061104FC0400000062
:10CFB00000000000071104FC040000000000000055
:10CFC000081701FF2200000008D10700091001FF27
:10CFD00001000000A4D107000000000000000000D4
:10CFE00000000000011704FC7000000074D107006D
:10CFF000021704FCB400000044D107000000000048
:10D000000000000000000000982F8A429144377110
:10D01000CFFBC0B5A5DBB5E95BC25639F111F159BB
:10D02000A4823F92D55E1CAB98AA07D8015B8312FD
:10D03000BE853124C37D0C55745DBE72FEB1DE80A9
:10D04000A706DC9B74F19BC1C1699BE48647BEEFD8
:10D05000C69DC10FCCA10C246F2CE92DAA84744A63
:10D06000DCA9B05CDA88F97652513E986DC631A8D9
:10D07000C82703B0C77F59BFF30BE0C64791A7D5B8
:10D080005163CA0667292914850AB72738211B2E40
:10D09000FC6D2C4D130D385354730A65BB0A6A7628
:10D0A0002EC9C281852C7292A1E8BFA24B661AA834
:10D0B000708B4BC2A3516CC719E892D1240699D644
:10D0C00085350EF470A06A1016C1A419086C371EBD
:10D0D0004C774827B5BCB034B30C1C394AAAD84E9B
:10D0E0004FCA9C5BF36F2E68EE828F746F63A578D6
:10D0F0001478C8840802C78CFAFFBE90EB6C50A469
:10D10000F7A3F9BEF27871C601010000010000002A
:10D1100000000000020500002100000000000000E7
:10D1200000000000000000000000000001010000FD
:10D1300004000000000000000000000000000000EB
:10D1400000000000010700007000000074D107001B
:10D1500002010000010000000000000003050000C3
:10D16000410000000000000000000000000000007E
:10D1700000000000011101FF01000000000000009C
:10D18000021702FE640000006CCF0700031704FCC6
:10D19000040000002CD10700000000000000000087
:10D1A0000000000000000000559D0700F99C0700EA
:10D1B000919C0700E59B0700699B0700519C0700B5
:10D1C000159C0700BDA20700000000000100000739
:10D1D00050EADA308883B89F604F15F30000C98E9B
:10D1E000446675546172670008200001FFFFFFFF6D
:10D1F000FFFFFFFFFFFFFFFF000000000000000037
:10D200000000000001000000FFFFFFFF512563FC4C
:10D21000C2CAB9F3849E17A7ADFAE6BCFFFFFFFFB1
:10D22000FFFFFFFF00000000FFFFFFFF96C298D83E
:10D230004539A1F4A033EB2D817D0377F240A4633F
:10D24000E5E6BCF847422CE1F2D1176BF551BF3748
:10D250006840B6CBCE5E316B5733CE2B169E0F7C1B
:10D260004AEBE78E9B7F1AFEE242E34F4B60D227E8
:10D270003E3CCE3BF6B053CCB0061D65BC869876DE
:10D2800055BDEBB3E7933AAAD835C65A7BC8070019
:0CD2900021C80700FDC3070000000000DB
:08D29C00C0AFFF7F010000009C
:10D2A400000000000000000000000000000000007A
:10D2B400000000000000000000000000000000006A
:10D2C40020CF070000000000000000000000000064
:10D2D400000000000000000000000000000000004A
:10D2E400000000000000000000000000000000003A
:10D2F400000000000000000000000000000000002A
:10D304000100000048320020200000000832002004
:10D31400400000002CCF07004000000068320020CD
:10D3240020000000FFFF00000090D00325820700CA
:08D33400018207000000000067
:10D33C000010000000300800B1A50700000000003C
:08D34C0059B8070029B40700DD
:020000020000FC
:020000041000EA
:041014000080070051
:0410180000E00700ED
:040000037000BBFDD1
:00000001FF
