:020000023000CC
:10C00000807F0020E9F6030031F7030033F70300D7
:10C010000000000000000000000000000000000020
:10C02000000000000000000000000000D5E4030054
:10C03000000000000000000037F7030039F703009C
:10C040003BF703003BF703003BF703003BF703001C
:10C050003BF70300000000003BF703003BF7030041
:10C060003BF703003BF703003BF703003BF70300FC
:10C070003BF703003BF703003BF703003BF70300EC
:10C080003BF7030041C503003BF703003BF7030008
:10C09000FDC503003BF7030099F603003BF70300DF
:10C0A0003BF703003BF70300000000000000000026
:10C0B0000000000000000000000000000000000080
:10C0C00010B5064C2378002B07D1054B002B02D06E
:10C0D000044800E000BF0123237010BD702C002035
:10C0E0000000000008F9030008B5084B002B03D03E
:10C0F0000748084900E000BF07480368002B00D14B
:10C1000008BD064B002BFBD09847F9E70000000064
:10C1100008F90300742C0020702C0020000000009F
:10C12000164B002B00D1144B9D46402292029A1AC6
:10C13000924600218B460F461348144A121A00F00B
:10C1400067F80F4B002B00D098470E4B002B00D008
:10C1500098470020002104000D000D48002802D05F
:10C160000C4800E000BF00F02DF82000290002F08C
:10C1700053FA00F011F8C04600000800807F00204C
:10C180000000000000000000702C00209834002007
:10C190000000000000000000084B10B5041C002B3C
:10C1A00002D0002100E000BF054B1868836A002B15
:10C1B00000D09847201C00F033F8C0460000000073
:10C1C000E4F803000E4B70B500251E1C0D4CE41A5C
:10C1D000A410A54204D0AB00F35898470135F8E706
:10C1E00003F072FB084B00251E1C084CE41AA41037
:10C1F000A54204D0AB00F35898470135F8E770BD6D
:10C20000682C0020682C0020682C00206C2C00205A
:10C21000031C8218934202D019700133FAE7704769
:10C22000FEE7C046BFF34F8F024A034BDA60BFF30D
:10C230004F8FFEE70400FA0500ED00E036DF70479F
:10C2400037DF704710B503240723144010D1094B82
:10C250001A604B1CDB009BB2D218074B1A60074BCD
:10C260001C70074B1C70074B1880074B1980231C50
:10C27000181C10BD8C2C0020902C0020972C002026
:10C28000962C0020942C0020982C0020F0B5494BCF
:10C2900087B002921A8801900E1C039309208A42EB
:10C2A00000D284E004ABDF1D00233B70424B042529
:10C2B0005B68DB05DB0D1ED0103BD9B24AB2002A09
:10C2C0000BDA0F220A40083A3C4B92089200D2182F
:10C2D00003230B405268DB0007E092083849C03264
:10C2E0009200525803210B408B40DA40D3B29B0995
:10C2F000DDB2012B0DD0381CFFF7A0FF022801D1C1
:10C3000072B607E0002805D000210A1CFFF78AFF5B
:10C3100000E01D1C2B4B2C492C4A18780B781288F6
:10C32000DBB2C0B20024934201D20133DCB28442BA
:10C330000CD00C780B780021DBB2934201D2013390
:10C34000D9B2214B1970012D03D112E0012D2DD04E
:10C350001F4C62B63878FFF773FF0223021C9A4322
:10C3600003D000210A1CFFF75DFF194B04209C42FB
:10C370001DD0184F029A3B68E5005B191A60019ABC
:10C38000002A10D0002E0ED0039B111C1888124BCF
:10C3900044431868321C001903F085FA3B680020FA
:10C3A0005D19AE8003E00020988000E0042007B013
:10C3B000F0BDC046942C002000ED00E018ED00E038
:10C3C00000E100E0962C0020972C0020982C002003
:10C3D000FFFF00008C2C0020902C002010B510498D
:10C3E000104A0B7812789A4219D00F480B780A78C5
:10C3F0000488D2B2DBB20020944201D90132D0B21B
:10C400000A4A087010880A4A58431268DB0010185C
:10C41000084A1268D31899881B689847DFE710BD4F
:10C42000962C0020972C0020982C0020942C002083
:10C43000902C00208C2C002010B54378827801339A
:10C44000DBB2D21A041C501E8241524213402278A1
:10C4500000209A4205D00B7018236078434360682F
:10C46000C01810BD154B02205968C905C90D24D04C
:10C470001039CBB25AB2002A0BDA0F221A40083A0E
:10C48000C24082400E49521803210B4052688B4033
:10C4900007E092080B4BC0329200D25803230B40A6
:10C4A000DB00DA40D3B29B09DBB20020012B04D0C1
:10C4B000033B5A425A410230801A704700ED00E0B7
:10C4C00018ED00E000E100E08022194B9202DA67EB
:10C4D000D2218022174B520289005A5040395A50BB
:10C4E00001212F225960101C0138C046C046C046A9
:10C4F000C046C046C046C046C046C046C046C0460C
:10C50000C046F1D1996000230B49101C0B60013823
:10C51000C046C046C046C046C046C046C046C046EB
:10C52000C046C046C046C046F1D1044A13707047A9
:10C5300004E100E0001001409C2C0020BC2C0020F5
:10C54000F8B50024234B5C649C64DC641C655C606F
:10C550009C60214B1B68A3423BD02049204A8A584B
:10C5600020490D68551B2D022D0A1A6895421CD3CF
:10C57000AD1AA4181A7CDF69002A12D000261A4AC4
:10C580001E741268B24209D0586999699047B04246
:10C5900007D0311C321CFFF745FE02E05A6998694A
:10C5A0009047002F01D03B1CDFE7104B104A197851
:10C5B00013788B4205D10133DBB2022B00D100236B
:10C5C000137013780B4A9B009C5080220A4B520335
:10C5D0005A60F8BDFC100140A02C00200010014062
:10C5E000040500009C2C0020A42C0020B02C00206E
:10C5F000B12C0020B42C0020FCE100E0F0B5BF48D5
:10C60000BF4A0368BF4989B00493097813789942F7
:10C6100011D00133DBB2022B00D100231370137849
:10C62000B94A9B009958049BCB181B021B0A036054
:10C630000123039301E000210391B44B1B68059390
:10C64000B34B1B780193B34B019A1B68029207937B
:10C65000AA4B1E68B04B1B780693059B02980138C5
:10C66000C2B20292FF2A2DD0029AD400079A14195E
:10C67000227865789542F1D018255543A778013284
:10C680006068D2B2BF1A4519381C471EB8414742EC
:10C690003A402F78022F02D0032FEAD10CE09C46BB
:10C6A0001F1C6D6860460028E3D0AC4500D148E10E
:10C6B0006746F8698446F5E7002BDAD000251D743B
:10C6C000DB69F9E76846944A007E8C4C10708F4D08
:10C6D000039A26602B60002A07D1059A03989B1ABB
:10C6E0005A1E9341DBB29C4622E00020061C002B20
:10C6F0001AD01A68914204D2511A2B601960012392
:10C7000015E0891AB6180022DF681A60DA699446C3
:10C71000002F07D0D861181C049A9F60B21812022B
:10C72000120A5A606346E2E7784A136001339C4676
:10C73000764B1B680293774B029A1B68059323681C
:10C740000393754B1B780693019B013BDBB201936E
:10C75000FF2B6AD0019BD900059B5918002802D0F5
:10C76000031CC06922E00B784C789C42ECD0182462
:10C770005C434D6801332C198D78DBB20B709D4200
:10C7800000D1087026786368151C012E4BD11E7CE1
:10C79000002E48D1A5685D60E5689D602569DD6073
:10C7A00064699C61069C002C00D05E605C68039DFF
:10C7B0005A4F651B2D022D0A9E68BD4202D8AD1945
:10C7C0001D600AE0039D2C1B2402240AA64202D904
:10C7D000361B1E6001E000241C60002401255C6003
:10C7E0001D749C60DC611D1CA2421CD01D68146875
:10C7F000A54204D8651B1560DA611D1C13E0141CEA
:10C8000004922768BD4206D9E669ED1B0494002E08
:10C8100005D0341CF5E77F1B261C2760049C1D6097
:10C82000151CDE61E3612A1C98E7384B1A60029BF5
:10C830009A4203D16346002B00D17DE0002A00D14B
:10C8400078E0374837492D4B0C581B681568364E31
:10C85000E21A1202120A3778033201920290002F74
:10C860001FD18020D1274002BF00C851403FC8518E
:10C87000C02280272D48BF02520087500760012741
:10C880002F200F600138C046C046C046C046C04693
:10C89000C046C046C046C046C046C046C046F1D1AC
:10C8A0003770019AAA4200D22A1CA820D3181B0272
:10C8B0001B0AC0000B50029A1A4D8958091B090225
:10C8C000090A1C1B24020331240AA14234D9144B47
:10C8D000EB582B502F200138C046C046C046C046FA
:10C8E000C046C046C046C046C046C046C046C04618
:10C8F000F1D180220E4B92025A601DE09C2C002048
:10C90000B02C0020B12C0020B42C0020A02C002042
:10C91000A82C0020AC2C0020B22C0020FEFF7F00B1
:10C920000405000000100140BC2C002000E100E0E4
:10C93000FCE100E0FFF7C8FD00220C4B1A7009B0C3
:10C94000F0BDAF4207D1DB69002B04D10120084EB6
:10C95000B0601E1C06902868ED698446FD61002DBC
:10C9600000D186E628686044286082E6B22C002068
:10C9700000100140F7B5032700900D1C141C019313
:10C9800007203A4241D1214E002A01D132603CE0D9
:10C99000FFF79AFD1E4B019A34601A601D4B182256
:10C9A0001F70231C1833191C6A4300206360207019
:10C9B0006070A57008349B188C42F6D18021C0228B
:10C9C000C524FF25144B49031860144B52001870FE
:10C9D000134BA4001870134B99501A59AA433F3DAA
:10C9E0002A431A51A1221960009C0F49D2008C5091
:10C9F000C424A4001D590D4A2A40C0252D022A43F3
:10CA00001A510B4BCA580B4B1A60FEBDAC2C0020C0
:10CA1000A42C0020A82C0020A02C0020B02C00204A
:10CA2000B12C002000E100E000100140FF00FFFFFA
:10CA3000040500009C2C002010B50A4B1C6808233C
:10CA4000002C0CD0013B002A09D0002807D0006838
:10CA50000133047C002C02D1231C41744261181C58
:10CA600010BDC046AC2C0020F0B51D4B051C1E6847
:10CA700085B00820002E30D0002D2ED0013804299A
:10CA80002BD96B690130002B27D06B7C0027012B41
:10CA900000D10F1C01920091FFF7E4FC02ABC00033
:10CAA0003418DE1D201C311CFFF7C6FC031C0420BB
:10CAB000002B12D001220B491A700B4A5D608A5874
:10CAC00000209A60009A1F61DA60019A5A61802200
:10CAD000337852036370054B5A6005B0F0BDC04611
:10CAE000AC2C00200010014004050000FCE100E037
:10CAF000F7B5134B1F680823002F1ED000281CD049
:10CB00004269002A19D000260674051CFFF7AAFC0A
:10CB10006B46C0003C18DF1D201C391CFFF78CFC45
:10CB20000423B04209D08022023B03703B78456069
:10CB30006370044B52035A60331C181CFEBDC04680
:10CB4000AC2C0020FCE100E010B5041C082904D046
:10CB50000020011C021CFFF765FB236860689847F2
:10CB600010BD000007B5044A0090019168460821F5
:10CB7000FFF78CFB0EBDC04649CB030048DF704772
:10CB800011DF704713DF704708B5FFF7F7FF002884
:10CB900003D000210A1CFFF745FBFFF71FFC034BE6
:10CBA0001B78023B022BF0D808BDC046BD2C0020EC
:10CBB00008B5084B1878012803D1012901D10131AA
:10CBC0001970002A04D00021101C0A1CFFF72AFB50
:10CBD00008BDC046BD2C002010B50C4C1C21201CEB
:10CBE00001F044FC002803D000210A1CFFF71AFBC7
:10CBF000201C07491C22002301F028FC002803D038
:10CC000000210A1CFFF70EFB10BDC046DC2C0020E3
:10CC1000C02C002007B50368013301D1002016E0C5
:10CC200001A800F055F9019B1A78012AF6D10022DB
:10CC30005988914205D006490868996800F06CF956
:10CC4000021C019B5888801A42425041C0B20EBD5E
:10CC500008300000844684B0F0B585B01D1C0D93EB
:10CC60006346C4B20A901B0C03A80F1C0B91161C40
:10CC70000C92019300F02CF9002C09D16A46374B35
:10CC80009288FF215A8001229D601A70197140E03C
:10CC9000012C14D16A46314B9288DF605A80F21918
:10CCA00052199A60A5221A705A321A710E9A1E6190
:10CCB0005D619A612A4B1C70FFF78EFF49E0032CDF
:10CCC0000ED1039A254B11781970518892685980BA
:10CCD0009A60AA22DF601A711E615D61A93A18E0AC
:10CCE000022C19D1039A1D4B1178A52905D10022D8
:10CCF0005A809A60FF321A7004E019705188926865
:10CD000059809A60FF221A710022DA601A615A6112
:10CD10000132134B1A70CFE7052C09D101F054F8FA
:10CD2000002803D000210A1CFFF77CFA03220EE042
:10CD3000042C09D10022094B5A809A60FF321A70E4
:10CD4000039A12791A71B7E7062C02D10422044B18
:10CD50001A7005B0F0BC08BC04B01847C02C002005
:10CD6000BD2C00201FB5002101A80C22FFF750FAAE
:10CD7000074B019301F034FB002806D1FF2305493E
:10CD80009B0201A84B6001F04DFB05B000BDC04601
:10CD9000B1CB0300DC2C002010B500F031FA0028E4
:10CDA00005D100F045FF041CFFF7EEFE201C10BD6E
:10CDB00010B5FFF7E5FE002803D000210A1CFFF79D
:10CDC00031FA0D4B1968002301229A40114201D01B
:10CDD0000A48C2670133202BF6D1094C2068FFF7BF
:10CDE000D1FE002803D000210A1CFFF71BFA20689F
:10CDF00000F074F810BDC04600E100E004E100E07E
:10CE00000830000007B501A800F062F8019B01207E
:10CE10001A78A52A04D01879AA3843425841C0B2DA
:10CE20000EBD10B500F02AFC00280BD0642001F0E4
:10CE3000EDF900F095FB002809D000210A1CFFF74E
:10CE4000F1F904E000F0F8FB021EEFD111E000F070
:10CE500015FC002803D000210A1CFFF7E3F900F0BD
:10CE6000CBFB0022041E944203D0111CFFF7DAF919
:10CE7000221C101C10BD10B588B003AC201C002172
:10CE80001422FFF7C5F90223237000230434009312
:10CE900003980ECCFFF7DEFEFFF776FE002008B009
:10CEA00010BD13B5041C01A800F012F8019B1A78FC
:10CEB00022705A8862809A68A2601A792271DA68B0
:10CEC000E2601A6922615A6962619B69A36113BDBC
:10CED000014B03607047C04600FC0300F0B5031C23
:10CEE000186880F308885868FF2464B2EFF305855A
:10CEF000002D01D1A6460047251C061C21273FBA5C
:10CF0000F0B40024002500260027F0B4F92040B238
:10CF10000047C046F0BDC04630B5002A01D0138896
:10CF200000E00B4B051C41188D420FD02C785BBAEA
:10CF30009BB263401A1CDBB21B09534018034340E9
:10CF40009BB2DAB2520153400135EDE7181C30BDF7
:10CF5000FFFF000018DF704770470000F8B50D1C98
:10CF6000141C1E1C012902D003290AD019E0114B00
:10CF70001B78052B15D1104B04201B68002B0DD1FD
:10CF80000FE00C4F3B78022B0BD10C4B5B689847A2
:10CF9000094B3D701B68002B03D0281C211C321C40
:10CFA0009847002C04D00021201C0A1CFFF73AF9F6
:10CFB000F8BDC046EC2C0020E42C0020342D0020CD
:10CFC000012200B5074B89B01A7003AB04321A7006
:10CFD000079A039800920499059A069BFFF73AFE78
:10CFE00009B000BDF82C0020032300B589B003A8C8
:10CFF0000370074B1B884380064B079859689A6853
:10D00000DB6800900398FFF725FE002009B000BD03
:10D01000EA2C0020242D0020012200B589B003ABAA
:10D020001A70084A12885A80074B03981B680093AD
:10D03000064B59689A68DB68FFF70CFE002009B0C0
:10D0400000BDC046EA2C002008300000242D00203E
:10D0500010B588B003AC201C00211422FFF7D8F8CB
:10D060000423237000230434009303980ECCFFF7AD
:10D07000F1FD08B010BD0000022208B509480A4BB6
:10D0800018600A4B1A700A4B1968F0239B02591A50
:10D09000490801F0EBF9002803D000210A1CFFF732
:10D0A000C1F808BDFC2C0020C02D0020EC2C002075
:10D0B00008300000022208B50748084B1860084BEA
:10D0C0001A70084B196801F0D1F9002803D000212B
:10D0D0000A1CFFF7A7F808BDF02C0020C02D002087
:10D0E000EC2C0020C82D002070B5164C164D88B0D1
:10D0F000201CE96801F0BAF9002803D000210A1CBD
:10D10000FFF790F8114B201C5968EA68002301F0E2
:10D110009DF9061E12D103AC311C1422201CFFF70E
:10D1200077F80B4B22691B8826706380EB680398A5
:10D13000E36000926168A268FFF78CFD301C08B0C4
:10D1400070BDC046F02C0020242D0020FC2C0020B7
:10D15000EA2C002038B50F4B08221D78002D17D17E
:10D160000D4C201CFFF7C4FC002803D0291C2A1CEE
:10D17000FFF758F8F021201C00228903FFF774FC08
:10D180000022041E944203D0111CFFF74BF8221C0E
:10D19000101C38BDF82C0020042D0020F0B51F1CF9
:10D1A000032385B0061C0190940868460D1C00936B
:10D1B00002910394FFF7CEFE00281ED080235B016E
:10D1C0009D4212D80123684600930196029503946C
:10D1D000FFF7C0FE002810D1032368460093019694
:10D1E00002950394FFF7B6FE07E0F01BE91B3A1C1B
:10D1F0003B1CFFF7D3FF0028E4D005B0F0BD0000D2
:10D20000F0B5002785B000210C2201A8FFF700F837
:10D210001E4B1F4D01931F4B01A81F701E4B291C55
:10D220001F8001F0FFF81D4E041EBC4201D0377074
:10D2300029E01B4B1A686A601A4A111C81CD81C112
:10D240001968F0239B025B1A5B085B185360164851
:10D25000211C164AFFF7F0FB002803D0211C221CDA
:10D26000FEF7E0FFF021124889030022FFF7FCFBE4
:10D27000002803D000210A1CFEF7D4FF00200D4B2C
:10D2800018600123337005B0F0BDC0465DCF0300C8
:10D29000F02C0020E82C0020EA2C0020EC2C0020B0
:10D2A00008300000FC2C0020E8F80300C1CF030088
:10D2B000042D0020C42D0020014B18607047C0468B
:10D2C000E42C0020284B70B5191C426831CA31C1CA
:10D2D00012680A6019784A0702D506248A0740D1E5
:10D2E00003255868062428423BD19E682E4238D137
:10D2F000DA682A4235D1F02330181C4D82182A6092
:10D3000024199B019E422CD8F02319489B02CE077A
:10D310000AD501685B1A9A4223D8164B164A1A603E
:10D32000164A5A60164A0EE000681B1A5B089A42B9
:10D3300017D8104B134A1A60134A5A608A0701D54E
:10D34000124A00E0124A9A60124B08241B78012B03
:10D3500007D1FFF7FFFE041E03D1064B28681B68A8
:10D360009847201C70BDC046242D0020C82D0020E9
:10D3700008300000342D0020B5D0030051D0030048
:10D3800019D0030079D0030059CF0300E9CF03007F
:10D39000E9D00300EC2C0020F8B5041C0E20002C72
:10D3A0002ED0A36802309B072AD1164B1B78052B81
:10D3B00025D16368144D154F9E002B683A68F31809
:10D3C000934204D901235B422B60043818E0FFF735
:10D3D000C1FE002814D10E4BA1681868321C2B68BE
:10D3E00001F034F800280BD12B680930F6183B689F
:10D3F0002E60F61A731E9E417642304000E00820EF
:10D40000F8BDC046EC2C0020C42D0020C82D002003
:10D41000C02D002070B50C4B1C68002C10D10B4E99
:10D420003378042B0CD10A4D0A48297800F058F9BA
:10D43000002802D10523337003E02C70041C00E0A7
:10D440000824201C70BDC046C42D0020EC2C0020F8
:10D45000E82C0020402D0020F8B5154B1A78032A3F
:10D4600002D0042A02D01BE004221A70114B1C685F
:10D47000002C15D1061CFFF76DFE002812D1736831
:10D480000D4F9D003B785A19802A0DD80B482A1C55
:10D49000C018B16802F007FA3B78ED183D7004E05F
:10D4A000082402E0041C00E00924201CF8BDC0464A
:10D4B000EC2C0020C42D0020E82C0020402D002062
:10D4C00038B50E4C08202378052B16D10C4D0D4B8A
:10D4D0002A681B68082093420FD106232370FFF7A8
:10D4E00039FE002809D1084B29681B68586800F0EC
:10D4F00041F9002801D10723237038BDEC2C00200E
:10D50000C82D0020C42D0020C02D002008B5094BD7
:10D5100008201B78072B0BD10748FFF7E9FA0028F2
:10D5200003D000210A1CFEF77DFE044B9B68984740
:10D5300008BDC046EC2C0020042D0020342D002016
:10D54000062200B589B003AB1A70079A03980092BF
:10D550000499059A069BFFF77DFB09B000BD00000A
:10D56000F0B58DB005A8FFF79CFC089C002C3BD0C3
:10D5700080230B9D5B01E318AB4229D91C4BEE18AD
:10D580001C4B76081B68A34209D3802372005B0101
:10D59000D1185019331CA21AFFF700FE23E0802394
:10D5A00001275B01F31801A80197029303930497E5
:10D5B000FFF7D0FC002816D1802301A85B0101975A
:10D5C000029303930497FFF7C5FC00280BD1DCE717
:10D5D000012301938023A4085B0101A80295039312
:10D5E0000494FFF7B7FC041C201C0DB0F0BDC0462E
:10D5F00000F0FFFF0830000000B58DB005A8FFF770
:10D6000050FC0998002812D0089A0B9B002A05D1DB
:10D61000084B1A68F0239B029B1A5B08D318002260
:10D620008008039001A801920293FFF793FC0DB0CC
:10D6300000BDC0460830000000B58DB005A8FFF75A
:10D6400030FC0998002815D0089A0B9B002A05D1B8
:10D65000094B1A68F0239B029B1A5B08D31803221C
:10D660000192F02280089202049001A80292039392
:10D67000FFF770FC0DB000BD0830000010B58CB095
:10D6800005A8FFF70EFC0898002823D080230B9CE8
:10D690005B01C318A34210D90F4B1B68834218D3F8
:10D6A00080210E4B4901E3185B085A0014195118E8
:10D6B000821A201CFFF772FD0CE0032301938023E4
:10D6C00080085B01049001A802930394FFF742FCD9
:10D6D00000E00E200CB010BD0830000000F0FFFF8D
:10D6E00038B50B2901D8092036E003891B4C0433D7
:10D6F0005B00C3180233C21A5218D2B22270012A38
:10D70000F1D941188B42EED8191C041C144802F0C0
:10D71000CAF8144B144A1988914203D025880B206B
:10D720008D4219D15B88934203D062880B209A42C4
:10D7300012D1002321898B420BD25A00A2185289A0
:10D740000A48824207D00A48013300888242F2D157
:10D7500001E00B2000E0002038BDC046D62D00209F
:10D76000CC2D002080100010FFFF0000FEFF000005
:10D770000C30000008B50022FFF7CEFB021C064962
:10D780004B7808781B020343D31A5A1E93410B208F
:10D790005B42184008BDC046CC2D0020021C4378D7
:10D7A000180293781B04034310781843D3781B06A0
:10D7B0001843704770DF704771DF704773DF704741
:10D7C00074DF704776DF70477ADF70477CDF704721
:10D7D0007FDF704782DF7047A7DF7047A8DF7047A1
:10D7E000A9DF7047AADF704767DF704700B50C28D4
:10D7F00014D801F0A3FF1513131313130913071300
:10D80000130D0B0002200CE003200AE0042008E0C6
:10D81000081F414248410623181A02E0062000E092
:10D82000012000BD002108B50A1CFEF7FBFC08BD65
:10D83000002108B50A1CFEF7F5FC08BD10B5041C54
:10D84000081C0321FFF7D2FF0321021C201C01F05A
:10D8500053FD002803D000210A1CFEF7E3FC10BD95
:10D86000F0B5114B91B09B7901AE02ACB3700F4B88
:10D87000071C0021201C382200253380FEF7C8FC3D
:10D880000223201C2370291C013BA570E770238113
:10D89000E66001F049FAA84203D0291C2A1CFEF7D1
:10D8A000C1FC11B0F0BDC046EC2D002030150000C9
:10D8B00038B50C1C151C03281DD004282AD10029BA
:10D8C00008D0154B1888154B984223D01321FFF729
:10D8D00079FF19E0101C00F02DFC002803D0211C5A
:10D8E000221CFEF79FFC0E4B1B68AB4212D10D4869
:10D8F0000321012206E0081C0121FFF777FF012127
:10D90000021C084801F0F8FC002803D000210A1C82
:10D91000FEF788FC38BDC046602C0020FFFF0000E9
:10D92000DC2D0020EC2D0020F0B52D4B8DB01D78A6
:10D930000193002D51D12B4C291C201C1822FEF7DD
:10D9400067FC294B1E78002E2CD0291C102204A81D
:10D95000FEF75EFC254804A91022254F01F094FF34
:10D96000061E08D10520FFF77BFF012367602370A7
:10D97000267226821EE01D4B08AE029301233371EE
:10D9800003AB089301230420337302AB0A9303977C
:10D99000FFF766FF0223237226332570E660238299
:10D9A000658208E00620FFF75BFF2823267066608B
:10D9B000267223826682201CFFF700FF002803D016
:10D9C00000210A1CFEF72EFC8021A022094BD20563
:10D9D0008903D1500123019A13700DB0F0BDC046E8
:10D9E000D82D0020682E0020D72D0020292E0020C1
:10D9F000222E00200C05000070B5041CAEB001F012
:10DA000083FA8048211C01F0A9FC2388142B00D143
:10DA1000B1E02DD8102B3AD008D8022B00D0EEE080
:10DA2000794B00211888FFF7DFFEB1E0112B3FD0C2
:10DA3000132B00D0E3E0754C02AE211C06A8072290
:10DA400001F031FFE11D301C102201F02CFF211CE0
:10DA50000EAD1831281C1C2201F025FF6A4B8521D0
:10DA600018886B4A08AB0C960B95FFF7B1FE8FE058
:10DA7000512B6CD005D8182B00D18CE0192B49D034
:10DA8000BDE0522B00D186E0552B34D0B7E0A02367
:10DA90008021604ADB05C90399508021043A89033B
:10DAA0009950A288584B1A8000225B4B1A70A6E04E
:10DAB0008023322108AA1380584B80201960A123AB
:10DAC000A021C003DB00C9054F4CC85020880EA917
:10DAD0000123FFF787FE002803D000210A1CFEF770
:10DAE000A1FB4F4B1B78002B01D1FFF71DFF01233A
:10DAF0005B42238083E0A479002C00D07FE0424B7E
:10DB000013211888FFF75EFE002800D177E0211C62
:10DB1000221C6FE0A379002B71D13F4A13703F4B59
:10DB20001A68511E196000290ED10EAC201C142257
:10DB3000FEF76EFB052323702369043400930E98CF
:10DB40000ECCFFF787F85AE0FFF7EEFE57E0A37917
:10DB5000002B54D0A27A043A022A50D80EA9022BE4
:10DB600000D001230B70C1235B008B80264B1888EB
:10DB7000FFF734FE0CE0254AE089538D00219842DE
:10DB800001D1111C1831A08807320023FFF722FEB3
:10DB9000002834D02CE01C4B224D1C88AC422CD0E9
:10DBA000214B201C1B78002B1BD018490822343134
:10DBB0000123FFF715FE021E19D1111C201C0223A0
:10DBC000FFF70EFE021E12D12A1C201C0C21FFF7AB
:10DBD00003FE0222154BC318934310D0082804D12A
:10DBE0000DE0191C1A1CFFF7FBFD021E07D0101CCC
:10DBF00000210A1CFEF716FB01E00822F7E72EB011
:10DC000070BDC046EC2D0020602C0020222E00208C
:10DC10001C2E00200C050000D82D0020642C0020B4
:10DC2000802E0020FFFF0000D72D0020FECFFFFF39
:10DC30000023574A30B51370564A57491370A02332
:10DC40000322DB055A5004315A50A1228021D20010
:10DC5000890399508021C90389B099504F4801F038
:10DC600007FD002800D091E04D48FFF725FB00F0AC
:10DC700025FA051E00D089E04A4800F03BFC01ACC3
:10DC8000002803D10122484B1A7015E0201CFFF731
:10DC900093FD002803D0291C2A1CFEF7C3FA6378E1
:10DCA00000200133211C6370FFF784FD002803D09E
:10DCB00000210A1CFEF7B6FA6A4611233B4D137089
:10DCC000281C01F0F9FD291C82B26846FFF77EFD91
:10DCD000002803D000210A1CFEF7A4FA201C002112
:10DCE0000822FEF795FA0C2300252380DB186380B9
:10DCF0007933FF33201CA580E380FFF765FDA84240
:10DD000003D0291C2A1CFEF78DFA0021201C0C22AE
:10DD1000FEF77EFA08232380254B26486360264BB6
:10DD2000211CA36001F052F9002803D000210A1C35
:10DD3000FEF778FA201C00211C22FEF769FA1F4B1F
:10DD4000002563608023DB01A360032323731C4B46
:10DD5000201C0195E58125746561A36101F094F8AB
:10DD6000A84203D0291C2A1CFEF75CFAE023154ABE
:10DD700011780B400C210B4314318B431370072394
:10DD8000537009339370FFF7CFFD002009B030BD09
:10DD9000802E0020E82D002054070000F9D9030050
:10DDA000B1D80300222E0020D72D0020ECF803006C
:10DDB00041DE0300EC2D002025D80300CD0C00002F
:10DDC00031D803001C2E0020012210B5184B1A7008
:10DDD000184B1888184B984209D01321FFF7F2FC12
:10DDE00000281AD000210A1CFEF71CFA15E0134B7C
:10DDF0001A781C1C002A10D0FFF7E2FC002803D080
:10DE000000210A1CFEF70EFA8021A123A022DB00CC
:10DE10008903D205D1500023237001F06DF800284A
:10DE200003D000210A1CFEF7FDF9002010BDC046FA
:10DE3000802E0020602C0020FFFF0000D82D002045
:10DE4000F0B50B7889B0092B00D924E1051C181C0A
:10DE50000C1C01F07DFC2C00330046000A0013006E
:10DE6000230007010F014A001501FFF729FB0421D8
:10DE7000FFF7BCFC0421021C281C2FE0FFF7A4FFC5
:10DE8000002803D000210A1CFEF7CCF9FFF73EFB67
:10DE9000002800D1FFE0FFF753FBFCE0FFF794FF01
:10DEA0000028F8D000210A1CFEF7BCF9F3E7012294
:10DEB0007A4B1A704B681A78794B14E00226774B2C
:10DEC0001E704B681B78012B00D0E4E0FFF7A2FA2C
:10DED000311CFFF78BFC021C281C311C01F00CFAD2
:10DEE000D3E003226D4B1A70D5E06C4B1E78022EE6
:10DEF0002DD0032E54D0012E00D0CCE004AF002151
:10DF00001022381CFEF784F9654B0C221B7801A8FF
:10DF100000213B70FEF77CF9032202970192237ADD
:10DF20000C2BD9D16468201CFFF738FC7860201DC9
:10DF3000FFF734FCB860201C0830FFF72FFCF860B6
:10DF400001A8FFF7BFF9002800D1A4E0C0E70B7AD1
:10DF50000321194010D05A1A0432D2B29446181C28
:10DF600000276268461C1754F0B26045F8D10133AF
:10DF7000DAB2531A0333237201230493636804A8AB
:10DF80000693237A9B080593FFF766FA002800D1D1
:10DF900081E00221FFF72AFC0221021C281C9DE7D8
:10DFA000087A304203D0281C311C321C96E73D4EC3
:10DFB0000190311C00F096F8011E0FD16168019AA2
:10DFC000306801F070FC019800F0F0F8011E05D1F6
:10DFD00001A9301C00F0F8F8011E01D0281C3EE019
:10DFE00004230493019B04A89B08059333680693BC
:10DFF000FFF7D2F9071E08D12B4A237A11685B1864
:10E0000013603268294B1A6045E009281DD1264B60
:10E01000217A1A6889181960254B1B78002B3AD091
:10E02000244A1388141C013B9BB21380002B32D16D
:10E03000281C01F029F9002803D000210A1CFEF752
:10E04000F1F81D4B1B88238025E0306800F072F842
:10E05000011E02D0281CFFF7F1FB281C391CFFF71A
:10E06000EDFB18E00122124B1A708B88124A1380C4
:10E07000104A03E000230E4A13700F4A13800AE08F
:10E08000094B281C196801F0C5F8002803D00021AD
:10E090000A1CFEF7C7F809B0F0BDC046E82D002005
:10E0A000212E0020E42D0020642E0020DC2D0020F5
:10E0B000602E0020E02D00205E2E00200020064B68
:10E0C000064A1870064B1A60082298605A60D86099
:10E0D0001861586198617047C02F0020842E00207D
:10E0E000A42F002030B50E2200291ED00025104B91
:10E0F0000D605C680A3AAC4217D00832202814D868
:10E100002420DA68013C0132DA601A695C6050430D
:10E110001C68201808600121914098690132014370
:10E12000996107210A401A612A1C101C30BDC046A3
:10E13000A42F0020F7B51C4B061C9A680420002A67
:10E1400030D007215C691868A21A0A40111C2425E6
:10E150004D434519AE420DD10C1C0121A1409869D7
:10E1600041400020996199699F68019159688C46E6
:10E17000391C0CE0072501312940A142E7D11020CC
:10E18000F1E700290CD00722651C01392A4001263D
:10E1900096406546321C019EED196D1A1642F0D06C
:10E1A00099605D60FEBDC046A42F002005490B6943
:10E1B00009685A1E0723134024225343CB181862C0
:10E1C00000207047A42F002030B50E22002818D060
:10E1D000002916D00C4B0A3ADC68002C11D09A6842
:10E1E000013C01329A602422DC605C691D68624354
:10E1F000AA180260126A01340A6007221440002241
:10E200005C61101C30BDC046A42F002082B001907C
:10E21000019B002B12D0019B0948013B019301385F
:10E22000C046C046C046C046C046C046C046C046BE
:10E23000C046C046C046C046F1D1E9E702B07047CB
:10E24000E703000029DF704728DF70470B1C37B554
:10E25000021C181CC9685D688C0019780095034D74
:10E260000C3064595B69A04737BDC046B830002008
:10E2700038B51823184C22785A43A218151C137964
:10E280000835E868012B0DD0032B23D180235B05D3
:10E29000196989B201F066FA104B1B68C018FFF7C4
:10E2A000D3FF12E00D4B6D681B68916992689B0269
:10E2B0004019D21AC918C018094B9A4201D89208BD
:10E2C00001E080225200FFF7BDFF002803D10123A7
:10E2D000A37000E00F2038BDC42F0020C430002000
:10E2E000FF030000F8B5144D061C6F7804200A2FB8
:10E2F00020D02C783C19E4B2092C01D90A3CE4B2B4
:10E30000182044432C19201C0830A261021C2671DD
:10E310000832C0C9C0C2A360069B4360AB78002B23
:10E3200001D0002003E0FFF7A3FF1128F9D06B789C
:10E3300001336B70F8BDC046C42F002038B5264AA3
:10E340009378141C002B45D000219170022808D02E
:10E3500003283FD1182311780D2059435118043157
:10E3600036E0157818226A431C48A21803689268A0
:10E37000013303609B02934219D301606378013B30
:10E3800063706B1CDBB2092B01D92B1C093B23707A
:10E3900018235D436519291D0020FFF757FF00234F
:10E3A00002212B71AB6029616B61AB61EB6063781B
:10E3B000002B0FD0A378002B0CD1FFF759FF0028BA
:10E3C00008D0112806D01823217859436118043148
:10E3D000FFF73CFF38BDC046C42F0020C4300020EA
:10E3E00000230C4A13600C4A137053709370131D72
:10E3F000F4320020022118705860D9601861586109
:10E40000986018339342F4D1044B1860044B1860A1
:10E4100058607047C4300020C42F0020C030002056
:10E42000B830002010B5074C04222368022B07D017
:10E430005A1C0B6022600168034A9B00995000221D
:10E44000101C10BDC0300020B830002037B5CC18EB
:10E450000C43051C1020A40707D11C1C0F38131CEB
:10E4600000940A1C291CFFF73DFF3EBD13B5002296
:10E47000041C0B1C0092211C0320FFF733FF16BD68
:10E4800070B5002821D10D1C09680E2300291AD06F
:10E490000F4CA14210D0631A3B2B09D80B1C4A1E0B
:10E4A0003C33934208D01E78601AC654013BF8E70B
:10E4B000201C3C2201F0F7F9201C3C210022FEF731
:10E4C0002BFD0023A0872B6001E001230B6070BDB2
:10E4D000807F00200323064A5B429E4502D1EFF372
:10E4E000098101E0EFF3088188690238007810475C
:10E4F00081E4030070B50E23002812D00A4C061CDC
:10E500003C21201C0022FEF707FDA58F0B2385422E
:10E5100007D1301C211C3C2201F0C5F90023013534
:10E52000A587181C70BDC046807F002013DF704790
:10E5300060DF704718DF704710B586B0041C0021FB
:10E5400002A81022FDF764FE02230293002C08D0DB
:10E5500002A8FFF7EFFF002803D000210A1CFDF7F7
:10E5600061FEF0208002FFF7E1FF002803D00021C8
:10E570000A1CFDF757FE082015494822154B01F0EB
:10E5800053F8002803D000210A1CFDF74BFE082297
:10E5900068460021FDF73CFE6B4601221B780024F3
:10E5A00013436A46684601941370FFF7C1FFA04207
:10E5B00003D0211C221CFDF735FE074801F062F84C
:10E5C000002803D000210A1CFDF72CFE06B010BD68
:10E5D000E0330020D5F60300DDE5030008B5FFF7C2
:10E5E000ADFE08BD08B508201421054AFDF72AFE36
:10E5F000002803D000210A1CFDF714FE08BDC04608
:10E600009032002008B5031C0A1C0248191CFDF7B3
:10E6100009FE08BDEFBEADDE802270B5544BD205B9
:10E62000D458B13C61424C41E4B2002C01D00021ED
:10E63000D150A02303224F49DB055A5004315A50D0
:10E640004D495A5004315A50F021A1224904D200B8
:10E6500099504A4B1A68F0239B029A4204D000203A
:10E66000011C021CFDF7DEFD80235B051A69802377
:10E67000DB009A4204D00020011C021CFDF7D2FDF1
:10E68000002005213E4A3F4BFEF774F9002803D0D5
:10E6900000210A1CFDF7C6FDA025EA233A4ADB004B
:10E6A000ED05EA50FEF75EFBFEF7ACFB002821D03B
:10E6B0008022364B1204EA50FEF7B3FB002803D049
:10E6C00000210A1CFDF7AEFD01206040FFF734FF7A
:10E6D000FFF788FFFEF7CFFB002803D000210A1CBC
:10E6E000FDF7A0FD8021A123A0220904DB00D205B3
:10E6F000D15005E001206040FFF71EFFFFF772FFD9
:10E70000A023A222DB05D2009A581E1C204DD30262
:10E7100001D5002C0CD080241C4B2404F450FEF7AF
:10E720003BFB00280AD000210A1CFDF77BFD05E019
:10E730002868FEF76FFA002805D1ECE7A123A02294
:10E74000DB00D205D4502868FEF764FA002807D011
:10E75000FEF758FB002803D10D4B1868FEF728FB85
:10E76000BFF34F8F0B4A0C4BDA60BFF34F8FFEE7BE
:10E770001C050000540700005C0700001410001086
:10E78000C830002065CB03000C0003000C0500001E
:10E79000083000000400FA0500ED00E071DF70476A
:10E7A00072DF704779DF70477DDF704765DF704744
:10E7B000F0B50025061C2F1C89B001930EAB10CBC1
:10E7C00004911B88039205932388029333889F4208
:10E7D0003DDA7368B9005918042207A801F063F8FC
:10E7E00006AB07A8D91C0022FFF7E0FF00283DD1A7
:10E7F00006ABDB78039A934225D16A426A410399BA
:10E800002388520059188A1805998A421DDC002D68
:10E8100009D169460133019A097C9BB22380D15406
:10E8200023880133238006ABDD1C2288019B07A8C7
:10E830009A18291CFFF7BAFF002817D12A7801255A
:10E840002388D31823800137C0E70C200EE0002076
:10E8500085420BD02388029A013B9B1A9BB20C3055
:10E86000FF2B03D80020019A0299535409B0F0BD40
:10E87000F0B51C1C85B00AAB80CB03921E88022227
:10E8800000970196231C051CFFF792FF002807D173
:10E8900000970196281C03991022231CFFF788FF7C
:10E8A00005B0F0BDF0B5031C108887B002900020C1
:10E8B0001080586B002814D004780298022800D8E1
:10E8C000EEE10220112508701088013080B210801E
:10E8D0000D541088013080B210800C541088013023
:10E8E00010801C6B002C05D1181C2E300578002DD3
:10E8F00047D01EE01088029E051C1235B54200D993
:10E90000CEE111250D541088013D013080B21080F8
:10E910000D54108801301080201C013C0F30067807
:10E92000158801384E55158801351580A042F6D15D
:10E93000DAE71488029FE61C0C20BE4200D9EBE106
:10E9400002260E55148810300134A4B214800855E4
:10E950001488013D0134A4B214801538032D00D968
:10E96000DAE1281C00F0EAFE02040608002004E0B8
:10E97000012002E00E5501E0032008551088013007
:10E9800010801F1C2D331B78141C0D1C002B03D171
:10E99000BB78002B52D02EE01388029A09330C204A
:10E9A000934200D9B8E104AE301CFFF7F7FE00280F
:10E9B00000D0B1E1082209212388EA5423881332C8
:10E9C00001339BB22380EA54208802AB013080B22D
:10E9D0002080C918153A281800F065FF238832787E
:10E9E00006339BB22380002A00D00122EA542388F8
:10E9F00001332380CCE72388029A04330C2093420E
:10EA000000D989E104AE301CFFF7CCFE002800D00D
:10EA100082E103222388EA542388163201339BB211
:10EA20002380EA542388328801339BB22380EB1879
:10EA30001A70120A5A70238802332380FA78002A47
:10EA400015D023880298D91C814200D928E10221DF
:10EA5000E9542388013901339BB22380E954238888
:10EA60005B189BB22380EA5423885B1823807B6861
:10EA7000002B16D01A7823880298D91C814200D91D
:10EA80000EE10221E9542388083101339BB223802F
:10EA9000E954238801339BB22380EA54238801334D
:10EAA00023803B89002B03D13B8A002B1AD00CE03A
:10EAB000381C029B009401930830022106222B1C73
:10EAC000FFF7D6FE0028EFD026E1381C029B009409
:10EAD00001931030032107222B1CFFF7C9FE0028E9
:10EAE00000D019E13B8B002B0CD0381C029B00940A
:10EAF00001931830142115222B1CFFF7B9FE0028B2
:10EB000000D009E13B6A002B46D022880299944646
:10EB100006320C208A4200D9FEE019880538052902
:10EB200000D8F9E07D4A7E4E8A1892B2B24200D8EF
:10EB3000F2E05A880392052A00D8EDE0774E961944
:10EB4000774AB6B2964200D8E6E0764EB14205D09A
:10EB5000039AB24202D0914200D9DDE0052261461B
:10EB60006A5412212288013292B22280A95422884A
:10EB7000013292B222801988AA181170090A5170C4
:10EB80002288023292B222805988AB181970090A81
:10EB900059702388023323807E6A002E31D0B388D7
:10EBA00021881A1D52189446029A0C20944500D9C7
:10EBB000B2E09A1CFE2A00D9AEE0FF2203336B5468
:10EBC000238801339BB22380EA54238801339BB20C
:10EBD00023803288EB181A70120A5A702388023385
:10EBE0009BB22380B288002A0BD0B1680538002977
:10EBF00000D191E0E81800F056FE2288B388D318BF
:10EC000023803B1C2C331B78002B04D13B78181E2F
:10EC100000D181E03BE0BB6A002B00D17BE0002308
:10EC200003933B1C2C331B78039A9342EED90C20A0
:10EC3000039EBB6A46439E19B3889A1CFE2A6BD872
:10EC400022880333AB541622238801339BB22380DE
:10EC5000EA54238801339BB223803288EB181A7060
:10EC6000120A5A702088023080B22080B288002AAE
:10EC700009D0B16800294ED0281800F014FE22886F
:10EC8000B388D3182380039B0133DBB2C8E73A88EB
:10EC90000720012A40D022880299901C884201D97D
:10ECA0000C2039E0012B05D17B78029902339B18A7
:10ECB0008B42F5D8029E2818023EB61AB3B20293D0
:10ECC0006B4604AE1B89311C3380FFF76DFD0028B5
:10ECD00022D13B78022B05D13388029909228B423D
:10ECE0000AD905E0012B03D17B78029A934201D91E
:10ECF0006B461B89082233803188FE29D0D82388AF
:10ED00000131E954238801339BB22380EA542388DC
:10ED1000C918218000E0072007B0F0BD7FF3FFFF96
:10ED20007DF30000FFFF0000F0B593B06A461F239B
:10ED300001AE971D0D1C33803B80002804D0C378A2
:10ED40005B0711D407201FE0041C3080002D03D086
:10ED5000EB78002BF6D10FE02A1C3D8031783B7810
:10ED6000201CFFF71DFD0FE002A9321CFFF79AFDE2
:10ED700002AC0028EAD007E03A1C281C0AA9FFF7D9
:10ED800091FD0AAA0028E9D013B0F0BD75DF7047E5
:10ED900076DF70477ADF70477BDF704737B5174BF8
:10EDA0001888174B984227D0164A174D13782C1CF9
:10EDB0000133DBB21370297B994208D31349FFF763
:10EDC000E5FF002818D0AB69002B14D114E0002314
:10EDD00013702B7C002B08D03B21FFF7D9FF0028B4
:10EDE00003D0AB69002B00D098476369002B03D098
:10EDF000002201A80270984737BDC0467034002039
:10EE0000FFFF000032340020343400207234002030
:10EE100037B5174B174A5B881188174C174D994225
:10EE20000CD852889A4209D36369002B03D001227F
:10EE300001A80270984700232B7037BD2B78002B58
:10EE400005D06369002BF6D001A80022F1E70C4B36
:10EE50001B78002B01D1616800E0A16809480022FD
:10EE6000FDF702FE0028E6D0A369002BE2D1E2E71D
:10EE70002A3400207234002034340020283400204A
:10EE80003234002050340020144938B5021C0B1CC9
:10EE900032CA32C332CA32C31268114C1A6000221D
:10EEA000104B01681A70201C914213D0083200F0F8
:10EEB000FAFC201CFFF76EFF00280ED10122002172
:10EEC000094B52421A80094B094A0A481970FDF74A
:10EED000B3FD02E0FFF760FFEEE738BD34340020F9
:10EEE0007234002028340020703400203234002096
:10EEF0009DED0300F4F8030008B50248FDF7F8FDA6
:10EF000008BDC0465034002010B50388112B19D01D
:10EF100002D8102B05D041E0122B38D0502B20D036
:10EF20003CE0011C82881E4B16311A801D480822C5
:10EF300000F0B9FC00221C4B1A701C4BDB89934279
:10EF40002CD129E00122164B52421A800022164B86
:10EF500017481A70FDF7CCFD00281FD0134B9B6992
:10EF600011E0124CC188E289914217D1C38B022B68
:10EF700014D10130C37FDB070ED40D48FDF7B8FD77
:10EF800000280BD0A369002B08D0984706E0811D0C
:10EF90000822044800F087FCFFF73AFF10BDC04686
:10EFA000703400202A340020323400203434002011
:10EFB00050340020A0DF7047A2DF7047A5DF704704
:10EFC000A6DF7047A8DF704763DF7047F0B50E24F7
:10EFD00099B0002800D10DE1002900D10AE14B6869
:10EFE000002B00D106E101235B42038002910190D6
:10EFF0008249102208A800F056FC0A21804B06AD79
:10F000002B8004AB08A8C918FFF7DEFF041E00D050
:10F01000F0E0019B01201A1D291CFFF7CBFF041E05
:10F0200000D0E7E0AB78019A11AD9371211C1C224E
:10F03000281CFDF7EDF804222B786C6013432B702D
:10F04000019BEC602C616C61AC619B7904AA9373A9
:10F050006C4B05AF9381211C0322381CFDF7D8F8B7
:10F06000002301223B70103313437B70BB780532C1
:10F070009343043A13430632934308320CAE93434E
:10F080000F3A1343211C1332301CBB70FDF7C0F83C
:10F0900007AB0C931423B381019B348174813461D9
:10F0A00077609888291C321C0833FFF785FF041EFF
:10F0B00000D09FE0211C1C22281CFDF7A9F8082283
:10F0C0002B786C601343921813432B70019BEC60F8
:10F0D0002C616C61AC619B7904AA93734A4B211C2F
:10F0E0009381381C0322FDF793F800230F223B7015
:10F0F0007B78211C93430E3A13430E3213400132A6
:10F1000013437B70BB780A3A9343043A13430632A5
:10F110009343083213430F3A1343301C1332BB702E
:10F12000FDF776F807AB0C931723B381019B34816D
:10F130007481346177609888291C321C1033FFF782
:10F140003BFF041E56D1211C1C22281CFDF760F831
:10F1500002222B786C6013432B70019BEC602C61B6
:10F160006C61AC619B7904AA9373284B211C938139
:10F17000381C0322FDF74CF80F223B78211C9343E7
:10F180000E3A13430E321340013213433B700023F7
:10F190007B70BB780A3A9343043A13430632934395
:10F1A000083293430F3A1343301C1332BB70FDF700
:10F1B0002FF807AB336002233381B381029B748144
:10F1C0003361019B77609888291C321C2033FFF73C
:10F1D000F3FE041E0ED1029B5B680393039A019B0E
:10F1E0009A62029B9B68002B01D0019AD362012294
:10F1F000074B1A70201C19B0F0BDC046F8F8030088
:10F2000030150000321500003115000034150000E3
:10F210007A340020F0B5061C87B00E20002E2AD0CC
:10F220003288164B06389A4225D0154B1B78002B96
:10F2300021D0144C080AE1702071080C090E072334
:10F24000A17169461022012702ADCB8060710021B7
:10F25000281C63702270A770FCF7DAFF338A3088AD
:10F260002B800023AB806B46291C0633AF70AB604C
:10F27000EC60FFF7A5FE07B0F0BDC046FFFF000041
:10F280007A3400207B340020F0B5061C87B00E20B5
:10F29000002E28D03288154B06389A4223D0144BC2
:10F2A0001B78002B1FD01123124D02AC2B700B0AC0
:10F2B000AB700B0CEB706B469F1D05236970090E3C
:10F2C0002971201C002110223B80FCF7A1FF338A0A
:10F2D000308823800123A3700023211CA380A76012
:10F2E000E560FFF76DFE07B0F0BDC046FFFF000010
:10F2F0007A3400207B340020F0B5051C87B00E2046
:10F30000002D23D02C88124B06389C421ED0114B66
:10F310001B78002B1AD0104E1023717069468F1D78
:10F32000032102AC3980B27000211A1C201C3370FA
:10F33000FCF76EFF2B8A288823800123A37000230B
:10F34000211CA380A760E660FFF73AFE07B0F0BD7E
:10F35000FFFF00007A3400207B340020F0B589B034
:10F36000002800D1B1E0002900D1AEE0826A002A75
:10F3700000D1AAE00B88112B1AD004D8102B00D092
:10F38000A3E08B8816E00E1C041C502B02D0512BDE
:10F3900012D09AE0C9880389994200D095E00823E9
:10F3A00004A90B70F38B20360B724E6090478CE0F3
:10F3B00001235B42038088E08A79022A00D084E03E
:10F3C0000A89038A9A4200D07FE08B7A043B022BA1
:10F3D00000D87AE0022301AD0021082204AF281CE6
:10F3E0003B70FCF715FF02232B8000236B806B46DC
:10F3F0006B602088A18A2A1CFFF7E0FD002804D05A
:10F40000E36A002B05D0984703E06B461B78DB07C7
:10F4100007D4FE232088FF33391CBB80FFF7D2FDC1
:10F420004DE0B880391C2088FFF7CCFD002846D17C
:10F43000F31CD97F481E07283DD800F07FF9040E41
:10F440001B1D1F213A2300232B70338C012B02D864
:10F45000201C012108E0012308E001232B70328CDD
:10F460009A4203D8201C0221062226E023362B7262
:10F470006E6019E0022316E0032314E0042312E077
:10F48000052310E0338C022B02D8201C082113E046
:10F49000731DDB7F0436F27F1B021343AB8001D167
:10F4A000073300E006232B70A36A201C291C984711
:10F4B0000BE00923F7E7201C0322FFF71DFF0028BC
:10F4C00003D0E36A002B00D0984709B0F0BD0000DC
:10F4D00010B51B4A1378111C012B19D1194B1B684D
:10F4E0001B0715D1184BE0241A68F023101C184094
:10F4F00022420BD1154A12681A4209D1144A154BFF
:10F500001A608022144B12021A6001E03028F1D0F8
:10F510000B68DBB2012B12D10A4A126812070ED116
:10F52000F021094A12680A40402A08D1074A1268A5
:10F530000A4204D1C1228021D200C9058B5010BDDE
:10F54000E00F00F0E40F00F0E80F00F0EC0F00F027
:10F55000DFFF07C004050040186C00402EDF704735
:10F5600051DF704710DF704761DF704708B5081C36
:10F57000111CFFF747F808BDF0B5264B85B01B7886
:10F58000002B45D0244B254E1D6834686A425541F6
:10F5900062425441EDB2E4B20193002D36D103A88A
:10F5A000FFF7DEFF05280CD0002804D0291C2A1CF8
:10F5B000FCF738FE06E0019B03981B680093984710
:10F5C00000E00125002C1ED1154B03A91B88012446
:10F5D0000B80144B1B68181C0093FFF7C5FF071E18
:10F5E000052F0BD0002805D000210A1CFCF71AFEBD
:10F5F000002403E00098336898473C1C002DCCD0D1
:10F60000002CCAD004E0002D02D1C6E7002CDBD0CC
:10F6100005B0F0BD823400208C34002090340020EE
:10F62000843400208834002038B5041C07200029C9
:10F6300013D08D0711D1094801600949201C0A80A7
:10F64000084A09491360FFF78DFF002805D1012200
:10F65000064B16301A70FFF781FF38BD8834002042
:10F6600084340020943400206DF50300823400209F
:10F670000E23002802D0024B18600023181C70478C
:10F68000903400200E23002802D0024B1860002383
:10F69000181C70478C34002008B5074B1B68002BE2
:10F6A00007D09847002806D000210A1CFCF7BAFDB5
:10F6B00001E0FFF761FF08BD9434002008B5002980
:10F6C00004D00020011C021CFCF7ACFDFFF754FF26
:10F6D00008BD0000002008B5011C024AFCF7D6FD59
:10F6E00008BDC046BDF6030003210A4802680A436C
:10F6F0000260094802680A4302600849084A094B47
:10F700009B1A03DD043BC858D050FBDC06488047F9
:10F7100006480047240500405405004010F9030046
:10F72000002C0020702C0020D1F4030021C1030024
:10F73000FEE7FEE7FEE7FEE7FEE7FEE702B47146FE
:10F7400049084900095C49008E4402BC7047C04624
:10F7500003B47146490840004900095A49008E44E3
:10F7600003BC7047002243088B4274D303098B42C9
:10F770005FD3030A8B4244D3030B8B4228D3030C81
:10F780008B420DD3FF22090212BA030C8B4202D323
:10F790001212090265D0030B8B4219D300E0090A4B
:10F7A000C30B8B4201D3CB03C01A5241830B8B4254
:10F7B00001D38B03C01A5241430B8B4201D34B033D
:10F7C000C01A5241030B8B4201D30B03C01A5241A2
:10F7D000C30A8B4201D3CB02C01A5241830A8B4227
:10F7E00001D38B02C01A5241430A8B4201D34B0210
:10F7F000C01A5241030A8B4201D30B02C01A524174
:10F80000CDD2C3098B4201D3CB01C01A5241830927
:10F810008B4201D38B01C01A524143098B4201D361
:10F820004B01C01A524103098B4201D30B01C01A8C
:10F830005241C3088B4201D3CB00C01A5241830806
:10F840008B4201D38B00C01A524143088B4201D333
:10F850004B00C01A5241411A00D201465241104693
:10F860007047FFE701B5002000F00CF802BDC0466C
:10F870000029F7D003B5FFF775FF0EBC4243891A84
:10F880001847C0467047C04630B50024944208D09F
:10F89000035D651C0C5DA34201D0181B02E02C1C0B
:10F8A000F4E7002030BD002310B5934203D0CC5CB8
:10F8B000C4540133F9E710BD0023C25C0133002AB0
:10F8C000FBD1581E70470000F8B5C046F8BC08BC14
:10F8D0009E467047F8B5C046F8BC08BC9E467047C7
:10F8E00043000000002C0020042D002044667554C5
:10F8F000617267005034002023D1BCEA5F78231581
:08F90000DEEF1212000000000E
:08F9080018C8FF7F0100000098
:10F9100000000000000000000000000000000000E7
:10F9200000000000000000000000000000000000D7
:10F93000E0F80300000000000000000000000000EC
:10F9400000000000000000000000000000000000B7
:10F9500000000000000000000000000000000000A7
:10F960000000000000000000000000000000000097
:10F97000FFFF000032000000E9C00300C1C0030027
:020000020000FC
:020000041000EA
:0410140000C0030015
:040000033000F6E9EA
:00000001FF
