:020000023000CC
:10AC0000807F002081E10300C1E10300C3E1030074
:10AC10000000000000000000000000000000000034
:10AC2000000000000000000000000000C5E103007B
:10AC30000000000000000000C7E10300C9E10300BC
:10AC4000CBE10300CBE10300CBE10300CBE1030048
:10AC5000CBE1030000000000CBE10300CBE10300E7
:10AC6000CBE10300CBE10300CBE10300CBE1030028
:10AC7000CBE10300C9BD0300CBE10300CBE103003E
:10AC8000CBE1030099BE0300CBE10300CBE103005D
:10AC9000C9BF0300CBE10300C9C90300CBE1030036
:10ACA000CBE10300CBE10300000000000000000046
:10ACB0000000000000000000000000000000000094
:10ACC00010B5064C2378002B07D1054B002B02D082
:10ACD000044800E000BF0123237010BD8C2C00202D
:10ACE0000000000090F3030008B5084B002B03D0D0
:10ACF0000748084900E000BF07480368002B00D15F
:10AD000008BD064B002BFBD09847F9E70000000078
:10AD100090F30300902C0020702C00200000000015
:10AD2000164B002B00D1144B9D46402292029A1ADA
:10AD3000924600218B460F461348144A121A00F01F
:10AD400067F80F4B002B00D098470E4B002B00D01C
:10AD500098470020002104000D000D48002802D073
:10AD60000C4800E000BF00F02DF82000290002F0A0
:10AD70003BF900F011F8C04600000800807F002079
:10AD800000000000000000008C2C0020A8380020EB
:10AD90000000000000000000084B10B5041C002B50
:10ADA00002D0002100E000BF054B1868836A002B29
:10ADB00000D09847201C00F033F8C0460000000087
:10ADC00020F003000E4B70B500251E1C0D4CE41A3C
:10ADD000A410A54204D0AB00F35898470135F8E71A
:10ADE00004F010F9084B00251E1C084CE41AA410AE
:10ADF000A54204D0AB00F35898470135F8E770BD81
:10AE0000682C0020682C0020682C00206C2C00206E
:10AE1000031C8218934202D019700133FAE770477D
:10AE2000FEE7C046F0B503888FB0041C112B19D083
:10AE300002D8102B05D03FE0122B35D0502B1FD05D
:10AE40003AE0211C8288C04BC0481A801831082281
:10AE500004F0C8F80022BE4B1A70BE4BDB89934247
:10AE60002AD127E00122B84B52421A800022B84B67
:10AE70001A7002F085FD00281ED0B64B9B690FE0CA
:10AE8000B44DC188EA89914216D1038A022B13D1AD
:10AE9000837CDB070ED402F073FD00280CD0AB6975
:10AEA000002B09D0984707E0211CA8480831082248
:10AEB00004F098F802F090FC2388142B00D1C8E22B
:10AEC0001AD8102B27D009D8022B01D000F0D8FCBB
:10AED000A14B0021188800F05EFEC7E2112B2ED096
:10AEE000132B01D000F0CCFC00229B4B852118884D
:10AEF000131C00F060FEB9E2512B37D004D8502B60
:10AF000000D1B7E200F0BCFC522B00D1A8E2552BD7
:10AF100021D000F0B5FCA0238021904ADB05C903B5
:10AF200099508021043A89039950A2888A4B1A804B
:10AF300002238B4A11689943116000F0A1FC00F0D4
:10AF4000BDFD002801D001F0C1FF0122824B524219
:10AF50001A8000F095FCA379002B01D000F090FC42
:10AF60007D4B1321188800F02CFE7FE2A679002E7D
:10AF700001D100F085FC0AAD281C00211022FFF74A
:10AF800047FF022E01D000F07BFC764B2089998987
:10AF9000884201D000F074FCA27B043A022A01D856
:10AFA00000F06EFC0121AA792E700A43AA71228A50
:10AFB000198A2A81628A00236A81221C1432EA607B
:10AFC00008AA08931680644E07AF3088576000F0D7
:10AFD000EAFD00280FD17B783A781B021343012247
:10AFE000134208D1FE233088FF33291CAB8000F0C8
:10AFF000D8FD00F045FC0026574B291C1888AE8070
:10B0000000F0CFFDB04201D000F03AFC311C281C0A
:10B010000C22FFF7FDFE217D481E052800D915E210
:10B0200003F098F80600CE01DD0187001402EF015D
:10B03000638A4D4E062B02D0301C012107E2E17DD0
:10B040004A4B0802217E5A8809040143A07D1A80D8
:10B050000143607E627D0006014301206A60A960B1
:10B060002870824202D00724022A5ED14048027032
:10B070003F4A1478012C02D0022C13D050E0002952
:10B0800050D080235B0099424ED80027394B2022B4
:10B090003948391C1F70FFF7BBFE384BAA681F6385
:10B0A0009A6342E0032400293FD08A0506D0334A40
:10B0B0003348526D00688A18824236D180220424B7
:10B0C0005201914231D82B4A24191278002A2CD0EF
:10B0D0002A4A2B4D506D2D680F18AF4225D8D46CDD
:10B0E000516494640324106510631A79254D01326C
:10B0F00022401A710022DA802B68234A01332B6028
:10B10000224B023C1B68C018214BC918890A01F068
:10B1100020FB002809D02B680434013B2B6004E09D
:10B12000052402E0032400E00424301C0121221C39
:10B13000A4E303232B700E4B1B78012B2AD0022B88
:10B1400000D17EE037E1C04694340020BC340020BA
:10B150009634002098340020622C00200C0500005A
:10B160005C31002094380020A0380020A82C00205A
:10B17000602C002084340020403500200835002059
:10B180008034002058310020E1CD030064360020D7
:10B19000FF030000C54E0825F26BB36B9A4200D046
:10B1A0000AE1C34B1A780493002A01D0012503E178
:10B1B00001F09AFE0525012800D0FDE0BD4A131CD0
:10B1C00074331978131C002936D07A321278002A89
:10B1D00000D1F1E0B848026841680390002A00D12C
:10B1E000F4E2002900D1F1E2181CDB3000780028DD
:10B1F00005D0181CDC300078002800D0E6E2181CCE
:10B2000084300078002800D1E0E2181C8830006803
:10B21000332800D0DAE28C3318780023834200DB35
:10B22000D4E29F00A34CA54D90372D88E759AF423B
:10B2300000D149E20133F1E71378002B00D1BBE0E4
:10B24000C4E29A4C0825226D636D616CD31A994251
:10B2500000D0B1E00020A36C60646265E36402F09A
:10B26000EFFC002800D0B1E2954F226D3B689A4276
:10B270009CD1944B1B68002B02D001F07BF8F8E7BF
:10B280008C4E0A25331CB9331B78032B16D18A4DFB
:10B290008D4B39682B6020236B608C4B186802F053
:10B2A000A1FB2B1C0125002800D00935186888490E
:10B2B000202203F088FE002800D005256369002BBA
:10B2C00004D0012B00D081E2824B00E0824B012DA3
:10B2D0002ED1321CA1321078032816D802F026FF96
:10B2E00002050B0E01229A6017E0A522A4369A608F
:10B2F0003268626318E0AA229A6012E0AC229A6077
:10B30000321CA432126862630BE0002804D00238B9
:10B310000A25012808D804E00A250436F26FA26045
:10B3200002E00436F26FE260A26C5A603A6802E012
:10B3300000229A605A601A60002120226748FFF7B5
:10B3400067FD6748FF21B222FFF762FD00236548D1
:10B35000236302F075FC00282ED037E2231C7C33D7
:10B360001B78002B00D131E2231DD86FB3689842BF
:10B3700000D22BE2231CE8331B78002B00D025E2FF
:10B380000398514B036020234360101C02F02AFBFA
:10B39000002800D01AE2544D271C2E1CE93708362D
:10B3A0003A78301C514903F01DFEAE643B78EB64E3
:10B3B000402B00D1A0E105254D4804212A1C5DE267
:10B3C000638A4B480221032B41D1A37D627D1B027E
:10B3D0001343454A02215380138001224EE2042385
:10B3E0002B70444B42481B78012B06D0022B00D017
:10B3F000F5E12E4B196D9A6CEEE12C4BD96B1A6C62
:10B40000EAE1638A022B02D0394806211FE00622B6
:10B41000637D2A706B60012B03D00722022B00D0C2
:10B420002AE2344A1370334B1B78012B08D0022BCD
:10B4300000D020E280201D4B40019D6C1E6DF1E18B
:10B4400080201A4B40001D6CDE6BEBE12848032284
:10B4500014E20021A0880A1C0B1C00F0AAFB05E0E6
:10B460000021A0880A1C0B1C00F099FB002800D1C9
:10B4700006E268E5204BE2889B889A4200D0FFE113
:10B480000AAD281C00210C22FFF7C2FC02232B70FE
:10B49000231C123304936B60164B278A1B78AF6012
:10B4A000012B2BD0022B43D0F8E0C04608350020FA
:10B4B0008434002070310020003500200C30000062
:10B4C00080340020583100202C38002064360020C1
:10B4D0002B3200202C350020203500204035002064
:10B4E00064350020F1CD0300A82C00205A32002042
:10B4F000A0380020602C002094380020B94EF46B56
:10B50000B26B3B19934202D9336C0393C9E03019F3
:10B5100004993A1C5C3003F065FDF36BA968686818
:10B52000CC18B14AF46300F019FC03903064B8E021
:10B53000AC4EB36C346D0393AC4B1B78002B00D135
:10B54000AFE080235B009F4200D9AAE0726D3B19F7
:10B5500005939B1A726C934200D9A2E0391C04989F
:10B56000A34A00F0FBFBA34C059BE1883365CB1994
:10B570000390B0642079FF2B0DD89F4B0002081870
:10B5800018183A1C049903F02DFDE388AA68D31813
:10B59000E380059C4DE080256D00974B6D1A0002FD
:10B5A000ADB208182A1C1818049903F01BFD0C9B57
:10B5B000E2885B1B0C930B9BAA1804935D198F4BBD
:10B5C0000B9518688E4D336B217918182B6892B241
:10B5D00001332B60884BE280090203325918921024
:10B5E000884B01F04FF9002805D1E388326B059CA8
:10B5F0009B18336307E02B68746D013B2B60F36C81
:10B6000034650393B36403237A4D0C9A287901308F
:10B61000184000232871EB809A420AD02B1C0002AC
:10B62000503318180B9903F0DDFCEB880C9AD318F3
:10B63000EB80704FFA88002A33D06A4D6B6D296B0E
:10B64000D31A686C5B1883422BD36C4B6C4E186812
:10B6500033680818013333603B1C397950330902D1
:10B66000033259189210674B01F00CF9002804D1ED
:10B670002A6BFB889B182B6307E033686C6D013BDA
:10B680003360EB6C2C650393AB640321594B1A793F
:10B6900001320A401A710022DA8002E000231C1CE9
:10B6A0000393544D6E88002E00D1E9E02B88013BB6
:10B6B0009BB22B80002B00D0E2E05348211C039A60
:10B6C00001F03EFC2E80DBE0231CA13318780A2514
:10B6D000032800D970E602F033FD41FE4DFE040060
:10B6E0000400231C7C331B78002B6FD0231DD86FE4
:10B6F000F36898426AD93DE6039B1F685B68039331
:10B70000002F00D157E603253D4000D053E603F05B
:10B71000FDFA391C0090039A3C48331C03F0FAFAF6
:10B72000002800D147E63A4BA1341D6020780A2555
:10B730001C1C032800D93FE6364B1A1C02F0F6FC0D
:10B740000217081FB0321278B433002A3ED013E03B
:10B75000A8321278002A39D0AC331A682260FF234D
:10B760002D499B025B1A9A4220D9042524E6A23275
:10B770001278002A2AD0A4331B68236016E0A8326E
:10B780001278002A22D01A1CA2321278002A1DD068
:10B790001A1CAC33A43211681A68531823600029AC
:10B7A00001D1032508E6002AFBD0D8E71B481C4935
:10B7B000202203F017FC20680028F2D002F0DAF90A
:10B7C0000028D2D102F03CFA002801D00A25F3E586
:10B7D0000125049B1D70EFE501F0B2FB50E0032151
:10B7E00005224BE008350020483500208434002035
:10B7F00050350020A82C0020F82C002064360020B2
:10B8000058310020E1CD0300A038002024F00300CF
:10B81000803400207031002000AC03002C38002060
:10B820002B320020174B1A88174B9A4228D0174BFF
:10B830001A6801231A4223D06022154C1549227040
:10B840005A3A6270A37000F09DF9033087B239193B
:10B85000301C00F097F93F18BFB23919281C00F0CE
:10B8600091F9021C074BBF1818880B4BBAB2998983
:10B8700000F008F904E005220621084801F092FBD7
:10B880000FB0F0BD622C0020FFFF00005C310020F3
:10B89000853400208834002094380020A03800200F
:10B8A000A6DF70477DDF704773DF704772DF704738
:10B8B000084B5A6E013A5A66002A04D10220064902
:10B8C0000A7882430A701A6E0132042A00D10022DB
:10B8D0001A667047683600204D31002028DF704717
:10B8E00029DF704730B5041C85B00D1C6846002167
:10B8F0001022FFF78DFA237A012B0BD0022B10D1E7
:10B9000001236A4669461370A289E3894A81D31AE2
:10B910000B8106E000236A46137023690293A38A11
:10B9200093816368684601932368291C9B68984744
:10B9300005B030BD38B51C4A516E136E151C002978
:10B9400031D018245C43A418227A012A05D0022A97
:10B9500025D1A089FFF7C2FF15E0211C1031A28A72
:10B96000C988521AFF2A01DC92B201E080225200FB
:10B9700018204343EB18186908335B6889004018A6
:10B980005918FFF7ADFF112807D10221074A137894
:10B990008B4349180B43137005E0002803D0201C8B
:10B9A0000921FFF79FFF38BD683600204D31002088
:10B9B00070B5061C02202A492A4A0B78156E141C01
:10B9C000034240D018236B439818022E02D0032E56
:10B9D00029D042E00021021C234B08321970037A5F
:10B9E000012B02D0022B13D037E0818AC28A8B1A36
:10B9F000FF2B01DC9BB201E080235B009B18182227
:10BA00006A439BB2A218D3828B4226D1002115E053
:10BA1000938801339380D38801339BB2D3801289FA
:10BA20009A421AD10AE0104A13780133DBB2032B91
:10BA300001D8137011E0002308211370FFF752FFA3
:10BA4000FFF736FF09E00424234206D0526EA343D9
:10BA50000B70002A01D003430B70FFF76BFF70BD22
:10BA60004D31002068360020F830002008B501F084
:10BA70002DFA08B5082901D001F028FA03684068BA
:10BA8000984708BDF0B587B06B4602AC061C0F1C8A
:10BA9000DA80201C102200219D1DFFF7B9F9012337
:10BAA000A370054B301C211C2780A560E360FFF7C5
:10BAB000F7FE07B0F0BDC04685340020F0B5022384
:10BAC00000242D4F8DB039681940A14251D106AEE6
:10BAD0001822301CFFF79CF96A460B2301AD5380F6
:10BAE000093B2B7001236B700533AB70033BEB708C
:10BAF000013B2B710D20592368446B71911CA533B8
:10BB0000AB71FFF7CFFE041E16D16B4659880B2987
:10BB100006D84B1CEB710923C9182B7289B204E0BB
:10BB20000C231421EB71043B2B720022C9B2281C98
:10BB3000131CFFF7BBFE041C002C1AD12823301C59
:10BB400034707460347233827482FFF7ADFE002863
:10BB50000ED1A0238021094ADB0589039950802159
:10BB6000043AC903995002233A6813433B6000E04A
:10BB7000041C201C0DB0F0BD5C3100200C05000041
:10BB800013DF7047030A08704B70030C000EC87077
:10BB90008B700420704767DF704763DF7047A9DF51
:10BBA0007047A8DF7047A5DF7047A2DF7047A0DFAE
:10BBB000704786DF70477FDF70477CDF70477ADF32
:10BBC000704776DF704774DF704771DF704770DF52
:10BBD0007047F0B50024CFB001900B781A064B786F
:10BBE0001B041343CA7813438A78043112021343A7
:10BBF0000EAAA3500434402CEFD10FA93FAC4A6BDE
:10BC00000D1F086A2D681326171C2D18101CF741EC
:10BC1000023EF041061C0B687E40920A7240AA1850
:10BC20001E1C1225181CEE410B3DE841051CDB08CB
:10BC300075406B40D318CB630431A142DFD1019B27
:10BC400000261B6D0593019B5B6D0693019B9B6D0D
:10BC50000793019BDB6D0893019B089A1B6E0D9265
:10BC60000993019B079A5B6E02920A93019B9B6E5C
:10BC70000B93019BDB6E0C939C460B9B04930A9BDE
:10BC80000393099B069D059C0EAAB158324A1F1CBE
:10BC9000B258181C89180B22D741053AD041021C12
:10BCA000181C7A401927F84142408A18039F0499CA
:10BCB0001F4099434F40D119029F029A6F402A407A
:10BCC00027405740201C0D22D04161448446201C4F
:10BCD0000B3AD041021C6046504084461622201C7C
:10BCE000D041021C60464240BF180D9A029852187B
:10BCF000791880270D900498043684467F00BE4250
:10BD000007D0039802950393251C0490131C0C1C68
:10BD1000BAE705980918019801650699641807990A
:10BD200044656D18856508980299844601986144B8
:10BD3000C1650999521802660A9A9B180B9A4366C4
:10BD40009446039B0C9A634494468366049B634425
:10BD5000C3664FB0F0BDC04664F0030030B5002AA2
:10BD600002D01368DB4301E001235B4241188842A3
:10BD70000DD002785340082201255C082B4000D0EA
:10BD8000044B013A6340002AF6D10130EFE7D84373
:10BD900030BDC0462083B8ED10B5094A5368002B6A
:10BDA0000BD0002809D1EFF3108372B6054914684F
:10BDB0000C605060002B00D162B6002010BDC04660
:10BDC000D034002000E100E0F0B585B002AB9E1D4C
:10BDD0000023301C337001F09FFD2A4B1D78EDB21B
:10BDE000002D49D1284B1A68002A45D0C221274A84
:10BDF000890051580092CA073ED51D60A123009AC0
:10BE0000DB00D358019302ABDF1D381C3D7001F0FD
:10BE100083FD1F4CA2681F2A00D8551C61680023AF
:10BE20001F2A00D8531CA3608D4204D100211F2D6E
:10BE300000D8691C616069460979A21811746268AA
:10BE4000934201D39B1A01E09B1A2133E2689A4284
:10BE500000D2E3603878FFF79FFFA26800231F2A13
:10BE600000D8531C6268934206D1C2220123009974
:10BE700092008B50074A13603078FFF78DFF05B0B2
:10BE8000F0BDC0464C31002000D1004000D0004041
:10BE9000F830002004D0004070B50024224B5C64D0
:10BEA0009C64DC641C655C609C60204B1B68A34246
:10BEB00039D01F491F4A8A581F490D68551B2D024A
:10BEC0002D0A1A68954219D3AD1AA4181A7CDE6996
:10BED000002A0FD000221A74184A1268002A06D0CD
:10BEE000586999699047002804D000F0EFFF5A691B
:10BEF00098699047002E01D0331CE2E7104B114A9D
:10BF0000197813788B4205D10133DBB2022B00D1B3
:10BF10000023137013780C4A9B00D31880225C63B3
:10BF20000A4B52035A6070BDFC10014018330020C8
:10BF30000010014004050000203300209C32002046
:10BF40001C3300201D330020F8300020FCE100E00D
:10BF500030B50A494C788A78631CDBB2D21A551E78
:10BF6000AA410D785242134000229D4204D0037032
:10BF7000182363434868C218101C30BDD834002011
:10BF8000802238B50C4B9202DA678023D222012539
:10BF90000A4C5B029200A350403AA350656001F046
:10BFA000D9FCA5600024064B1C6001F0D3FC054BB6
:10BFB0003C331C7038BDC04604E100E00010014075
:10BFC00020330020F8300020F0B5A949A94AAA4C36
:10BFD0000878137885B02768A84998420FD00133B4
:10BFE000DBB2022B00D100231370137801229B00D7
:10BFF000CB18586BC3191B021B0A236001E00020F9
:10C00000021C9F4C9F4B24683D311B78097800949B
:10C010009C4C65789D423BD018255D436668013392
:10C02000A478DBB2E41A7519661EB4416442234059
:10C030002C78022C04D0032CEAD1914D2C680BE013
:10C040008F4C6D682668341CB446002CE0D0AC429E
:10C0500008D0A446E469F8E7002C17D0002626741F
:10C06000E469F9E7AC4509D1F469854E3460002CE8
:10C0700004D10121844EB1607F4E346066462C6845
:10C08000ED69F561002DC3D02E6834192C60BFE72F
:10C090007A4C7B4D231C3D3319702968002A02D04D
:10C0A0000022161C17E0009BC91A4B1E9941C9B209
:10C0B0001AE0401A761800211960D9692960D968F8
:10C0C0008C46002907D0F1190902090A5960614616
:10C0D000DA611A1C99602B68002B04D01968884219
:10C0E000E7D2081A186001212B683D3400932378A9
:10C0F0000193002A02D0131CD26922E0614C2378FC
:10C10000607898425BD0182058436568013328183E
:10C11000A578DBB223709D4200D122700478436879
:10C12000012CE6D11C7C002CE3D185685D60C568DC
:10C130009D600569DD60406998610198002800D024
:10C140005C604D485F680068504E3C1A2402240A27
:10C150009D68B44202D864191C6009E0C01B00024B
:10C16000000A854202D92D1A1D6001E000201860E6
:10C170000020012458609860D86141481C7405680B
:10C180008446002D08D01C682F68281CBC420BD8A0
:10C1900060463C1B2C60DD610360AAE7E41BC769B5
:10C1A000051C002F07D0381C0768BC42F6D83F1B7F
:10C1B0000760071C281C1C60DF61C36199E7304BD6
:10C1C000009A1B68934201D100294BD0002B47D025
:10C1D0001B682F4A00932C4C274BA6581B68274DF1
:10C1E0000193F31A1B021B0A03333C3502932B788D
:10C1F0000392002B12D18023C13A5B02FF3AA35075
:10C20000403AA350C02180220127224B92024900CC
:10C210005A501A60276001F09DFB2F70029B009A14
:10C22000934200D2131CA821019AC9009B181B023B
:10C230001B0A6350039A1448A258921B1202120A56
:10C240009E1B36020332360AB2420BD9104BC3583A
:10C25000435001F07FFB80220F4B92025A6001E0B5
:10C26000FFF78EFE0022054B3D331A7005B0F0BD7E
:10C270001D3300201C33002020330020F830002024
:10C2800018330020D834002000100140FEFF7F004A
:10C290000405000000E100E0FCE100E0F0B500244E
:10C2A00085B002ABDD1D0090281C0E1C01922C7085
:10C2B00001F032FB1F4B20491B780988DBB29C46FA
:10C2C0001E4B201C1A78D2B28A4201D20132D0B25F
:10C2D0001B4F3C1C604508D01C781A780020D2B255
:10C2E0008A4201D20132D0B218702878FFF754FD8B
:10C2F0000420BC421BD0134F019A3B68E5005B1938
:10C300001A60009A002A10D0002E0ED00E4B111C7D
:10C3100018880E4B44431868321C001902F062FE64
:10C320003B6800205D19AE8001E00020988005B0D8
:10C33000F0BDC0467D3400207E3400207C340020D7
:10C34000FFFF000024330020543100207834002007
:10C3500007B5064B00901B8801910920072B04D9D3
:10C3600068460821024AFFF799FF0EBD54310020AC
:10C3700073BA030010B5104C104A237812789A4211
:10C3800019D020780E4AC0B21268C300D2180D4BE3
:10C3900091881B8858430C4B1B68181813689847E2
:10C3A0000A4A23781188DBB20022994201D901336D
:10C3B000DAB22270DFE710BD7D3400207C3400202B
:10C3C0002433002054310020783400207E340020B3
:10C3D00038B50C4C0023626E042A10D0236ED3189B
:10C3E000032B00D9043B0132626618225343E41840
:10C3F000051C0021201CFEF70BFD01232C60181CDE
:10C4000038BDC04668360020062108B5044A1378B6
:10C410000B4204D104390B431370FFF78BFA08BDAC
:10C420004D310020094A38B5136801241D1CA5436D
:10C43000002902D10324A34301E002232B4313600C
:10C440004368002B00D0984738BDC04638310020E3
:10C45000F0B5031C186880F308885868FF2464B29C
:10C46000EFF30585002D01D1A6460047251C061CCB
:10C4700021273FBAF0B40024002500260027F0B49D
:10C48000F92040B20047C046F0BD13DF704761DFBE
:10C49000704752DF7047002008B5011C014AFFF7C2
:10C4A000FDFE08BD2DC50300F7B51F4B5D689C68F8
:10C4B0006A425541624254411E1CEDB2E4B2002D65
:10C4C0002FD1337B002B2ED101A8FFF7E2FF0528E7
:10C4D00007D0002801D000F0F9FC01987368984754
:10C4E00000E00125002C19D1337B002B1BD16B46BA
:10C4F0003769991CF389381C0B80FFF7C8FF041EAD
:10C50000052C05D00028E6D1381CB368984700E018
:10C510000124002DD3D0002CD1D004E0002D02D175
:10C52000CDE7002CE0D0F7BD3831002008B5002958
:10C5300001D000F0CBFC034B1B7D002B01D0FFF79B
:10C54000B3FF08BD3831002008B500F0BFFC13B5BB
:10C55000141C6946082200F0C2FF00281BD06B465D
:10C5600059789B7809021B0419436B461B781943C1
:10C570006B46DB781B0619436B461A795B791B0205
:10C5800013436A469279120413436A46D2792160B2
:10C5900012061343636016BD37B501AD141C291C88
:10C5A000042200F09CFF00280AD06B781A02AB78B6
:10C5B0001B0413432A781343EA78120613432360BB
:10C5C0003EBDF7B50F1C01A9061C151C00F039FF74
:10C5D000041E13D0019A0024511C91420ED33F2017
:10C5E0007B788343802B09D03B79994206D8301C55
:10C5F000291C00F074FF019BEC54041C201CFEBDA0
:10C60000F7B50E1C01A9051C141C00F01AFF002828
:10C6100013D0019A0020FF2A0FD8511C8A420CD84F
:10C620003F277378BB43802B07D03379994204D8D6
:10C630002270611C281C00F052FFFEBDF7B50D1CD6
:10C640006946141C00F0CCFE071E2AD0019B009AFC
:10C65000DE0751085B080E43D20701D5F643DB43E2
:10C66000002F1ED02979082902D12660636018E0C6
:10C67000042903D12660321CF0170CE0022903D1F3
:10C68000B1B221800AB205E00020012909D1F1B23E
:10C6900021704AB2D0175840724002435042504174
:10C6A000C0B2FEBD37B50D1C6946141C00F098FEE3
:10C6B000002821D02B79082B04D1009B01982360FE
:10C6C000606011E0042B02D1009B236004E0022B88
:10C6D00004D1009B23809BB2002005E00020012BA9
:10C6E0000AD1009B2370DBB2009A5340019A50405C
:10C6F000184343425841C0B23EBD37B50D1C694690
:10C70000141C00F06DFE002822D02B79082B04D1D8
:10C71000009A019B226063601AE0009DE917042BD8
:10C7200003D125602B1C081C0CE0022B03D1AAB2FC
:10C73000228013B205E00020012B09D1EAB2227059
:10C7400053B2D81741406B400B4358425841C0B2D6
:10C750003EBDF0B587B001920422444E051C3368FB
:10C76000134218D002240A2023427CD10938034303
:10C770003360737D034208D03D4B3E481F1E874205
:10C7800002D33D48834241D3201C012332689A439F
:10C79000131C336067E00E1C021C0224374B384820
:10C7A0001C508027FF00DC59BC46002CF9D0A12486
:10C7B000324FE4003A5164461C59002CFBD000274C
:10C7C0002E4C27508020C00018580028FAD0802313
:10C7D000013EDB00D218002EDFD101988C022C190B
:10C7E000002840D0311C102202A8FEF711FB0123C3
:10C7F00002AA1370019BAD0AA40A0393101C1581B1
:10C800005481311C019B9847301C2CE00320002DE3
:10C81000BBD0AB050620002BB7D13B6801389D4249
:10C82000B3D38BB29B027C68EB189C42ADD38CB225
:10C83000101C002CA9D002A8FFF7CAFD031C07207A
:10C84000002BA2D0029B019A1F605A600222029B19
:10C85000AD0A1A729D811C82FFF7D6FD0123326852
:10C860000020134395E707B0F0BDC04638310020E3
:10C87000742C0020742C0020842C002000E0014047
:10C8800004050000F0B589B0019304233D4D0291E9
:10C890002968041C0B402F1C002B13D002230A20F4
:10C8A00019426DD1093801432960697D014267D081
:10C8B0003549181C354B0E1E9E4261D3344B9942AC
:10C8C0005ED22BE001203349334FC8518020C00095
:10C8D00008580028FAD095008020C000AB4208D04C
:10C8E000029EF6580396E6500E58002EFCD00433F4
:10C8F000F2E70023CB510B58002BFCD00025019808
:10C90000A8423DD004AB1D7004AB05909A81181C61
:10C910000694291C019B9847281C31E003230299A7
:10C92000181C00292CD0002C2AD002990620214363
:10C93000194225D133680138A34221D893B29B0014
:10C940007168E31899421BD395B20138002D17D0B6
:10C9500004A8FFF73DFD031C0720002B10D0049B0B
:10C96000019A1E6001265A60049B029A1E72DA60C8
:10C970001C619D82FFF748FD00203B681E433E601E
:10C9800009B0F0BD38310020742C0020742C002038
:10C99000842C002000E001400405000010B5041CB8
:10C9A00001F01AFA00280BD10122064B5242DA6735
:10C9B000201CFFF76AFD002802D1201CFFF748FD6C
:10C9C00010BDC04604E100E008B5074B9A69002A93
:10C9D00004D09047002806D000F078FA1B7D002B89
:10C9E00001D0FFF761FD08BD3831002060DF7047DE
:10C9F00010DF70472D4B10B51A78012A19D12C4A37
:10CA00001268120715D12B4AE0241168F022081C85
:10CA1000104021420BD128490968114209D1274908
:10CA2000274A11608021274A0902116001E030285D
:10CA3000F1D01A78012A0DD11D490968090709D1D9
:10CA4000F0201C4909680140402903D11A490968AE
:10CA5000014223D01B68DBB2012B25D1144B1B688C
:10CA60001B0721D1134B1A68F0231A40A02A04D1C6
:10CA7000114A12681A4203D016E0D02A14D1F7E7FF
:10CA8000114B1A68012A03D1C022104B1A600BE027
:10CA90000F4A1A601A68012AFCD1F5E7C1218020EB
:10CAA000C900C0054250D5E710BDC046E00F00F0F8
:10CAB000E40F00F0E80F00F0EC0F00F0DFFF07C01C
:10CAC00004050040186C004000EC064014EC0640E1
:10CAD0007593000010B5041C0122236898470028B4
:10CAE00002D0A368013BA36010BDF0B5002593B050
:10CAF000041C06A80495059500F01CFE0295A36889
:10CB0000002B4BD0201C0CA900F09BFC002803D16B
:10CB1000A368002B42D039E00C9B002B3ED00726A7
:10CB2000DA08079D01921E40079B01991A788A42F4
:10CB30002ED006A800F00FFE079B0393AB42F3D163
:10CB4000019B029A934264D30F23079A51780B40BA
:10CB5000082B4FD113780293029A019B934258D32A
:10CB6000A36803930A9B1D68A368002D4DD0039A08
:10CB70009A424AD12B681F68002F73D0201C291CB1
:10CB8000019A331CB847002800D089E0002089E0D2
:10CB90005A780F231340082BCBD03FE0079B06A801
:10CBA0000193089C5D7800F0D6FD0028F6D1302373
:10CBB0001D4204D1079B1B785A1E9341E4180120A3
:10CBC000002C6FD0002361099A008B4205D004A885
:10CBD00082580132DAD10133F6E71F231C400133BA
:10CBE0001C1B213BE3401C1C04AB9B580120A342AF
:10CBF000CCD157E006A800F0AEFD079B0293AB42F4
:10CC0000A2D101235B42029303E0039A9A4200D02F
:10CC100075E7201C311C00F08DFC1FE030231A4208
:10CC20000FD108993F290CD81F224B090A40012136
:10CC300091400A1C9B0004A959580A43039104A976
:10CC40005A50E568002D04D0201C0199321C06AB17
:10CC5000A847201C311C06AA00F098FC002800D030
:10CC60004DE793E79F68019A3B78934218D16A6831
:10CC70000CA8391C00F05EFD6B683F2210932B1C42
:10CC80000C3311937B789343802B01D12B1D109390
:10CC90000123201C2B73311C0CAA00F077FC72E7D7
:10CCA000AD6861E713B0F0BD7FB5031C0A1C684690
:10CCB000191C00F03FFD002806D0684600F026F859
:10CCC000684600F048FDF6E707B000BDF0B585B056
:10CCD0000E1C8D686946071C141C00F0E7FB002839
:10CCE00012D0B06800280FD0302372781340202B68
:10CCF00003D1281C211CFFF7D7FF6846291C221CE2
:10CD0000FFF7F3FE019B7B6005B0F0BD0F2130B54E
:10CD1000426887B05278031C114008291DD103696D
:10CD20001C68002C47D000232373236862689D6829
:10CD30006846291C00F0FEFC63683F220493231C14
:10CD40000C3305936B789343802B01D1231D0493FF
:10CD50006846FFF7DBFFA468E3E73F21101C884328
:10CD6000011E09D130201040102802D15A691170DB
:10CD70000CE092060AD506E080281CD10021186933
:10CD80000160920617D55B69197014E00F215A688B
:10CD900050780140072904D190681969FFF784FF92
:10CDA00009E0916818691279002902D002F01AF995
:10CDB00001E0FEF72DF807B030BDC0465B689A6809
:10CDC000054B9A4206D14268836804490132013B0F
:10CDD0000A604B607047C04664F1030000350020D4
:10CDE000024A1368013B13607047C0465831002067
:10CDF00038B50C4A0C4B0D4C9B1ADB08DB00043396
:10CE00009D18AC4204D02368984708340028F8D015
:10CE1000BFF34F8F064A074BDA60BFF34F8FC04610
:10CE2000FDE7C046842C00208C2C0020882C00209C
:10CE30000400FA0500ED00E070B51E4E042374688E
:10CE4000251C1D4030D1234373601B4B1B491A68BE
:10CE50001B4BC046C046C046C046C046C046C04642
:10CE6000C0468A4200D0C046013BF2D1154B18881B
:10CE7000154B984205D01321FEF7A3FE002810D0D1
:10CE800014E0A3070DD5FEF79EFE00280ED18021E9
:10CE9000A123A022DB008903D205D15006231C4325
:10CEA000746000F06DFD02E0002500E0051C281C08
:10CEB00070BDC04658310020642C00200024F400CE
:10CEC000C0D40100622C0020FFFF0000BFF34F8F91
:10CED000034A044BDA60BFF34F8FC046FDE7C046FC
:10CEE0000400FA0500ED00E070B50E4A0E4C0F4B41
:10CEF000A260261C0E4A9B6BE260002223610D4D4E
:10CF00000D4B7835183663610C4B281C311C1A60A8
:10CF10005A60FFF7C9FE201C291C321C0830FFF79D
:10CF2000E4FD70BD55D303005831002008350020C2
:10CF30006435002064F10300BDCD030000350020FE
:10CF4000F7B5031C1348144C07880820A74220D0CB
:10CF5000124C6568012425421BD00193104B081C1C
:10CF60001D1C60212D35303329705D396970191C05
:10CF7000161CAC70FEF706FE033084B22919301C73
:10CF8000FEF700FE019B2218198892B2381CFEF7AA
:10CF900079FDFEBD622C0020FFFF0000583100200B
:10CFA0005834002038B50C4B041C0C4D188808234D
:10CFB000A8420ED00A4D6D68ED070AD56025094BD1
:10CFC0002D339A701D70597021880322FEF75AFD87
:10CFD000031C181C38BDC046622C0020FFFF000057
:10CFE0005831002058340020A0230322BC49DB051F
:10CFF000F0B55A5004315A50BA4980205A50043181
:10D000005A50A1228021D200890399508021C9035E
:10D01000995080214004090499509850B24A002642
:10D020009950EA22B149D2009950AE22B04DB14B8D
:10D0300089B0281CB04952001E7001F0D3FF2C6843
:10D04000631C06D0AD485821321CFEF787FEA04273
:10D050000ED0AE22281C00215200FDF7D9FE01237C
:10D0600000206B6000F0ECFD002801D0FFF72EFFE0
:10D07000A34B1A6803932B69012B0AD06B69002B11
:10D0800007D0AB699F49A04E5C18A40AA402A4185B
:10D0900001E0141C9D4EB368A52B5AD002D8012B79
:10D0A00005D076E0AA2B60D0AC2B64D071E06B6920
:10D0B0000026012B6ED16B6A2E6B0293B31801937D
:10D0C000029B9E1B8023371CDB009E4200D91F1C45
:10D0D000019801210022FFF73CFB031E57D1019864
:10D0E000211C3A1CFFF7CEFB002850D103230493E8
:10D0F000019B04A80593BB080694079300F0F4FD78
:10D10000021E44D1201C0121FFF723FB00283ED141
:10D110002B6BE419FB182B6300F092FD019BF61BAF
:10D12000DB190193002ECDD1039B02991868321CA4
:10D13000FEF714FEAB6A984204D101232B62029BD6
:10D14000E861AB61704800F06DFD002000F078FDF3
:10D150000FE0201C00F0CAFD041E18D1301C00F0A6
:10D1600061FD201C00F06CFD0EE0201C311C00F065
:10D1700007FE002609E0201C00F0B8FD002806D1BB
:10D18000201C311C00F0FCFD0126002802D00126E5
:10D1900000E00026A223A022DB00D205D358DB0248
:10D1A00011D5534B9A6D012A06D10020986500F0E5
:10D1B00047FD002807D059E7002E04D100F018FDE4
:10D1C000002800D081E0FEF7DBFE5149514B0520DD
:10D1D0004B640023504A4831137053709070516073
:10D1E0004E4A8024111C44310B70111CC525FF26AA
:10D1F00045310B707C304A496403FF301364AD0045
:10D200000C504859B0433F3E30434851A1200C6078
:10D21000444CC0002350043D4E5943483040C02682
:10D220003602304348514149082061581E1C916420
:10D23000111C5031D1643E49F8320A624A1DD3773D
:10D240008A1DD3773B4A0C1C10801422CA843A4AA8
:10D250003A4D171CAD1AED08AE4207D0F300FB584B
:10D260009847002800D001E70136F5E70121344A4C
:10D270001F4D13782E1C0B431370324A324B1A6029
:10D280000422324B1A600022314B1A60AB6B93427E
:10D2900018D0FFF729FE002814D02B6A002B02D1EA
:10D2A000AB69002B06D1F36A002B0BD1B369002BBD
:10D2B00008D0736AA362A06A00F05CFC211C012301
:10D2C0002C310B70FFF756F8FCE7039B1868FFF74B
:10D2D00065FB039B1868FFF761FB301C09B0F0BDCC
:10D2E000540700005C0700000C0500000C00030060
:10D2F00008350020C834002000FC03000C35002055
:10D3000008300000FF0300002C35002020350020ED
:10D310005832002051C30300D8340020D8320020F6
:10D3200000E100E000100140FF00FFFF04050000E5
:10D330005834002054310020842C00208C2C0020F4
:10D340004D310020B1B903003C31002038310020BC
:10D350005831002010B54468A31843600023994257
:10D3600005D0934203D0E05CC8540133F9E70120B3
:10D3700010BD76DF704775DF704737B5164C174B19
:10D380002088251C984225D0A378227C0133DBB26B
:10D39000A3709A4209D3211C2031FFF7ECFF00282B
:10D3A00018D0E369002B14D114E00023A370237D6F
:10D3B000002B08D03B21FFF7DCFF002803D0E369F6
:10D3C000002B00D09847AB69002B03D0002201A8A6
:10D3D0000270984737BDC04694340020FFFF00001C
:10D3E000F0B50024071C0D1C87B003940194BB68A2
:10D3F000002B02D10023029320E004ABDE1D381C79
:10D40000311CFFF767FB02900028F3D07F203678AD
:10D41000019A3040002100F0A7FE039B76B20B4337
:10D420000393019B044307330193002E03DA019B0E
:10D43000462BDCD1DEE7039B2C606B60029807B0C3
:10D44000F0BDF0B5836885B0002B02D100230093B6
:10D4500029E002ABDE1D0191311C041CFFF73AFBF1
:10D4600000900028F2D033785AB21F1C002A18DA34
:10D470007F2213401F1C0725A368002BE6D0201C29
:10D48000311CFFF727FB0028E0D07F2332781340C0
:10D49000AB4052B21F430735002A02DA232DEBD1ED
:10D4A000D4E7019B1F60009805B0F0BDF7B50D1CD7
:10D4B00001A9041CFFF7C5FF002801D100200DE0E1
:10D4C0002B1C221CC2CAC2C312681A60019BAA6824
:10D4D0009A42F3D3AB60A268D31AA360FEBD30B505
:10D4E000041C85B0151C002912D1114B02689A4208
:10D4F0000ED0201C6946102D06D91022FFF7EFFF31
:10D50000002813D0103DF4E72A1CFFF7E8FF0DE0D8
:10D51000A368AB4201D2002008E0201C2A1C23682B
:10D5200098470028F7D0A3685D1BA56005B030BD03
:10D5300055D3030037B5052926D8041C081C00F074
:10D54000F5FD060F1323231F2B787F2B1DD901AD6B
:10D55000201C291C0122FFF7C2FF0028F4D114E08F
:10D56000201C0021082208E0201C01A9FFF769FF08
:10D5700000280AD0201C0021019AFFF7B0FF04E028
:10D58000201C00210422F8E700203EBDF0B5141C49
:10D5900052688BB05378051C9C463F2367469F43D7
:10D5A00002D0402F6CD0BDE063460F2018405F4B87
:10D5B00086000090F658604630230340102B0BD0B5
:10D5C00005D8002B00D0ADE0281C111C09E0202B51
:10D5D0000AD0302B42D0A5E0012362691370281CC9
:10D5E00061682269B0479EE06769022926D1009BE5
:10D5F000042B23D8281C06A9FFF758FF002800D1C8
:10D6000090E0089B0093002B10D061683A784B792A
:10D6100093420BD90B7906A85A4323699A18B0474D
:10D62000002804D03B7801333B70EAE70120079BD8
:10D6300000936B60089B002B75D073E013795279CF
:10D640009C463B78216900209A426CD95A1C3A705A
:10D6500062465343281CCA186168C3E7137862699D
:10D660001370009B072BBAD16368391C1A792069A3
:10D67000FDF7CEFB636821699868FFF715FBAEE7FD
:10D6800027693B1D01933B68002B02D1FFF752FF36
:10D6900049E0022912D106A9FFF708FF002841D06E
:10D6A00006A86168019A3B68984700283AD0089B11
:10D6B0000093002BF4D1079B6B6034E001291DD04F
:10D6C000002914D005292DD103A90422FFF707FF53
:10D6D000042618E0281C191C0122FFF700FF00286F
:10D6E00020D0009B311C1B785BB2002B0DDA03AB02
:10D6F0005B184E1C00930B2EECD113E003A90822FB
:10D70000FFF7EDFE082600280DD0094B089606937A
:10D7100003AB0793002309933B6806A86168019A4D
:10D72000984700E000200BB0F0BDC046A0F2030017
:10D7300055D303000023C2600160416083608B7891
:10D74000D21803230261CB56D21842610878431ED7
:10D750009841C0B2704770B5002443681A78A2425D
:10D7600038D01A1C0C3242601A7BA24204D10168E4
:10D77000C268FFF7DFFF2DE030215A781D79114094
:10D78000302909D15E7B3140302905D19A78016971
:10D79000251C8A1A02610CE00F21141C8C43202CDA
:10D7A00002D15A79554304E03F218A43802A00D1AF
:10D7B000042530225978114202D1826801328260F8
:10D7C00001249A7B0169AA188A180261DB7B5BB28B
:10D7D000D2184261201C70BDF0B5334C85B0638D0A
:10D7E000228C9A420ED8628C9A420BD3A369002BEA
:10D7F00003D0012203A8027098470023303423701D
:10D8000005B0F0BD231C30331B78002B05D0A36975
:10D81000002BF2D003A80022EDE7A378002B01D162
:10D82000A66800E0E668214B5A680193002A35D0CB
:10D830000720042E33D91E4D6B69002B2ED00023F8
:10D840006A7C1F1C012A00D1371C03A8037000F05A
:10D8500063F802ABD81CFEF77BFB0423009300287F
:10D8600010D0033B0370134A134B4560D358019A01
:10D8700083600023436102ABDB78C66053700023F2
:10D880000761009303AB1878FEF786FA009800282A
:10D8900005D18022094B52035A60AEE70820E369A4
:10D8A000002BA9D1A9E7C04694340020D834002029
:10D8B000E03400200010014004050000FCE100E01D
:10D8C0007BDF70477ADF704708B5044B002900D131
:10D8D00019705B68002B00D0984708BDC834002041
:10D8E00008B50A4B0A491A680A4BC046C046C046EA
:10D8F000C046C046C046C046C0468A4200D0C04668
:10D90000013BF2D1FEF736FD08BDC046642C002075
:10D910000024F400A086010070B5EFF3108672B603
:10D92000094B0122D968002908D1084CDA60E26F5E
:10D93000074D2A409A60E567017000E00270002EF2
:10D9400000D162B6002070BDC834002004E100E0C0
:10D95000FC06FFBC084B09491A682F23C046C04685
:10D96000C046C046C046C046C046C0468A4200D0F7
:10D97000C046013BF2D17047642C00200024F40023
:10D98000F7B5164D08206B69002B26D0EB6A002BEB
:10D9900023D02B1C002728331F706B46DE1D301C44
:10D9A0003770FFF7B9FF6B46981DFEF7D1FA0424D4
:10D9B000B84208D0022303702B1C183343606B4617
:10D9C0003C1C9B796B743078FEF7E6F9002C03D190
:10D9D0008022034B52035A60201CFEBDC834002035
:10D9E000FCE100E0002370B59EB0129300220023FA
:10D9F00014921593564B1693564B1793564B1893F8
:10DA0000564B1993564B1A93564B1B93564B1C93DC
:10DA1000564B1D93002902D1041C45181DE0002817
:10DA2000FAD120E0129B227802A9CA540133129342
:10DA3000402B11D1081CFEF7CCF8149A159B0092CC
:10DA400001930098019980220023920012184B4103
:10DA500014921593002312930134AC42E2D1444D49
:10DA6000AC6B002C01D10E206FE08021129A02A82D
:10DA7000531C8154372A06D8382B14D0002202A90F
:10DA8000CA540133F8E73F2B04D8002202A9CA5434
:10DA90000133F8E702A8011CFEF79BF802A8002159
:10DAA0003822FDF7B5F9129902AE4B0FCA0014984F
:10DAB000159912184B41009001913F2102A80918B5
:10DAC0000A703E21100A891908703D21100C89192D
:10DAD000087014921593110E11AA11703B213A206F
:10DAE00089190B708019190A01703920190C8019D5
:10DAF00001701A0E301C10AB311C1A70FEF769F859
:10DB0000231C58070434C01A1D991A18D200D1409A
:10DB100019701C990133D140D9701B99D140D9712A
:10DB20001A99D140D9721999D140D9731899D14015
:10DB3000D9741799D140D97516990091D140D976E9
:10DB4000A342E1D120230020EB631EB070BDC0468C
:10DB500067E6096A85AE67BB72F36E3C3AF54FA57E
:10DB60007F520E518C68059BABD9831F19CDE05BAA
:10DB7000C8340020F8B5184B1C68184B1968184BAE
:10DB8000C918091B0423814224D3164B164D1E6E5F
:10DB9000EC61012E11D1154F9A6DD219920A9202A1
:10DBA000891A0027884202D91E655F6508E01219AC
:10DBB0001F655E65EA61643303E000221A655A65F9
:10DBC00058331C1C051C0021181C0C22FDF720F9E1
:10DBD00000232560181CF8BD083000001410001048
:10DBE00000F4FFFFC834002048360020FF03000087
:10DBF00010B50A4B00201A6E012A0DD1DC6D101CE5
:10DC0000002C09D0064A996D10680022FEF7A6F88C
:10DC1000001B43425841C0B210BDC046C83400206A
:10DC20000830000008B50C220021FDF7F1F80022B1
:10DC3000024B1A675A671A655A6508BDC834002036
:10DC4000F7B5051C234C2378002B02D0FFF748FEC4
:10DC5000F8E70133237065601F4E331C0833DB6F18
:10DC6000042B02D1FFF73CFEF6E71C4D0022281CD6
:10DC70000121FEF76EFD0195021E072AECD0002857
:10DC800003D000230320237022E0201C58214430BD
:10DC9000FEF764F8124D271C2064AE22281C403782
:10DCA0000830391C520001F09DF9331C0833DB6F3A
:10DCB000042B02D1FFF714FEF7E7291C0198083165
:10DCC0005722084BFEF7DEFD0728EED00028D8D1FA
:10DCD000FEBDC046C83400204836002000FC0300CA
:10DCE000C8360020C9D8030018DF70478022F0B57D
:10DCF000214E5201336F87B09A1820490092726FFB
:10DD0000C7185418E41AA40AA402A5086D18AD0A8D
:10DD1000AD02002A02D0002093422AD0AB08019322
:10DD200001230293009B02A80493019B0397059390
:10DD3000FFF7DAFF00281CD103230293009B02A8FF
:10DD40000393019B04970593FFF7CEFF002810D1A2
:10DD5000009B7F195B190093A54201D8641B00E06A
:10DD6000041C736F00201B1B3367FFF769FF002C37
:10DD7000D6D107B0F0BDC046C8340020FF03000074
:10DD8000F0B5134B85B05C6F0B6805191C1B0323A2
:10DD90000093104BA40868460E1C0193029503944F
:10DDA000FFF7A2FF071E06D1301CFFF73BFF381C10
:10DDB000FFF746FF09E0684600211022FDF728F82A
:10DDC000684601950294FFF78FFF05B0F0BDC0468D
:10DDD000C834002000AC03001FB5002110226846A3
:10DDE000FDF716F8022368460093FFF77DFF05B0A4
:10DDF00000BDC046A0230322AD49DB05F0B55A5053
:10DE000004315A50A1228021D200890399508021E7
:10DE100097B0A84DC90306AC9950201C291C0422B8
:10DE200001F0E0F8FFF7D8FF019500284FD1A24894
:10DE3000FDF7A6FE051E4BD1A04AA14BA14F1A60CB
:10DE40004822A14B1A80A14AA14B1A603E68B60431
:10DE5000F60F03D080229F4B9201DA67201C9E4967
:10DE6000FEF7C6FD002805D0002E0BD080239B01B5
:10DE70003B6007E00122994B1A70C5239B00FB58B9
:10DE80005B0201D4FFF722F88021954BC9035A6841
:10DE9000002A00D105E11A680A431A600FAE00217A
:10DEA0001422301CFCF7B4FF002201233261327BC4
:10DEB00033809A4333727372B3728A4B301C03936C
:10DEC000039B0AA90A933273FEF790FD039B051C7E
:10DED000002D00D0E8E0844B844A0AAF1A60112379
:10DEE0000FAE381C0F9575602370FDF76EFE051E92
:10DEF00006D17B78391C01337B70FDF768FE051C69
:10DF0000002D00D0D0E07A4F381C01F074F8391C95
:10DF100082B2201CFDF751FE00280AD10C23338069
:10DF2000DB1873807933FF33301CB580F380FDF745
:10DF300046FE051E00D0B7E0012201276D4B52427C
:10DF40001A806D4B04A9381C6C4A8F700B80FDF74A
:10DF50002EFE00286ED10199201C0431102201F000
:10DF600041F85649201C4A31FDF717FE002861D1BF
:10DF70000FAE0AAC291C1C22301CFCF749FF291CDF
:10DF80001422201CFCF744FF042202AB1D803378CE
:10DF9000311C13433370594B02AA9B786260937310
:10DFA000022393810E333B4353700323937005ABDD
:10DFB0000A931423A381514B221C18883F4B4C33E6
:10DFC000FDF7F3FD051E6FD1291C1C22301CFCF748
:10DFD0001FFF291C1422201CFCF71AFF082102AA8B
:10DFE00015803278ABB20A4349180A433270434A6B
:10DFF00002A992781B0A8A730F2293433B43134072
:10E00000D21913434B7013238B7005AB0A9317235C
:10E01000A3813A4B8F811888284B61605433311C9F
:10E02000221CFDF7C2FD051E3ED1354A13683B4355
:10E03000136001E0051E37D10FAC201C00211C220B
:10E04000FCF7E6FE2F4B304A10938023DB0111933F
:10E0500003232373131C2D49159145CC45C345CC8F
:10E0600045C319602A4B2B481D70FFF729FC002877
:10E0700013D10122284B52421A80284B1D70284B85
:10E080005B68002B0BD0274B1A7C002A07D1264A4D
:10E090001D745D745A61FDF711FD051C04E008252F
:10E0A00002E0084B1960F9E6281C17B0F0BDC04625
:10E0B00054070000C4F2030000AC03004C380020F9
:10E0C0004831002000E100E04631002097C4030001
:10E0D0005031002004E100E049C503004C3100202C
:10E0E000D0340020002C00204031002025AE030059
:10E0F000D8F20300622C002059FEFFFF9438002064
:10E100005C310020CD0C0000983400206DBA030073
:10E11000C4340020B434002094340020963400200D
:10E12000D8340020E03400207BD3030002B47146D1
:10E1300049084900095C49008E4402BC7047C0464A
:10E1400003B47146490840004900095E49008E4405
:10E1500003BC704703B47146490840004900095A9E
:10E1600049008E4403BC70479140031C90409C467C
:10E17000203A9340194352426346D34019437047B3
:10E1800003210A4802680A430260094802680A43F8
:10E1900002600849084A094B9B1A03DD043BC85832
:10E1A000D050FBDCFEF726FCFCF7BAFD240500404E
:10E1B000540500409CF30300002C00208C2C002010
:10E1C000FEE7FEE7FEE7FEE7FEE7FEE7002A03D0F4
:10E1D000013A8B5C8354F9E7704710B5013AD2B22B
:10E1E00053B2002B07DB9B00C458CB589C4204D889
:10E1F000F4D2FF2002E0002000E0012040B210BD78
:10E2000070B50824E31ADB000133041C002003A5C9
:10E210005B1920C940CAAD1920C4184720C940CA9B
:10E22000754120C420C940CA754120C420C940CAD4
:10E23000754120C420C940CA754120C420C940CAC4
:10E24000754120C420C940CA754120C420C940CAB4
:10E25000754120C4404170BD000000000000000076
:10E2600070B50824E31ADB000133002403A5C0467F
:10E270005B1920C940CAAD1B20C0184720C940CA3D
:10E28000B54120C020C940CAB54120C020C940CAFC
:10E29000B54120C020C940CAB54120C020C940CAEC
:10E2A000B54120C020C940CAB54120C020C940CADC
:10E2B000B54120C064416042604170BDF0B55F4629
:10E2C00056464D464446F0B4013B9B0098465B00E1
:10E2D0009946002300240025002601B4002702E00F
:10E2E000370040463F1A9A46A346AC46B646F01B56
:10E2F0001458C859030C80B2250CA4B21E006E43FA
:10E300006343454360431C041B0C00195E412C040D
:10E310002D0C00196E4153465C4665461B1874412E
:10E320000020454176460437474501DCB742DADD37
:10E330000098835123462C46002504364645CDDD02
:10E340004E45CDDD835101BC3CBC90469946A2466A
:10E35000AB46F0BDF0B55F4656464D464446F0B478
:10E36000013A920090465200914600220023002478
:10E37000002501B4002602E02E004046361A9246DF
:10E380009B46A446AE46AF1BCB598859020C80B2BF
:10E390001C0C9BB2150065435A4344435843130475
:10E3A000120CC01855412304240CC0186541524674
:10E3B0005B466446BE4203DA002712186B417C417B
:10E3C000002712186B417C4175460436AE4202DAD2
:10E3D000AF1BBE42D3DD009842511A4623460024AB
:10E3E00004354545C6DD4D45C6DD425101BC3CBC4A
:10E3F00090469946A246AB46F0BD002310B55AB2EE
:10E400008A4205DA0024920001331450DBB2F6E7A9
:10E4100010BDF7B51E1C01910223F15E051CC81D3D
:10E42000C3171F315B0F1B18C817C00E41184911C5
:10E43000DB100091141E9C4200D91C1C6B46002767
:10E44000DF57281C391CFFF7D8FF221C281C019914
:10E45000FFF7BCFE0223F25EE400944220D9A41A26
:10E460000022009B9B00EB18043B191D8D4209D232
:10E470001968081CE04002431A602022121B9140D8
:10E480000A1CF1E72436301C291C3A1CFFF7A5FEB4
:10E49000012805D0281C291C321C3B1CFFF7E0FE7C
:10E4A000F7BD00231A1C10B55CB28C4205DAA4003B
:10E4B000245801332243DBB2F6E75042504110BDED
:10E4C0001F234A1119401E3B8B40920010581840E0
:10E4D000704700000139C9B24BB2002B0ADA0023A1
:10E4E0000131C9B2994213D00A4A49B28A1892003E
:10E4F000125804E09B001B58002BEBD0EFE7002ADA
:10E5000002D052080133FAE70139490159188BB298
:10E5100018B27047FFFFFF3F30B5002463B293424B
:10E5200005DA9B00CD580134C550E4B2F6E730BDA2
:10E53000F0B50C1C00278BB00822051CFFF7ECFF80
:10E54000E36A02A80593236B011C0693636B021C0C
:10E550000793A36B04970893E36B0397099308232E
:10E560000297FFF74DFE291C061C02AA0823281C4F
:10E57000FFF746FE236B86190593636B02A806938B
:10E58000A36B011C0793E36B021C089308230997F4
:10E59000FFF736FE291C361802AA0823281CFFF7AD
:10E5A0002FFE236A36180293636A291C0393A36A19
:10E5B00002AA0493A36B281C0893E36B07970993A3
:10E5C000082306970597FFF71BFE636AA26B029369
:10E5D000A36A06920393E36AE26B0493636B3618B3
:10E5E00005930893236A07920993291C02AA08231A
:10E5F000281CFFF705FEE36A36180293236B291CDB
:10E600000393636B02AA0493236A281C0893A36AEA
:10E6100007970993082306970597FFF721FE236BB9
:10E62000361A0293636B291C0393A36B02AA04930B
:10E63000E36B281C0593636A07970893E36A0697C0
:10E6400009930823FFF70CFE636B361A0293A36B42
:10E65000291C0393E36B02AA0493236A281C0593E5
:10E66000636A08970693A36A0793236B09930823A9
:10E67000FFF7F6FDA36B361A0293E36B281C039396
:10E68000636A291C0593A36A02AA0693E36A0497A6
:10E690000793636B0897019309930823FFF7E0FD45
:10E6A000341A0F4EBC4216DA321D281C291C0823CE
:10E6B000FFF7A6FD0419F7D410E0301D291C08222D
:10E6C000FFF78BFD012809D0321D281C291C0823C7
:10E6D000FFF7C6FD241A002CEFD0F5E70BB0F0BD14
:10E6E000E0F20300002330B5013AD2B254B2002C5C
:10E6F00007DBA4000D590459013A6C402343D2B200
:10E70000F4E75842584130BD002210B58900411845
:10E7100004390B1D984205D20C68630813430B6043
:10E72000E207F5E710BD000070B5141C0268051C77
:10E730000B1C0026D20705D51A1C291C231CFFF729
:10E740005FFD061C281C211CFFF7DEFF002E08D0F1
:10E75000044BE4188023A400281902681B06134305
:10E76000036070BDFFFFFF3F70B500251E1C04ABAA
:10E770005D57041C2B1CFFF743FD002806D1301CFD
:10E78000211C2A1CFFF729FD012805D0201C211C73
:10E79000321C2B1CFFF764FD70BD70B500251E1CDC
:10E7A00004AB5D57041C2B1CFFF75AFD002805D055
:10E7B000201C211C321C2B1CFFF722FD70BD000009
:10E7C000F0B51D1CA7B016AB03900591101C291CB9
:10E7D0000493161CFFF77EFEAB01181A83B2009358
:10E7E0006B460027DF5F3D4BFC17E40EE419641114
:10E7F000E4B23B4004D52027013B7F423B43013339
:10E8000064B29FB2211C06A8FFF7F7FD3BB2A4003B
:10E81000002B11DD06AA14190022111CAF00BA4208
:10E8200010D0B05898400143A1502021B058C91AC7
:10E83000C8400432011CF2E706AB1819311C2A1C2F
:10E84000FFF76AFE01246B000193AF0006ABDB19F2
:10E8500002936B4600229B5E002B36DB0020031CDC
:10E86000019A41B2914216DA04AEA200925989008F
:10E87000565806AA8A58B21AD21AB24202D0964202
:10E880009B415B420126361BB60004AFBE590130E6
:10E890007250C0B2E4E7E41A6242624106AE301C34
:10E8A000291CD4B2FFF730FF6B1EAA009B009259BF
:10E8B0009959D2070A430298291C9A51FFF724FF5D
:10E8C0000098013883B20093C3E704ABA400039817
:10E8D000E1582A1CFFF720FE27B0F0BD1F00008082
:10E8E00070B50024061C1D1C90B014AB1C57684664
:10E8F000231CFFF7E3FC301C69462A1C231CFFF78E
:10E900005FFF10B070BD30B51C1C0023051C91B01A
:10E91000E3566846AC34FFF7D1FC2368281C6946EF
:10E92000984711B030BD30B5141C0022051C91B0C1
:10E93000A2566846AC34FFF70DFD2368281C6946D3
:10E94000984711B030BDF0B5141C8DB0051C0E1CDD
:10E9500004A800212022FCF75BFA03232778281C57
:10E96000311C221C7FB20493FFF7DDFF231D281CFE
:10E97000291C04AA00970393FFF70FFF281C291CEA
:10E98000321C231CFFF7BFFF221C00978432281C77
:10E99000291C039BFFF7E8FE0DB0F0BDF0B5002683
:10E9A00097B0049103939E57051C311C101C141C36
:10E9B000FFF777FD002800D096E006A80499039A97
:10E9C000FFF7B1FF039B0EA8291C06AAFFF79BFFC8
:10E9D00006A8011C039AFFF7A6FF0498039B011CDD
:10E9E000221CFFF790FF201C211C039AFFF79BFFBE
:10E9F000039B281C1F1D291C221C3B1C0096FFF793
:10EA0000B3FE201C211C221C3B1C0096FFF7ACFE11
:10EA1000201C291C221C3B1C0096FFF7BEFE281C54
:10EA2000291C221C039BFFF76EFF201C291C2A1C9B
:10EA30003B1C0096FFF798FE281C3B1C0096291CE7
:10EA4000221CFFF791FE2B68281CDB0713D53A1C0C
:10EA5000331C291CFFF7D4FB311C0590281CFFF741
:10EA600053FE224B059AF3189B00EB181968D20746
:10EA70000A431A6002E0311CFFF746FE201C291CE5
:10EA8000039AFFF750FF201C211C0EAA3B1C009686
:10EA9000FFF783FE201C211C0EAA3B1C0096FFF7EB
:10EAA0007CFE0EA8011C221C3B1C0096FFF775FE85
:10EAB000281C291C0EAA039BFFF725FF06A8021C91
:10EAC0003B1C291C0096FFF768FE281C211C321CE9
:10EAD000FFF722FD201C0499321CFFF71DFD04984E
:10EAE00006A9321CFFF718FD17B0F0BDFFFFFF3F6E
:10EAF000F0B50025141C1E1C8DB0129B02900391D2
:10EB00005D571F1D3B1C04A8111C0095029AFFF7BE
:10EB100044FE04A8011C129AFFF705FF029804AAFC
:10EB2000011C129BFFF7EFFE201C211C04AA129B64
:10EB3000FFF7E9FE3B1C301C311C039A0095FFF7E0
:10EB40002CFE04A8311C129AFFF7EDFE04A8011C4C
:10EB5000029A3B1C0095FFF720FE04A8011C221C12
:10EB60003B1C0095FFF719FE201C211C029A3B1C40
:10EB70000095FFF712FE0398221C011C129BFFF761
:10EB8000C2FE201C029904AA3B1C0095FFF705FE5B
:10EB9000301C311C221C129BFFF7B5FE301C311CAF
:10EBA000039A3B1C0095FFF7F8FD201C04A92A1CC2
:10EBB000FFF7B2FC0DB0F0BDF0B51C1C071C161C15
:10EBC0000D1C89B06846111C1A1CFFF7ACFE381CDE
:10EBD000391C6A46231CFFF796FE68466946321CBC
:10EBE000231CFFF790FE281C291C6A46231CFFF7F4
:10EBF0008AFE09B0F0BDF0B5061CA3B00F1C081CBE
:10EC0000191C151C1C1CFFF74CFC002804D0301CE0
:10EC1000211CFFF7F2FB77E002A8391C221CFFF74A
:10EC20007BFC0AA8291C221CFFF776FC12A8211CD9
:10EC3000FFF7E3FB01231AA8211C1293FFF7DDFB6A
:10EC400002A80AA9221CFFF7C8FA002857D0029B85
:10EC500001930123019A1A4204D102A8211CFFF753
:10EC600053FD27E00A9A01921A4204D10AA8211CF6
:10EC7000FFF74AFD3DE000281EDD02A80AAA011C9C
:10EC8000231CFFF7EDFA02A8211CFFF73DFD12A897
:10EC90001AA9221CFFF7A1FA002805DA12A8011C04
:10ECA0002A1C231CFFF7ACFA12A8011C1AAA231C69
:10ECB000FFF7D6FA12A81DE00AA802AA011C231C1D
:10ECC000FFF7CEFA0AA8211CFFF71EFD1AA812A909
:10ECD000221CFFF782FA002805DA1AA8011C2A1C58
:10ECE000231CFFF78DFA1AA8011C12AA231CFFF798
:10ECF000B7FA1AA8291C221CFFF716FDA0E7301C42
:10ED000012A9221CFFF708FC23B0F0BD0048704791
:10ED1000E0F20300F0B50025EFB01C1C749B0890D6
:10ED20001B7807910493749B099202229B5E4EAF5D
:10ED30001F33DA17D20ED3185B115BB20393013B7A
:10ED40009B000693069A26AB56AED550D5519551E9
:10ED50000122749B211C9A56381CFFF737FA0122B6
:10ED6000749B301C9A56A118FFF730FA10246B469A
:10ED70001C57381C211CFFF794FB0490A84200D0BC
:10ED80001EE1301C211CFFF78CFB049D0590002820
:10ED900000D015E1749B391C2433181C039A04938A
:10EDA000FFF71BFA059D012800D009E10498311CEA
:10EDB000039AFFF712FA059D012800D000E1311CEB
:10EDC0001EA8049A039BFFF716FF069B059A0EAE3A
:10EDD0009A51301C0799099A749BFFF71AFB039B01
:10EDE000301C311C00931EAA049BFFF779FD039B86
:10EDF0005EAD391C009316A8049B1EAAFFF770FD98
:10EE0000281C0899221CFFF787FBA3000693EF1824
:10EE1000069A089B381C9918221CFFF77DFB749BEF
:10EE200036A84433191C221C0993FFF775FB211CDB
:10EE3000749B10318900591804313EA8221CFFF739
:10EE40006BFB749B291C04331EA836AA00940793FD
:10EE5000FFF7A3FC749B2A1C009336A83EA93B1C19
:10EE6000FFF746FE1EA8011C079A231CFFF7C3FEEE
:10EE7000281C1EAA391C749BFFF79EFE059B301CA4
:10EE80000A93099B03990B93089B0D950C93FFF72D
:10EE900021FB0399061C16A8FFF71CFB051CB042BA
:10EEA00000DA351CADB26F1E3FB2391C0EA8FFF759
:10EEB00007FB061C391C701E864116A8FFF700FBD5
:10EEC000431E9841400006430AABB600F65826A8F8
:10EED000311C221CFFF720FB069B2EA8F118221CD8
:10EEE000FFF71AFB1EA8211CFFF787FA0123023D3A
:10EEF0001E93ADB22FB2002F43DB749B1EAAA43326
:10EF00001E6826A8749B2EA9B047391C0EA8FFF7CF
:10EF1000D7FA061C391C701E864116A8FFF7D0FAD6
:10EF2000431E984140000643B6000AABF658002E37
:10EF300025D036A8311C221CFFF7EEFA069B3EA80E
:10EF4000F118221CFFF7E8FA36A83EA91EAA749B06
:10EF5000FFF732FE46A826A936AA079B0094FFF7C2
:10EF60001CFC749B36A800933EA926AA2EABFFF783
:10EF7000BFFD1EA8011C46AA749BFFF7C4FC013DFF
:10EF8000B7E71EA8011C079A231CFFF734FE26A82A
:10EF90002EA91EAA749BFFF70FFE049826A9039AB8
:10EFA000FFF71BF9012805D026A8011C049A039B32
:10EFB000FFF756F926A84EA9221CFFF793FB051C64
:10EFC000281C6FB0F0BD30B50024944208D0035D1A
:10EFD000651C0C5DA34201D0181B02E02C1CF4E759
:10EFE000002030BD002310B5934203D0CC5CC45444
:10EFF0000133F9E710BD0023C25C0133002AFBD1C5
:10F00000581E7047F8B5C046F8BC08BC9E4670470D
:10F01000F8B5C046F8BC08BC9E46704743000000E7
:10F02000002C0020430C991553354A5C77E772CFCA
:10F030004233DA420ABE4131F455648DD947B9866C
:10F040006C852103BB12E1C4C622E66438CAFFE422
:10F0500097FBC115FC4BF23C1CBF9DEB6DF3DD979C
:10F06000379E6506982F8A4291443771CFFBC0B511
:10F07000A5DBB5E95BC25639F111F159A4823F9283
:10F08000D55E1CAB98AA07D8015B8312BE853124DC
:10F09000C37D0C55745DBE72FEB1DE80A706DC9B9D
:10F0A00074F19BC1C1699BE48647BEEFC69DC10F49
:10F0B000CCA10C246F2CE92DAA84744ADCA9B05C85
:10F0C000DA88F97652513E986DC631A8C82703B048
:10F0D000C77F59BFF30BE0C64791A7D55163CA0656
:10F0E00067292914850AB72738211B2EFC6D2C4D62
:10F0F000130D385354730A65BB0A6A762EC9C28150
:10F10000852C7292A1E8BFA24B661AA8708B4BC2E5
:10F11000A3516CC719E892D1240699D685350EF40F
:10F1200070A06A1016C1A419086C371E4C774827C6
:10F13000B5BCB034B30C1C394AAAD84E4FCA9C5B3C
:10F14000F36F2E68EE828F746F63A5781478C8848D
:10F150000802C78CFAFFBE90EB6C50A4F7A3F9BE6F
:10F16000F27871C6011104FC0400000000000000E8
:10F17000021104FC0400000000000000032104FC54
:10F180000404000000000000041101FF0100000061
:10F1900000000000051102FE040000000000000055
:10F1A000061104FC0400000000000000071104FC2C
:10F1B0000400000000000000081701FF220000000A
:10F1C00000F20300091001FF010000009CF203009F
:10F1D000000000000000000000000000011704FC17
:10F1E000700000006CF20300021704FCB400000081
:10F1F0003CF20300000000000000000000000000DE
:10F2000001010000010000000000000002050000F4
:10F2100021000000000000000000000000000000CD
:10F2200000000000010100000400000000000000D8
:10F2300000000000000000000000000001070000C6
:10F24000700000006CF203000201000001000000E9
:10F250000000000003050000410000000000000065
:10F26000000000000000000000000000011101FF8C
:10F270000100000000000000021702FE6400000010
:10F2800064F10300031704FC0400000024F20300EF
:10F29000000000000000000000000000000000006E
:10F2A000FBC60300A5C603003DC6030099C50300C5
:10F2B0004FC5030001C60300C3C50300CDCC030046
:10F2C000000000000100000750EADA308883B89F90
:10F2D000604F15F30000C98E446675546172670073
:10F2E00008200001FFFFFFFFFFFFFFFFFFFFFFFF01
:10F2F000000000000000000000000000010000000D
:10F30000FFFFFFFF512563FCC2CAB9F3849E17A714
:10F31000ADFAE6BCFFFFFFFFFFFFFFFF00000000AC
:10F32000FFFFFFFF96C298D84539A1F4A033EB2D1B
:10F33000817D0377F240A463E5E6BCF847422CE107
:10F34000F2D1176BF551BF376840B6CBCE5E316B4B
:10F350005733CE2B169E0F7C4AEBE78E9B7F1AFE0F
:10F36000E242E34F4B60D2273E3CCE3BF6B053CC5B
:10F37000B0061D65BC86987655BDEBB3E7933AAAF7
:10F38000D835C65A9DE9030047E9030031E503007B
:04F390000000000079
:08F394008CB9FF7F01000000AD
:10F39C000000000000000000000000000000000061
:10F3AC000000000000000000000000000000000051
:10F3BC001CF0030000000000000000000000000032
:10F3CC000000000000000000000000000000000031
:10F3DC000000000000000000000000000000000021
:10F3EC000000000000000000000000000000000011
:10F3FC000100FFFF0024F400E9AC0300C1AC0300E2
:04F40C0000000000FC
:10F4100000100000000C040025C4030000000000E0
:08F42000F5DD030039CE030005
:020000020000FC
:020000041000EA
:0410140000AC030029
:040000033000E18167
:00000001FF
