:020000021000EC
:10F000000000012079A10200A1A10200A3A1020039
:10F01000A5A10200A7A10200A9A102000000000012
:10F02000000000000000000000000000ABA1020092
:10F03000ADA1020000000000AFA10200B1A10200DA
:10F040008D250200B3A10200B52C0200B3A102007D
:10F05000B3A10200B3A10200ED290200B3A1020096
:10F06000B3A10200B3A10200B3A10200B3A1020048
:10F07000B3A10200B3A10200B3A10200B3A1020038
:10F08000B3A1020079F70100B3A10200B3A102000D
:10F090003DF80100B3A10200BDB00200B3A102001F
:10F0A000B3A10200B3A10200B3A10200B3A1020008
:10F0B000B3A10200B3A102000000000000000000A4
:10F0C000B3A10200B3A10200B3A10200B3A10200E8
:10F0D000B3A10200B3A10200B3A10200000000002E
:10F0E0000000000000000000000000000000000020
:10F0F0000000000000000000000000000000000010
:10F1000000000000000000000000000000000000FF
:10F1100000000000000000000000000000000000EF
:10F4000010B5054C237833B9044B13B10448AFF35E
:10F4100000800123237010BDD42C002000000000C8
:10F4200088B20200084B10B51BB108480849AFF379
:10F4300000800848036803B910BD074B002BFBD0C0
:10F44000BDE81040184700BF0000000088B202006D
:10F45000D82C0020C02C002000000000154B002BF1
:10F4600008BF134B9D46A3F5803A00218B460F46FB
:10F470001348144A121A00F065F80F4B002B00D005
:10F4800098470E4B002B00D0984700200021040025
:10F490000D000D48002802D00C48AFF3008000F0AA
:10F4A0002BF82000290004F06BFB00F011F800BFDE
:10F4B0000000080000000120000000000000000023
:10F4C000D42C0020E83800200000000000000000DC
:10F4D00008B5074B044613B10021AFF30080054B7C
:10F4E0001868836A03B19847204600F033F800BFDC
:10F4F00000000000D4B1020070B50E4B0E4CE41AAF
:10F50000A41000251E46A54204D056F82530984781
:10F510000135F8E70BF050FE084C094BE41AA41033
:10F5200000251E46A54204D056F8253098470135DF
:10F53000F8E770BDB82C0020B82C0020BC2C0020AF
:10F54000B82C002002440346934202D003F8011B6A
:10F55000FAE77047FEE700BF2DE9F84F234B1A7812
:10F560008AB3DFF88CB0DFF88C80DFF88C90002451
:10F570004FF0010A03E00134E4B2944223D226B2F0
:10F58000D8F80050DBF8003015F836000AFA00F120
:10F59000194205EBC607EED0154A23EA01031360B2
:10F5A00003F01AFA15F83650D9F800300AFA05F1C6
:10F5B0000B4000FA05F18B4207D00C4B01341A784E
:10F5C000E4B29442DBD3BDE8F88F79787B68A1F18F
:10F5D0000101B1FA81F14909002BEED0091A284640
:10F5E000B1FA81F149099847E7E700BFF82C0020FC
:10F5F000202D0020F42C00201C2D002070B5064684
:10F60000114800F049FD40B9104D01242B68B44069
:10F610001C4203D023EA04042C6070BD304603F082
:10F62000DBF90B4E326860B122432B680949326026
:10F630001C432C60044809680022BDE8704000F0BB
:10F64000D3BC22EA0402F0E7FC2C0020202D00208D
:10F650001C2D0020F02C0020F0B5042A85B01746A0
:10F6600002D8072005B0F0BD0191054603F07EF8F1
:10F670000199002830D01C4CDFF888E01B481C4A58
:10F680001C4B256000264C1E07608EF8001016608B
:10F690001E60E4B2032709B918E01C4623B205EB4B
:10F6A000C30215F833009378134A8DF80D3003A97F
:10F6B0008DF80C708DF80E608DF80F6003F060F817
:10F6C000631E0028CED1DBB2002CE6D10B4A0C48D9
:10F6D000002100F077FCC5E7019103F005F80199DE
:10F6E0000028C8D0BEE700BFF42C0020F02C00207A
:10F6F0001C2D0020202D0020FDF5010059F50100F2
:10F70000D8B10200F82C002070B5084D2B785BB101
:10F71000074E00243368012113F8340003F0FAF88F
:10F720002B780134A342F5D8002070BDF82C0020BE
:10F73000F42C002000B585B000230390194644F254
:10F74000010001AAADF80430029300F003F805B0FF
:10F750005DF804FBBFF34F8F0549064BCA6802F4FE
:10F76000E0621343CB60BFF34F8F00BFFDE700BFE4
:10F7700000ED00E00400FA052DE9F041274A284B8E
:10F780000025C2F84051C2F84451C2F84851C2F8AD
:10F790004C51C2F80051C2F804511B681BB32149F7
:10F7A000D2F804250C68204F141B1A6824F07F44FB
:10F7B000A242A84609D8197CDE69A41A1544A1B949
:10F7C0001EB133461A68A242F5D9184B18491A7867
:10F7D0000B789A421BD01749174A41F823504FF42F
:10F7E0008013C2F80031BDE8F081D3F814C083F86B
:10F7F00010803A689B69604619462AB190470028F4
:10F80000DED0FFF797FFDBE71846E047D8E7531C49
:10F81000DBB2022B08BF00230B70DCE700100140B5
:10F82000282D0020242D00202C2D0020302D0020FC
:10F83000312D00203C2D002000E100E02DE9F04FAB
:10F84000884A8949137809788848994287B0D0F85E
:10F85000009000F014820133DBB2022B08BF0023BA
:10F860001370834A52F82370804A07EB090323F090
:10F870007F4313604FF0010B7E4BCDF80C90D3F813
:10F8800000807D4B19785B7801931E467A4B5C684B
:10F8900093F802E0794B93F800A0744B1B68029335
:10F8A000424643460020BC46B14217D001EB410519
:10F8B000013114F83570C9B2714508BF0021022F1B
:10F8C00004EBC50576D0032FEED1002BECD0DA691E
:10F8D00018741346002AFAD1B142E7D16749029859
:10F8E00081F800A06149DDF80C9008606149674625
:10F8F0000A60BBF1000F40F0A281B8EB030218BF11
:10F900000122059203935D461E46584BDFF8709125
:10F91000D3F800C0574BD3F800A0574BD3F804B02E
:10F9200093F800E09B780293544B1B7804930027D4
:10F930004FF0010835B36968A8682C46ED69CCEB37
:10F94000010222F07F424A4556D8131823606760AF
:10F95000A76084F81080E761002E7FD0316899425B
:10F960005CD2304603E0116899425ED21046C2690B
:10F970005B1A002AF7D12360E2613346C4611E4658
:10F98000002DD8D1019B9E457CD00EEB4E020BEB97
:10F99000C2030EF1010E1BF8322002995C685FFA77
:10F9A0008EFE8E4508BF4FF0000E012A44D033462C
:10F9B0001E46E5E7D5F80490002B3FF475AF4B45A4
:10F9C00000F038811F4600E02F46FD69002D3FF40E
:10F9D0006BAFA945F8D1B946A9452F4600F02A8159
:10F9E000FD693F68C9F81C50002D3FF45DAF2B68DE
:10F9F0003B442B60134657E7C1EB0C0121F07F41DC
:10FA0000814202D2431A2360A1E727606760A760A2
:10FA100084F81080E7610EB331680023CB1A33609D
:10FA20002346E661A2461E46AAE7C91A1160236072
:10FA3000E2613346C461A2E7227C002AB7D199680B
:10FA40006160D868A0601A69E2605B69A361049B89
:10FA5000002B3FF474AF6560294670E72346A24649
:10FA60001E468DE7302D0020312D0020242D002052
:10FA70003C2D0020282D0020342D0020322D002088
:10FA8000FEFF7F00854B83F800E0854BC3F800A0A4
:10FA9000039BB34200F0C480002E00F01181814C22
:10FAA000814BD4F804051B68804DD6F800C0297836
:10FAB000C21A22F07F420332002952D17C4FDFF874
:10FAC000F491DFF8F4814FF480314FF4003E0126C9
:10FAD000C4F84413C4F80413C7F880E1C7F800E081
:10FAE00026602F21D9F8004000BF00BF00BF00BF33
:10FAF00000BF00BF00BF00BF44452FD000BF00BF04
:10FB000000BF00BF00BF00BF00BF00BF00BF00BFFD
:10FB100000BF00BF00BF00BF00BF00BF00BF00BFED
:10FB200000BF00BF00BF00BF00BF00BF00BF00BFDD
:10FB300000BF00BF00BF00BF00BF00BF00BF00BFCD
:10FB400000BF00BF00BF00BF00BF00BF00BF00BFBD
:10FB500000BF00BF00BF00BF00BF00BF0139C3D15D
:10FB60002E7062452CBF9A1803EB0C024D4922F00F
:10FB70007F43C1F84035D1F80425121A1B1A22F030
:10FB80007F4223F07F4303329A424DD9D1F80435A6
:10FB9000484AC1F84035126847492F2300BF00BFCB
:10FBA00000BF00BF00BF00BF00BF00BF8A422FD010
:10FBB00000BF00BF00BF00BF00BF00BF00BF00BF4D
:10FBC00000BF00BF00BF00BF00BF00BF00BF00BF3D
:10FBD00000BF00BF00BF00BF00BF00BF00BF00BF2D
:10FBE00000BF00BF00BF00BF00BF00BF00BF00BF1D
:10FBF00000BF00BF00BF00BF00BF00BF00BF00BF0D
:10FC000000BF00BF00BF00BF00BF00BF00BF00BFFC
:10FC1000013BC3D1264B4FF40032C3F8002103E06F
:10FC2000059B002B7FF438AF244A0023137007B0E4
:10FC3000BDE8F08FDA6942B313464F46D0E600259F
:10FC400028462C46A3B11968B9421BD8DA681C6053
:10FC50007F1A0844D9693AB100EB090626F07F46BD
:10FC6000DD619A605E601D460B460A46002BEAD1B4
:10FC70000B49039301230A600593039E45E6002781
:10FC8000BB46F9E5C91B1960F2E7064B01259D60EB
:10FC90004F4613460292AA46A2E600BF342D00202A
:10FCA000282D002000100140242D0020442D00208C
:10FCB00000E100E0B42C00200024F400322D0020EC
:10FCC000484A494B494D4A484FF480314FF4003778
:10FCD0000124C3F88070C2F848132F23C2F8081318
:10FCE000546029681D4600BF00BF00BF00BF00BFB1
:10FCF00000BF00BF00BF81422FD000BF00BF00BFC8
:10FD000000BF00BF00BF00BF00BF00BF00BF00BFFB
:10FD100000BF00BF00BF00BF00BF00BF00BF00BFEB
:10FD200000BF00BF00BF00BF00BF00BF00BF00BFDB
:10FD300000BF00BF00BF00BF00BF00BF00BF00BFCB
:10FD400000BF00BF00BF00BF00BF00BF00BF00BFBB
:10FD500000BF00BF00BF00BF00BF013DC3D1946022
:10FD6000244A166000BF00BF00BF00BF00BF00BF35
:10FD700000BF00BF81422FD000BF00BF00BF00BF47
:10FD800000BF00BF00BF00BF00BF00BF00BF00BF7B
:10FD900000BF00BF00BF00BF00BF00BF00BF00BF6B
:10FDA00000BF00BF00BF00BF00BF00BF00BF00BF5B
:10FDB00000BF00BF00BF00BF00BF00BF00BF00BF4B
:10FDC00000BF00BF00BF00BF00BF00BF00BF00BF3B
:10FDD00000BF00BF00BF00BF013BC3D1064B1E7078
:10FDE00022E700BF0010014000E100E0B42C002039
:10FDF0000024F400242D0020442D00202DE9F04F94
:10FE000012F0030402D00720BDE8F08F002AFAD0D8
:10FE1000614D624EDFF88CC1DFF88C814FF4803E7B
:10FE20004FF400374FF00109C6F88070C5F848E379
:10FE30002F27C5F808E3C5F80490DCF800C0BE46DB
:10FE400000BF00BF00BF00BF00BF00BF00BF00BFBA
:10FE5000C4452FD000BF00BF00BF00BF00BF00BF20
:10FE600000BF00BF00BF00BF00BF00BF00BF00BF9A
:10FE700000BF00BF00BF00BF00BF00BF00BF00BF8A
:10FE800000BF00BF00BF00BF00BF00BF00BF00BF7A
:10FE900000BF00BF00BF00BF00BF00BF00BF00BF6A
:10FEA00000BF00BF00BF00BF00BF00BF00BF00BF5A
:10FEB00000BF00BFBEF1010EC2D1DFF8F0E0C5F80F
:10FEC0000890CEF8004000BF00BF00BF00BF00BFD9
:10FED00000BF00BF00BFC4452FD000BF00BF00BFA0
:10FEE00000BF00BF00BF00BF00BF00BF00BF00BF1A
:10FEF00000BF00BF00BF00BF00BF00BF00BF00BF0A
:10FF000000BF00BF00BF00BF00BF00BF00BF00BFF9
:10FF100000BF00BF00BF00BF00BF00BF00BF00BFE9
:10FF200000BF00BF00BF00BF00BF00BF00BF00BFD9
:10FF300000BF00BF00BF00BF00BF013FC3D1DFF85B
:10FF400070C0DFF870B0164FDFF86CA0DFF86C906F
:10FF5000DFF86C808CF80040CBF800304FF4801C48
:10FF6000E023B9703C707C70CAF8004089F800400A
:10FF700088F80040C6F880C186F81433C6F800C07F
:10FF8000C5F8080586F81133D5F80435CEF80030E9
:10FF90007A602046BDE8F08F0010014000E100E0EB
:10FFA000342D0020B42C00200024F400242D002047
:10FFB000442D00202C2D0020282D0020302D002045
:10FFC000312D0020074B5B6823B12AB120B10368B3
:10FFD000187C18B1082070470720704759745A617F
:10FFE000704700BF342D00202DE9F043274C636893
:10FFF00083B033B128B1042907D8072003B0BDE886
:020000022000DC
:10000000F083082003B0BDE8F0834369002BF8D0EB
:10001000054602A86B7C0026012B00F8016D0CBF81
:100020008946B14690460F4600F074F86378A07890
:1000300021785A1CD2B2904208BF324691421FD05A
:1000400003EB43036068DB00C11819D04FF0010EC9
:1000500000F803E00E4B4D60D3F804358B609DF83B
:100060000700CF60C1F81090C1F81480627000F0F2
:1000700079F8084B4FF480123046C3F80021C1E7ED
:100080009DF8070000F06EF80420BBE7342D002037
:100090000010014000E100E0F0B51C4D6B6883B03A
:1000A00053B348B343693BB3044602A8002600F8A3
:1000B000016D267400F02EF86B78A87829785A1C08
:1000C000D2B2904208BF3246914218D003EB4303AC
:1000D0006968DB00CF1812D00220C8547C609DF8FC
:1000E00007006A7000F03EF8094B4FF4801230466A
:1000F000C3F8002103B0F0BD082003B0F0BD9DF8A7
:10010000070000F02FF80420F7E700BF342D00208F
:1001100000E100E0F0B4EFF3108472B60E4B9A6881
:10012000B2B90E4901259D60D1F880700C4D2E4664
:100130003D401D60C1F88060D1F884505D604FF093
:10014000FF33C1F88430027004B962B6F0BC704766
:1001500001230370F8E700BFDC38002000E100E075
:10016000FC06FFBC094B9A6872B168B910B4EFF392
:10017000108272B606491C680C605C684C6098601E
:1001800002B962B65DF8044B704700BFDC3800204E
:1001900000E100E0033080B240F2FD33984201D923
:1001A0000920704730B4124B1C783CB95D891A891C
:1001B0002A44024492B2B2F5806F10D31A7C0C4CE0
:1001C00012B1072030BC7047658B228B2A44024451
:1001D00092B2B2F5806FF4D20124224600E02246AA
:1001E00003EB02130C805A89104458810020E9E780
:1001F000A82D0020F0B543684BB1304A1468A342E3
:1002000005D35268934202D813F0030234D000237E
:10021000DFF8B0E00B804FF0010C4FF6FF75DEF811
:100220000470002307F58054C3B15A88033203EBEE
:100230008203A34216D21A68013213D09A881E880C
:10024000AA42F2D0002EF0D09E6802689642EBD10E
:100250001B4A4360138903810120F0BD07F10803A5
:10026000A342E8D3BCF1020FA1F800C00EF1100EBA
:1002700021D04FF0020CD2E7114C05892489A54208
:10028000C5D105689C68A542C1D10E4C6068834207
:1002900005D900F58050834201D2134608E0626917
:1002A000934208D902F58052934238BF012302D20B
:1002B0000B800120F0BD0020F0BD00BFC42C002049
:1002C000C82D0020A82D00202DE9F04FB04C256F3F
:1002D000EF007E1BB6008FB0A35D5A1E824604EB72
:1002E000060BA046052A00F2FE80DFE802F052303D
:1002F000301D1D0300285AD1DFF8B09299F80C3058
:10030000002B00F0678399F8003089F80C00013B5E
:10031000062B00F2E780DFE813F01C03AF02920126
:100320006E01E5009D02F102002841D1C5EB0709ED
:1003300004EB890999F80420012A00F0B783C0F082
:100340009F83022A40F0CF8000220A9238E07A1B75
:1003500004EB820202F108018E48B1F80A90039082
:1003600000EB0919BAF1000F40F0AC80B9F80800B1
:10037000D9F80420097A02EB8002062900F2A3834F
:10038000DFE811F07401CD01AD011D020302ED01A2
:10039000AA01002840F08E809BF80430032B00F265
:1003A0005884DFE813F01B010701E400B2000623C4
:1003B000012018F806200A90023A012A40F29B8098
:1003C000013B052B07D8DFE803F02D664F3E3103D4
:1003D00005238DF82430704D05F1200655F8043FB3
:1003E0000BB109A89847B542F8D1206F684DC0EB12
:1003F000C00004EB800000211C22FFF7A3F8636F0C
:1004000043B12A6F0132013B02F003026B672A6796
:10041000002B6AD1614A137823F0040313700FB0E4
:10042000BDE8F08F00238DF82430D4E77B1B04EB6C
:1004300083030422DB88ADF8303000238DF82420BC
:10044000ADF83230C7E77B1B04EB83031A46DB8829
:1004500032F8081FADF8303053680B930323ADF822
:1004600032108DF82430B6E77B1B04EB83031A7C33
:100470001889DD6899880B95A2F106030222B3FA68
:1004800083F35B098DF83430ADF83000ADF83210ED
:100490008DF824209FE77B1B04EB8303012218893E
:1004A0009988DB68ADF83000ADF832100B938DF809
:1004B000242090E739490A78012322F001020A70CA
:1004C000184676E7D088B9F80A20B9F8081000F184
:1004D000030E121A7144033AA9F80810A9F80A2069
:1004E000012066E706230F2063E70020FFF7ECFEFC
:1004F0000FB0BDE8F08F2A4A9BF81660106C516C63
:100500003044891B106451645AE7DFF8A490254AEF
:10051000D9F8001024484FF0000A0223CDF800A0BB
:1005200001F07AFB214BDFF86CC05B88D9F8001032
:10053000B9F804E08BF804A01B010CEB03020CF8E3
:1005400003A05368C9F8003002235160A2F808E004
:10055000A9F8043000283FF462AF7B1B14F8233065
:100560000E490A7822F001020A700E2021E7DFF816
:1005700040900D48D9F800100122002301F096FBAD
:1005800002220023A9F804208BF80430E2E700BF20
:10059000D82D0020A82D0020602E0020602E0020E5
:1005A000482D0020E8B10200C42C0020C82D0020F6
:1005B000582E0020C54B039319461B78022B00F0E0
:1005C00045830B7C022B00F02D83C14A137843F046
:1005D000020323F0010313700123B5E6BD4BBE48AF
:1005E0001968BE4A00230093022301F015FB012382
:1005F0008BF80430AEE7B9F80220B44BDFF8F49280
:1006000003EB02129389002B00F0BF82DFF8C4E2F3
:10061000B148DEF800104FF0020A4FF0050C01223D
:100620000023AEF804A089F800C001F03FFB0028C9
:100630003FF4F5AE1C2303FB05F3E35CB9E6D9F800
:100640000420A4495388B1F804C00968A2484FF0B7
:10065000000ECDF800E003334FF0030E9BB201EB28
:100660008C0189F800E001F0D7FAE0E7C5EB070A52
:100670004FEA8A0A04EB0A0C0023114600930CF19E
:10068000040201239448CDF80CC001F0C5FADDF84E
:100690000CC002238CF8103000283FF4C0AE904B01
:1006A00013F80A300E20791B04EB8101B9F80A20F7
:1006B000B1F806E0B9F808100EF1030CCEEB020217
:1006C00041F61D5E6144033A7045A9F80810A9F887
:1006D0000A203FF439AE6CE641F61D50E3E7C5EB66
:1006E000070A4FEA8A0A04EB0A00002302F1080114
:1006F000009300F10C020123774801F08DFA04EB1E
:100700000A0377499A7D002A14BF032201221A7432
:1007100000283FF484AE11F80A300E20C3E77B1B9B
:100720004FEA830C04EB0C0A0AF1080A0023111D9E
:100730000093524601236848CDF80CC001F06CFAD2
:10074000DDF80CC014F80C30032B0CBF0522062278
:100750008AF8082000283FF462AE0E20A3E7614B20
:10076000614AB3F800A051685B48604A00230093D7
:10077000012301F051FA002800F01D827B1B9B0031
:10078000E2180621E35C1174E7E77B1B4FEA830A5A
:1007900004EB0A01544B886918604FF0000E514970
:1007A00003921846C3F804E0FFF724FD039A0028DB
:1007B0007FF45CAF4A4B0A2013F80A30F9E5DFF802
:1007C00038E1DEF844300393002B00F07A81DEF844
:1007D000401041485EF8311006917B1BDEF8401056
:1007E00004EB830303F1100A013104910399BAF871
:1007F00004C005930139DEF84030CEF8441002EB16
:100800008C01049A0EEBC30302F0070CCEF840C033
:100810004FF0000E0793069A9B88CDF800E001F098
:10082000FBF9079A9AF806309188BAF80420013B40
:100830000A44DBB2AAF804208AF8063013B9059AF4
:100840000123137400283FF4EAAD7B1B0E2014F83B
:10085000233028E7B9F802301C4A03921B011A44DE
:10086000002351680093062389F80030204A1A4873
:10087000022301F0D1F9DAE6D9F80430B9F802E040
:10088000002B00F0BF81114A039211464FEA0E1E61
:100890005A8871440332496803EB820201F58050A3
:1008A000824280F089801368013318BF4FF6FF7CC5
:1008B00000F082809388B2F800A0634572D0BAF14C
:1008C000000F6FD0C9F80420BBE600BFA82D0020A0
:1008D000602E0020582E0020C42C0020DCB1020025
:1008E000D82D0020902D0020982D0020E4B102008A
:1008F000E8B10200C82D0020482D0020B94BBA4AAB
:100900001968BA484FF0000E4FF0070CCDF800E020
:100910000223C9F804E089F800C001F07DF986E6F9
:10092000B34BB9F808101A781B7CB2FA82F2B3FA0A
:1009300083F352095B0901314FF0000E012089F861
:100940000A2089F80B30A9F8081089F80CE089F81A
:10095000000099F80A30A74A53B1A54B03939B892D
:100960000021917223B9A24A927B002A40F0AF8104
:1009700099F80B309F4A53B19D4B03939B8B0021F9
:10098000D17223B99A4B9B7F002B40F064817B1B73
:10099000002214F8233089F80020A9F80220C9F8B1
:1009A0000420D1E45388033302EB8302824203D252
:1009B000136801337FF47EAF039B73449B89002B44
:1009C0007FF424AE8948012201F070F9042389F8EC
:1009D00000302CE699F80030072B3BD801A252F8E2
:1009E00023F000BF21090200550A0200550A020047
:1009F000390A02000D0A0200FD080200FD0802008B
:100A0000050A0200012389F80030A2E7784AB9F804
:100A10000230039211461B01724A19441068B2F861
:100A200004E0D1F804C048600220C2F800C0908001
:100A3000A1F808E0039A12E76A48D9F804308188DF
:100A40005A88B9F802E0114403310222818089F802
:100A5000002018E7013B062B3FF644AD01A252F8F7
:100A600023F000BF53090200790802003F0602008C
:100A7000F7050200E504020055080200FD08020027
:100A80000EA8D9F80C3040F8143D0DF12201CDF834
:100A900028A0CDF82CA0FFF7ADFB002877D10A20C5
:100AA0007B1B04EB830302221A71C0E5524B1B78B7
:100AB0009B070AD4014608225048FEF743FD022056
:100AC000B8E51B68FFDE0F20EDE5DFF830E1BEF88A
:100AD00004300493012B19D8454B069005950393D8
:100AE0004FF6FF704D46049B03994FEA031A01EB42
:100AF0000A0211F80A3093B1049B01339BB2012220
:100B0000022BAEF804300492EDD1059D3B48002144
:100B10000822FEF717FD7B1B14F8233014E45368FA
:100B2000DEF80090079303F58052B9F1000F4ED024
:100B3000B9F80210033109EB8101914221D20B680F
:100B400001331ED08B88B1F800C0834214D0BCF1B1
:100B5000000F11D0B5F806C0CEF800109C458946AC
:100B6000E3D1002300932148254A059D012301F08C
:100B700053F880B30E205DE54B88033301EB83010E
:100B8000DBE7069BCEF80030B6E751681AE70A9912
:100B900016488B88A9F80630B1F800E0184ACDF85D
:100BA00000A00123A9F808E0BDF8229001F034F874
:100BB00088B30E2074E7039B7D1B03EB0A1A04EB3A
:100BC00085040622012322748AF80E3027E4079B4D
:100BD00003F10801B1E7039B53449A4601238AF8C5
:100BE0000E301CE4582E0020DCB10200C42C002082
:100BF000A82D0020C82D0020602E0020502E00209F
:100C0000E4B10200334B03934FEA0E1E734459685C
:100C100001F1080242E62F4B03EB09130122504673
:100C20009A733DE74FF00109039B2B482B4A4FEA8B
:100C300009194B444FF0000A5968CDF800A002236F
:100C400000F0EAFF039B03F809A083E44FF00009DA
:100C5000EAE7012384E401231946D9F80420A9F81E
:100C600002306AB3039B03EB0111538849680333D5
:100C700002EB830201F58050824218D213680133DF
:100C800018BF4FF6FF7E03D111E0136801330ED079
:100C90009388B2F800C0734503D0BCF1000F7FF415
:100CA00011AE5388033302EB83029042EDD8002348
:100CB0000948012200F0FAFF042389F80030B6E465
:100CC000039B03EB0111496801F10802D2E71946C1
:100CD000C3E700BFA82D0020C42C0020E8B102000B
:100CE0000846FFF7F1BA00BF074A1378082B09D06E
:100CF00010B4591C054C117044F8230000205DF815
:100D0000044B70470C207047A42D0020642E002057
:100D10002DE9F04FB04F8DB03A7800230793089338
:100D200009930A930B9393070DD5AC4C04F120055E
:100D300054F8043F07A803B19847AC42F8D100200B
:100D40000DB0BDE8F08F12F00104F8D142F00102BD
:100D50003A7000F005FFA24BA24A1B681668039484
:100D600003F53F513C3103F1080C03F58050019429
:100D7000A6460291043B4FF6FF745A689A498A428C
:100D800003F1040557D003F5805102E0994200F0C9
:100D9000008153F8042F0132F8D04FEA0E13934D1F
:100DA00003220EF1010EEA541FFA8EFE029A9142BE
:100DB0000CF5805C00F580500B46DED1894A9DF829
:100DC000043016600B2B0FD8DFE813F0C500DE00EF
:100DD000C500DE000E00DB00CA00DB000E000C00C8
:100DE000C7000C0003230493814A516F032912D8D2
:100DF000804B5B6C082B0ED8136F0B4403F003037E
:100E0000C3EBC3039B00D0180124D45401319DF8D7
:100E10001030037151673B786F4903F0040202F010
:100E2000FF04002A8BD143F0040320460B70FFF728
:100E30004BFA204684E79A686F498A424DD00131C7
:100E40008A42A0D1039A002A00F0A180674A4FEAA3
:100E50000E1102EB0108694A12680592634A4FF0CD
:100E6000020902F801900EF1010E059A6349C8F8D3
:100E700004201FFA8EFEA8F808904FF002080D60BB
:100E8000A1F80480DA680132654604D1BAE02A6824
:100E9000B2F1FF3F16D0AA88B5F80090A24206D062
:100EA000B9F1000F03D0AA68964238BF16466A8887
:100EB0000332904405EB82051FFA88F8A842A1F896
:100EC0000480E4D8B8F1020F0CBF04220822019973
:100ED0001143019103F5805168E7444A4FEA0E1827
:100EE00002EB08094FF0000A02F808A00221C9F835
:100EF0000450A9F80810DD680135624611D11BE0E5
:100F00009568AE4238BF2E4655880335294402EB1A
:100F1000850289B29042A9F808100DD915680135EB
:100F20000AD09588B2F800B0A54202D0BBF1000FFC
:100F3000E6D14FF0010AE7E72C4A9044019A88F87D
:100F40000EA00EF1010E42F002021FFA8EFE019277
:100F500003F580512AE70B20F2E60223049343E7CE
:100F60003B781E4C43F0020323F001033B7004F175
:100F7000200554F8043F07A803B19847AC42F8D1C4
:100F8000DDE6012304932FE7002304932CE71B499C
:100F900073E71A4B1B68C3B1144ADFF864904FEA39
:100FA0000E1302EB03080222C8F804500F4DA8F8F4
:100FB0000820EA540EF10108A9F802E01FFA88FEA1
:100FC000019B43F001030193F0E60C4A0223938056
:100FD000012315600393F3E7602E0020602E0020AC
:100FE000C42C0020942D0020DEC0ADDEA82D0020F2
:100FF000D82D0020482D0020FE011EF1582E002083
:10100000C82D0020042262E760B159B130B583B029
:101010000C460DF106010546FFF7ECF820B90A2051
:1010200003B030BD05207047BDF80620074B686847
:1010300003EB021301219A890A449A8120606B68AC
:1010400000200C336360A97203B030BDA82D0020CE
:10105000D0B110B582B00DF106010446FFF7CAF811
:1010600010B90A2002B010BDBDF80620094B03EBF1
:10107000021308339A884AB1A17A39B10021013AA2
:101080009A800846A172EDE705207047062002B05D
:1010900010BD00BFA82D00201D4B1B789B0702D45C
:1010A00002231846704740B1CB1C9BB240F2FD3280
:1010B000934205D9092318467047052318467047FF
:1010C00070B4144A167886B9558914892C441C4486
:1010D000A4B2B4F5806F08D2344602EB04122B445C
:1010E00053810023068041800EE0157C094C55B9E0
:1010F000658B248B2C441C44A4B2B4F5806F02D2BF
:1011000001263446E9E70723184670BC704700BF44
:10111000602E0020A82D0020144B1B789B0702D4C2
:10112000022318467047E8B10388022B02D9042332
:101130001846704710B40E4A448802EB03136FF050
:1011400002015A89091BCA4203F108030CD4033A6D
:101150000021121B5A800B460180418018465DF821
:10116000044B70470523DCE70423F7E7602E0020DB
:10117000A82D00207C4A137813F0020F01D1022021
:10118000704771B12DE9F04F0D8804464FF6FF709E
:10119000854287B001D0488828B9042007B0BDE84F
:1011A000F08F0520704708894E68F8B1356815F052
:1011B000030504D018E056F83570BF0714D1013587
:1011C000A842F8D1354606EBC0060020AF880835A6
:1011D0003844B54280B2F9D1C51CADB240F2FD36FB
:1011E000B54204D90920D9E70320D7E70325DFF862
:1011F00088E19EF800C0BCF1000F0AD1BEF80A7069
:10120000BEF808603E442E44B6B2B6F5806FC0F01A
:10121000A6809EF81060DFF860C14EB9BCF81A7065
:10122000BCF818603E442E44B6B2B6F5806F01D3C8
:101230000720B3E701260296B0464FEA08183D445E
:101240000EEB080CADB2ACF80A500E880F89DFF82F
:101250002C910496D1F804C04E884449D9F874A062
:1012600009680596414E01315FFA87FBBAF1030F19
:10127000CDF80CB00191316060D83D4ED6F844B045
:10128000C7F108018B4559D8D9F87010BDF8148002
:10129000514401F00301C1EBC101890009EB010ECA
:1012A000022509F80150AEF806000198CEF80C00AE
:1012B000BDF80800AEF804800025AEF812000AF16F
:1012C000010A0321BDF810809DF80C00AEF80880DB
:1012D0008EF81600AEF81410AEF80A508EF81050C2
:1012E000C9F874A0D7B1316C0BEB010E0EF0070EEC
:1012F00006EBCE0E06F138090CEBC50103C901352A
:101300000EF108088EE80300CE4514BFC646B64667
:10131000AF421749F0D1486C384448643CB10021D1
:101320001448019D256061600089A172208103F04D
:10133000040101F0FF0451B100202FE7C0F57F4008
:10134000FD30C6442844AEF80A00082026E743F0E2
:10135000040320461370FEF7B7FF20461EE7CDF8C2
:1013600008C0E04669E700BF602E0020942D0020F1
:10137000482D0020C82D0020A82D0020D82D0020A9
:1013800052B12DE9F04F5B4D2C78A60785B005D4FE
:10139000022005B0BDE8F08F05207047002900F05D
:1013A0009280064608884FF6FF73984204D0B1F841
:1013B00002C0BCF1000F03D1042005B0BDE8F08FDE
:1013C0000F89D1F804E067B1DEF8003013F00303B1
:1013D00004D07AE05EF83310890776D101339F425A
:1013E000F8D1DFF824914449D9F80030D1F874805D
:1013F000B2F800A0B2F802B00133B8F1030FC9F897
:10140000003064D8DFF8F490D9F844200292C7F194
:1014100008018A425BD8384A3749126F424402F0C9
:101420000302C2EBC20292005118019108F10108B7
:101430001146314ACDF80C804FF0020802F80180C5
:10144000019A039910814FF000084FF00300A2F8B1
:1014500004C0A2F806B0D360A2F812A097759082DB
:10146000A2F80A8082F81080234A5167E7B1D9F8C0
:1014700040200299114401F0070209EBC20209F170
:10148000380A0EEBC80103C908F1010802F1080C83
:1014900082E80300524514BF62464A464745174951
:1014A000EFD14A6C3A444A6436B1002214493360A1
:1014B00072600B89B272338104F0040303F0FF06FB
:1014C00083B1002065E7052063E7032061E70D4B4A
:1014D00003EB0A1308205A89033ACBEB020BA3F85B
:1014E0000AB056E7304644F004042C70FEF7ECFED8
:1014F00030464EE7602E0020D82D0020482D0020D9
:10150000C82D0020A82D0020942D002050B12DE9D9
:10151000F04F694E3578AF0789B005D4022009B085
:10152000BDE8F08F05207047002900F0B8800A88D8
:101530004FF6FF739A4201D04B881BB9042009B0C3
:10154000BDE8F08F0F894A68B7B1136813F0030341
:1015500005D0A6E052F83340A40740F0A280013342
:101560009F42F7D1134602EBC70200279C8808333D
:1015700027449342BFB2F9D10446894638460DF15B
:101580001E01FEF707FE0028C9D14C49DFF83CC117
:101590000B680193B9F80230B9F80820DCF87480C0
:1015A0000493019B0292B9F800200392D9F804E059
:1015B0002268BDF81EA0059203F10109B8F1030FDE
:1015C000C1F800906FD83E4A029B516C0191C3F163
:1015D0000803994267D8DCF87010414401F0030118
:1015E000C1EBC10189000CEB010B08F101034FF0C5
:1015F00003080CF80180ABF80670BDF80C70BDF85C
:101600001010ABF80870029FABF80410ABF8148010
:101610000599ABF80A004FF00408CBF80C90ABF832
:1016200012A08BF81670CBF818108BF81080CCF83D
:1016300074303B46E7B1116C019F0F4407F0070778
:10164000844602EBC70702F1380A0EEBCC0103C94E
:101650000CF1010C07F1080887E80300574514BF97
:101660004746174663451649EFD14A6C13444B640D
:101670000020144BC4F8009060601A89A07205F035
:101680000403228103F0FF04002B7FF448AF2046BF
:1016900045F004053570FEF717FE20463FE70520AC
:1016A0003DE703203BE7084B03EB0A1308205A8968
:1016B000033AD71B5F8132E7602E0020942D002073
:1016C000482D0020C82D0020A82D0020D82D002056
:1016D000F8B51C4A1378990701D40220F8BD4FF6DB
:1016E000FF71884201D10420F8BD174D6C6F032CA7
:1016F0001ED81649496C08291AD8296F214401F0CF
:101700000301C1EBC10189006F18661C4FF0050C85
:1017100003F0040405F801C04FF0010E2146F880E3
:1017200087F804E004F0FF046E6719B10020F8BDEB
:101730000820F8BD43F0040320461370FEF7C4FDF3
:101740002046F8BD602E0020D82D0020482D002016
:10175000F8B5174A1378990701D40220F8BD154C43
:10176000616F03291AD81448406C082816D8206FD6
:10177000124D084400F00300C0EBC0002E78013188
:10178000062704F8207061670EB10121297303F068
:10179000040101F0FF0419B10020F8BD0820F8BDD4
:1017A00043F0040320461370FEF78EFD2046F8BD7B
:1017B000602E0020D82D0020482D0020C82D0020AC
:1017C0002DE9F047304C2478A40702D40220BDE86C
:1017D000F0879446002A3DD0002B3BD0B3F804801C
:1017E000B8F1010F48D8DFF8A8908A464FF6FF7786
:1017F00000224FEA081409EB040E19F80440002CEB
:1018000032D11C68002C3AD06588DEF804600335BC
:1018100004EB850406F58056B44224D225680135D0
:1018200021D0A5882188BD4217D0B1B11C60A58800
:101830008542E7D125885545E4D1A268CCF800203F
:101840001A68124BCCF804201B89ACF80830002031
:10185000BDE8F0870520BDE8F0876588033504EB17
:101860008504B442DAD31A6008F10104A4B2022C50
:101870009C804FF00108BCD10A20BDE8F087DEF85B
:10188000046006F10804C5E7602E0020C82D002082
:10189000A82D0020304B1B789B0701D402207047F5
:1018A00000293ED0002A3CD02DE9F047B2F804E0F0
:1018B000BEF1010F48D8DFF8A8C04FF6FF764FF011
:1018C00000084FEA0E130CEB03071CF80330002B43
:1018D00031D1D2F80090BA46B9F1000F37D0B9F83B
:1018E0000230DAF80450033309EB830305F5805521
:1018F0009D421ED91C6801341BD09C881F88B442AD
:1019000011D087B113601C8884429946E4D19B684A
:101910000B601268114B4A601B890B810020BDE8E7
:10192000F087052070475C88033403EB84039D42F5
:10193000E0D8C2F800800EF1010E1FFA8EF3022BE0
:1019400093804FF0010EBCD10A20BDE8F087DAF891
:10195000045005F10803C9E7602E0020C82D0020BF
:10196000A82D0020304B1B789B0701D40220704724
:1019700000293ED0002A3CD02DE9F047B2F804E01F
:10198000BEF1010F48D8DFF8A8C04FF6FF764FF040
:1019900000084FEA0E130CEB03071CF80330002B72
:1019A00031D1D2F80090BA46B9F1000F37D0B9F86A
:1019B0000230DAF80450033309EB830305F5805550
:1019C0009D421ED91C6801341BD09C881F88B442DC
:1019D00011D087B113609C8884429946E4D19B68FA
:1019E0000B601268114B4A601B890B810020BDE817
:1019F000F087052070475C88033403EB84039D4225
:101A0000E0D8C2F800800EF1010E1FFA8EF3022B0F
:101A100093804FF0010EBCD10A20BDE8F087DAF8C0
:101A2000045005F10803C9E7602E0020C82D0020EE
:101A3000A82D002020B119B103680B600020704769
:101A40000520704729DF704728DF704770B50C4DBF
:101A5000696E042911D02B6E0B44032B88BF043B05
:101A6000182202FB035406464B1C204600216B66DD
:101A7000FDF768FD3460012070BD002070BD00BF1F
:101A8000882E0020F0B5344B1D7815F0060F85B078
:101A900060D1324A1C46516E176E45F0020316465D
:101AA0002370002956D0182303FB07231A7A012A32
:101AB00005D0022A21D19889FFF7C6FF14E0D98A00
:101AC0009A8A182303FB0763083398685B68521AE5
:101AD000B2F5806F4FEA81010844B4BF92B24FF46F
:101AE00080621944FFF7AEFF112805D125F00205E9
:101AF00045F0040525702DE060B3002110226846F2
:101B0000FDF720FD182303FB076303F108011A7A90
:101B1000012A0CD0022A12D18B88CA88ADF80A306B
:101B20009B1A0122ADF808308DF8002007E09A8A50
:101B3000896802910023ADF80C208DF8003018233D
:101B400003FB07F7F219F3595268019268469B6844
:101B50000921984705B0F0BD842E0020882E002072
:101B60002DE9F0434FF010235D696B1C49D0DFF87D
:101B7000A48098F800C01CF0010F3FD1DFF890E07E
:101B80002248CEEB0000000934D00EEB0011734662
:101B900007461A6812B15A6802B1013F10338B42EE
:101BA000F7D13FB300260022194B9146F4B206E06C
:101BB000596839B10132824203F110030ED019681D
:101BC0000029F5D1597B494588BFD4B202F1010201
:101BD00088BF8946824203F11003F0D1240104EB4F
:101BE0000E0301361A7B5D60BE42A5EB023544F858
:101BF0000E50D8D14CF0010C88F800C00020BDE890
:101C0000F0834FF080535D692D03B0E7D42C0020A2
:101C1000C42C0020842E002030B5214C2578EC0700
:101C200087B012D5044610B11E48844202D2022069
:101C300007B030BD1C488442F9D24AB141B142EAF2
:101C40000100800706D00620F2E7012007B030BD72
:101C50000320EDE72068814201D20520E8E76568AE
:101C600001EB83008542F8D30BB90420E0E705A817
:101C7000039302920191FFF7E9FE01A90EC908B989
:101C80000720D5E7059D2C6005980A9C6C6001240F
:101C9000C260016183820472FFF7F4FE0020C7E78F
:101CA000842E0020C42C0020D42C002030B5204CE1
:101CB0002578EC0787B010D5044610B11D48844242
:101CC00002D2022007B030BD1B488442F9D261B174
:101CD000C1F30B0020B10620F4E7012007B030BDAE
:101CE0002068814203D20520ECE70320EAE765681B
:101CF00001EB02308542F6D30AB90420E2E705A8D9
:101D0000039302920191FFF7A1FE01A90EC908B940
:101D10000720D7E7059D2C6005986B60090B02230F
:101D2000818102820372FFF7ADFE0020CAE700BF87
:101D3000842E0020C42C0020D42C002020B1034B82
:101D40005B6E03600020704703207047882E0020E0
:101D50002DE9F04FAB4FAC4C3B78256E990785B021
:101D60005BD5022865D0032840F08480DFF89CE230
:101D70009EF800300133DBB2032B8EF8003079D9A6
:101D80004FF000084146102268466E008EF8008031
:101D9000FDF7D8FB731904EBC303E9461A7A012A4D
:101DA00003F1080100F0D780022A09D18B88CA8884
:101DB000ADF80A309B1A0122ADF808308DF80020EA
:101DC0003544ED0062196359526801929B68484698
:101DD00008219847636E013B63661BB93A7822F08D
:101DE00002023A70256E884A0135042D08BF00258D
:101DF00015667BB16E00731904EBC3031A7A012ACE
:101E00003CD0022A5AD19889FFF71EFE11284CD0E7
:101E1000002853D105B0BDE8F08F5A072AD5626E6D
:101E200003F0FB033B70002AF4D043F002033B7045
:101E3000E0E76E0006EB050804EBC808734A98F863
:101E400008304FF0000B012B08F1080A82F800B0AF
:101E500064D0022B0ED1BAF80630BAF80420BAF8D2
:101E6000081001339BB201329942AAF80630AAF851
:101E7000042078D0636E002BBCD1CBE7D98A9A8A34
:101E8000731904EBC303083398685B68521AB2F500
:101E9000806F4FEA8101B4BF92B24FF48062084470
:101EA0001944FFF7CFFD1128B2D13B7823F002038C
:101EB00043F004033B7005B0BDE8F08F0021102211
:101EC0006846FDF73FFB731904EBC303E9461A7A32
:101ED000012A03F1080118D0022A09D18B88CA8887
:101EE000ADF80A309B1A0122ADF808308DF80020B9
:101EF0003544ED00621963595268019248469B6867
:101F00000921984705B0BDE8F08F9A8A8968029147
:101F10000023ADF80C208DF80030E9E7B8F8141074
:101F2000B8F81630CA1AB2F5806FB4BF92B24FF447
:101F3000806206EB050804EBC80813449BB208F165
:101F4000100A9942AAF806302F4A2ED0536E002B61
:101F50007FF450AF5EE78A689B8A0292ADF80C303E
:101F60008DF800802CE7684659461022FDF7EAFA02
:101F700098F80830012BE94630D0022B0BD1BAF883
:101F80000430BAF80620ADF80A309B1A0122ADF8E9
:101F900008308DF800203544EB00E218E358526811
:101FA000019248469B68002113E7102268460021F1
:101FB000FDF7C8FA98F80820012AE94608F1080355
:101FC00016D0022AE7D19A88DB88ADF80A20D21A07
:101FD0000123ADF808208DF80030DCE7DAF808209E
:101FE000B8F814300292ADF80C308DF800B0D2E79A
:101FF0009B68BAF8042002930023ADF80C208DF8FA
:102000000030C8E7842E0020882E0020F02E00200B
:10201000C30710D4810710D4420710D4030710D48B
:10202000C10610D4820610D4430610D4C30910D1BF
:102030004FF6FF7070470020704701207047022064
:102040007047032070470420704705207047062022
:1020500070470720704700BFE8B1E1B110B40488B1
:10206000944228D04488944229D0848894422AD02B
:10207000C48894422BD0048994422CD04489944241
:102080002DD08489944207D0C089904208BF072090
:1020900003D05DF8044B704706202BB10A7801236A
:1020A000834013430B70F4E70A780123834022EA4C
:1020B00003030B70EDE70020002BF5D0EEE70120C5
:1020C000002BF1D0EAE70220002BEDD0E6E7032059
:1020D000002BE9D0E2E70420002BE5D0DEE7052065
:1020E000002BE1D0DAE700BF2DE9F0439DF81C405A
:1020F00008B301B3FAB105889D4200F0E480458839
:102100009D4200F0E68085889D4200F0E480C5880D
:102110009D4200F0E28005899D4200F0E080458903
:102120009D4200F0DE8085899D4206D0C08998429C
:1021300008BF072002D0BDE8F083062001238340BA
:10214000484200F003009042DBB228BF1046002C4A
:102150005BD1042A00F2AF8010460D78DC43E4B274
:10216000254001280D7000F0B2804D78022805EA64
:1021700004054D7000F0AB808D78042805EA040555
:102180008D7040F0B480CD782C40CC7004468242F3
:10219000D1D0C0EB020EAEF10406551EB6082D1AC2
:1021A0000136022D4FEA860C1AD9002563F3070584
:1021B00063F30F2563F31745084463F31F65ED438D
:1021C000A0F104094FF0000859F8047F08F1010854
:1021D0002F40B04540F8047BF6D3E6456444AAD0CE
:1021E0000D5DDB43D8B200EA0503651CAA420B551E
:1021F000A1D94E5DA31C9A4200EA06044C5578D939
:10220000CA5C1040C854BDE8F083042A57D8104671
:102210000C78012844EA03040C7056D04C7802284C
:1022200044EA03044C7050D08C78042844EA030438
:102230008C705AD1CC781C43CC700546824252D067
:10224000C0EB020EAEF10406541EB608241A013685
:10225000022C4FEA86081AD94FF0000C63F3070CE2
:1022600063F30F2C084463F3174C63F31F6CA0F166
:102270000409002759F8044F01374CEA0404B74217
:1022800040F8044BF6D3C64545443FF454AF485D8F
:102290006C1C1843A24248557FF64DAF0E5DA81C3A
:1022A000824243EA06050D557FF645AF0A5C1343AB
:1022B0000B54BDE8F08300283FF46BAF4DE70546B3
:1022C0000028BDD0A4E7002038E70546B6E704465D
:1022D0005DE7012032E7022030E703202EE70420EB
:1022E0002CE705202AE7BDE8F0830325A6E70324B1
:1022F0004DE7BDE8F08300BFD0B1038893421DD005
:10230000438893421CD0838893421BD0C388934256
:102310001AD00389934219D04389934218D08389F4
:10232000934206D0C389934208BF072302D00020FE
:1023300070470623194101F0010070470023F9E7B7
:102340000123F7E70223F5E70323F3E70423F1E78B
:102350000523EFE700293AD012F0010330B402D090
:102360000B8883800123950704D500EB43044D8837
:10237000A5800133540704D500EB43048D88A58064
:102380000133150704D500EB4304CD88A580013344
:10239000D40604D500EB43040D89A58001339506CE
:1023A00004D500EB43044D89A5800133540604D5C0
:1023B00000EB43048D89A5800133D20904D000EBE2
:1023C0004302C98991800133036030BC70470160CA
:1023D000704700BF0A7B4B6810B40C68002A0ABF24
:1023E000234600220122027103605DF8044B70470E
:1023F00010B40279034652B148681A688968841A91
:102400008C4210D9881818605DF8044B7047046836
:1024100008688A68211A91420BD8012218601A7143
:102420005DF8044B7047002218601A715DF8044B88
:102430007047A01A18605DF8044B70474FF0A04336
:10244000044AD3F80435125CD34003F0010080F055
:1024500001007047F4B10200044B195C4FF0A04238
:1024600001238B40C2F80C35704700BFF4B1020065
:10247000044B195C4FF0A04201238B40C2F8083591
:10248000704700BFF4B102004FF0A04310B44FF406
:1024900080204FF400344FF400214FF48012C3F831
:1024A0000845C3F80805C3F80815C3F808255DF802
:1024B000044B70474FF0A04310B44FF480204FF40A
:1024C00000344FF400214FF48012C3F80C45C3F8D8
:1024D0000C05C3F80C15C3F80C255DF8044B7047C8
:1024E000074B4FF0A041185CD1F80435012282401F
:1024F00022EA03001340C1F80805C1F80C35704703
:10250000F4B1020030B44FF0A04303224FF4003581
:102510004FF480244FF400204FF48011C3F8442777
:10252000C3F84827C3F84C27C3F85027C3F8085509
:10253000C3F80845C3F80805C3F8081530BC704750
:102540004FF0A043044AD3F81035125CD34003F097
:10255000010080F001007047F0B102000D2809D0A1
:102560000E2809D00F2809D0102814BF4FF0FF30D3
:1025700003207047002070470120704702207047F9
:10258000014B185C704700BFF0B1020010B51D4B45
:102590001A6882B0F2B91C4B1A680AB902B010BDB1
:1025A00000221A601B6801934FF080430222174CEF
:1025B0000199C3F8082323690122A270002BEDD0F2
:1025C0001A6822615B68012098472369002BF7D1C4
:1025D00002B010BD00221A601B6800934FF08043C8
:1025E00001220A4C0099C3F80823A3686270002BEB
:1025F000D1D01A68A2605B6800209847A368002BBE
:10260000F7D1C8E70001004004010040F42E00208B
:1026100000B1704710B5064CA3683BB11A68A260C0
:102620005B6800209847A368002BF7D110BD00BF5E
:10263000F42E002010B582B002A80023144C00F83C
:10264000013DFDF767FD237893B9124A6360E360AB
:102650001068A36010F00100236114D008F0C8FCDA
:1026600020B94FF080430122C3F8182501232370BD
:10267000E3689DF8070001330122E360A270FDF7D3
:1026800071FD02B010BD072100F006F8E6E700BFBB
:10269000F42E002000E100E0002810B418DB00F167
:1026A000604303F561434901C9B283F80013C3B223
:1026B0004009800000F1604000F5614003F01F0216
:1026C00001239340C0F8803103605DF8044B7047EC
:1026D000C3B2044A03F00F0449012244C9B211767F
:1026E000E6E700BFFCEC00E030B51D4C94F8545018
:1026F00083B015B1082003B030BD4FF0FF33FF2287
:102700000620072123636363A363E3632364636495
:10271000A364E36423606360A360E3602361636197
:10272000A361E361236284F850306362A36284F89A
:102730005230E36284F8533084F85120FFF7ACFF45
:10274000084B094A1D601B68019301984FF0004334
:102750000121284684F85410C2F8043303B030BD78
:10276000082F00207C61004000600040034B93F87C
:102770005400003018BF0120704700BF082F002010
:10278000F0B5634C251895F93030002B01DB08209B
:10279000F0BD91F803E09446BEF1000F56D02368D7
:1027A000013300F0AD80082600256B1C584F54F80B
:1027B0002320013251D0AB1C9E4245D957F823202B
:1027C00001324AD0EB1C9E423ED957F823200132F9
:1027D00043D02B1D9E4237D957F8232001323CD0DD
:1027E0006B1D9E4230D957F82370013735D0AB1D91
:1027F0009E4229D954F82320454F01322DD0EB1D9C
:102800009E4221D957F82320013226D005F1080332
:102810009E4219D957F8232001321ED005F1090331
:102820009E4211D957F82320013216D005F10A0330
:102830009E4209D957F8237001370ED00B35AE42AE
:1028400002D9E36A013307D00420F0BD236A0133C3
:102850004ED00C260825A8E70B232618DDB244F835
:1028600023C086F83050BEF1000F02D1234483F814
:1028700048008B78ABB94A784FF0A04600F5E0737A
:10288000920046F82320CB78ABB96AB2083A1444D8
:10289000097894F8502042EA811284F850201846B2
:1028A000F0BD830003F1A043D3F8002722F0020219
:1028B000C3F80027E7E76BB29B0003F1804303F501
:1028C000C0430A78D3F8101521F4473121F4407140
:1028D000C3F810151204000202F44031D3F8104579
:1028E00000F4F8520A432243C3F810250020F0BD3B
:1028F000082685F830603346C4F820C03546B5E771
:10290000002385F83030C4F800C01D46B1E700BF91
:10291000082F0020F0B42E4D2E1882B096F83020EB
:1029200053B2072B1CDD2B4493F848309B09032B33
:1029300040D0012B0CBF4FF400314FF440318000E8
:1029400000F1A040D0F8002722F44032C0F8002760
:10295000D0F800370B43C0F8003702B0F0BC704726
:10296000072AFAD8980000F1804000F5C04003F132
:1029700040029200D0F8104592B202F18042002746
:1029800044F0010402F5C042C0F8104501970198D7
:1029900017600029E1D096F9302055F82220002A4E
:1029A000DBD001220B4902FA03F3C1F8043302B071
:1029B000F0BC70474FF0A043D3F81035C34013F07C
:1029C000010F14BF4FF440314FF40031B7E700BF9F
:1029D000082F0020006000404FF0A043D3F81035CE
:1029E00023FA00F000F00100704700BF2DE9F04726
:1029F00086B00026A24B01961A68012A00F03281A7
:102A0000A04B1A68012A00F01F819F4B1A68012A07
:102A100000F00C819D4B1A68012A00F0F9809C4B54
:102A20001A68012A00F0E6809A4B1A68012A00F021
:102A3000D380994B1A68012A00F0C080974B1A681E
:102A4000012A00F0AD80964B1A68012A00F09B80A5
:102A500016F0FF0F1AD0934F01250024A30003F1B5
:102A60008043354203F5C0434FEA45050BD0D3F808
:102A7000100557F82420D3F81015C0F30420C1F333
:102A8000014102B190470134082CE7D1002E02DB4E
:102A900006B0BDE8F087844D00224FF0FF33A5F16A
:102AA000530702920393814C4FF00008012614F85B
:102AB000011FFF292BD0C9B221F0C00006AB4FEA9D
:102AC000D00E03EB0E0201F0070312F80CCC06FA4D
:102AD00003F31CEA030F1AD007EB000C89099CF9D9
:102AE00030C057F82CC0BCF1000F3CD003293CD0BB
:102AF0004FEA800E0EF1A04E12F8149CDEF800276B
:102B000019EA030FC2F3014211D1032A36D0AC42B5
:102B1000CDD1B8F1000FBBD04FF0A043019AD3F84C
:102B200010359342B4D0029A01930392BBE7022A74
:102B3000EDD1032904D0BCF1000FE8D0E047E6E76F
:102B40004FF44039DEF8002722F44032CEF8002757
:102B5000DEF8003708F1010849EA03035FFA88F854
:102B6000CEF80037E7E70329D1D10DF1080A1AF8AA
:102B70000E9049EA03090AF80E90B9E70329DAD161
:102B80004FF40039DEE700221A601B6805934FF00E
:102B9000A043059AD3F81035019346F0004657E755
:102BA000434AD2F8042312067FF54DAF00221A6083
:102BB0001B680493049B46F0800644E73C4AD2F825
:102BC000042351067FF53AAF00221A601B68049374
:102BD000049B46F0400631E7354AD2F804239006BC
:102BE0007FF527AF00221A601B680493049B46F010
:102BF00020061EE72E4AD2F80423D4067FF514AF30
:102C000000221A601B680493049B46F010060BE731
:102C1000274AD2F8042315077FF501AF00221A6076
:102C20001B680493049B46F00806F8E6204AD2F895
:102C3000042357077FF5EEAE00221A601B68049349
:102C4000049B46F00406E5E6194AD2F804239207ED
:102C50007FF5DBAE00221A601B680493049B46F0EC
:102C60000206D2E61249D1F8041311F0010105D091
:102C70001E601B680493049B1646C1E60E46BFE621
:102C80000061004004610040086100400C610040A8
:102C90001061004014610040186100401C61004058
:102CA0007C610040082F00205B2F0020572F002060
:102CB00000600040F0B59B4C237F8FB0002B75D196
:102CC000994AD2F80413890548D4974BD3F80423C2
:102CD000520704D5D3F80821002A40F0CA80924B4D
:102CE000D3F81C21C2B1A28AA07D8E4992B2824241
:102CF0004FF00002C3F81C2180F0A980D3F81C21FA
:102D00000692069A888A8A8A8D6880B20132285C87
:102D100092B28A82C3F81C05834BD3F84421DAB1FE
:102D20000022C3F84421D3F84411A27E04910499EF
:102D3000002A40F08980E27D7A4B6AB10022587EF9
:102D4000D968DA7501228DF830000B918DF82820B2
:102D50000AA893E8060090470FB0F0BDD2F82411FE
:102D60000029B2D0C2F82431D2F82411A37E0791F1
:102D70004FF401710798C2F808130BB9012353608F
:102D8000694A02238DF82830D2F88034C2F88034A2
:102D9000E07DE2680D9300238DF83000E375237623
:102DA00021680B9263680AA8984798E75E4BD3F8AE
:102DB0002421002A40F09380D3F8101161B1C3F8A8
:102DC0001021D3F8101103910399D3F83C15E07D3D
:102DD000C9B2884200F0AA80534BD3F84421B2B163
:102DE0000022C3F84421D3F84411E07D01910199F8
:102DF0004C4960B1D3F83C35C8688DF830300123B8
:102E0000CA750B908DF828300AA80AC99847464B16
:102E1000D3F82021002A9FD00022C3F82021D3F824
:102E20002011A07D009100993E49002894D0D3F84C
:102E30004C058B688DF830008A750B938DF828202F
:102E40000AC90AA8984787E701221A6073E7D3F8EE
:102E50001C310593059B00283FF45EAF8B688DF80D
:102E600030008A750B938DF828200AC90AA8984764
:102E700052E7E17D2B4A002970D00021C3F80811E8
:102E8000D3F8081108910899D068517ED3F8183505
:102E90004354537ED17D0133DBB25376627E214BA6
:102EA0008A427FF41CAF1A7E002A6DD19B7E13B933
:102EB0001D4B01225A601C4AE06863684FF401719F
:102EC000C2F80813627E8DF83020002501220B9095
:102ED0002168E5758DF828200AA89847FFE60022AA
:102EE000C3F82421D3F82411029102218DF828106F
:102EF0000299D3F88014C3F880140D91D3F83C15CF
:102F0000E368E27522768DF830100B9321686368D0
:102F10000AA89847044BD3F84421002A3FF477AF1E
:102F20005EE700BF602F002000200040217EF1B14D
:102F3000D3F80072E17527F02001E6682569C3F82F
:102F4000001201238DF830008DF828302276216898
:102F50000B96E56063680AA898473DE7C3F8081137
:102F6000D3F808210992099AD3F8183596E7E26850
:102F7000E17501238DF830008DF828300B9294E82C
:102F80000A000AA8984727E7DE685D7E1869DA75A7
:102F900001210022D8601A765A768DF828100B96F7
:102FA0008DF8305093E806000AA8904797E600BFD6
:102FB0000220FFF795BA00BF2DE9F0470D460646FF
:102FC000FFF7CCFA032804461DD8012D1FD00ED3DD
:102FD000022D1AD11E4B00EB40041C44657895B1BC
:102FE0001C4B1B687BB12846BDE8F04718471A48C0
:102FF000FDF752F81649194A04EB44030B44155DDA
:103000009B789D42EBD0BDE8F087BDE8F087DFF804
:10301000408047003B1808EB030218F80350537830
:103020002BB9274447440D4BBA781A55D7E70C4BB8
:10303000DFF830901968084801EB810149004A46E1
:10304000FCF7D2FF0028ECD189F80060E9E700BF67
:10305000FC2F0020B42F0020B82F0020A42F002028
:10306000B02F0020A02F00207F4B1B68DB0700D46F
:10307000704770B57D4E7E4D33782C789BB9172CF8
:1030800010D8DFE804F0666B6B879CB0C2AA2415E9
:10309000241582313131313151565ECF0C0CFFF79E
:1030A00009FA2C7070BD00233370FFF7EDF9E6E7E5
:1030B000012318463370FFF713FA6E4B6E481968F8
:1030C000002201EB8101BDE87040FCF78DBF0123B8
:1030D00018463370FFF704FA664B674819680022F8
:1030E000BDE87040FCF780BF6448FCF7D5FFD4F121
:1030F0001104024600F0A180002840F09E80012CBF
:103100000DD0C8255E4B5B495C48096805FB04F49B
:10311000A3FB04435B0901FB03F1FCF765FF0220FD
:10312000BDE87040FFF798B9FFF7AEF912232B7096
:1031300070BDFFF7A9F90020FFF78EF913232B705C
:1031400070BDFFF7A1F90120FFF786F914232B705A
:1031500070BDFFF799F900232B7070BD0020FFF7B9
:103160006DF9002879D00020FFF782F9022C0CBFFE
:10317000122328233F4A2C7011683F4801FB03F1BA
:103180000022BDE87040FCF72FBFFFF793F90C2336
:103190002B7070BD0020FFF751F9002856D0002099
:1031A000FFF766F90822334B3348196803232B7065
:1031B00001FB02F1BDE870400022FCF715BF0020C2
:1031C000FFF73CF900283DD00020FFF751F92822F5
:1031D000284B294819680423E9E70020FFF73CF948
:1031E00007232B7070BD0020FFF728F990B3002053
:1031F000FFF73EF91F4B2048196805232B70490043
:103200000022BDE87040FCF7EFBE0020FFF768F930
:10321000184B1948196806232B700022BDE870402E
:10322000FCF7E2BEFFF730F90020FFF715F90120A7
:10323000FFF712F915232B7070BD0220BDE8704016
:10324000FFF716B9FFF708F90422C1E7FFF704F901
:103250000222A8E7FFF700F9CCE7FFF7FDF8022C00
:103260000CBF0223042385E7A82F0020AC2F0020E9
:10327000D82F0020B02F0020802F0020DC2F00202E
:103280001F85EB5110B50078FFF768F903280BD8BC
:10329000064B00EB40001844407828B1044B1B68F3
:1032A00013B1BDE81040184710BD00BFFC2F00202F
:1032B000B42F0020FFF744B970B5964B1A6812F08E
:1032C000010202D11646304670BD934D2B7804465C
:1032D000E3B9172C00F21C81DFE814F0E600ED00E2
:1032E000ED0054006B008200970046002C001D008A
:1032F0002C001D00A500AC00AC00AC00AC00AC0084
:10330000CB00D200DC0039004E004E0000232B70B1
:10331000FFF7BAF8DDE7012318462B70FFF7E0F856
:103320007E4B7F481968002201EB8101BDE87040A7
:10333000FCF75ABE012318462B70FFF7D1F8774BE4
:10334000774819680022BDE87040FCF74DBEFFF7D2
:103350009BF80020FFF780F80120FFF77DF8714B04
:1033600015221A700026AEE70020FFF775F86D4BA6
:1033700007221A700026A6E7FFF79CF8694B002683
:103380001C70A0E70020FFF759F8002800F0BC806F
:103390000020FFF76DF808226049624B0968604819
:1033A00003241C7001FB02F1BDE870400022FCF711
:1033B0001BBE0020FFF742F8002800F09E8000208E
:1033C000FFF756F828225549564B096854480424FB
:1033D0001C7001FB02F1BDE870400022FCF704BE46
:1033E0000020FFF72BF8002800F08B800020FFF76B
:1033F0003FF84A4A4B4B1168494805241C70490064
:103400000022BDE87040FCF7EFBD0020FFF768F830
:10341000444B424A4248116806241C700022BDE811
:103420007040FCF7E1BDFFF745F83E4B0C221A70E7
:10343000002648E73C48FCF72FFED4F1110406466D
:1034400050D000284ED1012C0FD0C825374B33491E
:103450003548096805FB04F4A3FB04235B093246E5
:1034600001FB03F1FCF7C0FD06460220FEF7F4FF66
:1034700029E7FFF709F82B4B12221A70002622E7E2
:10348000FFF702F80020FEF7E7FF264B13221A7021
:10349000002618E7FEF7F8FF0120FEF7DDFF214BBD
:1034A00014221A7000260EE7FEF7EEFF1D4B0022D5
:1034B0001A70164607E70020FEF7C0FFB0B10020E3
:1034C000FEF7D6FF022C0CBF122328231349154AFE
:1034D00009681470124801FB03F10022BDE8704036
:1034E000FCF782BD0220FEF7C3FFECE6FEF7B4FF57
:1034F000022C0CBF02230423E8E7FEF7ADFF0422F1
:1035000061E7FEF7A9FF74E7FEF7A6FF022243E793
:103510000026D8E6A82F0020AC2F0020B02F0020D6
:10352000802F0020D82F0020DC2F00201F85EB519A
:10353000F0B5224D224E234B2860044610F00200C5
:1035400083B031601A6014D01F4B20484FF00E0E2C
:103550000F27102611254A0883F800E00421DF70A8
:103560009E715D72FCF778F8A0B1E3071DD403B03B
:10357000F0BDE20719D41648164A0021FCF722FDD7
:103580000028F4D11448154A012103B0BDE8F040E9
:10359000FCF718BDFCF7B8F80028E6D10146104A40
:1035A0001048FCF70FFDE10703D50190FEF7AAFFD5
:1035B00001980028DFD003B0F0BD00BFA82F002085
:1035C000B02F0020B42F0020FC2F002000B20200FA
:1035D000FCB102006930020020B20200B12F0200EB
:1035E00085320200F8B10200032801D90720704794
:1035F000012A12D0012917D008D30229F6D10D4B88
:1036000000EB4000034400205A707047094B00EB68
:103610004000034400209A707047012901D0002225
:10362000E8E700F10E02D2B200EB400301490020AE
:10363000CA547047FC2F002008B5FEF7A1FF800098
:1036400000F1A0430020D3F8002722F44032C3F851
:103650000027D3F8002742F44032C3F8002708BD02
:1036600008B50020FFF7E8FF10B1062800D008BD1C
:103670000120FFF7E1FF0028F9D0062808BF00204D
:1036800008BD00BF10B50388102B08D0112B05D141
:10369000264B18680138186038B110BD10BD234C96
:1036A000206880B10130206010BD02210122FFF7A7
:1036B0009BFF48B3072827D01D4B1B68002BECD07D
:1036C000BDE81040184701460122FFF78DFF48B1C1
:1036D000072807D0164B1B6803B1984720680130B4
:1036E000206010BD012002210722FFF77DFF08B1F5
:1036F0000728EFD1002002210422FFF775FF0028E0
:10370000ECD00728E6D1E9E7012002210722FFF7E4
:103710006BFF08B10728CFD1002001460A22FFF72E
:1037200063FF0028B9D00728C6D110BD0C30002097
:10373000083000201A4B10B50C46186029B1012042
:10374000FFF7B8FD30B102232370164B186848B15B
:10375000002010BDFFF7AEFDF8B9124B20701868BD
:103760000028F5D102210122FFF73EFF10B1072802
:1037700000D010BD012002210722FFF735FF08B15C
:103780000728F6D1002001460A22FFF72DFF002866
:10379000DED0072808BF0020EBE70B232370D4E717
:1037A000083000200C30002076DF704778DF70474B
:1037B0007ADF70477CDF7047A8DF704767DF7047AC
:1037C00032DF70473EDF7047704700BFFBF7B2BF84
:1037D000014807F09DBB00BF68310020044A05483E
:1037E000137883F001031946137007F08DBB00BFF7
:1037F000C83100206831002010B51349134C14481B
:10380000FEF7F6FD236881B201331248236007F00A
:10381000CBFA30F0080209D043F20402904205D0FE
:1038200043F20142904201D0FBF784FF22680A4B29
:103830000A49A3FB02035B0803EB4303D31A18BF37
:1038400001230B7010BD00BF74320020A432002091
:103850005831002068310020ABAAAAAA982C002079
:1038600008B50C490C48FEF7C3FDC1B20B4806F081
:1038700021FF30F008020BD043F20402904207D03F
:1038800043F20142904203D0BDE80840FBF752BF2B
:1038900008BD00BF443200206031002048300020C5
:1038A00010B50446FEF754FA2046BDE8104001F07A
:1038B000ADBA00BF10B5044684B001F039FD204612
:1038C00005F07AFA21462E4807F00EF921462D48D8
:1038D00006F0EEFD204601F0CFFC2046FFF7D2FEB9
:1038E0002388112B3ED017D9512B23D0562B0AD029
:1038F0003B2B08D0204601F045FA2146224802F031
:1039000093FE04B010BDA0881321FFF74DFF0028DF
:10391000F0D0FBF70FFFEDE7022B28D0102BE9D1F9
:103920000720FFF7C9FC08B1FBF704FF174BA2887B
:103930001A80DFE7A279A37B002ADBD0043B022BAD
:10394000D8D8022A0CBF022201224FF4C173A088EA
:103950008DF800206946ADF80430FFF72DFF0028F0
:10396000C8D0D6E7094B4FF6FF721A80C2E7074B63
:1039700000211888FFF722FF0028BBD0C9E700BF4D
:103980006831002048300020303000209A2C002080
:1039900008B5037803B108BD054B3B211888FFF734
:1039A00003FF0028F7D0BDE80840FBF7C3BE00BF07
:1039B0009A2C0020072808B51CD00A280ED004280D
:1039C00000D008BD144B13211888FFF7EDFE30F02E
:1039D0000803F6D0BDE80840FBF7ACBE0020FFF7B7
:1039E0006BFCB0B9FFF73CFE80B9FFF7E9FE002899
:1039F000F0D108BD084B1A884FF6FF739A42E0D108
:103A000001F048FB30F00803DBD0E3E7FBF792FE60
:103A1000EBE7FBF78FFEE5E79A2C002008B51B4B80
:103A20001B7803B908BD1A491A48FEF7E1FC81B2B8
:103A3000194807F04FFA16491648FEF7D9FC81B22B
:103A4000154807F047FA12491248FEF7D1FC81B237
:103A5000114807F03FFA0E490E48FEF7C9FC81B243
:103A60000D4807F037FA0A490A48FEF7C1FC81B24F
:103A7000094807F02FFA06490648FEF7B9FCBDE8E9
:103A8000084081B2044807F025BA00BF982C0020F6
:103A9000B8310020403000206831002000B50378A4
:103AA000043B83B00A2B0DD8DFE803F027150F0C79
:103AB000230C0F060F0C1E00032001F021F808B1A3
:103AC000FBF738FE03B05DF804FB80680028F7D1EF
:103AD00003B05DF804FBFDF73BFE0E280346F1D072
:103AE00033F00803EED0EBE705F0E8F903B05DF83A
:103AF00004FB00690028E5D0E2E702A9002301F8F1
:103B0000043D408805F0D8F903B05DF804FB00BF20
:103B100008B530B1032803D10220FFF7CDFB50B91F
:103B200008BDFFF7C9FB50B9FFF79AFD50B9FFF781
:103B300047FE0028F4D0BDE80840FBF7FBBDFBF7CB
:103B4000F9FDF1E7FBF7F6FDF1E700BF08B503204B
:103B500000F0D6FF00B908BDBDE80840FBF7EABD9C
:103B600008B50548054902F04DFD00B908BDBDE89E
:103B70000840FBF7DFBD00BF30300020D137020026
:103B8000F0B50020A1B003460521C44AFCF736F980
:103B900008B1FBF7CFFDC248C24A0121FCF712FA77
:103BA00008B1FBF7C7FDC048C04A0121FCF70AFA7B
:103BB00008B1FBF7BFFDBE48BE4A0121FCF702FA7F
:103BC00008B1FBF7B7FDBC48BC4A0121FCF7FAF984
:103BD00008B1FBF7AFFD032040F6CD41B84AFFF72F
:103BE000A7FC08B1FBF7A6FD10A90020FFF7A2FD76
:103BF00008B1FBF79FFDB34BB34918680890D82272
:103C000008A800239DF8404007F0F8F908B1FBF739
:103C100091FD0020012110AA07F068FA08B1FBF716
:103C200089FD9E2310A8ADF8503007F077FA08B14F
:103C3000FBF780FDA54807F02DFA08B1FBF77AFDE8
:103C4000A34807F031FA08B1FBF774FD05F0C6F898
:103C500008B1FBF76FFD022C00F0CB81002105229B
:103C600010A8FBF76FFC9DF840309DF843109DF8BD
:103C7000442043F00103032003F0FD0360F3061327
:103C8000014302436FF3C7130725102410A88DF8D2
:103C900040308DF843108DF844208DF841508DF858
:103CA000424005F0FFF808B1FBF744FD894805F0F4
:103CB000DDF808B1FBF73EFD8748FDF715F808B1C0
:103CC000FBF738FD9DF820308448012262F303039E
:103CD00062F307138DF8203007F066FA7F4982B24D
:103CE00008A8FFF767FD08B1FBF724FD40F241305B
:103CF000FFF75CFD08B1FBF71DFD0021082210A8AD
:103D0000FBF720FC4FF4A0744FF4027100224FF433
:103D1000C87310A8ADF84040ADF84210ADF844208B
:103D2000ADF84630FFF744FD08B1FBF703FD002175
:103D30003C2210A8FBF706FC0222694B8DF84020BC
:103D40000124062603250021202208A88DF84360BF
:103D5000ADF8505015938DF84240FBF7F3FB00216E
:103D60004FF49676B425009110A808AA5D4B8DF803
:103D700023400C960D9500F003FE08B1FBF7DAFC2A
:103D8000FFF7EEFE03230021142203A88DF80B3069
:103D9000FBF7D8FB9DF818409DF81B309DF819E003
:103DA0009DF81A609DF81C504F480122002762F3CD
:103DB000030462F303030EF0F00E06F0F00605F0C4
:103DC000F00562F3071462F3071367F3071E67F346
:103DD000071667F307150DF10B0C03A98DF81840B2
:103DE0008DF810208DF81B308DF819E003978DF8B1
:103DF0001A608DF81C50CDF814C006F09FFE08B173
:103E0000FBF798FC0021142208A8FBF79BFB9DF808
:103E10002D509DF82E409DF830209DF82F6033489E
:103E2000012363F3030563F3030463F3030206F062
:103E3000F006002763F3071563F3071463F3071213
:103E40006FF307164FF0640E08A98DF82D508DF80A
:103E500024308DF82E408DF830208DF82F60089793
:103E60000A978DF82CE006F051FB08B1FBF762FCD5
:103E70004022002110A8FBF765FB10A81C4901F0A7
:103E800065FB9DF87C309DF87D20012161F30303E3
:103E900002F0F00261F307132CE000BFCC310020E8
:103EA0004CB202006138020028B20200F937020069
:103EB00054B202001D3A020050B20200DD37020087
:103EC000B539020024B2020060300020B53802008B
:103ED000A13802009D3A0200C93702002CB202004C
:103EE0009C2C0020113B020068310020483000204B
:103EF00038B202006FF3071210A88DF87C308DF8ED
:103F00007D2006F07FFC08B1FBF714FC3D4B3E48DA
:103F1000012551221946642683E844009D601D73E3
:103F2000FEF758FA394B3A4800244FF08C0E0A221B
:103F300019464FF49677C3F800E05F609A601C73EF
:103F4000FEF748FA334B34481E6019464FF4FA72B4
:103F50009D605A601C73FEF73DFA21461C2210A892
:103F6000FBF7F0FA2D4B2E4A9F892E4B10944FF4FD
:103F700020364FF47025032110A88DF85040ADF87D
:103F80004E70119612958DF84C101592169301F003
:103F900039F908B1FBF7CEFB23484FF480310022FA
:103FA000FCF722F808B1FBF7C5FB20484FF40041AD
:103FB0000022FCF719F808B1FBF7BCFB1C4842F2E1
:103FC00066610022FCF710F808B1FBF7B3FB194853
:103FD0004FF420310022FCF707F808B1FBF7AAFBE9
:103FE000FFF7B4FDFFF7EEFB0028FBD0FBF7A2FBC9
:103FF000F8E704F06BFF00283FF430AEFBF79AFBC4
:104000002CE600BF443200206031002074320020D2
:1040100058310020B83100204030002068310020A5
:1040200091390200CD37020038310020843200205F
:1040300054320020103000206DDF704772DF70476F
:1040400079DF70477DDF704765DF7047F0B5048822
:10405000012C83B007D0148804F1020E9E4505D9C7
:104060000C2003B0F0BD072003B0F0BD0578012D92
:1040700004D1457802352544AB42F1D3023B0F46CB
:104080001C1B02A9A4B2054621F8024D07EB0E0045
:104090001646FFF7D7FF0028E3D12B78022B17D065
:1040A000012B11D023460821FE2BD9D83288581C69
:1040B000B8543288013292B23280B9543288013217
:1040C000134433800020CCE76B789C42EBD2E9E7C5
:1040D000BDF806309C42E5D30921E5E72DE9F04F14
:1040E00085B083460E9D00882C880194BDF83C90D5
:1040F00000284ED000278A46164698463C4604E0E3
:10410000BBF800300134A34226DDDBF8043053F85D
:10411000240003900DF10B0103A80022FFF794FF88
:1041200018BB9DF80B30B342EAD10FB32A8893191C
:104130004B4519DC424403A80DF10B010127FFF7A1
:1041400083FF90B92B889DF80B2013442B80BBF87C
:1041500000300134A342D8DCDFB12B88019A013B47
:104160009B1A9BB2FF2B12D90C2005B0BDE8F08F33
:104170002B885A1C334402334B4592B2F4DC2A801C
:1041800008F802A02A88013292B22A80D2E708F801
:104190000230002005B0BDE8F08F00BF2DE9F047E8
:1041A00000231788138090F82D3086B014460546FA
:1041B0000E46002B40F0C880AA78002A40F0F0801C
:1041C000EA78002A2CD1696899B1DA1CBA420978D8
:1041D00022D80222F254238801339BB20A22238080
:1041E000F254238801339BB22380F1542388013396
:1041F00023802B89002B40F0F7802B8A002B40F086
:104200000C812B8B002B40F021812B6A002B5CD082
:104210002288911DB94218D90C2006B0BDE8F0875C
:10422000D91CB942F8D80221F154238801339BB23A
:1042300001212380F15423880B449BB22380F25444
:1042400023880B449BB22380BDE71988052940F2DF
:10425000C9806FF4486801EB080080B24FF27D3EE0
:10426000704540F2BF805888052840F2BB806FF44B
:10427000486C84441FFA8CFCF44540F2B3804FF63E
:10428000FF7E714504D0704502D0814200F2AA80C1
:104290000521B1542288013292B212212280B154F8
:1042A0002288013292B222801988B1543244090A1C
:1042B00051702288023292B222805B88B354324419
:1042C0001B0A53702388023323806B6A002B2BD088
:1042D000998820880A1D0244BA429DD88A1CFE2A69
:1042E0009AD8033131542288013292B2FF212280C0
:1042F000B1542288013292B222801988B1543244DA
:10430000090A51702088023080B220809A885AB100
:1043100099680393002965D0304406F01FFF039B82
:1043200022889B881344238095F82C30002B40F082
:10433000A680287800283FF470AF284631462246F0
:104340003B46FFF783FE68E7082F7FF665AF04A8BA
:10435000FFF772FE00287FF460AF23880822F25432
:10436000238801339BB21B222380F2542088013022
:1043700080B22080062230440DF1110106F0EEFEDD
:1043800023889DF8102006339BB212F0FE0218BF5E
:1043900001222380F254238801339BB223800BE750
:1043A0000433BB423FF638AF04A8FFF749FE0028AC
:1043B0007FF433AF2388BDF810200321F154238804
:1043C00001339BB219212380F154238801339BB21E
:1043D000F1182380100AF2544870238802339BB2EC
:1043E0002380EDE6072018E705F1080802218DE893
:1043F000900040460A463346FFF770FE00287FF4DF
:104400000CAF8DE890004046062110223346FFF79E
:1044100065FE00287FF401AFEFE605F110088DE896
:1044200090004046032102223346FFF757FE002842
:104430007FF4F3AE8DE8900040460721102233460A
:10444000FFF74CFE00287FF4E8AEDAE605F1180825
:104450008DE890004046142102223346FFF73EFECD
:1044600000287FF4DAAE8DE8900040461521102236
:104470003346FFF733FE00287FF4CFAEC5E6D5F80C
:104480002880B8F1000FADD0B8F804200232FE2A1F
:104490003FF6C2AE23884FF000094FF0160A0132F2
:1044A000F254238801339BB2238006F803A02388AB
:1044B00001339BB22380B8F80020F2543344120A2F
:1044C0005A70238802339BB22380B8F80410F01886
:1044D0000A4661B1D8F808301946002B82D006F0A0
:1044E0003DFEB8F80430228813449BB2238009F1C2
:1044F000010995F82C205FFA89F94A4509EB49082A
:104500007FF617AFAA6A02EB8808B8F804200232D7
:10451000FE2AC4D980E600BF2DE9F04794B01F23DE
:104520000D46ADF80E30044600285AD0C278530725
:1045300053D590F82D300021ADF80C10002B6BD125
:104540008378002B40F0AB801846032114AE5F1C2B
:104550000233304416FA87F716FA83F64FF0020E4C
:104560008BB2012100F840ECADF80C3007F8401C8C
:1045700006F8402C6268B2B1D91C1F29167828D8D9
:1045800014AF581C9A1C17FA80F03B4417FA82F2B9
:104590004FF0020E0A2703F840ECADF80C1000F8BB
:1045A000407C02F8406C2389002B40F08581238AEF
:1045B000002B40F09F81238B002B40F0B981236AB0
:1045C000002B00F0D880BDF80C20911D1F2940F26F
:1045D0008F800C2014B0BDE8F087072014B0BDE830
:1045E000F087ADF80C00002D00F00481EB78002B73
:1045F000F3D128460CA90DF10E02FFF7CFFD0028DC
:10460000ECD19DF80E300CAA20469DF80C10FFF757
:1046100015FD14B0BDE8F0870CAF3846FFF70CFD70
:104620000028DBD1BDF80C3014AA03F1010C12FAFA
:104630008CFC03F1020E13441FFA8EFE04AE4FF001
:1046400008094FF01B0803F8409C0DF131010622C8
:1046500006EB0E000CF8408CADF80CE006F07EFD89
:10466000BDF80C209DF83010931D11F0FE019BB297
:1046700040F07C8114A8034403F8401CD31DA278A9
:104680009BB2ADF80C30002A40F01181E278002A8C
:104690003FF470AFD91C1F2918469AD856E70CAFC3
:1046A0003846FFF7CDFC002898D1BDF80C30BDF896
:1046B0003070E278991C0DF1500E581C89B204AE8E
:1046C0000EEB03091EFA80F0043306EB010E4FF0E7
:1046D000030A4FF019089BB24FEA172C09F840ACB7
:1046E000ADF80C3000F8408C77548EF801C0CEE75E
:1046F000188805287FF671AF6FF4486C00EB0C0644
:10470000B6B24FF27D37BE427FF667AF5E88052EA8
:104710007FF663AF6FF4486EB6441FFA8EFEBE4557
:104720007FF65BAF4FF6FF77B84204D0BE4202D0AF
:10473000B0423FF652AF14A8561C10FA86F600EBB2
:10474000020E901C80B212274FF0050C0EF840CCE0
:10475000ADF80C0006F8407C1F88ADF80C1004AED4
:104760003118375404323F0A4F7092B25B88B35409
:1047700032441B0A5370676A9FB3B888BDF80C3087
:10478000811C9A1C56181F2E3FF623AFFE293FF6B8
:1047900020AF14AE591C06EB030E16FA81F192B24B
:1047A0000330FF260EF8400CADF80C2001F8406CE9
:1047B000398804AEB018B154090A41700433BA887C
:1047C00098B2ADF80C0062B1B96800293FF405AFAA
:1047D000304406F0C3FCBDF80C30BA881344ADF881
:1047E0000C3094F82C3053B904AE2378002B53D1FD
:1047F0003446F8E62B46ADF80E502A4604E7A76A81
:10480000002F3FF4EAAEB9880231FE293FF6E1AE4F
:104810009E46BDF80C304FF0000804AE4FF016096C
:1048200014AA581C02EB030C12FA80F09A1C92B2E4
:1048300001310CF8401CADF80C2000F8409C398880
:10484000B1543244090A51700433B9889BB20A4604
:10485000F018ADF80C3079B1BB681946002B3FF465
:10486000BCAE06F07BFCBDF80C30BA8894F82CE0A6
:1048700013449BB2ADF80C3008F101085FFA88F8D8
:10488000F04508EB4802B0D2A76A07EB8207B98867
:104890000231FE29C4D99CE62046314603AA1F23D3
:1048A000FFF7D4FB00287FF499AE34469BE604332F
:1048B0001F2B3FF68EAEF3E603AA04F1080704AE01
:1048C0004FF01F0802218DE80401384633460A469E
:1048D000FFF704FC00287FF481AE03AB8DE80801EC
:1048E0003846334606211022FFF7F8FB00287FF4F4
:1048F00075AE5CE603AA04F1100704AE4FF01F0882
:104900008DE804013846334603210222FFF7E6FB17
:1049100000287FF463AE03AB8DE8080138463346C8
:1049200007211022FFF7DAFB00287FF457AE42E69A
:1049300003AA04F1180704AE4FF01F088DE8040124
:104940003846334614210222FFF7C8FB00287FF4C3
:1049500045AE03AB8DE808013846334615211022D9
:10496000FFF7BCFB00287FF439AE28E614A90B44FE
:10497000012103F8401C81E673DF704774DF704744
:104980002DE9F84FDDF828C0002800F09B80002AB0
:1049900000F09880144605461E460F460FCCDFF8FF
:1049A00048E1DFF848B1DFF84891CBF80060AEE8A5
:1049B0000F0094E80F00454EDFF838A1DFF838818A
:1049C000DFF838B1C8F800C08EE80F0000240122DB
:1049D0004FF6FF73214689F800203D48ABF80030C0
:1049E00007228AF80040FAF7ADFD21463C22304606
:1049F000FAF7A8FD05F1100393E80300AA78EB7815
:104A000095F800E0B270F37006F1100395F801C05C
:104A100086F800E083E8030005F1080393E803004B
:104A200006F1080E05F118038EE8030093E8030071
:104A30006A6A86F801C006F1180383E80300B2B180
:104A4000244B7362686A244A9A60B0F804E00188D3
:104A50001980A3F804E0BEF1000F08D0013A234604
:104A60008168C95C02F8011F01337345F8D1AB6A54
:104A7000B3B11A4BB362A86A194A9A6084889C80C1
:104A80000188198044B1013A00238168C95C02F8A9
:104A9000011F0133A342F8D195F82C3086F82C3051
:104AA0002B6A33B10F4B33622A6A518859801288BE
:104AB0001A806B6803B1736039460448BDE8F84F4B
:104AC000FFF72ABD0E20BDE8F88F00BFA8320020F6
:104AD0001C330020E8320020F8320020743300201C
:104AE0004C3300204433002024330020F4320020D3
:104AF0008033002070330020183300206E330020F4
:104B00002DE9F043934B1D7885B025B90824204644
:104B100005B0BDE8F083904F064668463E70FDF74D
:104B20000DF9009C3CB18D4B0024012220461A70E7
:104B300005B0BDE8F083DFF8489289482146072296
:104B4000FAF700FD99F801302BB33B78012B29D0FF
:104B500099F802200AB1022B24D0DFF8048298F8D9
:104B6000013083B998F802306BB998F8033053B923
:104B700098F804303BB998F8053023B998F80650F6
:104B8000003518BF0125013E032E00F2E080DFE86A
:104B900006F0493A144399F80230002BDDD03B78F7
:104BA000012BD8D16F4B704A1B68002B00F0B080EE
:104BB0000121082011709847CFE799F803305BB3C3
:104BC0000322684B3A701B683BB199F8002022B170
:104BD000664A1278002A00F09D80654B00221A7008
:104BE000102268460021FAF7ADFC3B7800228DF8D0
:104BF00000208DF80820042B00F28580DFE803F008
:104C00007164533E1B0099F80230002BD5D0002D63
:104C1000D3D002233B70E0E799F80430002BF9D0A1
:104C20000422CEE799F80130002BECD0002DC4D03F
:104C300001233B70D1E799F80030D9F81810D9F862
:104C40001C20ADF80A10ADF80C2033B1474B197891
:104C500019B9484B1B78002B64D1474B04221A70BA
:104C60006846FFF789FE002850D13E4B1B68002B99
:104C70003FF44DAF404A1078984748E799F8003024
:104C8000D9F81010D9F81420ADF80A10ADF80C209E
:104C90002BB1364B197811B9364B1B782BBB364BE1
:104CA00003221A70DCE73448D9F80C20D9F8083010
:104CB000CDF804800225012105708DF80010ADF8B3
:104CC0000C20ADF80A30CBE72B49CDF80480012247
:104CD00000230A708DF80020ADF80C30ADF80A30D2
:104CE000BEE7254B00221A70BFE7244B04250222A1
:104CF0001846DD708DF80820FFF70EFC18BB1E4A21
:104D00003B7805211170002BAFD0A9E70446FEE6E1
:104D1000137022E7174816490270012207200A7013
:104D200098475DE7154B042502221846DD708DF883
:104D30000820FFF7F1FB30B90F4A3B7806211170CC
:104D4000002B92D08CE73B78002B8ED088E7002395
:104D50003B7042E780330020703300207133002025
:104D60001C330020F43200206B3300201733002066
:104D70006C330020E432002048330020A8320020A9
:104D80002433002010B50388112B26D01B2B09D00B
:104D9000102B00D010BDC37B8288012BFAD1164B9B
:104DA0001A8010BD037A002BF4D1144B14481B78E1
