:0200000270008C
:10800000807F002075BB07009DBB07009FBB07005A
:10801000A1BB0700A3BB0700A5BB07000000000031
:10802000000000000000000000000000A7BB0700E7
:10803000A9BB070000000000ABBB0700ADBB0700F9
:10804000AFBB0700AFBB0700AFBB0700AFBB07006C
:10805000AFBB0700AFBB0700AFBB0700AFBB07005C
:10806000AFBB0700AFBB0700AFBB0700AFBB07004C
:10807000AFBB070095930700AFBB0700AFBB07007E
:10808000AFBB070059940700AFBB0700AFBB0700A9
:1080900089950700AFBB070021AA0700AFBB070007
:1080A000AFBB0700AFBB0700AFBB0700AFBB07000C
:1080B000AFBB0700AFBB07000000000000000000DE
:1080C000AFBB0700AFBB0700AFBB0700AFBB0700EC
:1080D000AFBB0700AFBB0700AFBB0700000000004D
:1080E0000000000000000000000000000000000090
:1080F0000000000000000000000000000000000080
:10810000000000000000000000000000000000006F
:10811000000000000000000000000000000000005F
:1084000010B5054C237833B9044B13B10448AFF3CE
:1084100000800123237010BD8C2C00200000000080
:1084200014D20700084B10B51BB108480849AFF338
:1084300000800848036803B910BD074B002BFBD030
:10844000BDE81040184700BF0000000014D207002C
:10845000902C0020702C002000000000154B002BF9
:1084600008BF134B9D46A3F5803A00218B460F466B
:108470001348144A121A00F065F80F4B002B00D075
:1084800098470E4B002B00D0984700200021040095
:108490000D000D48002802D00C48AFF3008000F01A
:1084A0002BF82000290001F091FD00F011F800BF29
:1084B00000000800807F0020000000000000000095
:1084C0008C2C0020B83800200000000000000000C4
:1084D00008B5074B044613B10021AFF30080054BEC
:1084E0001868836A03B19847204600F033F800BF4C
:1084F00000000000A4CE070070B50E4B0E4CE41A2D
:10850000A41000251E46A54204D056F825309847F1
:108510000135F8E704F0B8FC084C094BE41AA41044
:1085200000251E46A54204D056F82530984701354F
:10853000F8E770BD682C0020682C00206C2C00200F
:10854000682C002002440346934202D003F8011B2A
:10855000FAE77047FEE700BF2DE9F04F0388112BC3
:108560008DB0044618D002D8102B05D03BE0122B5A
:1085700031D0502B1DD036E0934B82881A8000F109
:10858000100303CB914A924B1060516000221A7085
:10859000904BDB893BBB24E08B4B4FF6FF721A807C
:1085A0008B4B00221A7002F0A9FEE0B1894B9B6947
:1085B0000EE0884DC288EB899A4214D1038A022BBF
:1085C00011D1837CD9070CD402F098FE58B1AB6965
:1085D0004BB1984707E000F1080303CB7B4A1060DA
:1085E000516001F041FC2388142B00F09F8218D8C1
:1085F000102B28D008D8022B40F0AE84764B0021F7
:10860000188800F04EFEB7E3112B30D0132B40F04A
:10861000A384714B002218888521134600F053FE75
:10862000AAE3522B00F0898206D8502B00F08C82EE
:10863000512B31D000F090BC552B00F09983562B74
:1086400020D000F089BC4FF0A0434FF48022C3F843
:108650000C254FF40032C3F808255F4BA2881A801E
:108660005E4A136823F00203136000F075BC00F04B
:108670009DFD08B101F06EFC574B4FF6FF721A805A
:1086800000F06ABCA379002B40F06684524B1321A2
:10869000188800F01EFE6FE3A579002D00F05C84C1
:1086A00008A800211022FFF74DFF022D40F054844E
:1086B0004B4D2289AB899A4240F04E84A37B043B08
:1086C000022B40F249849DF82630434E298A308897
:1086D00043F001038DF82630238AADF82830638AF1
:1086E000ADF82A3004F1140302220B930023069301
:1086F0008DF82020ADF8182005AB06AA079300F0EE
:10870000DAFD374668B99DF81430DA0709D440F22B
:10871000FD133088ADF8243008A900F0CAFD00F040
:108720001BBC00263888ADF8246008A900F0C1FD04
:10873000002840F0118408A831460C22FFF702FF00
:10874000207D431E052B00F2EF81DFE813F00600C9
:10875000840193019700ED01C501638A062B01D0C6
:108760000120E1E11F49E07D4B880B80237E627D83
:1087700009921B0443EA0023A07D0343607E43EA81
:108780000063012082420A938DF8200001D0022A62
:1087900067D115480270144A1478012C02D0022CBB
:1087A0002AD060E0002B60D0B3F5807F5FD8002531
:1087B0000E4B0F481D7020222946FFF7C3FE0D4BBC
:1087C0000A9A1D639A6357E0383100206431002013
:1087D0003A3100203C310020622C0020C0360020BD
:1087E000D4360020A82C0020602C002094340020D7
:1087F00020370020E8360020002B36D0C3F30B02D0
:1088000032B1A54AA548526D00681A4482422CD163
:10881000B3F5805F2BD8A24A127852B39E4A9F4C80
:10882000506D24681D18A54223D853640B79D46C6D
:108830009464013303F003039A4C0B710023CB8043
:108840002368106501332360974B10631B68974AB8
:108850001844012101F057FF68B12368013B2360F0
:1088600001E0072408E0052406E0032404E00424D2
:1088700002E0082400E001240120EAE003238DF84F
:1088800020308B4B1B78012B02D0022B4ED02EE3D5
:10889000814BD96B9A6B91421F4640F0D880804D36
:1088A0002B780BB10124D3E001F066FB012840F0E6
:1088B0001E83804B93F874201C4692B393F87A3051
:1088C000002B00F014837C4B93E803001E46002825
:1088D00000F00883002900F0058394F8DB3023B111
:1088E00094F8DC30002B40F0FD8294F88420714B2A
:1088F000002A00F0F782D3F88820342A40F0F28270
:1089000013F88CEF0022724580F2EC8243F20C0CDB
:1089100053F8048FBCF800C0E04500F0318201320A
:10892000F1E71B78002B00F0E282DBE25A4B196D75
:108930005A6D586C8A1A90421F4640F08880002079
:10894000586459659B6CFB6402F014F8002840F0F1
:10895000C982524B396D1A6891429846A2D1514B47
:108960001B6813B101F010F8F9E7524E96F8B930D0
:10897000032B1AD1504D514B2B604B4BD8F80010A4
:1089800018684FF02009C5F8049002F05BFE06F16C
:10899000BB0100284A46286814BF0A24012404F0B9
:1089A0004FFA002818BF052400E00A247B6923B190
:1089B000012B40F09782424900E04249012C2FD11F
:1089C00096F8A130032B15D8DFE803F002050B0E53
:1089D00001238B6015E0A5238B60D6F8A4307B6360
:1089E00018E0AA238B6010E0AC238B60D6F8A4308B
:1089F0007B630AE023B1023B012B0AD80A2404E07E
:108A00000A24D6F88030BB6004E0D6F88030FB60E2
:108A100000E00A24BB6C4B60D8F800300B6003E028
:108A200000228A604A600A60002120222648FFF75F
:108A300089FDFF21B2222548FFF784FD0023244849
:108A40003B6301F097FF002818BF0A2400E00824C8
:108A5000042021467EE2638A032B01D0022063E0DA
:108A6000A27D637D43EA02231A4A022053801380C9
:108A700001216FE204238DF820300D4B1B78012B70
:108A800006D0022B40F03882034B186D996C30E20F
:108A9000014BD86B196C2CE2E83600209034002092
:108AA000943400206031002044380020C19B07002E
:108AB000602C002080310020B8360020483800208B
:108AC0000C370020003700202037002044370020DA
:108AD000D19B0700A82C0020638A022B01D006201E
:108AE00022E0637D09930622012B8DF8202002D01D
:108AF000022B40F02B82AD4A1370AC4B1B78012B3C
:108B00000AD0022B40F02482A94B4FF48050D3F8B6
:108B10004880D3F85090F2E1A54B4FF48070D3F821
:108B20004080D3F83C90EAE1032113E20021A088C1
:108B30000A460B4600F0C5FB1EE10021A0880A464C
:108B40000B4600F0B4FB17E19A4BE2889B889A42EF
:108B500040F002820C2208A80021FFF7F3FC934AA0
:108B6000954E127802238DF8203004F1120B238ADF
:108B7000CDF824B0012A0A9302D0022A1AD0E3E0E9
:108B80008B4FFC6BBA6B1919914201D93D6CDDE03A
:108B900038191A4659465C3004F062F90A99FC6BA0
:108BA00009980C4407F14002FC6300F0C1FB054644
:108BB0003864CBE081497E4A0978146D956C904603
:108BC000002900F0C380B3F5807F00F2BF801A193E
:108BD00002920299D8F854208A1AD8F844108A428E
:108BE000474600F2B380194608F1480258460393FD
:108BF00000F09EFB029BB8640546C8F85030F08830
:108C0000039BDFF8B4A1C218FF2A0AF15009327998
:108C10000ED800EB022048441A46594604F020F9C9
:108C2000BAF806300A9A029C1344AAF806304FE0BC
:108C3000C0F58074A4B200EB022059462246484495
:108C400004F00EF90A9BBAF80620D8F830001B1B76
:108C50000A93099B22441C440994594B594C1968A6
:108C60002368013392B223609AF80430AAF80620F0
:108C700003320844921009EB0321534B01F0E0FD4D
:108C800040B9D8F83030BAF80620029C1344C8F82E
:108C900030300AE02368D8F84C50C8F84850013BFF
:108CA0002360D8F85440C8F8504030790A9A424FAF
:108CB000013000F0030000233071F38042B109EB72
:108CC0000020099904F0CCF8FB880A9A1344FB8031
:108CD000F288DFF8E4A0002A38D0D8F85430D8F869
:108CE0003000D8F84410324FD31A03448B422DD3AE
:108CF000334BDFF8D080D3F800E0D8F800309AF892
:108D0000041001330332C8F80030704409EB01212C
:108D100092102D4B01F094FD28B93B6BBAF8062058
:108D200013443B6308E0D8F80030FD6C7C6DBD64F3
:108D3000013BC8F800303C653379013303F003038D
:108D400033710023F38001E000252C4676881A4F0A
:108D5000002E00F001813B88013B9BB23B80002B41
:108D600040F0FA802046294602F018FB3E80F3E0EE
:108D7000A088172100F099FA002800F0ED8079E42E
:108D800094F8A120032A00F2AD80DFE802F0022C63
:108D9000212194F87C30002B00F0A4800B4BD3F8F9
:108DA0008020BB689A42C0F09D801CE0602C0020AF
:108DB000E8360020D4360020A82C0020943400206F
:108DC0004438002060310020C19B07008031002022
:108DD00094F87C30002B00F08580614BD3F8802024
:108DE000FB689A427ED994F8E830DFF87481002B52
:108DF00078D15C4B33602023DFF88C91736002F0F4
:108E000021FC00286ED1584E98F8E92006F1080799
:108E1000384608F1EA0104F023F898F8E930B7641D
:108E2000402BF36463D199E84004002E5FD016F024
:108E300003095CD103F096FE3146009052464B4840
:108E40003B4603F093FE002851D0494A98F8A130E0
:108E5000C2F800901646032B44D8DFE803F002194D
:108E60000A2194F8B030002B3CD03D4BD3F8B430FD
:108E700014E094F8A830002B34D0394BD3F8AC2050
:108E800032603C4BC3F5FC239A421CD90424DFE535
:108E900094F8A23033B3324BD3F8A430336012E0ED
:108EA00094F8A8202E4BEAB193F8A220D2B1D3F8BF
:108EB000A410D3F8AC205318336009B90324C7E5D4
:108EC000002AFBD0DDE727482B49202203F0C8FF0A
:108ED00030680028F2D002F0DBFA0028D6D101F089
:108EE00049FD08B10A24B3E501242C70B0E505243E
:108EF000AEE502F053FA2FE0032005212AE03A887C
:108F00004FF6FF739A4227D01C4B1B68DB0723D513
:108F10001B4E6023337006237370F11C0123B37062
:108F200000F0B4F9033084B23119484600F0AEF9CC
:108F3000204484B23119404600F0A8F9114BA989A8
:108F4000221892B2188800F014F905E0072100E019
:108F50000521062002F002FA0DB0BDE8F08F00BF37
:108F60008031002048380020A82C0020A8CE07001F
:108F700090340020008007003B320020C0360020E3
:108F8000C4360020622C0020B8360020A6DF7047CF
:108F90007DDF704773DF704772DF7047084B5A6E92
:108FA000013A5A6622B907490A7822F002020A7089
:108FB0001B6E034A0133042B08BF0023136670475E
:108FC000A43400201D35002028DF704729DF7047BA
:108FD00030B5044685B00D46684600211022FFF7E3
:108FE000B1FA237A012B0CD0022B12D10123A289D2
:108FF0008DF80030E389ADF80A20D31AADF80830B7
:1090000007E000238DF8003023690293A38AADF8AE
:109010000C3063680193236868469B68294698472B
:1090200005B030BD38B51B4A516E146E134681B37E
:10903000182505FB04252A7A012A05D0022A23D106
:10904000A889FFF7C1FF14E0182000FB0433E98A68
:109050001869AA8A0833521A5B68B2F5806F4FEA22
:1090600081010844B4BF92B24FF480621944FFF703
:10907000ADFF112807D1084A137823F0020343F00B
:109080000403137038BD20B128460921BDE83840DB
:109090009EE738BDA43400201D35002070B52B4953
:1090A0002B4B0A781C6E12F0020F06461D4640D06C
:1090B0001820022E00FB043002D0032E29D042E0FB
:1090C000244B00211970037A012B00F1080202D011
:1090D000022B13D037E0C28A818A8B1AB3F5806FD6
:1090E000B4BF9BB24FF48063134418229BB202FBBF
:1090F00004548B42E38226D1002115E0938801338A
:109100009380D38801339BB2D38012899A421AD1BB
:109110000AE0104A13780133DBB2032B01D8137035
:1091200011E0002313700821FFF752FFFFF736FF0D
:1091300009E0500707D55B6E02F0FB020A7013B11D
:1091400042F002020A70BDE870406BE71D35002056
:10915000A4340020F8300020082910B501D000F018
:10916000F9FE03684068BDE81040184708B500F0F4
:10917000F1FE30B587B004460D46ADF8062002A8D2
:1091800010220021FFF7DEF901238DF80A300DF1DE
:10919000060304932046044BADF8085002A905933A
:1091A000FFF7F4FE07B030BDC436002030B5354DB2
:1091B000296811F002018BB05DD1102201A8FFF7E0
:1091C000C1F90B230122ADF8023002238DF81430CF
:1091D0008DF815208DF81830062259238DF81620A9
:1091E0008DF819300322FE230DF11D000DF102014F
:1091F0008DF817208DF81A30FFF7CAFEE0B9BDF8D8
:1092000002100B299DBF4B1C8DF81B3009230C232A
:1092100095BFC9188DF81B3089B2082388BF142167
:109220004FF0000294BF8DF81C308DF81C3005A85B
:10923000C9B21346FFF7B0FE0446F8B98DF8040032
:1092400002908DF80C002823ADF8100001A8ADF8AD
:109250000E30FFF79FFE80B94FF0A0434FF400326D
:10926000C3F80C254FF48022C3F808252B6843F07F
:1092700002032B6002E0002400E0044620460BB00D
:1092800030BD00BFC036002013DF7047C0F3072396
:1092900008704B70C0F30743000EC8708B70042039
:1092A000704767DF704763DF7047ADDF7047A9DF46
:1092B0007047A8DF7047A5DF7047A2DF7047A0DFC7
:1092C000704786DF70477FDF70477CDF70477ADF4B
:1092D000704776DF704774DF70476DDF70476CDF73
:1092E000704738B50B4C616E0429054610D0226ECC
:1092F0008B18032B88BF043B18220131616602FBE7
:10930000034420460021FFF71DF92C60012038BDE1
:10931000002038BDA4340020044A137813F0060F4F
:1093200003D143F0020313707CE670471D35002023
:1093300030B512B11368DB4301E04FF0FF33014455
:1093400088420DD010F8012B53400822054D13F030
:10935000010418BF2C46013A84EA5303F6D1EFE723
:10936000D84330BD2083B8ED10B5084B9A685AB188
:1093700050B9EFF3108272B605491C680C605C6846
:109380004C60986002B962B6002010BD843600209F
:1093900000E100E073B502A8002300F8063D01F0EB
:1093A00041FF294B1B7803F0FF05002B46D1274BCB
:1093B0001A68002A42D0264AD2F80813C9073DD5B8
:1093C0001D601B68019302A8224C019BD2F808651E
:1093D00000F8055D01F026FFA16860681F2994BFB1
:1093E0004B1C2B461F2994BF4A1C00228342A260BB
:1093F00004D11F2B94BF01330023636063689DF881
:1094000003009A423ABFC3F12103D218D21AE3688B
:109410002144934238BF0F4B0E7438BFDA60FFF718
:10942000A3FFA36862681F2B94BF013300239342FC
:1094300001BF074A0123C2F8083353609DF80200B8
:10944000FFF792FF02B070BD1C35002000D1004034
:1094500000D00040F830002070B5254A254B00218F
:10946000C2F84011C2F84411C2F84811C2F84C11B8
:10947000C2F80011C2F804111B68002B36D01E4838
:10948000D2F804250468141B24F07F440D461A68A2
:10949000944215D3A41A15441A7CDE696AB10022DD
:1094A0001A74164A12682AB158699969904720B10E
:1094B00000F050FD5A69986990470EB13346E6E7CF
:1094C0000F4B104A197813788B4205D10133DBB268
:1094D000022B08BF0023137012780B4B03EB82039F
:1094E0004FF480125D63094BC3F8002170BD00BFCB
:1094F000001001402833002030330020AC3200201F
:109500002C3300202D330020F830002000E100E053
:1095100010B50A494A788C78531CDBB29C4208BFCC
:1095200000230C789C421FBF0370486802EB420284
:1095300000EBC20008BF002010BD00BF9036002025
:1095400038B50D4B0D4C4FF40032C3F88020012587
:109550004FF48033C4F84833C4F80833656001F031
:1095600087FE074BA56000241C6001F081FE054BBF
:1095700083F83C4038BD00BF00E100E0001001402E
:1095800030330020F83000202DE9F74FBB4ABC49AA
:1095900013780978BB48BC4DD0F800E0994211D04F
:1095A0000133DBB2022B08BF00231370137805EBE5
:1095B00083034FF001085F6B07EB0E0323F07F433B
:1095C000036001E00027B846B04CB1492378D1F8D8
:1095D000009095F83DC00194019CAC4A66789E428B
:1095E00027D003EB430B566892780133DBB29A42E3
:1095F00008BF002316F83B20022A06EBCB0A03D053
:10960000032AE9D10E680DE0D1F800B0DAF80420A1
:109610005E46DA46002EDFD0964200F01781B24651
:10962000F669F7E71EB100223274F669FAE70E60B8
:10963000D2E785F83DC00E68B8F1000F02D00022D5
:1096400094461AE0B6EB090618BF012642461CE014
:10965000BF1BB44400261E60D3F80C808C4EDC691E
:109660003460B8F1000F08D00CEB0E0626F07F46F0
:10967000DA615E60C3F808801A460B6823B11E6881
:10968000B742E5D2F71B1F600126D1F800C095F85C
:109690003D8012B11346D26930E0019B019C1B78DA
:1096A0006778DFF8E8A19F427BD003EB430E9AF87E
:1096B00002B0DAF804700133DBB29B458AF800305F
:1096C00008BF8AF8002007EBCE0917F83E70D9F8DA
:1096D0000430012FE1D11F7C002FDED1D9F80840E2
:1096E0005C60D9F80C409C60D9F81040DC60D9F877
:1096F00014409C61B8F1000F00D05F60D3F804A063
:109700000768DFF89891C7EB0A0E2EF07F4ECE4522
:10971000D3F8089002D80EEB090708E0CAEB070758
:1097200027F07F47B9458CBFC7EB090700271F60AB
:10973000D1F80090DFF858A100274FF0010E5F60CC
:109740009F6083F810E0DF61B9F1000F0BD0D3F810
:1097500000E0D9F80070BE4508D8CEEB0707C9F87D
:109760000070C3F81C90CAF8003092E74F46D7F853
:1097700000A0D64509D9CAEB0E0ED7F81CA0B946F1
:10978000BAF1000F07D05746F1E7CEEB0A0AC7F847
:1097900000A0BA464F46C3F800E0C3F81CA0FB6126
:1097A00077E70B68634501D1002E49D0002B45D0E7
:1097B000384E0468D6F80485D3F800A095F83C30FC
:1097C000C4EB080727F07F470337A3B9324A4FF4A9
:1097D00080334FF400314FF00109C6F84433C6F826
:1097E0000433C2F880111160C6F8009001F040FD0A
:1097F000254B83F83C9057452CBFE31904EB0A0333
:1098000023F07F44C6F84045D6F80435214AC8EB1A
:10981000030323F07F43C8EB0404033324F07F44A5
:10982000A3420DD9D2F80435C2F8403501F020FD2D
:10983000194B4FF40032C3F8002101E0FFF780FE1E
:10984000002385F83D3003B0BDE8F08F92450AD182
:10985000DBF81C600E6036B9DFF838B04FF0010C51
:10986000CBF808C006601668D269CAF81C20002A26
:109870003FF4B2AE146826441660ADE62C330020E7
:109880002D33002030330020F830002090360020A7
:10989000283300200010014000E100E0FEFF7F00BF
:1098A0002DE9F743064602A8002400F8014D0D46B5
:1098B000174601F0B7FC234B234A18781178CBB236
:1098C000224909888B4238BF0133C0B238BFDCB2AD
:1098D000844209D014781378DBB28B423ABF01334B
:1098E000DBB20023137001E04FF6FF749DF8070010
:1098F000FFF73AFD4FF6FF739C421FD0DFF85890F8
:10990000D9F800304FEAC40803EB080243F834707A
:109910008EB185B10E4B18880E4B1B68314600FB8B
:1099200004302A4603F09CFAD9F80030984400200D
:10993000A8F8045003E00020908000E0042003B069
:10994000BDE8F0838D3400208C3400208E3400205C
:1099500080360020883400203433002007B5084BBF
:109960001B88072B8DE8030005D968460821054AA6
:10997000FFF796FF00E0092003B05DF804FB00BF8D
:10998000803600205991070070B5114C114A237898
:1099900012789A421BD023780F48104A0688126822
:1099A0000F48DBB219B202EBC105006852F8312052
:1099B000A98806FB030090470A4A23781288DBB285
:1099C0009A4286BF0133DBB200232370DDE770BD0E
:1099D0008D3400208C340020803600203433002069
:1099E000883400208E3400202DE9F04F0022C9B0C9
:1099F0000C468D5CE37843EA0563657843EA0543EA
:109A0000A57843EA052308AD0434AB500432402A5C
:109A1000EFD12A463023916B576A92E860004FEAF3
:109A2000714484EAF14484EA91242F443D194FEAB9
:109A3000F61484EAB64484EAD6012944013B116451
:109A400002F10402E7D1426D0192826D0292C26D71
:109A50000392026E0492426E0592826E0692C26E6C
:109A60000792924604AA92E80450D0F85080DDF89C
:109A70000CB0029E019F4446274951F8235008A983
:109A800051F8231005EB01094FEAB21585EAF225DA
:109A900085EA726109EB01052EEA02090CEA02016E
:109AA00089EA01010D4486EA0701AA44214006EA39
:109AB00007054D404FEAB40181EA743181EAB4519F
:109AC00001332944402B0BEB0A0901EB0A05B3468D
:109AD000F24606D0E6463E46944627464A462C467F
:109AE000CAE7019B1C44029B44651F44039B876596
:109AF0001E44049BC6654B440366059B1A44069BA3
:109B0000426663448366079B454473440565C366A8
:109B100049B0BDE8F08F00BFE8CE070043681A44A3
:109B2000426039B10139934204D013F8010B01F8B6
:109B3000010FF8E70120704776DF704775DF704747
:109B400037B5154C20884FF6FF739842254620D034
:109B5000A378227C0133DBB29A42A37007D304F1CD
:109B60002001FFF7EBFFA0B1E3698BB911E00023FF
:109B7000A370237D33B13B21FFF7DEFF10B1E36912
:109B800003B19847AB6923B102A8002200F8042D65
:109B9000984703B030BD00BF383100205B689A6839
:109BA000054B9A4206D14268836804490132013B61
:109BB0000A604B60704700BFE8CF0700B83600204E
:109BC000024A936A013B9362704700BF383100201C
:109BD00008B50E4C0E4BE41AE40800251E46A542BB
:109BE00004D006EBC5035B68984758B1BFF34F8FAD
:109BF0000849094BCA6802F4E0621343CB60BFF323
:109C00004F8F01E00135EAE700BFFDE78C2C002013
:109C1000842C002000ED00E00400FA0538B5354D35
:109C20002B6813F004045FD143F004022A60324A27
:109C300032481168324A00BF00BF00BF00BF00BFFA
:109C400000BF00BF00BF81422FD000BF00BF00BFD8
:109C500000BF00BF00BF00BF00BF00BF00BF00BF0C
:109C600000BF00BF00BF00BF00BF00BF00BF00BFFC
:109C700000BF00BF00BF00BF00BF00BF00BF00BFEC
:109C800000BF00BF00BF00BF00BF00BF00BF00BFDC
:109C900000BF00BF00BF00BF00BF00BF00BF00BFCC
:109CA00000BF00BF00BF00BF00BF013AC3D1154ACB
:109CB00010884FF6FF72904204D01321FFF709FB82
:109CC00078B113E09B070CD5FFF705FB70B94FF097
:109CD000A0434FF40032C3F808252B6843F0020379
:109CE0002B6001F00BFB02E0002400E0044620465C
:109CF00038BD00BFC0360020642C00200024F400D2
:109D0000C0D40100622C00202DE9F341836807468E
:109D100088460BB9002626E00DF1070101F004F892
:109D200006460028F6D09DF80740220619D504F013
:109D30007F040725BB68002BECD038460DF10701E6
:109D400000F0F2FF0028E5D09DF8072002F07F0325
:109D5000AB401C43130605F1070502D5232DE9D1BD
:109D6000D8E7C8F80040304602B0BDE8F08130B511
:109D7000044685B0154689B90268104B9A420DD049
:109D8000102D2046694605D91022FFF7F0FF98B143
:109D9000103DF5E72A46FFF7EAFF0DE0A368AB4266
:109DA00001D2002008E0236820462A469847002870
:109DB000F7D0A3685D1BA56005B030BD1D9B0700F3
:109DC0000023C2600160416083608B781A440261A5
:109DD00091F903301A4442610878003018BF01201D
:109DE000704710B542681178034600293AD002F155
:109DF0000C014160147B2CB90168C268FFF7E0FFD9
:109E0000204610BD5178107901F03004302C0AD171
:109E1000547B04F03004302C05D190781969091A6C
:109E2000196100200CE001F0F004202C03D15179DD
:109E300011FB00F004E001F0C001802908BF0420FC
:109E4000517811F0300F02BF996801319960917B10
:109E5000014418690144196192F90F2011445961B4
:109E6000012010BD084610BD2DE9F743324DEB8DA2
:109E70002A8C9A420FD86A8C9A420CD3AB6923B1D0
:109E800002A8012200F8042D9847002385F83430F9
:109E900003B0BDE8F08395F83440274B2CB19B69A3
:109EA000002BF2D002A80022ECE79E68DA68DFF807
:109EB00098809B78002B18BF1646D8F80430002BEA
:109EC00037D0042E33D91D4F7B6993B37B7C02A816
:109ED000012B00F8044D0CBFB1464FF0000901F012
:109EE000A1F90DF10300FFF713FB78B10123037013
:109EF000134B4760D3F8043583609DF80330C66088
:109F0000C0F81090446188F8013000E004249DF806
:109F10000400FFF729FA2CB90A4B4FF48012C3F85A
:109F20000021B2E72046EB69002BADD1ADE7072059
:109F3000F9E70820F7E700BF383100209836002005
:109F40000010014000E100E0903600207BDF704708
:109F50007ADF7047BFF34F8F0549064BCA6802F49A
:109F6000E0621343CB60BFF34F8F00BFFDE700BF3C
:109F700000ED00E00400FA0570B50E4B0E4C9A6B34
:109F80000E4E0F49A1635C33E3630E4B636404F12F
:109F900048050D4B22643046002229461A605A605B
:109FA00000F0F4FE04F1380031462A4601F036F89C
:109FB00070BD00BFE83600203831002060D00700B7
:109FC0001D9B07009D9B0700B83600202DE9FF4729
:109FD0004FF0A0430322C3F84427C3F84827C3F82F
:109FE0004C27C3F850274FF40032C3F808254FF42C
:109FF0008022C3F808254FF480114FF40022C3F8E3
:10A000000825AF4EC3F80815C3F80C25AD4AC3F8B0
:10A010004027AD4BAD494FF4AE72002530461D7060
:10A0200002F01EFF3468621C06D0301D58212A46FB
:10A03000FFF77EF9A0420DD0A14800214FF4AE7287
:10A04000FEF780FA01230020736000F093FC08B152
:10A05000FFF780FF32699A4D43F20803012A1B681B
:10A060000BD06A694AB1AC6904F6FF7424F47F64CA
:10A0700024F00F041C44243501E01C461835AA685E
:10A08000A52A62D002D8012A05D07CE0AA2A68D08D
:10A09000AC2A6CD077E07169894A012973D1176BBA
:10A0A000D2F824A0FD18C7EB0A07B7F5805F284651
:10A0B0004FF001014FF00002B84628BF4FF480581E
:10A0C00000F021FB034600285BD12846214642468A
:10A0D00000F0B6FB002854D103238DE82800684621
:10A0E0004FEA98030294039300F0FDFA0246002819
:10A0F00047D12046012100F006FB002841D1336BF7
:10A10000DFF8BC914344336300F034FCB7EB08073D
:10A1100045444444C9D143F20803514618683A46BD
:10A12000FFF706F9D9F82830984204BF0123C9F88F
:10A130001C00674804BFC9F82030C9F818A001F016
:10A1400045FA002000F016FC0FE0204601F0DEF991
:10A150000446B0B9284601F039FA204600F00AFC5E
:10A160000DE02046294601F041FA002408E020468F
:10A1700001F0CCF928B92046294601F037FA01242C
:10A1800010B1012400E000244FF0A043D3F81035B3
:10A19000DB030ED5B36D012B06D1494B002098652A
:10A1A00000F0E8FB28B153E71CB901F0F7F90028EB
:10A1B00079D1FFF7C5F9474A4749484BC2F874318E
:10A1C00005200023887002F5BC700B704B7048604E
:10A1D0004349C2F8F0314FF48010E02482F8F431A2
:10A1E00082F8F531C1F8800181F81443086000F16C
:10A1F0008040A0F56F203B4FC0F8083581F811432F
:10A20000D0F80415C2F8F81102F50071C2F8FC117B
:10A2100002F52A71C2F85013334982F854330820EA
:10A2200008801421A2F85613304982F855337F1A5A
:10A23000FF081C4615468846BC4207D058F8343003
:10A24000984700287FF404AF0134F5E7284A1C4CF6
:10A25000137843F001031370264B274A1A60274BEB
:10A2600004221A600023AB62B36BCBB1FFF784FE0C
:10A27000B0B1236A2BB9A3691BB1164AC2F858338F
:10A2800007E0F26A0E4B5AB99A694AB15B6AC5F89F
:10A290005833D5F8580301F0FBF8012385F85C33F7
:10A2A000FFF772FBFCE743F20805286800F0A2FB09
:10A2B000286800F09FFB204604B0BDE8F08700BF8F
:10A2C000E83600200C0003009834002000F007005E
:10A2D0000C37002038310020903600205D990700AF
:10A2E00000E100E08C2C002080360020842C00202F
:10A2F0001D3500200C3500209D900700A034002063
:10A30000034B01B919705B6803B11847704700BF70
:10A3100098340020094A936810B523F0010419B954
:10A3200023F00303936002E044F002049460436866
:10A3300013B1BDE81040184710BD00BF983400208D
:10A34000F0B50346186880F308885868FF2464B2A3
:10A35000EFF30585002D01D1A646004725460646A8
:10A3600021273FBAF0B40024002500260027F0B4CE
:10A37000F92040B2004700BFF0BD13DF704761DF36
:10A38000704748DF704708B5044B1B6F042B04D19E
:10A3900001F036F8FFF7F8FAF6E708BD9834002028
:10A3A00000200146014AFFF77BBA00BF41A4070025
:10A3B0002DE9F341214B5D6F9C6FB5FA85F5B4FA39
:10A3C00084F46D0964091F46002D31D197F87C3063
:10A3D000002B2FD101A8FFF7D4FF052807D008B123
:10A3E000FFF7B8FD154B01985B6F984700E001251A
:10A3F000E4B997F87C30114EE3B902A9D6F8808011
:10A40000B6F87E3021F8063D4046FFF7B8FF052834
:10A41000044605D00028E3D1B36F4046984700E0DA
:10A420000124002DD2D0002CCED003E015B9CDE709
:10A43000002CDED002B0BDE8F08100BF98340020CF
:10A4400008B509B1FFF786FD034B93F8843013B1CB
:10A45000BDE80840ACE708BD9834002008B5FFF718
:10A4600079FDF0B585B00F468D68694606461446FD
:10A4700000F0F3FC88B1B86878B17B7803F0300362
:10A48000202B03D12846214600F080FC684629464F
:10A49000224600F0C3FD019B736005B0F0BD2DE9BD
:10A4A000D34F144669460822FFF761FC90B39DF82C
:10A4B00001609DF802809DF805A00027002332026C
:10A4C0003B434FEA0846002732433B439DF8006078
:10A4D0009DF8038000273B439DF804704FEA0A294A
:10A4E00032439DF806A04FEA086632433B430026FC
:10A4F00043EA090332434FEA0A499DF807A0324371
:10A5000043EA090332434FEA0A69324343EA090343
:10A51000C4E9002302B0BDE8D08F13B5144601A9E9
:10A520000422FFF724FC70B19DF806309DF8052049
:10A530001B0443EA02239DF8042013439DF80720DF
:10A5400043EA0263236002B010BD73B50D4601A952
:10A5500006461446FFF7D8FB98B1019A511C0FD25A
:10A560006B7803F0C003802B0AD02B79994207D86F
:10A5700030462146FFF7FBFB019B0022E25400E03E
:10A58000002002B070BD73B50D4601A90646144601
:10A59000FFF7BAFBA8B1019BFF2B11D8591C0FD2B2
:10A5A0006A7802F0C002802A0AD02A79914207D83C
:10A5B0002146304601F8013B1A46FFF7D8FB00E080
:10A5C000002002B070BDF7B50F466946164600F090
:10A5D000F9FD50B3DDE90045002304F001026D08E8
:10A5E0004FEA340413431CBFE443ED43E8B13B7925
:10A5F000082B02D1C6E9004517E0042B02D13460D4
:10A6000022460AE0022B03D1A3B233801AB204E03F
:10A61000012B09D1E3B233705AB2D317AB4206BF54
:10A62000A2420120002000E0002003B0F0BD37B5B9
:10A630000D466946144600F0C5FD20B32B79082B62
:10A6400004D1DDE90001C4E9000113E0042B03D1CA
:10A65000DDE9000120600CE0022B03D1009820808E
:10A6600080B206E0012B0DD1DDE90001207000F081
:10A67000FF000021DDE90023994206BF904201203E
:10A68000002000E0002003B030BD37B50D4669461C
:10A69000144600F097FD20B32A79082A04D1DDE999
:10A6A0000023C4E900231CE0009B042A18464FEA5B
:10A6B000E37103D123601A460B460BE0022A03D153
:10A6C0009BB223801AB204E0012A09D1DBB22370C5
:10A6D0005AB2D3178B4206BF82420120002000E00D
:10A6E000002003B030BD18DF70471FB500211022D5
:10A6F0006846FDF727FF022368460093FFF7F3FF44
:10A7000005B05DF804FB2DE9FF41484FBB680546E5
:10A710005807144616D59A074DD443F00103BB6081
:10A7200097F88530DB077CD5414B424A93421E4661
:10A7300002D3414A934244D30220BB6823F0010371
:10A74000BB6070E0C5F30B03002B36D10F462A46E1
:10A750003A4B0220C3F80405D3F800040028FBD0CC
:10A760003648C0F80825D3F800040028FBD0334B46
:10A770000020C3F80405314BD3F80034002BFAD085
:10A78000013F02F58052E3D105EB0136BCB13946F9
:10A7900010226846FDF7D6FE2D0B01236846360BC6
:10A7A00039468DF800300194ADF80850ADF80A60D4
:10A7B000A047384637E00A2035E0062033E020463F
:10A7C00031E065B3C5F30B030BBB33689D4220D367
:10A7D0001FFA81F8726805EB08339A4219D3B8F171
:10A7E000000F18D06846FEF77CFDB0B1009B5C609E
:10A7F0001E60009B02222D0B1A729D81A3F810800F
:10A80000FEF78AFDBB68002043F0010398E70620AD
:10A8100093E7052091E704208FE707208DE70320C9
:10A820008BE7012089E704B0BDE8F081983400206F
:10A83000742C0020742C0020842C002000E00140A7
:10A840002DE9F0430E4646491C468B6813F0040F71
:10A8500085B00546884611D09F0742D443F00103D6
:10A860008B6091F88530D8076ED53E4B3E498B42C0
:10A870001F4638D33D498B4235D238E0002E65D093
:10A88000002863D040EA06039B0761D1002A63D009
:10A89000374B0121C3F80415D3F800140029FBD06D
:10A8A000002156F8213045F82130314BD3F800040F
:10A8B0000028FAD001319142F3D10021C3F80415E8
:10A8C000D3F800140029FBD0002674B16846314645
:10A8D0008DF8006001940295ADF80C20A047304639
:10A8E0003BE00A2039E0022037E0204635E06EB335
:10A8F00065B345EA060399072AD13B68AB4229D8DC
:10A900001FFA82F97A6805EB89039A4222D3B9F1DA
:10A91000000F21D06846FEF7E4FC98B1009B5C6014
:10A920001F60009B01221A72DE601D61A3F8149063
:10A93000FEF7F2FCD8F8083043F001030020C8F815
:10A9400008300AE0072008E0012006E0032004E0C8
:10A95000062002E0052000E0042005B0BDE8F083F9
:10A9600098340020742C0020742C0020842C0020AB
:10A9700000E0014038B50546194C237823B100F0BA
:10A980003FFDFFF701F8F7E7012323706560FFF74C
:10A99000FAFC002213480121FFF7B5FE0728024602
:10A9A000F5D018B100232370032038BD0E4D582177
:10A9B0002846FEF7BDFC29464FF4AE7241F8040D5F
:10A9C0000A4802F04DFAFFF7DEFC06480749084B3B
:10A9D0005722FFF735FF0728F5D00028E2D138BD10
:10A9E0009834002000F00700EC36002020350020CD
:10A9F00001A3070010B50446FFF777FE60B9074BC7
:10AA00004FF0FF32C3F880202046FFF7B6FC18B99C
:10AA10002046BDE8104093E410BD00BF00E100E017
:10AA200008B5074BD3F8E4211AB1904738B1FFF7C6
:10AA300091FA93F8843013B1BDE80840B8E408BD3A
:10AA40009834002060DF704710DF7047A34B1B78FD
:10AA5000062B0AD1A24B1B68190706D1A14B1B6814
:10AA600003F0F003302B00F0C1809C4B1B78062BC9
:10AA70000FD19B4B1B681A070BD19A4B1B6803F035
:10AA8000F002302A00F0B68003F0E003402B00F023
:10AA9000B180924B1B78062B0AD1914B1B681B0788
:10AAA00006D1904B1B6803F0F003302B00F0A98017
:10AAB0008A4B1B78062B0FD1894B1B6818070BD1CB
:10AAC000884B1B6803F0F002302A00F0A08003F0EE
:10AAD000E003402B00F09B80804B1B78062B0AD1B3
:10AAE0007F4B1B68190706D17E4B1B6803F0F003F0
:10AAF000302B00F09680794B1B78062B0BD1784BCE
:10AB00001B6813F00F0306D1764A126802F0F002B8
:10AB1000302A00F08A80714B1B78062B0AD1704BCB
:10AB20001B681A0706D16F4B1B6803F0F003502B0C
:10AB300000F08580694B1B78062B0FD1684B1B6892
:10AB40001B070BD1674B1B6803F0F002302A00F0A3
:10AB5000BE8003F0E003402B00F0B980624AD2F8D7
:10AB6000883043F47003C2F88830BFF34F8FBFF3CF
:10AB70006F8F4FF01023D3F80022002A03DBD3F8A5
:10AB80000432002B2EDA594B0122C3F80425D3F8E6
:10AB90000024002AFBD04FF010221521C2F8001229
:10ABA000D3F80024002AFBD04FF010231522C3F85D
:10ABB00004224E4BD3F80024002AFAD00022C3F816
:10ABC0000425D3F80024002AFBD0BFF34F8F464959
:10ABD000474BCA6802F4E0621343CB60BFF34F8F68
:10ABE00000BFFDE7434B444A1A607047434B444A59
:10ABF0001A603AE7434B444A1B68C3F3423313607D
:10AC000047E7424AD36823F08073D36050E74FF0A0
:10AC100080430022C3F80C21C3F81021C3F8382563
:10AC20005AE73B4B03221A6065E73A4A0521116057
:10AC3000012191679360384B3F221A606BE74FF018
:10AC40008052364BD2F80414C3F82015D2F80814F9
:10AC5000C3F82415D2F80C14C3F82815D2F8101430
:10AC6000C3F82C15D2F81414C3F83015D2F8181400
:10AC7000C3F83415D2F81C14C3F84015D2F82014C8
:10AC8000C3F84415D2F82414C3F84815D2F8281490
:10AC9000C3F84C15D2F82C14C3F85015D2F8301460
:10ACA000C3F85415D2F83414C3F86015D2F8381428
:10ACB000C3F86415D2F83C14C3F86815D2F84014F0
:10ACC000C3F86C15D2F84424C3F8702532E7144B4E
:10ACD000144A1B6803F04F0313603FE7E00F00F0D6
:10ACE000E40F00F0E80F00F000ED00E000E00140AC
:10ACF0000400FA05642C00200090D00374C00740C3
:10AD00000DF0ADBA440200103C050040F0ED00E04B
:10AD1000A0050040105600401456004000C00040FE
:10AD200058020010E40E004010B5012203680446EA
:10AD3000984710B1A368013BA36010BD13B504464A
:10AD4000052920D8DFE801F0070F121F1F1C9DF90D
:10AD50000430002B18DA204601A90122FFF707F87A
:10AD60000028F4D110E00021082206E001A9FEF736
:10AD7000CBFF48B1019A20460021FEF7F8FF03E01F
:10AD800000210422F9E7002002B010BD7FB5034680
:10AD90000A4668461946FFF713F830B1684600F0D6
:10ADA00007F86846FFF71DF8F7E707B05DF804FB02
:10ADB00030B54268527802F00F01082987B0034687
:10ADC0001ED103691C68002C45D00023237323681F
:10ADD00062689D6868462946FEF7F2FF636804933F
:10ADE00004F10C0305936B7803F0C003802B08BFBC
:10ADF000231D684608BF0493FFF7DAFFA468E2E763
:10AE000012F0C00109D102F03000102802D15A69B5
:10AE100011700CE090060AD506E080291BD100696C
:10AE200000219206016016D55B69197013E05A681B
:10AE3000517801F00F01072904D190681969FFF7D3
:10AE4000A5FF08E091681869127911B102F008F8BD
:10AE500001E0FDF777FB07B030BD73B50D4601A9E2
:10AE60000446FEF751FF064608B900260AE094E8BA
:10AE70000F0085E80F0001998A42F6D3A960A36804
:10AE80005B1AA360304602B070BD2DE9F0435768ED
:10AE90007B7813F0C00C89B006468E46144603D06A
:10AEA000BCF1400F66D0B0E003F00F02594903F047
:10AEB0003003102B51F822500AD004D8002B40F058
:10AEC000A480394608E0202B09D0302B40D09CE0EC
:10AED000636901221A7061682269A84796E0BEF191
:10AEE000020FD4F8148023D1042A21D804A9FFF733
:10AEF000B4FF002800F08980069B93B1616898F840
:10AF000000204B7993420CD90F79236904A807FBE1
:10AF10000232A84730B198F80030013388F8003089
:10AF2000EAE70120059B7360069B002B6ED06CE066
:10AF300098F800307979226997F804E0994264D949
:10AF4000591C88F80010304661680EFB0322C4E7E4
:10AF5000636939781970072A0AD1636820691A79F8
:10AF60006146FDF7EFFA636821699868FFF70EFF05
:10AF70003046B0E717693B6807F1040913B9FFF7DA
:10AF8000DDFE43E0022911D104A9FFF766FF002886
:10AF90003BD03B68616804A84A469847002834D0F3
:10AFA000069B002BF5D1059B73602FE0012919D07A
:10AFB00007D3052929D101A90422FEF7D8FE0425CB
:10AFC00015E000250DF1040801350B2D1DD030468C
:10AFD00041460122FEF7CBFEB8B118F9013B002B28
:10AFE000F2DB05E001A90822FEF7C1FE082568B1E1
:10AFF000094B049301AB05930023069507933B6827
:10B00000616804A84A46984700E0002009B0BDE8FE
:10B01000F08300BF24D107001D9B07002DE9F047F6
:10B020008EB00027044602A800970197FEF7C8FEDD
:10B03000A368002B44D0204608A9FEF765FE18B986
:10B04000A368002B3CD033E0089E002E38D0039D2F
:10B050004FEAD60806F00706039B1A78424529D026
:10B0600002A8FEF7BEFE039BAB42F5D1B8455CD308
:10B07000039A537803F00F03082B4BD11778B84588
:10B0800053D3069BD4F808901D68A368002D4AD0BE
:10B09000994548D12B68D3F800C0BCF1000F6CD0A3
:10B0A0002046294642463346E047002840F0858046
:10B0B000002084E05B7803F00F02082AD0D039E04A
:10B0C000039B049C5D7802A8FEF78BFE0028F7D155
:10B0D00015F0300F03D1039B1B7803B10134BCB1D1
:10B0E00062090023934205D05DF823100131DFD1BE
:10B0F0000133F7E70EAA02EB830304F01F04C4F147
:10B1000020044FF0FF3253F8383CE2409342CFD155
:10B11000012054E002A8FEF764FE039BAB42A7D1D6
:10B120004FF0FF3701E0994582D120463146FFF7C5
:10B1300005FE1EE013F0300F0FD1049B3F2B0CD8FF
:10B140005A090EA901EB820203F01F030121994065
:10B1500052F8383C0B4342F8383CE56825B12046AC
:10B160004146324602ABA8472046314602AAFFF7C5
:10B170008CFE00287FF45CAF9AE7D3F808A09AF819
:10B180000030434519D151466A6808A8FEF718FEF9
:10B190006B680C9305F10C030D939AF8013003F0E2
:10B1A000C003802B04BF2B1D0C9301232B7320465F
:10B1B000314608AAFFF769FE77E7AD6865E70EB08C
:10B1C000BDE8F0872DE9F34781468A46002600272F
:10B1D0000024D9F808300BB900251EE048460DF1CF
:10B1E0000701FFF7A1FD05460028F5D09DF807806F
:10B1F00008F07F002246C0B2002100F0AFFC18F03A
:10B20000800F46EA000647EA010704F1070402D06E
:10B21000462CDED1E0E7CAE90067284602B0BDE867
:10B22000F08700BF70B5EFF3108572B60D4A9468D1
:10B23000012394B993600C4B0C49D3F880603140E2
:10B2400011600A49C3F88010D3F8841051604FF0A0
:10B25000FF32C3F88420047000E0037005B962B6C1
:10B26000002070BD8436002000E100E0FC06FFBC39
:10B27000204B21491A682F2300BF00BF00BF00BF29
:10B2800000BF00BF00BF00BF8A422FD000BF00BF79
:10B2900000BF00BF00BF00BF00BF00BF00BF00BFB6
:10B2A00000BF00BF00BF00BF00BF00BF00BF00BFA6
:10B2B00000BF00BF00BF00BF00BF00BF00BF00BF96
:10B2C00000BF00BF00BF00BF00BF00BF00BF00BF86
:10B2D00000BF00BF00BF00BF00BF00BF00BF00BF76
:10B2E00000BF00BF00BF00BF00BF00BF013BC3D114
:10B2F000704700BF642C00200024F40037B5154DC2
:10B300002B6923B3AB6A13B302A8002400F8014DE4
:10B3100085F82440FFF786FF0DF10600FEF7F8F8E8
:10B3200040B10223037005F1140343609DF8063019
:10B330006B7300E004249DF80700FEF715F824B9AC
:10B34000054B4FF48012C3F80021204600E008208E
:10B3500003B030BD8436002000E100E00D4B1A88B8
:10B360004FF6FF739A4210B512D00B4BDC6BE4071B
:10B370000ED5602483F8410083F8421083F84040E2
:10B380001046B3F85C100322BDE81040FDF7F1BE93
:10B39000082010BD622C002084360020164B2DE9B9
:10B3A000F0411E884FF6FF739E42884621D0134C11
:10B3B000E36BDB071DD5602384F84030032384F85A
:10B3C000413004F14301012384F84230FDF75EFF70
:10B3D000033085B204F1400779194046FDF756FF66
:10B3E0002A18B4F85C10304692B2BDE8F041FDF77F
:10B3F000C0BE0820BDE8F081622C00208436002009
:10B40000204B21491A68214B00BF00BF00BF00BF7D
:10B4100000BF00BF00BF00BF8A422FD000BF00BFE7
:10B4200000BF00BF00BF00BF00BF00BF00BF00BF24
:10B4300000BF00BF00BF00BF00BF00BF00BF00BF14
:10B4400000BF00BF00BF00BF00BF00BF00BF00BF04
:10B4500000BF00BF00BF00BF00BF00BF00BF00BFF4
:10B4600000BF00BF00BF00BF00BF00BF00BF00BFE4
:10B4700000BF00BF00BF00BF00BF00BF013BC3D182
:10B48000704700BF642C00200024F400A086010057
:10B4900038B543F20803054619681A4B1A68A2F535
:10B4A0004052521A82422AD31748D0F88440C0F83A
:10B4B000C011012C16D1C36F03F6FF7323F47F6311
:10B4C00023F00F03D21A95424FF0000202D94467CD
:10B4D00082670AE00B4484674267C0F8C03100F11C
:10B4E000880404E000234367836700F17C0420465E
:10B4F00000210C22FDF726F82560002038BD04202D
:10B5000038BD00BF14100010843600202DE9F04330
:10B51000214DD5F89820D5F8943002F6FF74E41A3E
:10B5200024F47F6424F00F044FEA940909F6FF79AC
:10B5300029F47F6985B003F5805629F00F09C718F3
:10B540000AB1934224D04FEA9908012368468DE856
:10B5500088000296CDF80C80FFF7C5F8C8B9032320
:10B5600068468DE8C801FFF7BEF890B9A145D5F847
:10B5700098308CBF0446C9EB04041B1B00204E44CA
:10B580004F44C5F89430FFF7F5F9002CDDD100E009
:10B59000002005B0BDE8F0838436002010B50A4BCA
:10B5A000D3F8840001280DD1D3F880405CB143F278
:10B5B0000802D96F10680022FDF7BAFE031B58423B
:10B5C000584110BD002010BD8436002008B50C2263
:10B5D0000021FCF7B7FF044B0022C3F89420C3F806
:10B5E00098205A679A6708BD84360020F0B5134B3F
:10B5F000D3F898400B6885B005191C1B03230093F2
:10B60000A4080F4B019368460F4602950394FFF779
:10B610006AF8064630B93846FFF7D8FF3046FFF7DC
:10B62000A9F909E0684600211022FCF78BFF684663
:10B6300001950294FFF757F805B0F0BD843600205D
:10B640000080070070B59CB00023109300220023F7
:10B65000CDE91223524B1493524B1593524B169330
:10B66000524B1793524B1893524B1993524B1A93B8
:10B6700003F17453A3F52303A3F692431B9311B96B
:10B68000044645181BE00028FAD11DE0109B14F871
:10B69000011B1CAA1A440133402B02F8701C1093A2
:10B6A0000DD168466946FEF79FF9DDE9122312F5D0
:10B6B000007243F10003CDE9122300231093AC4242
:10B6C000E4D13E4C656B0DB90E2067E0109B1CAABF
:10B6D0001A44372B4FF0800103F101036E4602F844
:10B6E000701C6B4406D89A1B382A13D0002203F82A
:10B6F000012BF8E79A1B3F2A03D8002203F8012BFD
:10B70000F8E730463146FEF76FF93046002138221F
:10B71000FCF718FFDDE9122310980821E1FB002354
:10B7200022FA01F1CDE912238DF83F208DF83E1069
:10B73000110C120E8DF83C201A0A8DF83D108DF870
:10B740003B308DF83A2030461A0C31461B0E8DF8EE
:10B7500039208DF83830FEF747F92A4600231B9927
:10B76000D94011701A99D94011711999D9401172A3
:10B770001899D94011731799D94011741699D94065
:10B7800011751599D94011761499D9400833202B99
:10B79000117702F10102E2D1A36300201CB070BD59
:10B7A00067E6096A85AE67BB72F36E3C3AF54FA552
:10B7B0007F520E518C68059BABD9831F84360020C5
:10B7C0002DE9F0434FF0A0430322C3F84427C3F808
:10B7D00048274FF40032C3F808254FF48022C3F8FD
:10B7E0000825A14B95B018680490FEF77EFF00284D
:10B7F0005BD19E48FDF748FD002856D19C4B9D4AE1
:10B800001A609D4B50221A809C4B9D4A1A609D4B9A
:10B810001C68C4F340341CB14FF40052C3F88020BC
:10B8200004A89949FFF710F9964A20B17CB14FF46A
:10B83000005313600BE0954B0121197092F81633F9
:10B840005B09991E052902D8043B012B01D8FEF79C
:10B8500081FB8F4B9968002900F065811A6842F4DA
:10B8600080021A6000211C220DA8FCF76BFE012348
:10B870009DF84820ADF834308DF83C308DF83D30DF
:10B880008DF83E3017230021ADF84430814B1391E1
:10B8900061F30002019314A9019B41F8303D0DA80A
:10B8A0008DF84820FFF7CEF8019B0446002840F0B1
:10B8B0003E81794B794A1A609DF810300D90012233
:10B8C00062F303030E9062F3071308A88DF810309B
:10B8D000FDF703FD38B99DF8213008A801338DF834
:10B8E0002130FDF7FCFC0446002840F020816C4824
:10B8F00001F0C1FA6A4982B204A8FDF7E6FC70B90A
:10B900000C23ADF834301823ADF836300DA84FF4C1
:10B91000C873ADF83840ADF83A30FDF7D8FC0446AE
:10B92000002840F004815F4B4FF6FF7214A91A8083
:10B930004FF65963012021F8483D5B4A8DF80A0013
:10B94000FDF7BDFC002840F0B780584B04AC03F174
:10B95000100518685968224603C20833AB421446E2
:10B96000F7D1534E04A83146FDF79DFC044600284C
:10B9700040F0A38021461C224FF014090DA8FCF7CB
:10B98000E1FD21464A4608A8FCF7DCFD9DF834306D
:10B99000ADF80040374643F004038DF8343017F813
:10B9A00002398DF80E3002234FF00108ADF80C304B
:10B9B000230A68F3030368F3420468F30713E4B24D
:10B9C0008DF8013044EA080403AD36F8020C8DF816
:10B9D00002400DA908AA3B1D0895CDF824D0ADF86A
:10B9E0002C90FDF76AFC0446002840F0A080214618
:10B9F0001C220DA8FCF7A6FD21464A4608A8FCF724
:10BA0000A1FD9DF83430ADF8004043F018038DF8E7
:10BA10003430BB788DF80E30230A204668F30303D8
:10BA200068F3071368F342008DF80130C4B217239E
:10BA300044F01104ADF82C3036F8020C8DF80240B9
:10BA40000DA908AA07F10C03ADF80C800895CDF8F4
:10BA500024D0FDF732FC0446002868D1154A13684B
:10BA600043EA080313602AE048D10700008007007A
:10BA70001835002068380020163500207C3600205C
:10BA8000A1A3070000E100E05DA407001C35002031
:10BA900084360020002C0020103500205985070036
:10BAA0005CD10700622C0020D43600204CD1070066
:10BAB000D6360020C03600200446002C37D10021A5
:10BAC0001C220DA8FCF73EFD40F6CD430E934FF42B
:10BAD00080430F9303238DF84030174B13930DAD24
:10BAE0000FCD164E0FC695E80700154B86E80700E8
:10BAF00014481C70FEF72AFA88B9134B4FF6FF72F0
:10BB00001A80124B1C70124B5B6853B1114B1A7C9C
:10BB10003AB9114A1C745C745A61FDF747FB04463C
:10BB200005E0082403E04FF4800313609AE6204602
:10BB300015B0BDE8F08300BF6D9107003C310020D7
:10BB40006C31002058310020383100203A3100207B
:10BB50009036002098360020419B07009140031C3E
:10BB600090409C46203A9340194352426346D3404A
:10BB7000194370470649074A074B9B1A03DD043BEC
:10BB8000C858D050FBDCFEF761FFFCF767FC0000F3
:10BB900020D20700002C00208C2C0020FEE7FEE7BE
:10BBA000FEE7FEE7FEE7FEE7FEE7FEE7FEE7FEE76D
:10BBB0001AB1013A8B5C8354FAE7704710B5013A29
:10BBC000D2B253B2002B09DB1BB250F8234051F81C
:10BBD00023309C4204D8F2D2FF2002E0002000E093
:10BBE000012040B210BD0000000000000000000075
:10BBF000C3F10803DB0070B501330446002003A540
:10BC00005B1920C940CAAD1920C4184720C940CAD1
:10BC1000754120C420C940CA754120C420C940CA0A
:10BC2000754120C420C940CA754120C420C940CAFA
:10BC3000754120C420C940CA754120C420C940CAEA
:10BC4000754120C4404170BD0000000000000000AC
:10BC5000C3F10803DB0070B50133002403A500BF66
:10BC60005B1920C940CAAD1B20C0184720C940CA73
:10BC7000B54120C020C940CAB54120C020C940CA32
:10BC8000B54120C020C940CAB54120C020C940CA22
:10BC9000B54120C020C940CAB54120C020C940CA12
:10BCA000B54120C06441B4FA84F0400970BD00BFC2
:10BCB0002DE9F04F08B4F8CA04B451F8042BA3FBE3
:10BCC000028940F8048B4FF0000AE4FB629A4FF0BF
:10BCD000000BE5FB62AB4FF0000CE6FB62BC4FF0E3
:10BCE000000EE7FB62CE51F8042B4FF00008E3FB97
:10BCF000628940F8048BE4FB629AE5FB62ABE6FBE9
:10BD000062BCE7FB62CE51F8042B4FF00008E3FB66
:10BD1000628940F8048BE4FB629AE5FB62ABE6FBC8
:10BD200062BCE7FB62CE51F8042B4FF00008E3FB46
:10BD3000628940F8048BE4FB629AE5FB62ABE6FBA8
:10BD400062BCE7FB62CE51F8042B4FF00008E3FB26
:10BD5000628940F8048BE4FB629AE5FB62ABE6FB88
:10BD600062BCE7FB62CE40F8049B40F804AB40F8AD
:10BD700004BB40F804CB40F804EB0CBC052B00F0EE
:10BD80001E810C68A0F11400A1F11401A2F11402AB
:10BD900052F804EB4FF0000550F8046BE4FB6E56CC
:10BDA00052F804EB50F8047BE4FB6E6752F804EBA6
:10BDB00050F8048BE4FB6E7852F804EB50F8049BC7
:10BDC000E4FB6E8952F804EB50F804ABE4FB6E9A86
:10BDD000A0F1140052F8044B51F804EB4FF0000CA2
:10BDE000E4FB6EC540F804CB51F804EBE4FB6E565F
:10BDF00040F8045B51F804EBE4FB6E6740F8046B19
:10BE000051F804EBE4FB6E7840F8047B51F804EB46
:10BE1000E4FB6E8940F8048B51F804EBE4FB6E9A66
:10BE2000A0E80006062B00F0CA800C68A0F11800FC
:10BE3000A1F11801A2F1180252F804EB4FF000052D
:10BE400050F8046BE4FB6E5652F804EB50F8047B98
:10BE5000E4FB6E6752F804EB50F8048BE4FB6E7859
:10BE600052F804EB50F8049BE4FB6E8952F804EBA3
:10BE700050F804ABE4FB6E9A52F804EB50F804BBA4
:10BE8000E4FB6EABA0F1180052F8044B51F804EB40
:10BE90004FF0000CE4FB6EC540F804CB51F804EB06
:10BEA000E4FB6E5640F8045B51F804EBE4FB6E676C
:10BEB00040F8046B51F804EBE4FB6E7840F8047B27
:10BEC00051F804EBE4FB6E8940F8048B51F804EB65
:10BED000E4FB6E9A40F8049B51F804EBE4FB6EAB74
:10BEE000A0E8000C072B6AD008B40C68A0F11C0075
:10BEF000A1F11C01A2F11C0252F804EB4FF0000565
:10BF000050F8046BE4FB6E5652F804EB50F8047BD7
:10BF1000E4FB6E6752F804EB50F8048BE4FB6E7898
:10BF200052F804EB50F8049BE4FB6E8952F804EBE2
:10BF300050F804ABE4FB6E9A52F804EB50F804BBE3
:10BF4000E4FB6EAB52F804EB50F804CBE4FB6EBCA0
:10BF5000A0F11C0052F8044B51F804EB4FF0000321
:10BF6000E4FB6E3540F8043B51F804EBE4FB6E56FD
:10BF700040F8045B51F804EBE4FB6E6740F8046B97
:10BF800051F804EBE4FB6E7840F8047B51F804EBC5
:10BF9000E4FB6E8940F8048B51F804EBE4FB6E9AE5
:10BFA00040F8049B51F804EBE4FB6EAB40F804ABA3
:10BFB00051F804EBE4FB6EBCA0E8001808BCBDE837
:10BFC000F08F2DE9F04FB1E8005E06B4AAFB09122C
:10BFD0004FF00003EBFB69234FF00004ECFB6934E6
:10BFE0004FF00005EEFB69454FF00006EBFB6A637E
:10BFF000ECFB6A344918524176415B41A9FB097850
:10C000004FF0000949F1000918EB0108A0E8800190
:10C01000AAFB0A78574158EB0608A0E88001EEFB1E
:10C020006A454FF0000A4AF1000A4FF00001ECFBAC
:10C030006B14EEFB6B454FF00002EEFB6C255FEAE4
:10C0400059094941644152416D4149F10009EBFBF5
:10C050006B3A1AEB010AA0E80804ACFB0C6A6641D3
:10C060005AEB020AA0E84004AEFB0E6A6E415AEB9E
:10C07000090AA0E8400406BC052A00F0E680A0F109
:10C080001400A1F11401B1E8E043A5FB0E344FF018
:10C090000005E6FB6E454FF00006E7FB6E564FF0DD
:10C0A0000007E8FB6E674FF00008E9FB6E784FF081
:10C0B0000009DB1864416D4176417F4158EB080867
:10C0C00059F1000950F804CB13EB0C0350F804CBE2
:10C0D00054EB0C0450F804CB55EB0C0550F804CB92
:10C0E00056EB0C0650F804CB57EB0C0758F1000840
:10C0F00059F10009A0F11400EEFB0E89A0E8F80345
:10C10000062A00F0A280A0F11800A1F11801B1E800
:10C11000E047A5FB0E344FF00005E6FB6E454FF0FF
:10C120000006E7FB6E564FF00007E8FB6E674FF026
:10C130000008E9FB6E784FF00009EAFB6E894FF0CA
:10C14000000ADB1864416D4176417F4158EB0808D5
:10C1500059EB09095AF1000A50F804CB13EB0C0310
:10C1600050F804CB54EB0C0450F804CB55EB0C0501
:10C1700050F804CB56EB0C0650F804CB57EB0C07E9
:10C1800050F804CB58EB0C0859F100095AF1000A99
:10C19000A0F11800EEFB0E9AA0E8F807072A54D089
:10C1A000A0F11C00A1F11C01B1E8E04FA5FB0E3489
:10C1B0004FF00005E6FB6E454FF00006E7FB6E56BC
:10C1C0004FF00007E8FB6E674FF00008E9FB6E7860
:10C1D0004FF00009EAFB6E894FF0000AEBFB6E9A04
:10C1E0004FF0000BDB1864416D4176417F4158EB05
:10C1F000080859EB09095AEB0A0A5BF1000B50F8E1
:10C2000004CB13EB0C0350F804CB54EB0C0450F8A4
:10C2100004CB55EB0C0550F804CB56EB0C0650F84C
:10C2200004CB57EB0C0750F804CB58EB0C0850F834
:10C2300004CB59EB0C095AF1000A5BF1000BA0F199
:10C240001C00EEFB0EABA0E8F80FBDE8F08F10B5B8
:10C25000002253B28B4205DA1BB2002440F823407F
:10C260000132F6E710BD2DE9F0478846B3F9021018
:10C270001F460825CB1D202493FBF5F51F31954261
:10C2800091FBF4F44FFA84F928BF15460646494657
:10C29000FFF7DDFF2A4630464146FFF789FCB7F934
:10C2A0000230ED009D4220D9ED1A06EB84010022F8
:10C2B0008E420AD251F8040D20FA05F313430B60A5
:10C2C000C5F1200300FA03F2F2E72437384631467D
:10C2D0004A46FFF773FC012807D0304631463A46FC
:10C2E0004B46BDE8F047FFF7B3BCBDE8F08710B59B
:10C2F00000231A465CB28C4204DA50F82440013321
:10C300002243F7E7B2FA82F0400910BD4A11012337
:10C3100001F01F0150F822008B401840704701398E
:10C32000C9B24BB2002B0BDA013111F0FF0315D06B
:10C3300059B201F18043013B50F82320002304E06F
:10C3400050F82330002BEAD0EEE712B15208013347
:10C35000FBE7481E03EB401080B200E0184600B235
:10C36000704730B5002463B2934206DA1BB2013441
:10C3700051F8235040F82350F5E730BDF0B50C4696
:10C3800089B008220646FFF7ECFFE36A0393236BAC
:10C390000493636B0593A36B0693E36B07930027EA
:10C3A00069466A4608236846029701970097FFF797
:10C3B0001FFC314605466A4608233046FFF718FC45
:10C3C000236B0393636B0493A36B0593E36B069357
:10C3D000054469466A46082368460797FFF708FC44
:10C3E000314605446A4608233046FFF701FC236ABC
:10C3F0000093636A0193A36A0293A36B0693E36BB2
:10C400000793054431466A4608233046059704974A
:10C410000397FFF7EDFB636A0093A36A0193E36A56
:10C42000A26B0293636B039304920693E26B236AFD
:10C4300005920544079331466A4608233046FFF7C4
:10C44000D7FBE36A0093236B0193636B0293236A28
:10C450000693A36A0793054431466A46082330468B
:10C46000059704970397FFF7F3FB236B0093636B28
:10C470000193A36B0293E36B0393636A0693E36AEE
:10C4800007932D1A31466A460823304605970497CC
:10C49000FFF7DEFB636B0093A36B0193E36B0293E7
:10C4A000236A0393636A0493A36A0593236B079338
:10C4B0002D1A31466A46082330460697FFF7C8FB17
:10C4C000A36B0093E36B0193636A0393A36A0493E2
:10C4D000E36A0593636B07932D1A314630466A462B
:10C4E000082302970697FFF7B3FB2D1A16D530469F
:10C4F00031460D4A0823FFF77BFB4519F7D410E0BE
:10C50000094831460822FFF759FB012809D0304677
:10C510003146054A0823FFF79BFB2D1A002DEFD06B
:10C52000F5E709B0F0BD00BF68D10700013A30B5AA
:10C53000D2B2002453B2002B09DB1BB2013A51F8EE
:10C54000235050F823306B401C43D2B2F2E7B4FAC8
:10C5500084F0400930BD00EB81010023884206D2FF
:10C5600051F8042D43EA52030B60D307F6E77047F6
:10C57000F8B5036813F0010506460F46144605D0CA
:10C5800001463A462346FFF733FB0546304621462F
:10C59000FFF7E1FF45B104F18042013A56F822303D
:10C5A00043F0004346F82230F8BD70B59DF91040C5
:10C5B0001D4623460646FFF71BFB30B92846314689
:10C5C0002246FFF7FBFA012807D0304631462A46BB
:10C5D0002346BDE87040FFF73BBB70BD70B59DF9C9
:10C5E00010401D4623460646FFF732FB38B1304661
:10C5F00031462A462346BDE87040FFF7F9BA70BDC0
:10C600002DE9F043A3B09846019112AB414607468D
:10C61000104691460093FFF782FEC0EB881086B269
:10C62000454C33B21C40002CBEBF04F1FF3464F013
:10C630001F040134202593FBF5F5EDB26DB2A4B2D1
:10C6400002A8294624B2FFF702FE28B202AB002C52
:10C6500003EB800010DD00221346434510D259F849
:10C66000235005FA04F10A4340F82320C4F12002C4
:10C6700025FA02F20133F0E749464246FFF771FE20
:10C680000FFA88F502AB4FEA4509012403EB850553
:10C69000330444D40022114653B24B4522DA0DF143
:10C6A000880E0EEB840E0DF1880C18B25EF888EC43
:10C6B0000CEB83035EF820E053F8803CC3EB0E03E1
:10C6C0005B1A734502D08CBF01210021C4F1010E19
:10C6D0000DF1880C0CEB8E0E01325EF888EC4EF8F2
:10C6E0002030D9E7621A544202A841465441FFF76C
:10C6F00032FF22AA08F1FF3302EB830302EB880228
:10C70000284652F8801C53F8802C013E42EAC17240
:10C71000414643F8802CB6B2FFF71DFFB8E722ABC5
:10C7200003EB8404384654F8881C4246FFF719FE90
:10C7300023B0BDE8F08300BF1F00008070B590B04B
:10C7400006469DF950401D4668462346FFF7B0FA5D
:10C75000304669462A462346FFF752FF10B070BDA7
:10C7600030B51C4691B0054693F900306846FFF796
:10C770009FFAD4F8AC3028466946984711B030BDCE
:10C7800030B5144691B0054692F900206846FFF78F
:10C7900018FCD4F8AC3028466946984711B030BD33
:10C7A0002DE9F04115468AB00446884602A80021CA
:10C7B0002022FBF7C7FE2E780323204641462A4657
:10C7C0002F1D76B20293FFF7DBFF2046214602AA17
:10C7D0003B460096FFF702FF2046214642462B4685
:10C7E000FFF7BEFF00962046214605F184023B4636
:10C7F000FFF7DBFE0AB0BDE8F0812DE9F04793F9C1
:10C80000006092B004468946104631461546984667
:10C81000FFF76DFD002840F0978002A84946424688
:10C82000FFF7AEFF43460AA8214602AAFFF798FF8A
:10C8300002A801464246FFF7A3FF43464846494641
:10C840002A46FFF78DFF08F104072846294642468D
:10C85000FFF796FF204621462A463B460096FFF703
:10C86000A4FE284629462A463B460096FFF79DFE31
:10C87000284621462A463B460096FFF7AFFE204653
:10C8800021462A464346FFF76BFF284621462246AB
:10C890003B460096FFF789FE20463B460096214620
:10C8A0002A46FFF782FE2368DB07204613D533466E
:10C8B00021463A46FFF79CF9314682462046FFF76B
:10C8C0004AFE06F18043013B54F8230040EACA7057
:10C8D00044F8230002E03146FFF73DFE284621469A
:10C8E0004246FFF74DFF284629460AAA3B460096D6
:10C8F000FFF774FE284629460AAA3B460096FFF732
:10C900006DFE0AA801462A463B460096FFF766FEE2
:10C91000204621460AAA4346FFF722FF02A8024604
:10C920003B4621460096FFF759FE204629463246EF
:10C93000FFF717FD284649463246FFF712FD4846E5
:10C9400002A93246FFF70DFD12B0BDE8F0872DE9D0
:10C95000F0438BB08046129D15F9046B0096144687
:10C960001F4689462B4602A811464246FFF736FE6F
:10C9700002A80146129AFFF703FF4046414602AA69
:10C98000129BFFF7EDFE2046214602AA129BFFF7FD
:10C99000E7FE2B46384639464A460096FFF71EFE0C
:10C9A00002A83946129AFFF7EBFE02A8014642465A
:10C9B0002B460096FFF712FE02A8014622462B46A0
:10C9C0000096FFF70BFE2046214642462B46009676
:10C9D000FFF704FE484649462246129BFFF7C0FE79
:10C9E0002046414602AA2B460096FFF7F7FD38463F
:10C9F00039462246129BFFF7B3FE384639464A466F
:10CA00002B460096FFF7EAFD204602A93246FFF7C3
:10CA1000A8FC0BB0BDE8F083F0B589B01C46074612
:10CA20000E461546684611461A46FFF7A9FE3846D7
:10CA300039466A462346FFF793FE684669462A460A
:10CA40002346FFF78DFE304631466A462346FFF700
:10CA500087FE09B0F0BDF0B50646A1B00F46084606
:10CA6000194615461C46FFF742FC20B130462146C8
:10CA7000FFF7EDFB73E0684639462246FFF771FC8D
:10CA800008A829462246FFF76CFC10A82146FFF7AC
:10CA9000DEFB012318A821461093FFF7D8FB684658
:10CAA00008A92246FFF78AF8002853D0009BDA072E
:10CAB00004D468462146FFF74EFD26E0089BDB07BD
:10CAC00004D408A82146FFF746FD3DE000281EDDFE
:10CAD00008AA234669466846FFF7BAF86846214621
:10CAE000FFF739FD10A818A92246FFF767F80028BC
:10CAF00005DA10A801462A462346FFF779F810A860
:10CB0000014618AA2346FFF7A3F810A81DE008A8BD
:10CB10006A4623460146FFF79BF808A82146FFF71F
:10CB20001AFD18A810A92246FFF748F8002805DAD0
:10CB300018A801462A462346FFF75AF818A80146C6
:10CB400010AA2346FFF784F818A829462246FFF7C3
:10CB50000FFDA4E7304610A92246FFF702FC21B0E2
:10CB6000F0BD00000048704764D107002DE9F04F88
:10CB7000EFB01E46789C059023780493B4F90230F8
:10CB800092461F33202293FBF2F3DBB206939DF90A
:10CB9000187094F9012007F1FF3926AB002543F8FE
:10CBA00029506EAB03EB89034EA88B46314643F800
:10CBB000805C43F8605CFEF7FBFF94F9012056A807
:10CBC000B118FEF7F5FF9DF910604EA83146FFF74A
:10CBD0008EFB8046002840F02F8156A83146FFF793
:10CBE00086FB0546002840F0258104F124084046D4
:10CBF0004EA93A46FEF7E2FF012840F01D8140466B
:10CC000056A93A46FEF7DAFF0128089040F0148151
:10CC10003B461EA856A94246FFF71DFF0DF1380CF2
:10CC200060465946524623464CF82950CDF80CC070
:10CC3000FFF719FBDDF80CC00097604661461EAA9D
:10CC40004346CDF824C00DF5BC79FFF777FD434688
:10CC5000009716A84EA91EAAFFF770FD4846324657
:10CC60000599FFF77EFBB300039309EB030B039ACF
:10CC7000059B584699183246FFF773FB04F14403AD
:10CC80001946324636A80793FFF76BFB04EB860183
:10CC900032463EA8443104F1040AFFF762FB4946DC
:10CCA00000961EA836AA5346FFF798FC4A465B46F4
:10CCB00036A83EA90094FFF74AFE1EA80146334657
:10CCC0005246FFF7C8FE1EAA484659462346FFF7BC
:10CCD000A3FEDDF824C0079B0B936046059B0C93D5
:10CCE0003946CDF814C00A95CDF83490FFF717FBFC
:10CCF0003946054616A8FFF712FBA842B8BF2846DA
:10CD000085B2DDF814C06F1E3FB260463946FFF7AA
:10CD1000FDFA394610F1000916A818BF4FF00109B5
:10CD2000FFF7F4FA002814BF0223002343EA09099D
:10CD30000DF1280B32465BF8297026A83946FFF71B
:10CD400010FB039B3246F9182EA8FFF70AFB314669
:10CD50001EA8FFF77CFA023D089B1E93AEB237B2C5
:10CD6000002F44DB23461EAAD4F8A45026A82EA9DF
:10CD7000A84739460EA8FFF7C9FA3946051C16A878
:10CD800018BF0125FFF7C2FA002814BF02230023B1
:10CD90001D430AAB53F8257037B39DF9105036A8E0
:10CDA00039462A46FFF7DDFA039B3EA8F9182A46C2
:10CDB000FFF7D7FA36A83EA91EAA2346FFF72CFE96
:10CDC00046A826A936AA53460095FFF707FC36A8C1
:10CDD0003EA926AA2EAB0094FFF7B9FD1EA8014676
:10CDE00046AA2346FFF7BCFC013EB6B2B7E79DF961
:10CDF00010501EA8014652462B46FFF72CFE234634
:10CE000026A82EA91EAAFFF707FE9DF91840404646
:10CE100026A92246FEF7D2FE012805D026A8014603
:10CE200042462346FEF714FF26A84EA92A46FFF7DE
:10CE30007DFB02E0404600E028466FB0BDE8F08F81
:10CE400010B50A44441E914208D014F8013F0878F6
:10CE5000834201D0181A10BD0131F4E7002010BD43
:10CE600010B5431E0A44914204D011F8014B03F857
:10CE7000014FF8E710BD034613F8012B002AFBD140
:10CE8000181A013870470000F8B500BFF8BC08BC9C
:10CE90009E467047F8B500BFF8BC08BC9E46704778
:10CEA00043000000002C0020430C991553354A5CC8
:10CEB00077E772CF4233DA420ABE4131F455648DCE
:10CEC000D947B9866C852103BB12E1C4C622E6644A
:10CED00038CAFFE497FBC115FC4BF23C1CBF9DEB2D
:10CEE0006DF3DD97379E6506982F8A42914437711E
:10CEF000CFFBC0B5A5DBB5E95BC25639F111F159DD
:10CF0000A4823F92D55E1CAB98AA07D8015B83121E
:10CF1000BE853124C37D0C55745DBE72FEB1DE80CA
:10CF2000A706DC9B74F19BC1C1699BE48647BEEFF9
:10CF3000C69DC10FCCA10C246F2CE92DAA84744A84
:10CF4000DCA9B05CDA88F97652513E986DC631A8FA
:10CF5000C82703B0C77F59BFF30BE0C64791A7D5D9
:10CF60005163CA0667292914850AB72738211B2E61
:10CF7000FC6D2C4D130D385354730A65BB0A6A7649
:10CF80002EC9C281852C7292A1E8BFA24B661AA855
:10CF9000708B4BC2A3516CC719E892D1240699D665
:10CFA00085350EF470A06A1016C1A419086C371EDE
:10CFB0004C774827B5BCB034B30C1C394AAAD84EBC
:10CFC0004FCA9C5BF36F2E68EE828F746F63A578F7
:10CFD0001478C8840802C78CFAFFBE90EB6C50A48A
:10CFE000F7A3F9BEF27871C6011104FC0400000039
:10CFF00000000000021104FC04000000000000001A
:10D00000032104FC0404000000000000041101FFDF
:10D010000100000000000000051102FE04000000F5
:10D0200000000000061104FC0400000000000000E5
:10D03000071104FC0400000000000000081701FFB5
:10D040002200000084D00700091001FF0100000049
:10D0500020D10700000000000000000000000000D8
:10D06000011704FC70000000F0D00700021704FC58
:10D07000B4000000C0D00700000000000000000065
:10D08000000000000101000001000000000000009D
:10D090000205000021000000000000000000000068
:10D0A000000000000000000001010000040000007A
:10D0B0000000000000000000000000000000000070
:10D0C0000107000070000000F0D00700020100001E
:10D0D0000100000000000000030500004100000006
:10D0E0000000000000000000000000000000000040
:10D0F000011101FF0100000000000000021702FE04
:10D1000064000000E8CF0700031704FC04000000DF
:10D11000A8D0070000000000000000000000000090
:10D12000000000008BA607002FA60700C7A5070078
:10D130001BA507009FA4070087A507004BA50700B4
:10D1400063A40700000000000100000750EADA3085
:10D150008883B89F604F15F30000C98E44667554EC
:10D160006172670008200001FFFFFFFFFFFFFFFF64
:10D17000FFFFFFFF000000000000000000000000B3
:10D1800001000000FFFFFFFF512563FCC2CAB9F395
:10D19000849E17A7ADFAE6BCFFFFFFFFFFFFFFFF6E
:10D1A00000000000FFFFFFFF96C298D84539A1F4A8
:10D1B000A033EB2D817D0377F240A463E5E6BCF854
:10D1C00047422CE1F2D1176BF551BF376840B6CB1F
:10D1D000CE5E316B5733CE2B169E0F7C4AEBE78E1B
:10D1E0009B7F1AFEE242E34F4B60D2273E3CCE3B90
:10D1F000F6B053CCB0061D65BC86987655BDEBB332
:10D20000E7933AAAD835C65AFBC70700A1C707005B
:08D210007DC3070000000000CF
:08D2180044B2FF7F0100000099
:10D2200000000000000000000000000000000000FE
:10D2300000000000000000000000000000000000EE
:10D24000A0CE070000000000000000000000000069
:10D2500000000000000000000000000000000000CE
:10D2600000000000000000000000000000000000BE
:10D2700000000000000000000000000000000000AE
:10D280000100FFFF0090D003258407000184070000
:04D29000000000009A
:10D29400001000000030080015A307000000000083
:08D2A400C1B707001D9C070043
:020000020000FC
:020000041000EA
:041014000080070051
:0410180000E00700ED
:040000037000BB7559
:00000001FF
