:020000022000DC
:1060000000000120096302003163020033630200D3
:1060100035630200376302003963020000000000AC
:106020000000000000000000000000003B630200D0
:106030003D630200000000003F6302004163020074
:106040006D92020043630200099B02004363020059
:106050004363020043630200A99602004363020007
:106060004363020043630200436302004363020090
:106070004363020043630200436302004363020080
:1060800043630200697D0200436302004363020030
:1060900043630200436302003DBC0200436302000D
:1060A0004363020043630200436302004363020050
:1060B0004363020043630200000000000000000090
:1060C0004363020043630200436302004363020030
:1060D00043630200436302004363020000000000C8
:1060E00000000000000000000000000000000000B0
:1060F00000000000000000000000000000000000A0
:10610000000000000000000000000000000000008F
:10611000000000000000000000000000000000007F
:10612000000000000000000000000000000000006F
:10613000000000000000000000000000000000005F
:10614000000000000000000000000000000000004F
:10615000000000000000000000000000000000003F
:10616000000000000000000000000000000000002F
:10617000000000000000000000000000000000001F
:10618000000000000000000000000000000000000F
:1061900000000000000000000000000000000000FF
:1061A00000000000000000000000000000000000EF
:1061B00000000000000000000000000000000000DF
:1061C00000000000000000000000000000000000CF
:1061D00000000000000000000000000000000000BF
:1061E00000000000000000000000000000000000AF
:1061F000000000000000000000000000000000009F
:106200000348044B834202D0034B03B11847704745
:106210006023002060230020000000000548064B9A
:106220001B1AD90F01EBA301491002D0034B03B194
:106230001847704760230020602300200000000002
:1062400010B5064C237843B9FFF7DAFF044B13B1BE
:106250000448AFF300800123237010BD60230020A9
:106260000000000000CD020008B5054B1BB1054938
:106270000548AFF30080BDE80840FFF7CFBF00BF7F
:10628000000000006423002000CD0200A3F5803A46
:10629000704700BF174B002B08BF134B9D46FFF7FD
:1062A000F5FF00218B460F461348144A121A05F0D9
:1062B0008FFE0E4B002B00D098470D4B002B00D0CB
:1062C00098470020002104000D000D48002802D04E
:1062D0000C48AFF3008005F041FE2000290004F0D7
:1062E00089FA05F029FE00BF000008000000000048
:1062F000000000000000012060230020542C00203A
:1063000000000000000000000649074A074B9B1AE6
:1063100003DD043BC858D050FBDC02F033FCFFF730
:10632000B9FF000020CE0200F022002060230020F0
:10633000FEE7FEE7FEE7FEE7FEE7FEE7FEE7FEE735
:10634000FEE7FEE7F0B595B0084600240E46174676
:106350001D4602F0CBFA1A9A0D922346082205A98F
:106360003046CDE9095408978DF82C400C9402F082
:1063700021FBDDE906219DF814308DF81140CDE9AF
:10638000021203F00302012A28D0022A04D0304668
:1063900002F0B0FA15B0F0BDBDF81650C3F3C20359
:1063A000C5F389158DF810300827082D2C4628BF15
:1063B00008243B4622460EA9304602F0FBFA2D1B6C
:1063C00008AB02AA21460EA8274400F0D5FD002DF7
:1063D000EBD1304602F08EFA15B0F0BDBDF81410C6
:1063E0000598C1F38312C3F3C203C0F39525C1F32B
:1063F00083148DF810300EA930469200082302F065
:10640000D9FA08AB0093224602AB0EA9284600F049
:106410003DFD304602F06EFA15B0F0BD014B012291
:106420001A7070477D230020704700BF00B583B00D
:10643000044B0093044A4023FFF784FF03B05DF848
:1064400004FB00BF4D6402008023002038B50F48D4
:106450000F4D03780F4CEB5C4FF0000CD2B284F878
:1064600000C053B1043004F059F858B90A4B1B78F6
:1064700013B12378002BFCD038BD0C3003F0A2FD03
:106480000028F3D001F014F8F0E700BFF02200205C
:106490002C2A00207D2300207C23002010B51548E5
:1064A000154A0378D35C88B0C3B1043003F098FF79
:1064B000124C0FCCEC46ACE80F0094E80F008CE8CF
:1064C0000F0006230B4800930022694602F060FE8D
:1064D00040B90B4B00221A7008B010BD0C3003F00D
:1064E00005FDE5E700F0E4FF054B00221A7008B057
:1064F00010BD00BFF02200202C2A002008C002009E
:106500007C23002010B50F4C0FCC88B0EC46ACE8D3
:106510000F0094E80F008CE80F0006230A4A0B488E
:106520000093694602F034FE20B9094B01221A702B
:1065300008B010BD00F0BCFF054B01221A7008B076
:1065400010BD00BF08C002001D640200F022002040
:106550007C23002008B5FFF7D5FF0448042100F094
:1065600013FC034B01225A7108BD00BF08CE020084
:1065700004230020064B074810B500221A7002F0D1
:1065800067F9044610B9044802F08AFA204610BDA3
:10659000C02300207CCD020054C0020030B499B169
:1065A0000D490E4D491BC90813D00D4C002302E0C4
:1065B000013399420AD034F823208242F8D1184698
:1065C00055F8300030BC7047044DF9E7002030BC6E
:1065D00070470846F6E700BF08CE020090CD0200E3
:1065E00060230020094B013903EBC00303290BD8BA
:1065F000DFE801F00402080604207047022070471B
:1066000058797047187970470020704790CD020084
:10661000704700BF2DE9F043894CD4E901239A4229
:1066200085B05DD00023C4F81834BFF34F8FA56840
:10663000EAB2D31C04EB830014F82330590718D5B1
:106640006668037803F00303012B42D0022B03D1C9
:106650004388023505EB9315EAB2D4F81814D31C1D
:1066600004EB830029B9AE4239D914F823305B0713
:10667000E7D404EB82026B1CDBB2D26804EB830329
:1066800002F00301DB680229CDE9012305F10206CE
:106690002AD0012900F08A80D4F810543DB12B682B
:1066A00028469B689847EB681D68002DF7D1654820
:1066B000654B6649C01AC008000440F0020000F0B3
:1066C0008DFAD4E90130C01A18BF012005B0BDE829
:1066D000F08303880235C3F383131D44BCE7A6602F
:1066E000002005B0BDE8F083BDF806305848C3F37C
:1066F00089184546502D28BF502565F38F1305F1A5
:106700000801ADF8063002F0A5F807460028C3D00E
:1067100002F0ECF8002301A90822384602F016F92D
:10672000F343DBB20133F1B20331B5EB830F04EB7A
:1067300081014FEA83097BD9A5EB09054A46384612
:106740000823EDB202F002F9424909F108032A4692
:10675000384602F0FBF808F1030806EB9806D4F877
:106760001834D4F81054002B5ED165B1EB685A7917
:1067700028463946002A61D02B681B689847EB6889
:106780001D68002DF2D1384602F0B4F800230DF157
:1067900003008DF8033001F04DF9D4F8183403B933
:1067A000A6609DF8030001F06BF98AE7BDF80420AC
:1067B0002748C2F38313062B28BF062363F38912ED
:1067C000023303F00F018900ADF8042002F042F813
:1067D000074600283FF460AF02F088F80023082243
:1067E00001A9384602F0B2F8BDF8043013F4707F06
:1067F000B5D06FF001094FF00808A9EB0509F1B217
:1068000003314346042204EB8101384602F09EF82E
:10681000BDF804300136C3F3831309EB060293423B
:1068200008F10408EBD89AE7384602F063F848E725
:106830002A460823384602F089F88CE71D6894E759
:10684000C0230020B8CD020090CD02003CC0020061
:106850007CCD0200CC2300202DE9F04FDFF8BCB145
:1068600089B0002406460DF1130001938946924633
:106870008DF8134001F0DEF8DBF80830DBF8047027
:1068800003F58073DB1B032B00F2C380CDE9027696
:106890000BF21C450BF583680BF2144419E0BDF8AC
:1068A0001620C2F389120332360C00EB9207204601
:1068B00001F068FB314600283AD02846CBF8087032
:1068C00001F03CFBDBE9012303F580739B1A032BEA
:1068D0005BD80121284601F031FB404601F046FB20
:1068E000204601F043FBDBF80830DAB2D11C0BEB99
:1068F000810E1BF8211001F00406490703F1020084
:1069000027D40BEB82020133D1680591DBB20BEB8C
:10691000830301F00302012ADE6807462ED0022A13
:10692000BDD0204601F02EFB002631460028C4D100
:106930002846C5E7BEF8023000EB9313DAB2D11C4B
:106940000BEB810E1BF8216006F00406981C002E4C
:10695000D7D09EF8001001F00301012908D00229C8
:1069600002F10301E6D00BEB810E002EF1D1C8E756
:10697000BEF80030C3F383130344DFE7BDF81420EF
:10698000C2F38312360C174491E7DDE90276D3B2E5
:10699000033385214BF8231004329DF81300CBF804
:1069A000042001F06DF8BB1CDBB20BEB8303019AF2
:1069B000C3F80CA0FB1CDBB20BEB830300211648D1
:1069C000DA6001F099FA80F31001F300781C03F00B
:1069D0003803C0B2FAB2090443F081030BEB800024
:1069E000033243EA892341EA1641C1604BF8223061
:1069F0009BF8003023B9FFF70BFE09B0BDE8F08F1C
:106A0000FFF708FE0028F6D0FFF704FE0028F7D1B4
:106A1000F1E73A46BBE700BFDC270020C023002097
:106A20002DE9F04FDFF8B0B189B00023CDE90101C5
:106A30000DF113008DF81330039200F0FBFFDBE93A
:106A4000018303F58073A3EB0803022B7FD80BF2BD
:106A50001C450BF583670BF214441AE0BDF81620B1
:106A6000C2F3891203324FEA114A00EB9209204621
:106A700001F088FA514600283BD02846CBF8089010
:106A800001F05CFADBE9012303F580739B1A022B0A
:106A90005ED80121284601F051FA384601F066FA25
:106AA000204601F063FADBF80830DAB2D11C0BEBB8
:106AB000810C1BF8211001F00406490703F10200C4
:106AC00028D40BEB82020133D1680591DBB201F0CF
:106AD00003020BEB8303012AD96881462FD0022AD7
:106AE000BCD0204601F04EFA4FF0000A5146002873
:106AF000C3D12846C4E7BCF8023000EB9313DAB2E6
:106B0000D11C0BEB810C1BF8211001F00406981C22
:106B1000002ED6D09CF8001001F00301012908D006
:106B2000022902F10301E6D00BEB810C002EF1D11A
:106B3000C7E7BCF80030C3F383130344DFE7BDF8B5
:106B40001420C2F383124FEA114A91448FE7424660
:106B5000D3B2033345214BF8231003329DF81300C1
:106B6000CBF8042000F08CFF08F10203DBB20BEB42
:106B70008303039A1748DA60002101F0BDF980F31E
:106B80001001019B029A090441EA1341DB0003F062
:106B9000380343F0410308F1010043EA8223C0B205
:106BA0005FFA88F20BEB80000332C1604BF82230B1
:106BB0009BF8003023B9FFF72BFD09B0BDE8F08F3B
:106BC000FFF728FD0028F6D0FFF724FD0028F7D1B5
:106BD000F1E700BFDC270020C02300202DE9F04FA3
:106BE000DFF8A0A187B0002306460DF10B008DF859
:106BF0000B30CDE9006100F01DFFDAE9018303F5F8
:106C00008073A3EB0803012B7FD80AF21C450AF519
:106C100083670AF214441AE0BDF80E30C3F38913F7
:106C200003334FEA114900EB930B204601F0AAF918
:106C3000494600283BD02846CAF808B001F07EF942
:106C4000DAE9012303F580739B1A012B5ED8012139
:106C5000284601F073F9384601F088F9204601F022
:106C600085F9DAF80830DAB2D11C0AEB810E1AF88D
:106C7000211001F00406490703F1020028D40AEBB1
:106C800082020133D1680391DBB201F003020AEB07
:106C90008303012AD96883462FD0022ABCD020461C
:106CA00001F070F94FF0000949460028C3D1284689
:106CB000C4E7BEF8023000EB9313DAB2D11C0AEB42
:106CC000810E1AF8211001F00406981C002ED6D06F
:106CD0009EF8001001F00301012908D0022902F1F9
:106CE0000301E6D00AEB810E002EF1D1C7E7BEF812
:106CF0000030C3F383130344DFE7BDF80C30C3F364
:106D000083134FEA11499B448FE74246D3B20333C2
:106D100005214AF8231002329DF80B00CAF804201E
:106D200000F0AEFE0021164801F0E6F880F31001F5
:106D3000009B019A090441EA1341DB0003F0380388
:106D400043F0010308F1010043EA8223C0B25FFA75
:106D500088F20AEB80000332C1604AF822309AF8C8
:106D6000003023B9FFF754FC07B0BDE8F08FFFF700
:106D700051FC0028F6D0FFF74DFC0028F7D1F1E7D1
:106D8000DC270020C023002030B4154DD5F81014A6
:106D9000044679B100200B4601E01B685BB1DB685B
:106DA0001A798242F9D101300A28F4D14FF0FF302C
:106DB00030BC70470846E3681871D5F810344BB101
:106DC000DA68E36812681A60D5F81034DB681C6072
:106DD00030BC7047C5F81044E268136030BC70479F
:106DE000C023002038B5084BD3F8104401251D708E
:106DF0004CB1E3685D71236820465B689847E3689F
:106E00001C68002CF5D138BDC023002070B5C388A4
:106E100082B004460D461BBB237A052B1ED0627A36
:106E20007AB9134AA08852F823600021FFF7B6FB15
:106E3000104903463246284602B0BDE8704001F0D2
:106E40001BB91946A088FFF7CDFB0B4B0B4953F834
:106E50002020284601F010F9237AE2E702B070BD45
:106E600007490091074A0849284601F005F9D3E788
:106E70002CC102008CC0020008C1020088C00200C0
:106E800080C0020060C0020068C002002DE9F0432B
:106E900085B01D460C9C002394F80C90237380460B
:106EA0000E46174621462846FFF7B0FF062F09D8A1
:106EB000DFE807F0042E343B444F1F0041462046D4
:106EC00001F0DAF82B7A052B05D06B7A5BB92749EC
:106ED000204601F0D1F8204601F0C2F884F80C9069
:106EE00005B0BDE8F083224A2249204601F0C4F8EB
:106EF000EDE77369039333690293F3680193B36811
:106F00000093D6E900234146204601F0B5F8D9E7C1
:106F100032684146204601F0AFF8D3E7D6E90023B6
:106F20004146204601F0A8F8CCE7B3680093D6E9C3
:106F300000234146204601F09FF8C3E7F368019320
:106F4000B3680093D6E900234146204601F094F847
:106F5000B8E733690293F3680193B3680093D6E905
:106F600000234146204601F087F8ABE798C00200B5
:106F700080C0020088C00200082900D970472DE9AE
:106F8000F04F1D4683B000241B7B2C730E46074632
:106F90002946104690460193DFF8D0B0DFF8D0A024
:106FA000FFF734FF05E03A5D013401F065F8082C85
:106FB00009D0A64251462846F5D85946013401F079
:106FC0005BF8082CF5D12449DFF8A8B0234CDFF892
:106FD000A8A0284601F050F84FF0000917E017F874
:106FE0000910481C7E294FF02E02C0B206D81AF8AC
:106FF000002012F0970F14BF0A462E222146284681
:1070000009F1010901F038F8B9F1080F0AD04E452D
:10701000E5D85946284609F1010901F02DF8B9F1E2
:10702000080FF4D198F80830052B02D098F80930F1
:107030005BB90B49284601F01FF8284601F010F80B
:10704000019B2B7303B0BDE8F08F064A0649284622
:1070500001F012F8EDE700BFA8C00200ACC00200CA
:1070600098C0020080C0020088C00200A4C00200D4
:107070009CC0020094C00200FCCB020038B5174B44
:107080001D783DB3164A1168C0B200230C4604E0D7
:107090000133AB4204F108041CD011F833209042B4
:1070A000F6D102F0F7FA6378A3F10103B3FA83F3A0
:1070B0005B09834200D038BD0A4AD2E9003213434B
:1070C000F9D1094B094819680022BDE83840490840
:1070D00000F016BC00231B78FFDE00BF64290020EF
:1070E0006829002058290020602900201023002052
:1070F0002DE9F047DFF86C92DFF86CA299F80030C8
:1071000082B0002B4FD0DFF86482934F0024D8F870
:10711000005015F8340002F0BDFA15F8346005EBA4
:10712000C40572086B78B95CA3F10103B3FA83F369
:10713000F5074FEA531340F1A4800D09042D00F226
:107140009D80DFE805F0033847544E00834240F04D
:1071500095800F20102301400B43BB540DF1070015
:1071600000238DF8073000F065FC0122A6F1200312
:10717000C6F1200122FA01F102FA03F30B43DAF817
:1071800000109DF80700B2401143DAF80420CAF855
:1071900000101A43CAF8042000F072FC99F800505D
:1071A0000134AC42B3DBDAE90032134340F0CA8069
:1071B00002B0BDE8F087181AB0FA80F0400940012B
:1071C0000F230B401843B85499F800500134AC42D7
:1071D0009DDBE8E783424FF00F0040F0B1803023A1
:1071E00071E0834240F0AA800F2030239DE083426B
:1071F00099F80050EAD00F2040235BE0834200F072
:107200009A80F02399F800500B40BB54A5B1D8F8F0
:1072100000000023024603E0AB4202F108020BD05B
:1072200010F83310B14203F10103F5D122B15368D4
:1072300013B100213046984700230DF107008DF867
:10724000073000F0F7FB0122A6F12003C6F1200170
:1072500022FA01F102FA03F30B43DAF800109DF869
:107260000700B24021EA0201DAF80420CAF800104F
:1072700022EA0302CAF8042000F002FC99F8005048
:10728000A4E701F00F05042DF8D80FF2080C5CF804
:1072900025F000BF1F73020011730200BD720200CF
:1072A000A9720200FD710200834299F800508DD04E
:1072B000F020042301400B43BB5487E783424FF087
:1072C000F00031D10323014099F800500B43BB5427
:1072D000002D3FF468AFD8F800000023024604E018
:1072E000AB4202F108023FF471AF10F83310B14223
:1072F00003F10103F4D1002A3FF468AF5368002B77
:107300003FF464AF30460121984799F800505DE79B
:10731000181AB0FA80F040094000F02351E7834288
:10732000ACD1F020012316E7012301400B43BB54ED
:1073300099F800504AE7F0200323F6E70F2361E7AE
:107340001023F2E7054B064819680022490802B0ED
:10735000BDE8F04700F0D4BA482900206029002099
:1073600010230020642900205829002068290020CB
:10737000092A3FD9F0B583B0144605460E4601F000
:10738000FDFF88B3204B214A1E70214B1560002160
:1073900020481C60102204F01BFE1F4B002000211F
:1073A000741EC3E90001E4B236B31C4F05EBC404FC
:1073B000032602E0A5421FD01C469DF8063094F833
:1073C00002C020788DF8046023F007033A4601A933
:1073D0008DF806308DF805C001F0DAFFA4F108033E
:1073E0000028E7D003B0F0BD01F078FF0028C9D035
:1073F00003B0F0BD07207047094A0A48002103B0D6
:10740000BDE8F04000F064BA64290020682900203B
:107410006029002048290020582900207D700200A2
:10742000F170020040C1020070B5084D2B785BB1CD
:10743000074E00243368012113F8340002F096F857
:107440002B780134A342F5D8002070BD64290020B8
:107450006829002070B5124D2B7882B053B1114EBF
:107460000024336813F8340002F0E2F82B7801347A
:10747000A342F6D80DF1070000238DF8073000F085
:10748000D9FA094B9DF8070000240025C3E90045FF
:1074900000F0F6FA054802B0BDE8704000F08CBA82
:1074A000642900206829002058290020102300208A
:1074B00000B585B00346002101AA44F20100CDE9E0
:1074C0000111039300F004F805B05DF804FB00BF60
:1074D00010B572B6FFF786FCFFF79CF80028FBD1C9
:1074E000104B114C1149E41AE408240444F0010043
:1074F000FFF774FB0E4BD3F8F030DB0700D500BE6E
:107500000C4944F00200FFF769FBBFF34F8F0849B5
:10751000094BCA6802F4E0621343CB60BFF34F8F9C
:1075200000BFFDE790CD0200B8CD020050C10200BF
:1075300000ED00E05CC102000400FA0530B48D6883
:107540008468C268CB68A54293412CBF012000200B
:1075500030BC704730B5364B1D7883B01DB900255F
:10756000284603B030BD04460028F8D0314800F06A
:10757000E5FB314B1A685B688018304AD2E900128B
:1075800043F10003884273EB020203D210F18070D2
:1075900043F10003D4E90212884293410AD2B2F1C6
:1075A000FF3F08BFB1F1FF3FD9D02548214601F088
:1075B0009BFAD5E700230DF107008DF8073000F0A6
:1075C00039FA23692BB94FF0FF324FF0FF33C4E98A
:1075D00002239DF8070000F053FAD4E905309847DC
:1075E00000230DF107008DF8073000F023FA23691E
:1075F000ABB1D4E90212B2F1FF3F08BFB1F1FF3FD6
:107600009DF8070010D05B1842F10002C4E9023275
:1076100000F036FA0A48214601F066FAA0E79DF824
:10762000070000F02DFA9AE700F02AFA97E700BF6A
:10763000E829002030230020E0290020D82900205C
:107640006CC102002DE9F04F83B0814600F04AFB87
:1076500040B17C4AD2E9003113F1807341F100015D
:10766000C2E900310021484600F058FB764D30B1A8
:107670002B6823B12868FFF76DFF00232B600121E1
:10768000484600F04BFB002840F0C4806F4801A939
:1076900000F0CEFB00283AD06C4C4FF0FF3A4FF090
:1076A000FF3B09E033B301A9204600F0F3FB01A939
:1076B000204600F0BDFB50B30378012B11D0022B04
:1076C000F0D1634E304601F023FA30B1C0E902AB8D
:1076D000304601F01DFA0028F8D15E4B01221A70E5
:1076E000E1E72B684168994200F09180584801F029
:1076F00019FAD8E74168D1E90223B3F1FF3F08BF87
:10770000B2F1FF3FCFD0524801F0EEF9CBE7504E37
:10771000514FDFF83081304601F000FA002853D095
:10772000D0E90223B3F1FF3F08BFB2F1FF3F6AD0B7
:10773000296891B12968D1E9020182428B4159D26D
:107740002B68D3E90223B3F1FF3F08BFB2F1FF3F3B
:1077500003D02968304601F0C7F9304601F0D8F966
:1077600004463846D4E902AB00F0E8FA3B4BD8F8BF
:107770000410D3E900E2D8F80030C31841F1000149
:10778000734571EB020C03D213F1807341F10001D8
:10779000BAEB03036BEB010B012B7BF1000B1BDB43
:1077A000B3F5350F29D252464FF4960300213846DF
:1077B00000F00EFAC0B10D2812D0002330462B6025
:1077C00001F0ACF90028ABD12B689BB9484603B057
:1077D000BDE8F04F00F0CEB90021384600F092FA33
:1077E0002046FFF7B7FEE8E72B6813B9484600F0DC
:1077F000BDF92C6003B0BDE8F08F384600F09EFA6A
:10780000174A0244D0E7304601F082F983E70023AB
:107810002B6048E7104800F091FA0A4B1A685B6841
:1078200080180E4AD2E9004143F10003A04273EBF5
:10783000010103D210F1807043F10003C2E900039B
:1078400024E700BFE0290020EC2900207029002057
:107850006CC10200E829002030230020D829002034
:10786000FFFFB40010B5134B13491C68134882B0D6
:1078700008235822019400F081FA044610B12046F2
:1078800002B010BD0E4A0F4801A900F011F90446DC
:107890000028F4D10B48012100F01AFA01231946FF
:1078A000094A084800F06AF9084B012220461A707C
:1078B00002B010BD84C10200802900207029002080
:1078C0004576020030230020FFFF7F00E8290020DA
:1078D0006AB19FED097BA1F101010368B1FA81F161
:1078E000490983ED027BC3E9041200207047072099
:1078F000704700BFAFF30080FFFFFFFFFFFFFFFFF8
:10790000F0B583B00446002601A817460D468DF851
:10791000046000F08FF8D4E90223B3F1FF3F08BF01
:10792000B2F1FF3F06D09DF8040000F0A9F8304600
:1079300003B0F0BD1C4800F001FA1C4B1C4A19684A
:107940005B684018D2E9001243F10003884273EBF0
:10795000020220D3281843F10003A060E3609DF8E1
:10796000040000F08DF82369A76103B12561114877
:1079700001A900F01BFA034650B100220D481A700D
:107980005C6001A900F044FA50B9002003B0F0BDDA
:10799000042003B0F0BD10F1807043F10003D9E77B
:1079A000014800F0CFF9F0E730230020E029002063
:1079B000D82900207029002030B583B00446002566
:1079C00001A88DF8045000F035F8D4E90223B3F192
:1079D000FF3F08BFB2F1FF3F1DD04FF0FF334FF024
:1079E000FF32C4E902239DF8040000F049F80F4873
:1079F00001A900F0DBF9034650B101220B481A70CF
:107A00005C6001A900F004FA60B9002003B030BD49
:107A1000042003B030BD9DF8040000F031F8284682
:107A200003B030BD024800F08DF9EEE77029002068
:107A30003023002070B4EFF3108472B60D4A9368BF
:107A4000ABB9012191600C490C4ED1F88050354002
:107A50001560C1F88060D1F8845055604FF0FF3256
:107A6000C1F88420037004B962B670BC704701236A
:107A7000F8E700BFF029002000E100E0FC06FFBDB0
:107A8000094B9A687AB170B910B4EFF3108172B6ED
:107A9000064A1C6814605C685460986001B962B65C
:107AA0005DF8044B70477047F029002000E100E0CA
:107AB00038B5264B90F805C043F82C20244A254BB6
:107AC0009B1A254A02EBCC0CDB089CF804401B04F3
:107AD000ACBB04680D88C4F8085590F904C08978D7
:107AE000BCF1000F23DB0CF1604C49010CF5614C3B
:107AF000C9B28CF8001390F90410002909DB174C67
:107B00004D094FF0010C01F01F010CFA01F144F88E
:107B10002510417942F8310002EBC10243F0030025
:107B20000F4901241471FFF759F8002038BD0D4C9E
:107B30000CF00F0C4901C9B204F80C10DBE743F05C
:107B400002000949FFF74AF8082038BD042A00203E
:107B500090CD0200C8CD0200FC29002000E100E029
:107B6000ACC1020014ED00E088C1020003680122EC
:107B70001A607047036801225A60704770B4056844
:107B80004FF480348C40C5F80843056801F1500C6F
:107B9000C5F848434FEA8C0C05681FFA8CFC002698
:107BA00045F80C6083B055F80C500195019D0568AF
:107BB00001F5A87122F07F4245F821200268C2F841
:107BC000444313B10368C3F8044303B070BC704767
:107BD0002DE9F0474FF48037994603688F40C3F88A
:107BE00048730368C3F80873036801F150060D4633
:107BF00003EB810122F07F48D3F80435D1F840250A
:107C0000C1F84035B600B6B2D21A03684FF0000A88
:107C100043F806A082B09B59009322F07F42012ACC
:107C2000009B044645D02368D3F80465C3F8447329
:107C3000A8EB060323F07F43012B05F5A87527D099
:107C4000226842F825802168D1F80405A8EB0002DB
:107C5000C9F1FF13013A03F57F4322F07F429342BB
:107C600012D342B1C1F8447323680020C3F80473EF
:107C700002B0BDE8F08708F1010341F82530216822
:107C8000D1F804359842EDD00D2002B0BDE8F08760
:107C9000236808F1010243F825200C4B4FF4806063
:107CA00043F0010398472168D1F804359E42D9D0AA
:107CB000EAE7064B4FF4806043F0010398472368DE
:107CC00043F806A09B590193019BACE7C0C1020099
:107CD00002680223C2F8443311B10268C2F80433C7
:107CE000704700BF0368D3F8040100B97047002251
:107CF00082B0C3F80421D3F804310193019B012021
:107D000002B0704702684FF4803303FA01F1C2F801
:107D100048130368C3F80813704700BF5031890047
:107D2000036889B2585800B9704700225A5082B08F
:107D30005B580193019B012002B070470368D3F8A0
:107D40000405704790F90430002B09DB5A090548F7
:107D500003F01F030121403201FA03F340F82230FF
:107D6000704700BF00E100E0024A034B10681B6847
:107D7000184700BFFC290020042A002099B110B444
:107D8000B2FBF3F403FB1424A4B244B901604460D1
:107D900084608281C38120465DF8044B70470920CE
:107DA0005DF8044B70470E20704700BF10B483B0DD
:107DB00050E8013F1FFA83FCC489A4448489A44588
:107DC00028BFACEB040C0489A44502BFBFF32F8F7E
:107DD000002207E0CCEA030C40E801C4002CE7D104
:107DE0004FF001028DF803200193019C9DF80320C0
:107DF0000C6032B1006810FA84F003B05DF8044BF7
:107E0000704702F0FF03184603B05DF8044B70475B
:107E10000A884B889A4201D00020704750E8012F11
:107E2000C2EA024240E80123002BF7D1012070474B
:107E300010B483B050E8023F1FFAA3FCC488A445E5
:107E400002BFBFF32F8F00220EE0C489A4448489AF
:107E5000A44528BFACEB040CC3EA0C4C40E802C4B8
:107E6000002CE7D14FF001028DF803200193019C13
:107E70009DF803200C6032B1006800EB144003B0A1
:107E80005DF8044B704702F0FF03184603B05DF83D
:107E9000044B70470A884B889A4201D000207047F3
:107EA00050E8022FC2EA224240E80223002BF7D119
:107EB000012070474B0901F01F024FF0010C0CFA32
:107EC00002F100EB830000F021B800BF01F01F02B7
:107ED000012303FA02F24B0900EB8300D14300F0C7
:107EE00021B800BF4B0901F01F0150F82300C84022
:107EF00000F00100704700BF034653E8000F0A4638
:107F000043E8002C9CF0000FF7D17047034653E87C
:107F1000002F42EA010043E8000C9CF0000FF6D16C
:107F2000704700BF034653E8002F02EA010043E810
:107F3000000C9CF0000FF6D1704700BF034653E8D9
:107F4000002F02EB010043E8000C9CF0000FF6D17B
:107F5000704700BF034653E8002FA2EB010043E83F
:107F6000000C9CF0000FF6D1704700BF03460122C1
:107F700053E8001F41EA020043E8000C9CF0000FA8
:107F8000F6D170470346002253E8000F00EA0201D1
:107F900043E8001C9CF0000FF6D17047D0B110B43C
:107FA000D0E90112521A0468D2B2531E2160DBB22A
:107FB00052B101680A6803F1FF3C541C0C60137055
:107FC0005FFA8CF3FF2BF4D10368002018715DF881
:107FD000044B70470E20704730B583B0044600252F
:107FE0000DF107008DF80750FFF724FDD4E90031AB
:107FF0001A688A4210D9511E19602168A36808685E
:1080000012F801CC0A79E5681B1ADBB2208A9A4281
:1080100038BF0B7100FB0C559DF80700FFF730FDD2
:10802000284603B030BD00BF30B5054683B00DF122
:10803000070000230C468DF80730FFF7FBFC2A6889
:108040001368591C1160E9682A8A641AB4FBF2F4B7
:108050001C709DF80700FFF713FD03B030BD00BF93
:10806000826842B110B504464369016800699847C7
:108070000023A36010BD70470EB400B582B0039911
:1080800021B104AB01AA019300F0B2F802B05DF88F
:1080900004EB03B0704700BF2DE9F04F0F4683B0EB
:1080A0009742DDF830900D99164605469A46C0F085
:1080B00099803B464FF00108B3FBF6F39E4208F16E
:1080C0000108F9D9D04538BFD04611F00103AA689C
:1080D000019302D1B9F1000F64D1BAF1010F4FF051
:1080E000010406D90AF1FF3ABAF1010F06FB04F4C4
:1080F000F8D8B7FBF4F39E4205D806FB04F4B7FBAF
:10810000F4F39E42F9D9DFF8E4A007E0B442B4FBEF
:10811000F6F31AD3AA681C46B7FBF3F31AF803B0B8
:10812000BBF10A0F04FB13772DD02B68511CA960FB
:1081300003F802B0D5E901329A42E7D32846FFF7A7
:108140008FFFB4FBF6F3B442E4D2019BC3B1B9F1A3
:10815000000F15D0C14513D9202401E0C1450FD02F
:10816000AB682A68591CA960D454D5E901329A42F7
:1081700009F1FF39F2D32846FFF772FFC145EFD16D
:1081800003B0BDE8F08F511C2B68A9604FF00D01C2
:108190009954D5E901329A42C7D32846FFF760FFC8
:1081A000AA68C2E78B0717D42024C14595D929684E
:1081B000531CAB608C54D5E901128A4209F1FF3996
:1081C00005D2B9F1000F88D0C145F0D185E7284626
:1081D000FFF746FFAA68F4E7BAF1000F14BF2024A6
:1081E0003024E2E74FF001086CE700BFC8C102008D
:1081F000002900F0A4822DE9F04F0D4685B015F856
:10820000014B0646002C00F0AE8091464FF00D0A5F
:1082100011E00A2CB36800F0BE803268591CB160CE
:10822000D454D6E901329A4280F096802C78002C02
:1082300000F099800135252CEBD12A46002712F851
:10824000013B2D2B00F09F80302B00F0A0802B2BCA
:1082500000F090802A2B00F0AD80A3F130010929B5
:108260004FF000040DD804EB840403EB44041378AE
:10827000A3F1300109291546A4F1300402F10102ED
:10828000F1D92E2B2A4600F09F804FF0000803F012
:10829000FB01682902F101054CD0252B52D0583B37
:1082A000DAB2202AC2D8202BC0D801A252F823F07B
:1082B000658402002D8202002D8202002D820200C0
:1082C0002D8202002D8202002D8202002D820200EA
:1082D0002D8202002D8202002D8202001F850200E5
:1082E000F78302002D8202002D8202002D820200FF
:1082F0002D820200F78302002D8202002D820200EF
:108300002D8202002D8202002D8202002D820200A9
:10831000818402002D8202002D820200538502001A
:108320002D820200498502002D8202002D8202006A
:108330006584020015F8013B03F0FB02682AF9D0BE
:10834000252BACD1B2683168501CB0608B54D6E993
:1083500001329A42FFF46AAF3046FFF781FE2C7873
:10836000002C7FF467AF337B002B40F0548105B0C5
:10837000BDE8F08F47F0040715462A4612F8013B86
:108380002D2B7FF461AF47F001071546F5E747F065
:1083900002071546F1E73268591CB16002F803A0E4
:1083A000D6E901239342FFF438AF3046FFF758FE79
:1083B000B36832E7D9F80030191DC9F800101C68FD
:1083C0006B782E2B7FF461AF5378A3F1300109292C
:1083D00002F101024FF000083FF659AF08EB8808A0
:1083E00003EB480812F8013FA3F130010929A8F175
:1083F0003008F3D94BE7D9F800301A1DC9F800202E
:10840000D3F800B08BEAEB73A3EBEB73092B40F3CB
:108410000A82B94801211A46632AA0FB03C301F16D
:1084200001014FEAD303F6DC414538BF4146002C39
:1084300040F0F7800024BBF1000FC0F2998107F0F3
:108440000403002B40F0A18107F00303022B00F08E
:108450008181CDE90047434659460A223046FFF75D
:108460001BFEE3E6D9F8001043461022081DC9F8A8
:10847000000009683046CDE90047FFF70DFED5E65C
:10848000D9F800301A1DC9F80020D3F80080B3686D
:108490003268581C3021B060D154D6E90123934290
:1084A00080F01C81591C3268B1607821D154D6E922
:1084B00001329A4280F00D81B8F10F0F474603D97F
:1084C00043461B090F2BFCD80124082301E0013B84
:1084D0002401012BFBD1B8FBF4F10F29F8D8DFF808
:1084E0001CB206E00F2C4FEA14137FF69FAEB26861
:1084F0001C46B7FBF4F31BF80380B8F10A0F04FB2A
:10850000137778D03368501CB06003F80280D6E946
:1085100001329A42E6D33046FFF7A2FDE2E7D9F8EE
:1085200000301A1DC9F800201C78B3680A2C7FF4AB
:1085300074AE591C3268B1600D21D154D6E90123C3
:108540009342FFF46AAE30E7D9F8001043460A229E
:108550008CE7D9F800301A1DC9F8002017F0010780
:10856000D3F8008040F08980B8F1000F03D0404676
:1085700003F026FD0746BC4215D94FF0200B01E061
:10858000BC4210D0B2683368511CB16003F802B02D
:10859000D6E90123934204F1FF34F1D33046FFF7CB
:1085A0005FFDBC42EED198F80040002C3FF43EAE97
:1085B000B3680D270A2C1A4610D03368511CB160DD
:1085C0009C54D6E90123934280F0BA8018F8014FF9
:1085D000002C3FF42BAE0A2C1A46EED13168013242
:1085E000B260CF54D6E901329A42E6D33046FFF763
:1085F00037FDB268E1E73368501C4FF00D01B06001
:108600009954D6E901329A42FFF47CAF3046FFF725
:1086100027FDB26876E7304605B0BDE8F04FFFF7BA
:108620001FBDBBF1000F07F00202C0F29B8017F0E4
:10863000040300F0BB80013C1AB1B8F1000F3FF415
:1086400000AFFA073FF5FDAE002C3FF4FAAEA142B1
:10865000BFF4F7AE2023B268501CB060306883547A
:10866000D6E90102824204F1FF3480F0C780002C79
:108670003FF4E0AEA142EED1DDE698F80020002AFA
:1086800000F0DC80B3680A2AC3464FF00D07184695
:1086900010D03368411CB1601A54D6E901239342CB
:1086A0000BF101013FD29BF80120E2B18B460A2A6F
:1086B0001846EED131680130B060CF54D6E90130B0
:1086C0009842E6D330460392FFF7CAFCB068039A9B
:1086D000DFE73046FFF7C4FCB268EDE63046FFF74F
:1086E000BFFCB368DEE6C8F1010293445C457FF647
:1086F0009DAD4FF0200806E0CDCCCCCCC8C1020027
:10870000A3453FF493ADB36831685A1CB26001F8D9
:108710000380D6E90131994204F1FF34F0D33046A9
:10872000FFF79EFCECE73046FFF79AFC9BF8012030
:108730000BF10101002AD6D0B3688B46B7E770472A
:108740003046FFF78DFC18F8014F002C3FF46EAD5A
:10875000B3682FE7B8F1000F7FF47BAE002C32D165
:10876000002476E6013C002A4FD0B8F1000F4CD12E
:10877000B2683368501CB0602D209854D6E901329D
:108780009A424AD2CBF1000B5EE6B2683368501CC5
:10879000B0602B209854D6E901329A42FFF454AECF
:1087A00030460391FFF75CFC03994DE6002A3CD16B
:1087B000FB0748D507F00303022B7FF44AAEB8F15C
:1087C000000F7FF446AEA142BFF443AE3023B2683F
:1087D000501CB06030688354D6E90102824204F133
:1087E000FF3404D2002CBBD0A142F0D131E6304698
:1087F0000391FFF735FC03993023F3E730460391EB
:10880000FFF72EFC0399202331E7FB07B0D4002C9F
:10881000AED0A142FFF41EAFAAE730460391FFF7A6
:108820001FFC0399AEE70121FEE5B8F1000F07D167
:1088300007F00303022B7FF40CAEC4E7934655E721
:10884000F8073FF501AE8C423FF604AFFCE500BFF0
:10885000FFF7A4BB2DE9F041078ACE1C043F3E443C
:108860000546B6FBF7F6FFF7B7FB002834D0F6B2A3
:108870004FF48073013E04468380C78005602CD08E
:1088800003464FF0000807E06279464502F1010215
:1088900062713860056020D028461F46FFF79CFBB8
:1088A00008F1010803460028EED167792668791E91
:1088B00016D02246013399421268FBD1D2F80080CB
:1088C00057B1002501E0344636682146404601355F
:1088D000FFF7AAFBAF42F6D800242046BDE8F0819E
:1088E00021463046FFF7A0FBF6E700BF0121043028
:1088F000FFF724BB2DE9F041012104460430FFF7C6
:1089000029FB10F0FF0301D0BDE8F08167792668EC
:10891000791E15D02246013399421268FBD1D2F854
:108920000080002FF0D0002501E034463668214653
:1089300040460135FFF778FBAF42F6D8BDE8F0813D
:1089400021463046BDE8F041FFF76EBB2DE9F84304
:108950008846C788417907FB01F1043902EB030C13
:108960001E1D6145154638BFCD1AB7420446B6FBF9
:10897000F7F207FB126002D8013A2468FCD13E1AD4
:10898000AE4228BF2E469DB14FF000090430AD1B0A
:10899000324608EB0901204403F004FBAF42B14426
:1089A00024683E464FF0000028BF2E46002DEDD132
:1089B000BDE8F8832DE9F8430446C788407907FBF2
:1089C00000F0043802EB030C1E1D6045154638BF4D
:1089D000C51AB7428846B6FBF7F207FB126102D808
:1089E000013A2468FCD17E1AAE4228BF2E469DB1C2
:1089F0004FF0000904312144AD1B324608EB090059
:108A000003F0D0FAAF42B14424683E464FF0000173
:108A100028BF2E46002DEDD1BDE8F88341DF704719
:108A2000064A074B10B5002414701C60BFF35F8F1B
:108A30000449054800F042F8204610BD102A0020E5
:108A4000142A0020D8C10200082A002000B583B0F3
:108A500000230DF107008DF80730FEF7EBFFF1EE74
:108A6000103A23F09F03E1EE103ABFF35F8F0B4BF8
:108A70004022C3F884219DF80700FFF701F803F0B6
:108A8000D7F828B920BF40BF20BF03B05DF804FB72
:108A900003B05DF804EBFFF7C1BF00BF00E100E0E9
:108AA00082680023936082681361826853618268E0
:108AB000D3608268536082681360704701600B68FE
:108AC00043604A68934208BF00234360704700BF79
:108AD000436843B1026891680B4443605268934213
:108AE00004BF00234360704770B5446806462068A1
:108AF0000D4618B908E02468206828B1B3682946F3
:108B000098470028F7D120682860256070BD00BF15
:108B10004368186808B102681A60704743681868AB
:108B2000704700BF4368186818B908E0034600683A
:108B300028B18142FAD10A681A6001207047704753
:108B40000E49A1F5947205E052F83330984238BFCF
:108B5000614607D28B1A1B11914202EBC30CF3D86A
:108B60000748704702D90CF10802F3E7DCF804006B
:108B7000034B002808BF1846704700BF10C702000B
:108B800010C7020010B44FF08053D3F830315A1C94
:108B900004BF4FF0704393F8E03F062B00F048818C
:108BA0004FF0704393F8E02F062A00F022814FF037
:108BB0008053D3F830315C1C04BF4FF0704393F8FE
:108BC000E03F062B00F048814FF0704393F8E02F10
:108BD000062A00F0F9804FF08053D3F83031581C4A
:108BE00004BF4FF0704393F8E03F062B00F02A815A
:108BF0004FF0704393F8E02FD3F8E83F062A00F0D7
:108C0000C2804FF08052D2F83031591C00F0A2805F
:108C1000062B23D0C24AD2F8883043F47003C2F83E
:108C20008830BFF34F8FBFF36F8F4FF08053D3F86F
:108C30003021062A00F0EE804FF01023D3F80022F6
:108C4000002AC0F23C81D3F80432002BC0F23781F5
:108C5000B44BB54A1A605DF8044B7047D2F8343112
:108C6000033B042B40F209814FF08053AF4AD3F805
:108C70000414C2F82015D3F80814C2F82415D3F848
:108C80000C14C2F82815D3F81014C2F82C15D3F818
:108C90001414C2F83015D3F81814C2F83415D3F8E8
:108CA0001C14C2F84015D3F82014C2F84415D3F8A8
:108CB0002414C2F84815D3F82814C2F84C15D3F878
:108CC0002C14C2F85015D3F83014C2F85415D3F848
:108CD0003414C2F86015D3F83814C2F86415D3F808
:108CE0003C14C2F86815D3F84014C2F86C15D3F8D8
:108CF0004414D3F83031C2F870155A1C3ED0062BFC
:108D000088D14FF080524FF08041D2F85832D2F8DB
:108D1000300103F04F03441CC1F8E43E00F0B3807F
:108D200006287FF477AFD1F80034D90700F1B78077
:108D3000D2F83431033B042B04D87D4AD35C002B9A
:108D40003FF468AF7B4AD2F83C3743F48063C2F803
:108D50003C375FE74FF0704393F8E02FD3F8E83FDC
:108D6000062A7FF457AFC3F30313033B042B3FF6EC
:108D70007BAF714AD35C002B7FF476AF4FF070432A
:108D800093F8E03FBBE7C3F30313033B042B3FF629
:108D900038AF6A4AD25C22B14FF080420321C2F858
:108DA000A015674AD35C002B3FF42BAF654B05241D
:108DB000012000213F22C3F81046C3F88806C3F8FB
:108DC0001816C3F814261CE7D3F8E83FC3F30313BF
:108DD000033B042B3FF6FFAE5B4AD35C002B3FF412
:108DE000FAAE4F4AD2F8FC3023F08073C2F8FC3060
:108DF000F1E6D3F8E83FC3F30313033B042B3FF63C
:108E0000D6AE524AD35C002B3FF4D1AE504B514A00
:108E10005A67CCE6D3F83431033B042B27D94FF003
:108E200010224FF08043D2F80822C3F8582503E7F8
:108E30004FF08053484AD3F82433C3F30423C2F8D5
:108E40004035ADE64FF080430022C3F80C21C3F853
:108E50001021C3F83825CBE64FF080534FF0804205
:108E6000D3F84432C3F34233C2F83C35ACE63B4A54
:108E7000D35C002B3FF4E0AED1E72F4AD35C002B4C
:108E80007FF4F2AE3DE74FF0704393F8E03F062BDE
:108E90007FF4C0AED1F80034DB077FF5BBAE4FF0F6
:108EA00080534FF08041D3F830216FF00100C1F8BA
:108EB0000004062AD3F834313FF43CAFAAE6284A2E
:108EC0000123C2F80435D2F80034002BFBD04FF058
:108ED00010231521224AC3F80012D2F80034002BC7
:108EE000FBD04FF0102315211D4AC3F80412D2F80D
:108EF0000034002BFBD000231949C2F80435D1F807
:108F00000034002BFBD0BFF34F8F0549154BCA68C7
:108F100002F4E0621343CB60BFF34F8F00BFFDE765
:108F200000ED00E0382300200090D00300C0004096
:108F30002CC702000010004034C702003CC70200EA
:108F40003CC70200005000403CC702003CC7020082
:108F500000C007400DF0ADBA0030014024C7020048
:108F600000E001400400FA05044A115C01234FF0BF
:108F7000A0428B40C2F80C35704700BF44C70200C6
:108F8000044A115C01234FF0A0428B40C2F808351F
:108F9000704700BF44C70200C20710B41AD54FF093
:108FA000A04303224FF40031C3F844274FF4802438
:108FB000C3F84827C3F84C27C3F85027C3F808154F
:108FC0004FF480124FF40021C3F80845C3F8081588
:108FD000C3F8082583070AD54FF0A0430C22C3F835
:108FE0003427C3F83827C3F83C27C3F840275DF877
:108FF000044B704710B568B90E4CA368012262702B
:109000003BB1D3E900230020A2609847A368002B5E
:10901000F7D110BD0128FCD1064C2369A070002BAC
:10902000F7D0D3E900230120226198472369002B60
:10903000F7D110BD182A002070B910B5074CA368ED
:10904000012262703BB1D3E900230020A26098475F
:10905000A368002BF7D110BD704700BF182A00206D
:1090600030B5012883B004D0032821D0B0B103B0BB
:1090700030BD294C00230DF107008DF80730FEF7B5
:10908000D9FC23786BB3E3689DF8070001221344F1
:10909000E360A270FEF7F4FC03B030BD1F4B012269
:1090A000C3F88020BFF34F8FBFF36F8F03B030BD85
:1090B000194C00F0B3F800230DF107008DF80730CC
:1090C000FEF7B8FCE368013BE360E3681BB9144BAF
:1090D000D3F80054C5B19DF80700FEF7D1FC03B0EA
:1090E00030BD10486360A3602361E36000F08AF83C
:1090F00002F09EFD60B10A4A01232370D2F80024D9
:10910000002AC0D0A370BEE700F09AF8A570E2E78D
:1091100000F084F8EFE700BF182A002000E100E02B
:1091200000000140F58F020030B50A4B0A4C53F89D
:10913000213054F82110027885B0D0E901548DF81F
:109140000020C26801958DF8084003926846984750
:1091500005B030BD342A0020302A002030B50A4B3B
:109160000A4C53F8213054F82110027885B0D0E928
:1091700001548DF80020C26801958DF808400392D3
:109180006846984705B030BD342A0020302A0020B8
:10919000F0B5174B06784F7F43F82620154B144641
:1091A0000A6943F82620144B8E469F550546BEE8B3
:1091B0000F0089B0EC46ACE80F009EE80F008CE889
:1091C0000F0004964FB1002C0C4A694608BF224696
:1091D000281D01F01DF809B0F0BD002C084A6946B1
:1091E00008BF224605F10C0000F0B2FD09B0F0BD49
:1091F000342A0020302A00202C2A00202991020045
:109200005D910200044A137923B901211060918015
:109210001846704785207047382A0020074B1A6887
:10922000D20704D4C02283F8002301221A604FF031
:1092300080430122C3F81825704700BF00E100E019
:109240004FF0804202210023C2F8081382B0C2F816
:109250000431D2F80431019301230199D360D2F88B
:109260001834DB03FBD402B0704700BF10B54FF0D9
:10927000804382B0D3F8002162B10021164AC3F8BE
:109280000011D3F80011507900910121009CC3F81E
:109290000813A8B14FF08043D3F80421CAB10022CB
:1092A000C3F80421D3F80421019202210A4A01984B
:1092B000C3F808131368012002B0BDE81040184736
:1092C0001368517198474FF08043D3F80421002A66
:1092D000E5D102B010BD00BF382A002030B5234CC4
:1092E00094F8583083B0002B3CD16FF02F0004F17C
:1092F000300304F1500C001B4FF0FF31C21821FA6B
:1093000002F2D20748BF197001339C45F6D14FF0E5
:10931000FF330422002116482365C4E90033C4E961
:109320000233C4E90433C4E90633C4E90833C4E9A9
:109330000A3302F04DFE0F4BC02283F80623402271
:109340001A600D4B0020C3F87C01D3F87C210192F8
:10935000019D4FF00042012184F85810C3F8042306
:1093600003B030BD082003B030BD00BF402A00204C
:10937000942A002000E100E000600040034B93F8D5
:109380005800003818BF0120704700BF402A002055
:1093900070B5744B03EB000E9EF930C0BCF1000FAA
:1093A00055DA91F802C01CF0020FCCF3400541D110
:1093B0001C6A013400F0A9805C6A013400F0C080AE
:1093C0004FF0080E0C244FF00A0C53F82C600136B5
:1093D00041D00EF1030CA4452AD253F82C6001367B
:1093E00039D00EF1040EA64522D21E69013630D0C6
:1093F0005E69013600F096809E69013600F0958026
:10940000DE69013600F09480082C11D01C6A01340A
:1094100000F0A2805C6A013400F081809C6A013413
:1094200000F09D80DC6A013408BF4FF00B0C12D0B5
:10943000042070BD1C6801347DD05C68013400F0EC
:1094400086804FF0000E08244FF0020CBDE7082084
:1094500070BD4FF0040C1C1843F82C204FFA8CF20E
:1094600084F83020002D56D091F802C01CF0040F73
:1094700018D11CF0010F3ED14C784FF0A04500F5FB
:10948000E076A40045F82640374EC50800F0070EE8
:1094900016F805C0012404FA0EF444EA0C047455CD
:1094A00091F802C009781CF0020F1AD0930003F162
:1094B000804303F5C0430202D3F8100520F447307F
:1094C00020F44070C3F810050904D3F8100502F425
:1094D000F85201F440310A430243C3F8102500203A
:1094E00070BD083A43FA82F292F8503043EA811391
:1094F00082F85030F3E7840004F1A044D4F8005718
:1095000025F00205C4F80057BEE74FF0080C1A62B8
:109510008EF830C062469C448CF84800A4E74FF0B7
:10952000090C98E74FF0050C95E74FF0060C92E711
:109530004FF0070C8FE71A6000228EF8302093E777
:109540004FF0090C5A628EF830C06246E3E75A6069
:1095500001228EF8302087E74FF0080C7BE74FF0B0
:109560000A0C78E7402A0020942A002030B42E4CC0
:1095700004EB000C82B09CF93030072B1EDD083B59
:1095800044FA83F393F850309B09032B41D0012B0D
:109590000CBF4FF400334FF44033800000F1A04083
:1095A000D0F8002722F44032C0F80027D0F8002776
:1095B0001343C0F8003702B030BC7047DAB2072A54
:1095C000F9D8980000F1804003F1400200F5C04056
:1095D00052B29200D0F8105592B202F1804202F5D8
:1095E000C04245F00105C0F8105500201060126817
:1095F0000192019A0029DED09CF9302054F82220F3
:10960000002AD8D00949012202FA03F3C1F8043331
:10961000D1E74FF0A043D3F81035C34003F0010366
:1096200002331B04B9E700BF402A0020006000405D
:10963000164B034493F93030072B0DDD800000F109
:10964000A040D0F8003723F44033C0F80037D0F8FA
:109650000037C0F800377047DAB2072A14D810B4C0
:109660009A0002F1804202F5C042094CD2F810057E
:10967000012120F0010001FA03F3C2F81005C4F83B
:1096800008335DF8044B7047704700BF402A002044
:10969000006000404FF0A043D3F8103523FA00F0EB
:1096A00000F00100704700BFF0B585B01D4A0023EF
:1096B0000193D2F80011012900F0EB811E46194BED
:1096C000D3F80421012A00F0D581164BD3F80821E4
:1096D000012A00F0BD81134BD3F80C21012A00F0C0
:1096E000A881104BD3F81021012A00F093810D4B73
:1096F000D3F81421012A00F07E810A4BD3F81821F7
:10970000012A00F06981074BD3F81C21012A0BD0F4
:10971000044BD3F87C21012A00F0E38126BB05B07D
:10972000F0BD00BF00600040D3F804231206EFD55F
:109730000022C3F81C21D3F81C110291D3F87C112C
:109740000298012946F080060ED1C3F87C21D3F897
:109750007C2103924FF0A043039AD3F82025019275
:10976000C3F8202546F00046C14F00240125A30080
:1097700003F180432E4203F5C0434FEA45050BD069
:10978000D3F8100557F82420D3F81015C0F304209F
:10979000C1F3014102B190470134082CE7D1002EFA
:1097A000BDDAB34D01264FF0A04495F950305F1C4F
:1097B0003FD0C3F3C20101F110020DEB020103F02F
:1097C000070211F80C7C06FA02F21742D9B203F034
:1097D0003F002ED0830003F1A04306FA00F7D3F830
:1097E0000027D3F800C72CF4403CC3F800C7C2F3ED
:1097F0000142D3F800E7022A0CBF4FF4403C4FF47B
:10980000003C4CEA0E0CC3F800C72B18C4F82075B6
:1098100093F9303055F823305BB18909032900F002
:109820005481022A00F04E81032A02D1022900F05D
:109830004C8195F95130581C3FD0C3F3C20101F15E
:1098400010020DEB020103F0070211F80C7C06FA7E
:1098500002F21742D9B203F03F002ED0830003F189
:10986000A04306FA00F7D3F80027D3F800C72CF47A
:10987000403CC3F800C7C2F30142D3F800E7022A14
:109880000CBF4FF4403C4FF4003C4CEA0E0CC3F8C4
:1098900000C72B18C4F8207593F9303055F82330E1
:1098A0005BB18909032900F01581022A00F00F81BC
:1098B000032A02D1022900F00D8195F95230591C7A
:1098C0003FD0C3F3C20101F110020DEB020103F01E
:1098D000070211F80C7C06FA02F21742D9B203F023
:1098E0003F002ED0830003F1A04306FA00F7D3F81F
:1098F0000027D3F800C72CF4403CC3F800C7C2F3DC
:109900000142D3F800C7022A0CBF4FF4403E4FF487
:10991000003E4CEA0E0CC3F800C72B18C4F82075A3
:1099200093F9303055F823305BB18909032900F0F1
:10993000D680022A00F0D080032A02D1022900F04A
:10994000CE8095F953305A1C3CD0C3F3C20101F1CB
:1099500010020DEB020103F0070211F80C7C06FA6D
:1099600002F21742D9B203F03F002BD0830003F17B
:10997000A04306FA00F7D3F80027D3F800C72CF469
:10998000403CC3F800C7C2F30142D3F800C7022A23
:109990000CBF4FF4403E4FF4003E4CEA0E0CC3F8AF
:1099A00000C72B18C4F8207593F9303055F82330D0
:1099B00043B1890903297BD0022A77D0032A01D138
:1099C000022975D0D4F820350193C4F82035002B36
:1099D0007FF4EBAE05B0F0BDD3F8042351067FF55C
:1099E00092AE0022C3F81821D3F818310293029BDB
:1099F00046F0400687E6D3F8042390067FF57DAE57
:109A00000022C3F81421D3F814310293029B46F0CC
:109A1000200672E6D3F80423D4067FF568AE002250
:109A2000C3F81021D3F810310293029B46F01006C0
:109A30005DE6D3F8042315077FF553AE0022C3F883
:109A40000C21D3F80C310293029B46F0080648E63D
:109A5000D3F8042357077FF53EAE0022C3F8082150
:109A6000D3F808310293029B46F0040633E600BFA8
:109A7000402A0020D3F8042392077FF526AE002267
:109A8000C3F80421D3F804310293029B46F0020686
:109A90001BE6D2F8046316F001063FF410AEC2F8DC
:109AA0000031D2F800310293029B08E6012989D1E6
:109AB0009847D4F820350193C4F82035002B7FF463
:109AC00074AE87E701297FF4B4AE9847B1E6012967
:109AD0007FF4F3AE9847F0E601297FF432AF984760
:109AE0002FE70022C3F87C21D3F87C2103924FF0AA
:109AF000A043039AD3F820250192C3F82025002E15
:109B00003FF44FAE2EE600BF014B1B68184700BF65
:109B10009C2A0020114B98421DD110B582B0002321
:109B20000DF107008DF807300C46FDF783FF0C4B55
:109B30001A794AB99DF807001C6001221A71FDF7D5
:109B40009FFF002002B010BD9DF80700FDF798FFB1
:109B5000112002B010BD0020704700BF002000405F
:109B60009C2A0020034B984203D1034B00221A6029
:109B70001A717047002000409C2A0020000000005D
:109B800010B5714AD2F8043399058AB068D5D2F875
:109B90002431002B64D00023C2F82431D2F82431C0
:109BA00001934FF40171694B0198C2F8081393F8BF
:109BB000291009B901215160634902228DF818204A
:109BC000D1F88024C1F880249FED5D7B9969D86825
:109BD0000790CDE9081283ED067BD3E9001206A8B1
:109BE0009047594AD2F81C31C3B1584B5869196A89
:109BF00088426AD993F8281001F0FF00002964D147
:109C0000C2F81C01D2F81C11039103999C68186AD0
:109C1000196A205C01311962C2F81C054A4AD2F85F
:109C20004431DBB10021494BC2F84411D2F8440160
:109C300093F829100090009809B1012111609A69E8
:109C400062B1D8685C6A00210122CDE907049961FC
:109C50008DF8182006A8D3E9001290470AB010BD6D
:109C6000394AD2F804335B07BBD5D2F80831002B50
:109C7000B7D0364B996900293ED00021C2F80811AF
:109C8000D2F8081104910499D868596AD2F81825B5
:109C900042545A6A996901325A625A6A8A42A0D178
:109CA000DA691968002A30D0D8689A611A695C6A42
:109CB0000790DA60002001220894D86158625C683D
:109CC0008DF8182006A8A0478BE71F4A0020C2F88D
:109CD0001C01D2F81C210292029A5A69002A9DD0D6
:109CE000D3E901215C698DF81800CDE907145861AA
:109CF000196806A8904791E7C2F80811D2F8080140
:109D000005900598D2F81825C7E793F8292012B9CD
:109D10000D4A012050600C4A4FF40170C2F808034C
:109D2000586ADA6800249C610124CDE907205B6849
:109D30008DF8184006A8984753E700BFAFF300809E
:109D4000000000000000000000200040A82A0020C1
:109D50002DE9F041604F06792C2303FB067382B096
:109D600093F82A30002B40F08B8005460C460068A3
:109D70005A499046FFF7CEFE00287DD12368591C32
:109D80000CD04FF0A041012202FA03F3C1F80835CC
:109D9000236803F5E073032241F8232063685A1C0B
:109DA00006D003F5E0734FF0A042002142F82310E3
:109DB0002B68A269C3F82425227D637D13432A689A
:109DC000C2F86C35D4E900122B68C3F81425C3F827
:109DD0000C15237D012B5CD02C2306FB03F3FA1812
:109DE000C2F804802269FA50B8F1000F2DD02B6818
:109DF000227F0021C3F81C11D3F81C310093009B73
:109E00002B68C3F84411D3F844310193019B2B68AC
:109E10003349C3F804132B6843F307335201002B73
:109E2000D2B231DB03F1604303F5614383F80023D1
:109E30002B6843F30732002A08DB2A49540901231F
:109E400002F01F02934041F824302B680422C3F82B
:109E500000252C2303FB06F606F1180200233E44DE
:109E6000B918BB5001224B6086F82930736186F81F
:109E70002A2002B0BDE8F081112002B0BDE8F081D7
:109E8000082002B0BDE8F081174903F00F03CA545F
:109E9000CEE7A368591C06D003F5E0734FF0A0424B
:109EA000002142F82310E3685A1C0DD04FF0A04166
:109EB000012202FA03F3C1F80835E36803F5E07301
:109EC000032241F82320E3682A68A168C2F8083514
:109ED000C2F8101580E700BFA82A0020819B02006D
:109EE0008000020000E100E014ED00E0F8B5036836
:109EF0000679314C0022C3F800252C2303FB0643CE
:109F00005B68B3B103682D4AC3F80823036843F3C1
:109F10000732002A0EDB5309294D2033012102F0BC
:109F20001F0201FA02F245F82320BFF34F8FBFF35F
:109F30006F8F0368D3F80CC5D3F81475D3F80815E0
:109F4000D3F810554FF0FF32C3F81425C3F80C2591
:109F500003689445C3F80825C3F8102506D00CF50E
:109F6000E07C4FF0A043022243F82C207B1C06D05B
:109F700007F5E0774FF0A043022243F827206A1C40
:109F800006D005F5E0754FF0A043022243F82520E6
:109F90004B1C06D04FF0A04301F5E071022243F8BC
:109FA00021200068FFF7DEFD2C2303FB064400237D
:109FB00084F82A306360F8BDA82A002084020200D9
:109FC00000E100E02DE9F041334C90F804E02C234F
:109FD00003FB0E438446586984B000284ED15A6171
:109FE0009960186283F82800DCF80020C2F81C0190
:109FF000D2F81C210292029ADCF800200121916023
:10A00000DCF800209D68C2F81C01D2F81C110191F7
:10A010000199196A6E5C196A01311962C2F81C65EE
:10A020005A6812B104B0BDE8F0815E691A6ADCF8C2
:10A03000001096421BD9074602E093F828200ABB7D
:10A04000D1F81C21002AF8D0C1F81C71D1F81C21CC
:10A050000392039A1A6A15F802801A6A01321A6288
:10A06000C1F81C851A6A9642EAD8DCF80010D1F8CB
:10A070001C31002BFBD00123CB6004E0112004B085
:10A08000BDE8F0810F202C2303FB0E4300225A6110
:10A0900004B0BDE8F08100BFA82A00200000000045
:10A0A000F0B5594BD3F824218BB0002A58D00022A8
:10A0B000C3F82421D3F82411049102228DF818202A
:10A0C0000499524AD3F88014C3F880149FED4C7B56
:10A0D0000991D3F83C45D06882ED067BCDE90704B1
:10A0E000D2E9001306A89847474BD3F8442152B150
:10A0F0000021464AC3F84411D3F844019169039002
:10A100000398002960D1404BD3F8202162B1002090
:10A11000C3F82001D3F82021029201213B4A029C7E
:10A12000D9605169002942D1374BD3F85821AAB1DF
:10A130000020C3F85801D3F85811344A019101990D
:10A14000516959B1D3F84C458DF81800D2E9013165
:10A150005061CDE9071406A8116898470BB0F0BD0F
:10A16000D3F810110029BFD0C3F81021D3F8101173
:10A17000264C05910599A169D3F83C058842B3D1D5
:10A18000E569E768A561D4E900167DB3E261D3F81B
:10A19000002222F02002C3F800222369E360012399
:10A1A000CDE907708DF8183006A8B0479CE7D3F8C2
:10A1B0004C458DF81800D2E901315061CDE9071402
:10A1C00006A811689847AFE79FED0D7BD3F83C4593
:10A1D000D0684FF0010CCDE9070482ED067BD2E98F
:10A1E00000138DF818C006A898478CE70123CDE925
:10A1F00007708DF8183006A8B04775E7AFF30080F8
:10A20000000000000000000000200040D82A0020CC
:10A210002DE9F0430779DFF8C48107EBC70308EBAA
:10A22000830387B093F82030002B40F0A3800446CE
:10A230000D46006865499146FFF76CFC002840F028
:10A2400095802B68591C4FEAC7060CD04FF0A041EF
:10A25000012202FA03F3C1F808352B6803F5E07315
:10A26000032241F823206B685A1C06D003F5E073E3
:10A270004FF0A042002142F823102368A969C3F8D7
:10A2800024152B7D6A7D1A432368C3F86C25D5E914
:10A2900000312268C2F80C35C2F814152B7D012B51
:10A2A00071D0F21908EB8203C3F804902B6948F8C7
:10A2B0002230B9F1000F43D021682A7F0023C1F872
:10A2C0001031D1F81011019101992168C1F82031A4
:10A2D000D1F82011029102992168C1F82431D1F8F6
:10A2E0002411039103992168C1F84431D1F8441134
:10A2F000049104992168C1F85831D1F85831059377
:10A30000059B23683249C3F80413236843F30733DA
:10A310005201002BD2B231DB03F1604303F56143FC
:10A3200083F80023216841F30733002B09DB294917
:10A330005D09012203F01F0302FA03F341F82530FF
:10A3400021683E44B60006F118020023464408EB9B
:10A3500002040825C1F8005548F802300122636064
:10A36000736186F8202007B0BDE8F083112007B0A4
:10A37000BDE8F083082007B0BDE8F083164903F07C
:10A380000F03CA54CEE7AB68591C06D003F5E0733F
:10A390004FF0A042002142F82310EB685A1C0DD068
:10A3A0004FF0A041012202FA03F3C1F80835EB682F
:10A3B00003F5E073032241F82320EB682268A968C3
:10A3C000C2F80835C2F810156BE700BFA1A0020063
:10A3D0001003420000E100E014ED00E0D82A002064
:10A3E0002DE9F04105794A4C05EBC50304EB8303E5
:10A3F00001465B68006882B0EE00B3B1454BC0F81F
:10A4000008330B6843F30733002B0EDB5A09DFF8E0
:10A4100008C12032012703F01F0307FA03F34CF8A9
:10A420002230BFF34F8FBFF36F8F731904EB830399
:10A430009A69D0F8003223F02003C0F8003242B10C
:10A440000023C0F84431D0F844310093009B01232D
:10A4500043600023C0F85831D0F858310193019B74
:10A460007319012204EB8303C2609A69D0F8583152
:10A47000002BFBD01AB1D0F84431002BF6D00023CA
:10A48000C0F800350B684FF0FF32D3F80C85D3F8D5
:10A4900014E5D3F80875D3F810C5C3F80C25C3F834
:10A4A00014250B689045C3F80825C3F8102506D07D
:10A4B00008F5E0784FF0A043022243F82820BEF1CF
:10A4C000FF3F06D00EF5E07E4FF0A043022243F896
:10A4D0002E20BCF1FF3F06D00CF5E07C4FF0A043EE
:10A4E000022243F82C207B1C06D007F5E0774FF0C2
:10A4F000A043022243F82720FFF734FB2E4404EB4D
:10A500008604002384F82030636002B0BDE8F08147
:10A51000D82A00201003420000E100E001F0604C66
:10A52000BCF1005F30D170B590F804E0254C0EEB23
:10A53000CE0C04EB8C0C0346DCF8140082B04FEA1E
:10A54000CE05002838D1CCF81420CCF808101A68B1
:10A55000C2F82001D2F820210192019A1A68C2F8AB
:10A560005801D2F858210092009A1A68DCF8146059
:10A57000C2F84415C2F848651A6801219160DCF8F8
:10A5800004201AB102B070BD102070471968D1F8CC
:10A590002021D1F858010243F9D080B90122CA60C4
:10A5A0001A68D2F85831002BFBD0754404EB8504AF
:10A5B0000023636102B070BD112002B070BD0F2096
:10A5C000F3E700BFD82A002072DF704773DF7047BF
:10A5D00076DF70477ADF70477CDF70477FDF704738
:10A5E0008FDF7047B1DF7047FCF762BF08B50378B3
:10A5F00003B108BD054B3B211888FFF7E9FF002890
:10A60000F7D0BDE80840FCF753BF00BF5623002039
:10A610000D2801D0FCF74CBF104B1148C01AC008E0
:10A62000000410B540F003000C460E49FCF7D6FAC2
:10A630000D4B0E491888224601F048FA30F0080206
:10A6400007D043F20202904203D043F2014290420B
:10A6500000D110BDBDE81040FCF72ABF90CD02002C
:10A66000B8CD020074C70200562300205C2B0020E6
:10A6700010B50C4B0C4CE41AE408240444F0030419
:10A6800002203AB1FEF770FC20460849BDE81040B0
:10A69000FCF7A4BAFEF774FC20460549BDE810405B
:10A6A000FCF79CBA90CD0200B8CD020090C7020022
:10A6B000A4C70200FCF7FCBE10B50388212B82B0B2
:10A6C000044613D80F2B0FD9103B112B0CD8DFE801
:10A6D00003F028450B650B0B0B0B0B0B0B0B0B0B3C
:10A6E0000B0B0B1C3B2B05D002B010BD522B5FD0C7
:10A6F000562BF7D1A0881321FFF76AFF0028F3D06B
:10A7000002B0BDE81040FCF7D3BE00238088ADF84E
:10A71000043001A9FFF764FF0028E5D0FCF7C8FE6C
:10A72000E2E72D4B2D482E49C01AC008000440F026
:10A730000300FCF753FA0120FEF716FC0020FEF799
:10A740001FFC284BA1882848198001F0BDF800287B
:10A750003ED1FCF769FE0028C6D0D1E71E4B1F484A
:10A760002249C01AC008000440F00300FCF736FA82
:10A770000120FEF705FC1B4B4FF6FF721A80FCF719
:10A7800069FE10BB1A4B01211878FFF71FFFC8B9EB
:10A79000002002B0BDE81040FEF7E6BB114A0023DE
:10A7A000108885211A46FFF719FF00289CD0A7E7DB
:10A7B0000C4A0023108819461A46FFF713FF002899
:10A7C00092D09DE7FCF774FEE2E7FCF771FED9E753
:10A7D000FCF76EFEBDE700BF90CD0200B8CD0200D1
:10A7E000B8C70200562300203C2B0020C4C702003B
:10A7F0005423002000B54FF48041A7B00020FBF7A0
:10A80000B9FE002840F0E380FBF7A4FE0120FEF72C
:10A81000C3FBFDF727F8002840F00981854840F286
:10A8200033320121FCF7A4FD002840F0FD80FEF743
:10A83000F7F8002840F0F58001F0F0F9002840F02A
:10A84000ED80002317A90120179301F043FA002897
:10A8500040F0E18017A801F0F7FA002840F0D88016
:10A86000112375488DF8203001F0AAFB724982B29D
:10A8700008A8FFF7B1FE002840F0C7800822002199
:10A8800017A801F0A5FB6D4A4FF0C87317A8CDE9D2
:10A890001723FFF79FFE002840F0B480684800218E
:10A8A00000F0FEFE002840F0AA80664B6648179331
:10A8B000002217A9089200F0F5FF002840F09C80C4
:10A8C000624B6348089308A901F098F8002840F00B
:10A8D00090805F4B41F223509B7CADF804003C22FA
:10A8E000002108A88DF8063001F072FB02233C22FB
:10A8F00000218DF8203017A840F20163ADF8223016
:10A9000001F066FB534A01A801231C9052F8041C75
:10A91000ADF86C3008A800F011F9002866D14E4A55
:10A9200017A891680C3200F009F900285BD11822B1
:10A93000002102A801F04CFB00230122ADF81430E5
:10A9400003934FF480738DF80820ADF81C30424912
:10A950004248402302AA0493FFF736FE00283FD165
:10A960001C22002117A801F033FB4FF4A024002380
:10A970003B493C4AADF86A30CDE917344FF0030C3F
:10A980004FF4A03417A8CDE91C1219948DF868C0B3
:10A990008DF86C3000F00EFCF8B9334B3348344975
:10A9A000C01AC008000440F00300FCF717F92B4B55
:10A9B00001211878FFF70AFE60B90020FEF7D4FAEB
:10A9C000FBF728FE0028FBD1FEF740F8F8E7FCF77C
:10A9D0006FFD19E7FCF76CFDEFE7FCF769FDDCE7BD
:10A9E000FCF766FDBCE7FCF763FDA0E7FCF760FD44
:10A9F00095E7FCF75DFD6CE7FCF75AFD60E7FCF7B7
:10AA000057FD52E7FCF754FD48E7FCF751FD35E7E9
:10AA1000FCF74EFD24E7FCF74BFD1BE7FCF748FD78
:10AA20000FE7FCF745FD07E7FCF742FDFFE6FCF703
:10AA30003FFDF3E63C230020D4C702005000A000F5
:10AA4000482B0020E9A502003C2B002071A6020043
:10AA50005C2B0020482300204423002054230020A6
:10AA6000EDA50200B5A6020090CD0200B8CD02000F
:10AA7000E4C702006DDF704779DF70477DDF704704
:10AA800064DF70472DE9F04F85B098460E9D03882E
:10AA9000BDF83C9016462A880192002B3CD0002736
:10AAA00004468A46BB4602E022885A452ADD616890
:10AAB00051F82B00039000220DF10B0103A80BF1BC
:10AAC000010BFFF7DDFF40BB9DF80B20B242EBD13D
:10AAD0002A88501C02EB060C0DF10B0180B20CF120
:10AAE000020EEFB1CC4525DC424403A80127FFF755
:10AAF000C7FF90B929889DF80B200A442A80228834
:10AB00005A45D4DC47B12B88019A013B9B1A9BB272
:10AB1000FF2B0FD808F80230002005B0BDE8F08FF9
:10AB2000CE4507DC288008F800A02A88013292B2BE
:10AB30002A80D9E70C2005B0BDE8F08F2DE9F04759
:10AB400000231788138090F82D3086B014460646EF
:10AB50000D46002B40F0C980B278002A40F0F68004
:10AB6000F278A2B1D91CB94200F288810221E954DD
:10AB7000238801210B449BB22380E95423880B4492
:10AB80009BB22380EA5423880B449BB223807268D3
:10AB9000AAB192F90010DA1CBA4200F26F810222C7
:10ABA000EA54238801339BB20A222380EA54238883
:10ABB00001339BB22380E9542388013323803389F6
:10ABC000002B40F0E580338A002B40F0FB80338B74
:10ABD000002B40F09381336A002B42D02088821DE5
:10ABE000BA4200F24B811A88052A40F281816FF443
:10ABF000486802EB080189B24FF27D3C614540F2A2
:10AC000077815988052940F273816FF4486E8E442C
:10AC10001FFA8EFEE64540F26B814FF6FF7C6245DF
:10AC200002D08A4200F2648105222A54228801322D
:10AC300092B212212280A9542288013292B222803B
:10AC40001988A9542A44090A51702288023292B202
:10AC500022805B88AB542A441B0A5370238802333A
:10AC60002380736A002B31D09988B4F800C0881C07
:10AC70000CF102020244BA4200F20081FE2800F206
:10AC8000FD80033105F80C102288013292B2FF21B9
:10AC90002280A9542288013292B222801988A954B4
:10ACA0002A44090A51702088023080B220809A8894
:10ACB00062B199680393002900F01A81284401F0D9
:10ACC00071F9039B9A8823881344238096F82C30CB
:10ACD000002B40F091803378002B40F0D5804FF06E
:10ACE0000008404606B0BDE8F087082F40F2C68055
:10ACF00004A8FFF7BFFE80460028F2D1238808226F
:10AD0000EA54238801339BB21B222380EA54208813
:10AD1000013080B2062220800DF11101284401F09B
:10AD200041F923889DF8102006339BB2012A88BF81
:10AD30000122238094BF05F80380EA54238801335D
:10AD40009BB22380B278002A3FF40AAF0433BB429F
:10AD500000F2948004A8FFF78FFE80460028C0D13F
:10AD600023880322EA54238801339BB219222380CB
:10AD7000EA542388BDF8102001339BB22380EA54A3
:10AD80002B44120A5A70238802339BB22380E7E6D1
:10AD9000022206F10809CDE900472B461146484634
:10ADA000FFF770FE804600289BD1CDE9004748465A
:10ADB0002B4610220621FFF765FE804600283FF44F
:10ADC00002AF8EE706F11009CDE900472B460222BB
:10ADD00003214846FFF756FE8046002881D1CDE981
:10ADE000004748462B4610220721FFF74BFE8046BE
:10ADF00000283FF4ECAE74E7B16A002978D04FF038
:10AE000000094B464FF0160A2CE02388E8542388AB
:10AE100001339BB2238005F803A0238801339BB242
:10AE2000238031F82220EA542B44120A5A702088D9
:10AE3000023080B22080B8F80420284452B1D8F8FB
:10AE40000810002954D001F0ADF8B8F80420238888
:10AE50001344238096F82C205FFA89F39A427FF6F8
:10AE60003AAFB16A03EB430201EB820809F1010931
:10AE7000B8F80430D81C0233FE2BC6D94FF00C08AA
:10AE8000404606B0BDE8F0873288012A30D02288DB
:10AE9000901CB842F2D8012B04D1737802331344CA
:10AEA0009F42EBD3023FBF1ABFB2284404A9ADF8BA
:10AEB0001070FFF7E3FD804600287FF412AF327870
:10AEC000BDF81030022A34D0717899423AD39F42AB
:10AED00031D23B4608212288581CA85422880132CE
:10AEE00092B22280A9542288013213442380F6E6CC
:10AEF0004FF00708404606B0BDE8F08706F1180994
:10AF0000CDE900472B46022214214846FFF7BAFD3F
:10AF1000804600287FF4E5AECDE9004748462B4641
:10AF200010221521FFF7AEFD804600283FF453AEF6
:10AF3000D7E69F4203D30921FE2BCCD99EE73B469F
:10AF40000821F9E7012AFAD18F42C2D30B46082122
:10AF5000F2E700BF75DF704776DF70477ADF704732
:10AF60007BDF704770B51D4D2B8884B2A34282B041
:10AF700011D11B4E297A327B91420ED3337C0022B1
:10AF80002A72F3B9736933B100228DF80420ADF849
:10AF9000064001A8984702B070BD05F10A011846A5
:10AFA000FFF7D8FF40B11128F5D0B369002BF2D0DC
:10AFB00002B0BDE8704018472B7A01332B7202B003
:10AFC00070BD3B212046FFF7C7FF30F00803D9D002
:10AFD000B369002BD6D09847D4E700BF982B002048
:10AFE0007C2B00202DE9F0410288122A82B0034612
:10AFF00071D016D8102A31D0112A0FD16A4C82880C
:10B0000023889A420AD16068FCF7D6FC18B1674BD6
:10B010009B6903B198474FF6FF73238002B0BDE8E8
:10B02000F081502AFAD1614DC188EA899142F5D167
:10B03000028A022AF2D15C4C828826889642EDD19F
:10B04000123000F0A5F9002800F09880637A002BF8
:10B0500040F09B80D5E9013132466AE090F80FC09C
:10B060008288BCF1010FD9D14F4C20884FF6FF7177
:10B0700088427CD14E4E4D4D228003CEC4F80A004A
:10B08000C4F80E10588A6689B4F80C80E189EF89FB
:10B090004FF0000E864284F808E05CD880455AD311
:10B0A00040F2F316B1429B8A94BF481A881B98421B
:10B0B00051D8314499424ED384F809C0002FADD104
:10B0C0006B69002BAAD001218DF80410ADF8062081
:10B0D00001A89847A2E7344C8288218891429DD1EB
:10B0E00040896689B4F80CC0E58986421CD884453D
:10B0F0001AD340F2F316B5429B8994BF681BA81B74
:10B10000984211D835449D420ED3284B5B694FF4C9
:10B1100080722281002B81D001228DF80420ADF8AD
:10B12000061001A8984779E7204D002161726B68ED
:10B13000A968207A002808BF19466068FCF7E0FB80
:10B1400000283FF46BAFAB69002B3FF467AF02B050
:10B15000BDE8F041184784F809E0002F7FF45EAFA6
:10B1600069686068FCF7CCFB0028ECD156E70F4B10
:10B170009B69002B3FF452AF0420E8E76068FCF7BE
:10B180001BFC00283FF44AAFDDE76B690022227206
:10B19000002B3FF443AF01228DF80420ADF8066088
:10B1A00001A898473AE700BF982B00207C2B00208D
:10B1B000742B002070B3F8B586460768164E174DFD
:10B1C0000446BEE80F00B446ACE80F009EE8070056
:10B1D00035608CE80700BFB13846FFF7BFFE90B975
:10B1E00023681868596803C50D4B0E490E4A184666
:10B1F0004FF6FF7440F8041F00211C80FCF768FB29
:10B20000002818BF0320F8BD2846FFF7A9FE002834
:10B21000EAD0F8BD0E2070477C2B0020742B002054
:10B22000982B0020B02B002065AF02002DE9F04FD5
:10B230000388B0F80490103B99B007460A2B12D847
:10B24000DFE803F0287111111111111111781400A8
:10B2500046484946FCF72EFE45484946FCF72AFE7B
:10B26000FB7B022B7CD019B0BDE8F08F037A4148FC
:10B270003F2B4FEA1314494665D9FCF71BFE3E48A5
:10B280004946FCF717FE3D48494619B0BDE8F04F66
:10B29000FCF710BE3A4A9368DB4300935168684656
:10B2A000FCF740FE009B0193019B9BB34FF000080D
:10B2B0004446214601A8FCF715FE30B118AB03EB5C
:10B2C000480308F1010823F8284C0134142CF0D16C
:10B2D000CDF834800DAD0FCD02AC0FC40FCD0FC42F
:10B2E00095E8070084E80700B8F1000F12D0254E5A
:10B2F0000DF10A0B4FF0000A3BF8025F1C4C204690
:10B3000029460434FCF7E2FDA642F8D10AF1010A0D
:10B31000C245F1D1B9F1130F9AD90420FCF7C8F84E
:10B3200019B0BDE8F08F1148494619B0BDE8F04F9B
:10B33000FCF7CCBD037A002B95D1437A0D481B074F
:10B340004946F2D5A1E7FCF7C1FD032C97D00A4886
:10B350004946FCF7BBFD022C95D008484946E4E776
:10B3600009484946FCF7A6FD7DE700BFD82B002021
:10B37000D42B0020E82B0020E42B0020E02B002021
:10B38000D02B00204C2C0020DC2B0020AADF7047A3
:10B39000008800F001007047F0B58B7891B0012B68
:10B3A00038BF01230C468DF80E3005460B88ADF8EA
:10B3B0000C30164600210322684600F009FE637C2B
:10B3C0000022013B8DF80020042B09D8DFE813F0A0
:10B3D000CF00D300D7000500DB0012238DF800302A
:10B3E000A37C0022013B8DF80120042B09D8DFE863
:10B3F00013F0CE00D200D6000500BA0012238DF85B
:10B400000130237D217B013303F0030341EA430133
:10B41000E37B41EAC301237C41EA03119DF802303A
:10B4200001F01F0123F01F0319438DF802101C22A5
:10B43000002109A800F0CCFD637B13F0300F71D11F
:10B44000637B8DF824301422A37B8DF825300021F6
:10B4500004A800F0BDFDA288A368ADF81C2003AAD3
:10B46000CDF814D004921BB10893E388ADF81830DE
:10B47000A369002B34D001AF03220021384600F02D
:10B48000A7FDA2691188ADF82C1000238DF80430B7
:10B490005388ADF82E3053680D970A93137B013B08
:10B4A000042B2BD8DFE803F093979B278700122308
:10B4B0008DF80530917B137A013101F0030143EAE5
:10B4C0004103917AD27A43EAC10343EA02139DF819
:10B4D000062003F01F0322F01F0213438DF80630ED
:10B4E000E36903B10C93334604AA09A92846FFF780
:10B4F0004DFF11B0F0BD12238DF80430537B0021B5
:10B50000013B8DF80510042BD4D801A151F823F08C
:10B51000BFB50200C7B50200AFB50200AFB402006C
:10B52000A7B5020002AF03220021384600F050FD0B
:10B53000E37C0022013B8DF80920042B07D8DFE8CB
:10B5400003F0525E5A03560012238DF809309DF81D
:10B550000A300E97012262F342038DF80A3011235C
:10B560008DF808306CE722238DF8013049E711236C
:10B570008DF8003034E721238DF8003030E7312397
:10B580008DF800302CE722238DF8003028E71123B6
:10B590008DF8013035E721238DF8013031E7312373
:10B5A0008DF801302DE722238DF8053082E7312315
:10B5B0008DF805307EE722238DF804309EE71123B5
:10B5C0008DF8053076E721238DF8053072E71123D9
:10B5D0008DF8043092E721238DF804308EE7312373
:10B5E0008DF804308AE711238DF80930AFE7222364
:10B5F0008DF80930ABE731238DF80930A7E7212317
:10B600008DF80930A3E700BF90DF7047A5DF7047D2
:10B61000B5DF704770B5002484B061F30F040023D8
:10B6200061F31F446A4602A90294064603930093FD
:10B63000ADF80430FFF7E8FF044610B9204604B027
:10B6400070BD124B124DED1AED08FDF779FA2D047D
:10B6500045F0010503460F4932462846FBF7FCF842
:10B66000BDF80020BDF8023052EA030103D00A49B8
:10B670002846FBF7F1F8BDF80420002ADED0284662
:10B680000649FBF7CDF9204604B070BD90CD02000D
:10B69000D8CD0200FCC7020048C8020088C80200DA
:10B6A00080B14FF01712002301614FF01B0C41F6DF
:10B6B0001B31026080F804C0C0F8062043818181FC
:10B6C000184670470E2070478288002A3CD110B57A
:10B6D0000388242B82B00C4611D80F2B30D9103B95
:10B6E000142B2DD8DFE803F06E932C2C2C2C2C2C53
:10B6F0002C2C2C2C2C2C2C2C2C2C2C9D82003A2BE2
:10B7000043D0552B1CD1C388C988A272172B38BFD0
:10B7100017238B4228BF0B4623811046FFF778FF83
:10B72000002840F08980E37A53B9236943B140F699
:10B73000772122890091ADF8042069462046984778
:10B74000A37A5BB902B010BD7047112840F08F801A
:10B75000237B627B01219A42A17242D3E1880020BF
:10B76000FFF754FF48B31128ECD0FDF7E9F9474B38
:10B770004749024647481B1ADB081B0443F00100F7
:10B7800002B0BDE81040FBF74BB94389C988226974
:10B790008B4228BF0B46172B38BF172323814AB192
:10B7A000E17A39B140F677210091ADF8043069466D
:10B7B0002046904700236381C4E74FF48073638180
:10B7C00002B010BD0B790B73C27B012A42D0022A52
:10B7D00030D14988E18022898A423ED3627B9A42F5
:10B7E000AED219460020FFF715FFA9E70B69027AD0
:10B7F0004A73002BA4D000204DF67A218DF8050065
:10B8000000918DF8042069462046984798E74FF04C
:10B810001711002241F61B33C4F806106281A38180
:10B8200090E7017A237B994228BF19460020FFF751
:10B83000F1FE85E7C988CEE7FDF782F9134B16497B
:10B84000024614481B1ADB081B0443F00100FBF7F7
:10B85000E7F868E70988E180BDE70020FFF7D6FE3A
:10B8600000287FF472AF0122237BE272B6E7FDF776
:10B8700067F9064B0649024606481B1ADB081B04FB
:10B8800043F00100FBF7CCF8237BA7E7D8CD0200FB
:10B89000E0C8020090CD020014C90200B0DF70477A
:10B8A00066DF704760B159B10378DE2B0AD00968B2
:10B8B0004160DE224FF6FF73027043800020704724
:10B8C0000E2070470820704738B10378DE2B02D174
:10B8D000418000207047082070470E20704700BF4D
:10B8E000F9B170B5054684B050B10B78DE2B0C462B
:10B8F00006D180884B88984214D02B88012B01D028
:10B9000004B070BD2E7A012EFAD16388A8889842BF
:10B91000F6D126720021FFF7C3FF00284DD1207217
:10B92000EEE770470B7AEBB92B88112B34D0512BF3
:10B93000E4D1AB79022BE3D1AA7B02F0FD0104290B
:10B940002ED0052ADCD100226946C1E901220092ED
:10B95000CA608DF80030FFF7A1FF0028D0D06368DF
:10B960009847CDE70021FFF79BFF034670B11128F0
:10B970000BD0636898472B88112B09D0512BBDD170
:10B98000A88863888342D4D0BAE701232372F2E700
:10B99000AA8863889A42B3D14FF6FF736380AFE7FA
:10B9A00069460022C1E901220092CA604FF4C072C8
:10B9B0008DF80030ADF80420CDE7112804D063687D
:10B9C00004B0BDE870401847267299E7A8DF7047B9
:10B9D000AEDF704762DF70470288502A00D07047A0
:10B9E000B0F806C04A889445F9D1028A012AF6D1F6
:10B9F0004B69002BF3D0827C8088184730B5324BDE
:10BA00000A68426104460FCB8FB00DF1080C8CE838
:10BA10000F0004F112016046FFF7DCFF08B10FB020
:10BA200030BDA07C8DF8060041F22353224601A9C7
:10BA30000120ADF80430FFF7C9FF0028EFD101461F
:10BA4000202206A800F0C4FA9DF82530A17C8DF8CC
:10BA50001A10224623F0120343F0120341F224513C
:10BA60008DF82530ADF8181001234FF0011532F88C
:10BA70000A0B8DF8293006A98DF82B300795FFF7B2
:10BA80008BFC0028CBD10146202206A800F0A0FAAA
:10BA90009DF82530A07C8DF81A00224641F22551F0
:10BAA00023F00A0343F00A03ADF8181032F8020B32
:10BAB000079506A940F20114ADF829408DF825300C
:10BAC000FFF76AFC0FB030BD54C9020070B588B0F2
:10BAD0000D468DF807201022044601260DEB0200CA
